{
  "_format": "hh-sol-artifact-1",
  "contractName": "PaymentTracker",
  "sourceName": "contracts/PaymentTracker.sol",
  "abi": [
    {
      "inputs": [
        {
          "internalType": "address",
          "name": "_invoiceToken",
          "type": "address"
        },
        {
          "internalType": "address",
          "name": "_feeCollector",
          "type": "address"
        }
      ],
      "stateMutability": "nonpayable",
      "type": "constructor"
    },
    {
      "anonymous": false,
      "inputs": [
        {
          "indexed": true,
          "internalType": "uint256",
          "name": "invoiceId",
          "type": "uint256"
        },
        {
          "indexed": true,
          "internalType": "address",
          "name": "investor",
          "type": "address"
        },
        {
          "indexed": false,
          "internalType": "uint256",
          "name": "amount",
          "type": "uint256"
        }
      ],
      "name": "InvestorPaid",
      "type": "event"
    },
    {
      "anonymous": false,
      "inputs": [
        {
          "indexed": true,
          "internalType": "uint256",
          "name": "invoiceId",
          "type": "uint256"
        },
        {
          "indexed": false,
          "internalType": "uint256",
          "name": "unpaidAmount",
          "type": "uint256"
        }
      ],
      "name": "InvoiceDefaulted",
      "type": "event"
    },
    {
      "anonymous": false,
      "inputs": [
        {
          "indexed": true,
          "internalType": "uint256",
          "name": "invoiceId",
          "type": "uint256"
        },
        {
          "indexed": false,
          "internalType": "uint256",
          "name": "totalAmount",
          "type": "uint256"
        }
      ],
      "name": "InvoiceSettled",
      "type": "event"
    },
    {
      "anonymous": false,
      "inputs": [
        {
          "indexed": true,
          "internalType": "uint256",
          "name": "invoiceId",
          "type": "uint256"
        },
        {
          "indexed": true,
          "internalType": "uint256",
          "name": "paymentId",
          "type": "uint256"
        },
        {
          "indexed": false,
          "internalType": "uint256",
          "name": "amount",
          "type": "uint256"
        },
        {
          "indexed": false,
          "internalType": "address",
          "name": "payer",
          "type": "address"
        }
      ],
      "name": "PaymentReceived",
      "type": "event"
    },
    {
      "anonymous": false,
      "inputs": [
        {
          "indexed": true,
          "internalType": "uint256",
          "name": "invoiceId",
          "type": "uint256"
        },
        {
          "indexed": false,
          "internalType": "uint256",
          "name": "expectedAmount",
          "type": "uint256"
        },
        {
          "indexed": false,
          "internalType": "uint256",
          "name": "dueDate",
          "type": "uint256"
        }
      ],
      "name": "PaymentScheduleCreated",
      "type": "event"
    },
    {
      "anonymous": false,
      "inputs": [
        {
          "indexed": true,
          "internalType": "uint256",
          "name": "invoiceId",
          "type": "uint256"
        },
        {
          "indexed": false,
          "internalType": "enum PaymentTracker.PaymentStatus",
          "name": "newStatus",
          "type": "uint8"
        }
      ],
      "name": "PaymentStatusUpdated",
      "type": "event"
    },
    {
      "anonymous": false,
      "inputs": [
        {
          "indexed": true,
          "internalType": "uint256",
          "name": "invoiceId",
          "type": "uint256"
        },
        {
          "indexed": false,
          "internalType": "uint256",
          "name": "recoveredAmount",
          "type": "uint256"
        }
      ],
      "name": "RecoveryRecorded",
      "type": "event"
    },
    {
      "anonymous": false,
      "inputs": [
        {
          "indexed": true,
          "internalType": "uint256",
          "name": "invoiceId",
          "type": "uint256"
        },
        {
          "indexed": false,
          "internalType": "uint256",
          "name": "totalDistributed",
          "type": "uint256"
        },
        {
          "indexed": false,
          "internalType": "uint256",
          "name": "feeCollected",
          "type": "uint256"
        }
      ],
      "name": "ReturnsDistributed",
      "type": "event"
    },
    {
      "anonymous": false,
      "inputs": [
        {
          "indexed": true,
          "internalType": "bytes32",
          "name": "role",
          "type": "bytes32"
        },
        {
          "indexed": true,
          "internalType": "bytes32",
          "name": "previousAdminRole",
          "type": "bytes32"
        },
        {
          "indexed": true,
          "internalType": "bytes32",
          "name": "newAdminRole",
          "type": "bytes32"
        }
      ],
      "name": "RoleAdminChanged",
      "type": "event"
    },
    {
      "anonymous": false,
      "inputs": [
        {
          "indexed": true,
          "internalType": "bytes32",
          "name": "role",
          "type": "bytes32"
        },
        {
          "indexed": true,
          "internalType": "address",
          "name": "account",
          "type": "address"
        },
        {
          "indexed": true,
          "internalType": "address",
          "name": "sender",
          "type": "address"
        }
      ],
      "name": "RoleGranted",
      "type": "event"
    },
    {
      "anonymous": false,
      "inputs": [
        {
          "indexed": true,
          "internalType": "bytes32",
          "name": "role",
          "type": "bytes32"
        },
        {
          "indexed": true,
          "internalType": "address",
          "name": "account",
          "type": "address"
        },
        {
          "indexed": true,
          "internalType": "address",
          "name": "sender",
          "type": "address"
        }
      ],
      "name": "RoleRevoked",
      "type": "event"
    },
    {
      "inputs": [],
      "name": "DEFAULT_ADMIN_ROLE",
      "outputs": [
        {
          "internalType": "bytes32",
          "name": "",
          "type": "bytes32"
        }
      ],
      "stateMutability": "view",
      "type": "function"
    },
    {
      "inputs": [],
      "name": "MANAGER_ROLE",
      "outputs": [
        {
          "internalType": "bytes32",
          "name": "",
          "type": "bytes32"
        }
      ],
      "stateMutability": "view",
      "type": "function"
    },
    {
      "inputs": [],
      "name": "ORACLE_ROLE",
      "outputs": [
        {
          "internalType": "bytes32",
          "name": "",
          "type": "bytes32"
        }
      ],
      "stateMutability": "view",
      "type": "function"
    },
    {
      "inputs": [
        {
          "internalType": "uint256",
          "name": "amount",
          "type": "uint256"
        }
      ],
      "name": "adminWithdraw",
      "outputs": [],
      "stateMutability": "nonpayable",
      "type": "function"
    },
    {
      "inputs": [
        {
          "internalType": "uint256",
          "name": "invoiceId",
          "type": "uint256"
        }
      ],
      "name": "autoSettle",
      "outputs": [
        {
          "internalType": "bool",
          "name": "success",
          "type": "bool"
        }
      ],
      "stateMutability": "nonpayable",
      "type": "function"
    },
    {
      "inputs": [
        {
          "internalType": "uint256",
          "name": "invoiceId",
          "type": "uint256"
        },
        {
          "internalType": "uint256",
          "name": "expectedAmount",
          "type": "uint256"
        },
        {
          "internalType": "uint256",
          "name": "dueDate",
          "type": "uint256"
        },
        {
          "internalType": "uint256",
          "name": "gracePeriod",
          "type": "uint256"
        },
        {
          "internalType": "address",
          "name": "debtor",
          "type": "address"
        }
      ],
      "name": "createPaymentSchedule",
      "outputs": [
        {
          "internalType": "bool",
          "name": "",
          "type": "bool"
        }
      ],
      "stateMutability": "nonpayable",
      "type": "function"
    },
    {
      "inputs": [
        {
          "internalType": "uint256",
          "name": "invoiceId",
          "type": "uint256"
        }
      ],
      "name": "distributeReturns",
      "outputs": [
        {
          "internalType": "uint256",
          "name": "totalDistributed",
          "type": "uint256"
        }
      ],
      "stateMutability": "nonpayable",
      "type": "function"
    },
    {
      "inputs": [],
      "name": "feeCollector",
      "outputs": [
        {
          "internalType": "address",
          "name": "",
          "type": "address"
        }
      ],
      "stateMutability": "view",
      "type": "function"
    },
    {
      "inputs": [
        {
          "internalType": "uint256",
          "name": "invoiceId",
          "type": "uint256"
        }
      ],
      "name": "getInvoiceDistributions",
      "outputs": [
        {
          "components": [
            {
              "internalType": "uint256",
              "name": "invoiceId",
              "type": "uint256"
            },
            {
              "internalType": "address",
              "name": "investor",
              "type": "address"
            },
            {
              "internalType": "uint256",
              "name": "amount",
              "type": "uint256"
            },
            {
              "internalType": "uint256",
              "name": "timestamp",
              "type": "uint256"
            },
            {
              "internalType": "bool",
              "name": "success",
              "type": "bool"
            }
          ],
          "internalType": "struct PaymentTracker.Distribution[]",
          "name": "distributions",
          "type": "tuple[]"
        }
      ],
      "stateMutability": "view",
      "type": "function"
    },
    {
      "inputs": [
        {
          "internalType": "uint256",
          "name": "invoiceId",
          "type": "uint256"
        }
      ],
      "name": "getInvoicePayments",
      "outputs": [
        {
          "components": [
            {
              "internalType": "uint256",
              "name": "paymentId",
              "type": "uint256"
            },
            {
              "internalType": "uint256",
              "name": "invoiceId",
              "type": "uint256"
            },
            {
              "internalType": "uint256",
              "name": "amount",
              "type": "uint256"
            },
            {
              "internalType": "address",
              "name": "payer",
              "type": "address"
            },
            {
              "internalType": "enum PaymentTracker.PaymentMethod",
              "name": "method",
              "type": "uint8"
            },
            {
              "internalType": "string",
              "name": "externalRef",
              "type": "string"
            },
            {
              "internalType": "uint256",
              "name": "timestamp",
              "type": "uint256"
            },
            {
              "internalType": "bool",
              "name": "processed",
              "type": "bool"
            }
          ],
          "internalType": "struct PaymentTracker.Payment[]",
          "name": "payments",
          "type": "tuple[]"
        }
      ],
      "stateMutability": "view",
      "type": "function"
    },
    {
      "inputs": [
        {
          "internalType": "uint256",
          "name": "invoiceId",
          "type": "uint256"
        }
      ],
      "name": "getPaymentSchedule",
      "outputs": [
        {
          "internalType": "uint256",
          "name": "expectedAmount",
          "type": "uint256"
        },
        {
          "internalType": "uint256",
          "name": "dueDate",
          "type": "uint256"
        },
        {
          "internalType": "uint256",
          "name": "gracePeriod",
          "type": "uint256"
        },
        {
          "internalType": "address",
          "name": "debtor",
          "type": "address"
        },
        {
          "internalType": "enum PaymentTracker.PaymentStatus",
          "name": "status",
          "type": "uint8"
        },
        {
          "internalType": "bool",
          "name": "settled",
          "type": "bool"
        }
      ],
      "stateMutability": "view",
      "type": "function"
    },
    {
      "inputs": [
        {
          "internalType": "bytes32",
          "name": "role",
          "type": "bytes32"
        }
      ],
      "name": "getRoleAdmin",
      "outputs": [
        {
          "internalType": "bytes32",
          "name": "",
          "type": "bytes32"
        }
      ],
      "stateMutability": "view",
      "type": "function"
    },
    {
      "inputs": [
        {
          "internalType": "address",
          "name": "user",
          "type": "address"
        }
      ],
      "name": "getUserInvoices",
      "outputs": [
        {
          "internalType": "uint256[]",
          "name": "result",
          "type": "uint256[]"
        }
      ],
      "stateMutability": "view",
      "type": "function"
    },
    {
      "inputs": [
        {
          "internalType": "bytes32",
          "name": "role",
          "type": "bytes32"
        },
        {
          "internalType": "address",
          "name": "account",
          "type": "address"
        }
      ],
      "name": "grantRole",
      "outputs": [],
      "stateMutability": "nonpayable",
      "type": "function"
    },
    {
      "inputs": [
        {
          "internalType": "uint256",
          "name": "invoiceId",
          "type": "uint256"
        },
        {
          "internalType": "uint256",
          "name": "recoveryAmount",
          "type": "uint256"
        }
      ],
      "name": "handleDefault",
      "outputs": [
        {
          "internalType": "bool",
          "name": "success",
          "type": "bool"
        }
      ],
      "stateMutability": "nonpayable",
      "type": "function"
    },
    {
      "inputs": [
        {
          "internalType": "bytes32",
          "name": "role",
          "type": "bytes32"
        },
        {
          "internalType": "address",
          "name": "account",
          "type": "address"
        }
      ],
      "name": "hasRole",
      "outputs": [
        {
          "internalType": "bool",
          "name": "",
          "type": "bool"
        }
      ],
      "stateMutability": "view",
      "type": "function"
    },
    {
      "inputs": [
        {
          "internalType": "uint256",
          "name": "",
          "type": "uint256"
        },
        {
          "internalType": "uint256",
          "name": "",
          "type": "uint256"
        }
      ],
      "name": "invoiceDistributions",
      "outputs": [
        {
          "internalType": "uint256",
          "name": "invoiceId",
          "type": "uint256"
        },
        {
          "internalType": "address",
          "name": "investor",
          "type": "address"
        },
        {
          "internalType": "uint256",
          "name": "amount",
          "type": "uint256"
        },
        {
          "internalType": "uint256",
          "name": "timestamp",
          "type": "uint256"
        },
        {
          "internalType": "bool",
          "name": "success",
          "type": "bool"
        }
      ],
      "stateMutability": "view",
      "type": "function"
    },
    {
      "inputs": [
        {
          "internalType": "uint256",
          "name": "",
          "type": "uint256"
        },
        {
          "internalType": "uint256",
          "name": "",
          "type": "uint256"
        }
      ],
      "name": "invoicePayments",
      "outputs": [
        {
          "internalType": "uint256",
          "name": "paymentId",
          "type": "uint256"
        },
        {
          "internalType": "uint256",
          "name": "invoiceId",
          "type": "uint256"
        },
        {
          "internalType": "uint256",
          "name": "amount",
          "type": "uint256"
        },
        {
          "internalType": "address",
          "name": "payer",
          "type": "address"
        },
        {
          "internalType": "enum PaymentTracker.PaymentMethod",
          "name": "method",
          "type": "uint8"
        },
        {
          "internalType": "string",
          "name": "externalRef",
          "type": "string"
        },
        {
          "internalType": "uint256",
          "name": "timestamp",
          "type": "uint256"
        },
        {
          "internalType": "bool",
          "name": "processed",
          "type": "bool"
        }
      ],
      "stateMutability": "view",
      "type": "function"
    },
    {
      "inputs": [
        {
          "internalType": "uint256",
          "name": "",
          "type": "uint256"
        },
        {
          "internalType": "uint256",
          "name": "",
          "type": "uint256"
        }
      ],
      "name": "invoiceRecoveries",
      "outputs": [
        {
          "internalType": "uint256",
          "name": "invoiceId",
          "type": "uint256"
        },
        {
          "internalType": "uint256",
          "name": "recoveredAmount",
          "type": "uint256"
        },
        {
          "internalType": "uint256",
          "name": "timestamp",
          "type": "uint256"
        },
        {
          "internalType": "string",
          "name": "notes",
          "type": "string"
        },
        {
          "internalType": "bool",
          "name": "processed",
          "type": "bool"
        }
      ],
      "stateMutability": "view",
      "type": "function"
    },
    {
      "inputs": [],
      "name": "invoiceToken",
      "outputs": [
        {
          "internalType": "contract InvoiceToken",
          "name": "",
          "type": "address"
        }
      ],
      "stateMutability": "view",
      "type": "function"
    },
    {
      "inputs": [
        {
          "internalType": "uint256",
          "name": "",
          "type": "uint256"
        }
      ],
      "name": "invoiceTotalPaid",
      "outputs": [
        {
          "internalType": "uint256",
          "name": "",
          "type": "uint256"
        }
      ],
      "stateMutability": "view",
      "type": "function"
    },
    {
      "inputs": [
        {
          "internalType": "uint256",
          "name": "invoiceId",
          "type": "uint256"
        }
      ],
      "name": "makeCryptoPayment",
      "outputs": [
        {
          "internalType": "bool",
          "name": "success",
          "type": "bool"
        }
      ],
      "stateMutability": "payable",
      "type": "function"
    },
    {
      "inputs": [
        {
          "internalType": "uint256",
          "name": "",
          "type": "uint256"
        }
      ],
      "name": "paymentSchedules",
      "outputs": [
        {
          "internalType": "uint256",
          "name": "invoiceId",
          "type": "uint256"
        },
        {
          "internalType": "uint256",
          "name": "expectedAmount",
          "type": "uint256"
        },
        {
          "internalType": "uint256",
          "name": "dueDate",
          "type": "uint256"
        },
        {
          "internalType": "uint256",
          "name": "gracePeriod",
          "type": "uint256"
        },
        {
          "internalType": "address",
          "name": "debtor",
          "type": "address"
        },
        {
          "internalType": "enum PaymentTracker.PaymentStatus",
          "name": "status",
          "type": "uint8"
        },
        {
          "internalType": "uint256",
          "name": "createdAt",
          "type": "uint256"
        },
        {
          "internalType": "uint256",
          "name": "lastUpdated",
          "type": "uint256"
        },
        {
          "internalType": "bool",
          "name": "settled",
          "type": "bool"
        }
      ],
      "stateMutability": "view",
      "type": "function"
    },
    {
      "inputs": [],
      "name": "platformFeePercentage",
      "outputs": [
        {
          "internalType": "uint256",
          "name": "",
          "type": "uint256"
        }
      ],
      "stateMutability": "view",
      "type": "function"
    },
    {
      "inputs": [
        {
          "internalType": "uint256",
          "name": "invoiceId",
          "type": "uint256"
        },
        {
          "internalType": "uint256",
          "name": "amount",
          "type": "uint256"
        },
        {
          "internalType": "address",
          "name": "payer",
          "type": "address"
        },
        {
          "internalType": "enum PaymentTracker.PaymentMethod",
          "name": "method",
          "type": "uint8"
        },
        {
          "internalType": "string",
          "name": "externalRef",
          "type": "string"
        }
      ],
      "name": "recordPayment",
      "outputs": [
        {
          "internalType": "uint256",
          "name": "paymentId",
          "type": "uint256"
        }
      ],
      "stateMutability": "nonpayable",
      "type": "function"
    },
    {
      "inputs": [
        {
          "internalType": "bytes32",
          "name": "role",
          "type": "bytes32"
        },
        {
          "internalType": "address",
          "name": "account",
          "type": "address"
        }
      ],
      "name": "renounceRole",
      "outputs": [],
      "stateMutability": "nonpayable",
      "type": "function"
    },
    {
      "inputs": [
        {
          "internalType": "bytes32",
          "name": "role",
          "type": "bytes32"
        },
        {
          "internalType": "address",
          "name": "account",
          "type": "address"
        }
      ],
      "name": "revokeRole",
      "outputs": [],
      "stateMutability": "nonpayable",
      "type": "function"
    },
    {
      "inputs": [
        {
          "internalType": "address",
          "name": "newFeeCollector",
          "type": "address"
        }
      ],
      "name": "setFeeCollector",
      "outputs": [],
      "stateMutability": "nonpayable",
      "type": "function"
    },
    {
      "inputs": [
        {
          "internalType": "address",
          "name": "newInvoiceToken",
          "type": "address"
        }
      ],
      "name": "setInvoiceToken",
      "outputs": [],
      "stateMutability": "nonpayable",
      "type": "function"
    },
    {
      "inputs": [
        {
          "internalType": "uint256",
          "name": "newFeePercentage",
          "type": "uint256"
        }
      ],
      "name": "setPlatformFee",
      "outputs": [],
      "stateMutability": "nonpayable",
      "type": "function"
    },
    {
      "inputs": [
        {
          "internalType": "bytes4",
          "name": "interfaceId",
          "type": "bytes4"
        }
      ],
      "name": "supportsInterface",
      "outputs": [
        {
          "internalType": "bool",
          "name": "",
          "type": "bool"
        }
      ],
      "stateMutability": "view",
      "type": "function"
    },
    {
      "inputs": [
        {
          "internalType": "uint256",
          "name": "invoiceId",
          "type": "uint256"
        }
      ],
      "name": "updatePaymentStatus",
      "outputs": [
        {
          "internalType": "enum PaymentTracker.PaymentStatus",
          "name": "status",
          "type": "uint8"
        }
      ],
      "stateMutability": "nonpayable",
      "type": "function"
    },
    {
      "stateMutability": "payable",
      "type": "receive"
    }
  ],
  "bytecode": "0x6080346200027e576200358b90601f38839003908101601f19168201906001600160401b038211838310176200028357808391604095869485528339810103126200027e576200004f8162000299565b6200005e602080930162000299565b6001600081815560646009559290916001600160a01b03918216919082156200023a5716908115620001f65760018060a01b031990816002541617600255600a541617600a55818052808352838220338352835260ff848320541615620001bf575b7f241ecf16d79d0f8dbfb92cbc07fe17840425976cf0667f022fe9877caa831b08808352818452848320338452845260ff85842054161562000186575b507f68e79a7bf1e0bc45d0a330c573bc367f9cf464fd326078812f301165fbda4ef192838352818152848320338452815260ff8584205416156200014b575b84516132bc9081620002af8239f35b83835281815284832090338452528382209060ff1982541617905533916000805160206200356b833981519152339280a4388080806200013c565b80835281845284832033845284528483208260ff19825416179055339033906000805160206200356b8339815191528580a438620000fd565b81805280835283822033835283528382208160ff198254161790553333836000805160206200356b8339815191528180a4620000c0565b855162461bcd60e51b815260048101869052601d60248201527f496e76616c69642066656520636f6c6c6563746f7220616464726573730000006044820152606490fd5b865162461bcd60e51b815260048101879052601d60248201527f496e76616c696420696e766f69636520746f6b656e20616464726573730000006044820152606490fd5b600080fd5b634e487b7160e01b600052604160045260246000fd5b51906001600160a01b03821682036200027e5756fe608080604052600436101561001d575b50361561001b57600080fd5b005b60003560e01c90816301ffc9a714611de65750806307b8ad681461188b57806307e2cea5146118505780630c6286b3146117dd57806312e8e2c31461177f57806317ec243314611753578063248a9ca31461172457806324d3b3e2146116245780632f2ff15d1461157157806336568abe146114df578063464b5391146114b65780635bb518f81461148e57806369c54a52146111645780637c279b06146111355780637c5b4a37146110a957806386acb21214610f9057806391d1485414610f435780639cfe9fe614610f1d578063a217fddf14610f01578063a42dce8014610eb6578063a61f727214610e6b578063a8b5179614610dce578063b153b5dc14610d18578063b9ad2f91146109e3578063ba2967ca1461060e578063bc63c17114610468578063c415b95c1461043f578063cdd78cfc14610421578063d547741f146103e2578063db1a75b01461035d578063ec87621c146103345763f71b42071461018a573861000f565b3461032f5760208060031936011261032f57600435600052600481526040600020908154916101b88361270c565b926101c66040519485611fb1565b8084528284018092600052836000206000915b8383106102a25750505050604051918083019381845251809452604083019360408160051b85010192916000955b8287106102145785850386f35b909192938280600192603f19898203018552875190815181528282015183820152604082015160408201526060858060a01b038184015116908201526080808301519061026082611e97565b82015260e08061028060a08086015190610100809187015285019061209d565b9360c08082015190850152015115159101529601920196019592919092610207565b6007866001926040999899516102b781611f44565b855481528486015483820152600286015460408201526003860154858060a01b038116606083015260ff908160a091821c166102f281611e97565b608084015261030360048901611fd4565b90830152600587015460c0830152600687015416151560e08201528152019201920191909594956101d9565b600080fd5b3461032f57600036600319011261032f5760206040516000805160206132478339815191528152f35b3461032f5761036b36611e65565b906000526005602052604060002090815481101561032f5761038c91611e7b565b5080546001820154916103d660028201549160ff60046103ae60038401611fd4565b920154169260405195869586526020860152604085015260a0606085015260a084019061209d565b90151560808301520390f35b3461032f57604036600319011261032f5761001b600435610401611e4f565b9080600052600160205261041c6001604060002001546123df565b6124ed565b3461032f57600036600319011261032f576020600954604051908152f35b3461032f57600036600319011261032f57600a546040516001600160a01b039091168152602090f35b3461032f5760208060031936011261032f57600435806000526003825261049560406000205415156127f2565b60005260038152604060002090604051906104af82611f0d565b8254825260019283810154928281019384526002820154936040820194855260038301546060830190815260018060a01b038060048601541692608085019384526005860160405180828a8294549384815201906000528a600020928d60005b8d8382106105f6575050505061052792500382611fb1565b60a086015260068601986040518091898c5492838152019b600052896000209160005b8181106105e357505050506105638160c09b0382611fb1565b8986015261014060ff600a8160078a0154169861057f8a611e97565b8960e08a015260088101546101008a015260098101546101208a0152015416950194151585525196519151925116926105b785611e97565b51151594604051968752860152604085015260608401526105d781611e97565b608083015260a0820152f35b83548e529c8b019c92820192820161054a565b86548a1685529582019587955090930192810161050f565b3461032f5760a036600319011261032f576044356001600160a01b038116810361032f576007606435101561032f576001600160401b036084351161032f5736602360843501121561032f57610669608435600401356120c2565b6106766040519182611fb1565b6004608435908101358083523691016024011161032f5760843560040135602460843501602083013760006020608435600401358301015260043560005260036020526106c960406000205415156127f2565b6106d6602435151561283b565b60043560005260036020526040600020600460205260406000205491604051926106ff84611f44565b8352600435602084015260243560408401526001600160a01b038416606084015261072b606435611e97565b606435608084015260a08301524260c0830152600060e0830152600435600052600460205260406000208054600160401b8110156109b75761077291600182018155611eb7565b9390936109cd578251845560208301516001850155604083015160028501556003840160018060a01b0360608501511681549060808601516107b381611e97565b6107bc81611e97565b6001600160a81b03199092161760a091821b60ff60a01b161790915583015180519094906001600160401b0381116109b7576020956107fe6004840154611ed3565b601f8111610979575b508690601f831160011461090757610856939291600091836108fc575b50508160011b916000199060031b1c19161760048201555b60c08501516005820155600660e0860151151591016124dc565b600435600052600784526040600020610872602435825461258c565b905582516040805160243581526001600160a01b039093168684015290916004359160008051602061326783398151915291a36108b06004356128a5565b50600260ff6007830154166108c481611e97565b1490816108ec575b506108db575b51604051908152f35b6108e6600435612b19565b506108d2565b60ff9150600a01541615836108cc565b015190508880610824565b9060048401600052876000209160005b601f198516811061096257509183916001936108569695601f19811610610949575b505050811b01600482015561083c565b015160001960f88460031b161c19169055888080610939565b919289600181928685015181550194019201610917565b6109a7906004850160005288600020601f850160051c8101918a86106109ad575b601f0160051c0190612723565b87610807565b909150819061099a565b634e487b7160e01b600052604160045260246000fd5b634e487b7160e01b600052600060045260246000fd5b3461032f576109f136611e65565b906109fa6120dd565b806000526003602052610a1360406000205415156127f2565b8060005260036020526040600020600560ff600783015416610a3481611e97565b03610cd357610a4a60ff600a8301541615612ea2565b60405192610a5784611f29565b828452602084018181526040850142815260405190610a7582611f7b565b601082526f44656661756c74207265636f7665727960801b6020830152606087019182526000608088015285600052600560205260406000208054600160401b8110156109b757610acb91600182018155611e7b565b9390936109cd57875184555160018401555160028301555180519095906001600160401b0381116109b757610b036003840154611ed3565b601f8111610c9e575b506020601f8211600114610c1f579260046080600a969484610b5995600198610c089d600092610c14575b505081891b916000199060031b1c19161760038501555b0151151591016124dc565b8460005260076020526040600020610b7282825461258c565b9055847f78ea0f18095fbf65dc236fa07e5e9a8b9309967eb8a1fe3503d63ed13582c44b602060ff199360068560078a015416176007890155426009890155604051908152a284600080516020613227833981519152602060405160068152a2828401541617910155806000526007602052806000805160206131a78339815191526020604060002054604051908152a2612ee8565b50602060405160018152f35b015190508d80610b37565b6003840160005260206000209760005b601f1984168110610c8657506080600a9694600185610c089c829996600496610b5999601f19811610610c6d575b505050811b016003850155610b4e565b015160001960f88460031b161c191690558d8080610c5d565b828201518a5560019099019860209283019201610c2f565b610ccd90600385016000526020600020601f840160051c810191602085106109ad57601f0160051c0190612723565b87610b0c565b60405162461bcd60e51b815260206004820152601d60248201527f496e766f696365206e6f7420696e2064656661756c74207374617475730000006044820152606490fd5b3461032f57610d2636611e65565b906000526004602052604060002090815481101561032f57610d4791611eb7565b5080546001820154916002810154610dbd600383015460ff8160a01c16610d7060048601611fd4565b9160ff60066005880154970154169460405198899889526020890152604088015260018060a01b03166060870152610da781611e97565b60808601526101008060a087015285019061209d565b9160c0840152151560e08301520390f35b3461032f57602036600319011261032f57600435600052600360205261012060406000208054906001810154906002810154600382015460018060a01b0360048401541660ff6007850154169160088501549360ff600a600988015497015416966040519889526020890152604088015260608701526080860152610e5281611e97565b60a085015260c084015260e08301521515610100820152f35b3461032f57602036600319011261032f57610e84611e39565b610e8c6122c8565b6001600160a01b0316610ea0811515613148565b600280546001600160a01b031916919091179055005b3461032f57602036600319011261032f57610ecf611e39565b610ed76122c8565b6001600160a01b0316610eeb811515613148565b600a80546001600160a01b031916919091179055005b3461032f57600036600319011261032f57602060405160008152f35b3461032f57602036600319011261032f576020610f3b600435612ee8565b604051908152f35b3461032f57604036600319011261032f57610f5c611e4f565b600435600052600160205260406000209060018060a01b0316600052602052602060ff604060002054166040519015158152f35b3461032f5760208060031936011261032f57600435600052600681526040600020908154610fbd8161270c565b90610fcb6040519283611fb1565b8082528282018094600052836000206000915b8383106110535760408051878152865181890181905289928201908960005b82811061100a5784840385f35b855180518552808301516001600160a01b03168584015260408082015190860152606080820151908601526080908101511515908501529481019460a090930192600101610ffd565b60058660019260405161106581611f29565b85548152848060a01b03858701541683820152600286015460408201526003860154606082015260ff60048701541615156080820152815201920192019190610fde565b3461032f57602036600319011261032f576004356110c56122c8565b4781116110f9576000808080938181156110f0575b3390f1156110e457005b6040513d6000823e3d90fd5b506108fc6110da565b60405162461bcd60e51b8152602060048201526014602482015273496e73756666696369656e742062616c616e636560601b6044820152606490fd5b3461032f57602036600319011261032f5760206111536004356128a5565b6040519061116081611e97565b8152f35b602036600319011261032f57600435600052600360205261118b60406000205415156127f2565b3415156111978161283b565b6111de604051916111a783611f7b565b600a83526911551217d112549150d560b21b602084015260043560005260036020526111d960406000205415156127f2565b61283b565b6004356000526003602052604060002060046020526040600020546040519061120682611f44565b81526020810192600435845260408201348152606083019033825260808401906000825260a085019384524260c0860152600060e0860152600435600052600460205260406000208054600160401b8110156109b75761126b91600182018155611eb7565b9790976109cd5785518855516001880155516002870155905160038601805492519092916001600160a01b0316906112a281611e97565b6112ab81611e97565b6001600160a81b03199092161760a09190911b60ff60a01b161790555180519093906001600160401b0381116109b7576112e86004830154611ed3565b601f8111611459575b506020601f82116001146113e55781906113419495966000926113da575b50508160011b916000199060031b1c19161760048201555b60c08301516005820155600660e0840151151591016124dc565b6004356000526007602052604060002061135c34825461258c565b905551604051348152336020820152600080516020613267833981519152604060043592a361138c6004356128a5565b50600260ff6007830154166113a081611e97565b1490816113ca575b506113b9575b602060405160018152f35b6113c4600435612b19565b506113ae565b60ff9150600a01541615816113a8565b01519050868061130f565b6004830160005260206000209560005b601f19841681106114415750958291611341959697600194601f19811610611428575b505050811b016004820155611327565b015160001960f88460031b161c19169055868080611418565b828201518855600190970196602092830192016113f5565b61148890600484016000526020600020601f840160051c810191602085106109ad57601f0160051c0190612723565b856112f1565b3461032f57602036600319011261032f5760206114ac600435612b19565b6040519015158152f35b3461032f57600036600319011261032f576002546040516001600160a01b039091168152602090f35b3461032f57604036600319011261032f576114f8611e4f565b336001600160a01b038216036115145761001b906004356124ed565b60405162461bcd60e51b815260206004820152602f60248201527f416363657373436f6e74726f6c3a2063616e206f6e6c792072656e6f756e636560448201526e103937b632b9903337b91039b2b63360891b6064820152608490fd5b3461032f57604036600319011261032f5760043561158d611e4f565b8160005260016020526115a76001604060002001546123df565b81600052600160205260406000209060018060a01b0316908160005260205260ff60406000205416156115d657005b8160005260016020526040600020816000526020526040600020600160ff1982541617905533917f2f8788117e7eff1d82e926ec794901d17c78024a50270940304540a733656f0d600080a4005b3461032f5760208060031936011261032f576001600160a01b03611646611e39565b1680600052600880835260406000205461165f8161270c565b9161166d6040519384611fb1565b8183526116798261270c565b8386019490601f190136863760005b8381106116d257868587604051928392818401908285525180915260408401929160005b8281106116bb57505050500390f35b8351855286955093810193928101926001016116ac565b816000528287526116e781604060002061275d565b919054865182101561170e576117099260031b1c888260051b88010152613139565b611688565b634e487b7160e01b600052603260045260246000fd5b3461032f57602036600319011261032f5760043560005260016020526020600160406000200154604051908152f35b3461032f57602036600319011261032f5760043560005260076020526020604060002054604051908152f35b3461032f57602036600319011261032f5760043561179b6122c8565b6103e881116117a957600955005b60405162461bcd60e51b815260206004820152600c60248201526b08ccaca40e8dede40d0d2ced60a31b6044820152606490fd5b3461032f576117eb36611e65565b9060005260066020526040600020805482101561032f5760a09161180e91611e7b565b50805490600180841b0360018201541690600281015460ff60046003840154930154169260405194855260208501526040840152606083015215156080820152f35b3461032f57600036600319011261032f5760206040517f68e79a7bf1e0bc45d0a330c573bc367f9cf464fd326078812f301165fbda4ef18152f35b3461032f5760a036600319011261032f576084356001600160a01b038116810361032f576118b76120dd565b6004356000526003602052604060002054611da15760243515611d4a57426044351115611d0557600254604051631d11e60560e11b8152600480359082015290600090829060249082906001600160a01b03165afa80156110e457600090611bb4575b60e09150015115611b785760405161193181611f60565b6000815260405161194181611f60565b600081526040519161195283611f0d565b600435835260243560208401526044356040840152606435606084015260018060a01b038416608084015260a083015260c0820152600060e0820152426101008201524261012082015260006101408201526004356000526003602052604060002090805182556020810151600183015560408101516002830155606081015160038301556004820160018060a01b0360808301511660018060a01b031982541617905560a081015180519060018060401b0382116109b757600160401b82116109b75760206005850191611a2c8484548186558561273a565b0190600052602060002060005b838110611b5b575050505060c081015180519060068401906001600160401b0383116109b757600160401b83116109b757602090611a7c8484548186558561273a565b0190600052602060002060005b838110611b475786611ae387600a610140896007840160e0820151611aad81611e97565b611ab681611e97565b60ff80198354169116179055610100810151600885015561012081015160098501550151151591016124dc565b60018060a01b03166000526008602052611b036004356040600020612775565b50604051602435815260443560208201527fb11df40b7785923a457e78807e54a31f12cb1309d8080cd158d96d2b265d671f604060043592a2602060405160018152f35b600190602084519401938184015501611a89565b82516001600160a01b031681830155602090920191600101611a39565b60405162461bcd60e51b8152602060048201526014602482015273125b9d9bda58d9481b9bdd081d995c9a599a595960621b6044820152606490fd5b503d806000833e611bc58183611fb1565b81019060208183031261032f5780516001600160401b039182821161032f5701916101e091828483031261032f57604051928301838110828211176109b757604052835183526020840151602084015260408401516040840152611c2b606085016126a6565b6060840152611c3c608085016126a6565b608084015260a084015181811161032f5782611c599186016126ba565b60a084015260c084015181811161032f5782611c769186016126ba565b60c0840152611c8760e085016126ff565b60e0840152610100611c9a8186016126ff565b908401526101208085015190840152610140918285015191821161032f57611cc39185016126ba565b90820152610160808301519082015261018080830151908201526101a0918281015160ff8116810361032f5760e0938301526101c0809101519082015261191a565b60405162461bcd60e51b815260206004820152601e60248201527f4475652064617465206d75737420626520696e207468652066757475726500006044820152606490fd5b60405162461bcd60e51b815260206004820152602960248201527f457870656374656420616d6f756e74206d7573742062652067726561746572206044820152687468616e207a65726f60b81b6064820152608490fd5b60405162461bcd60e51b815260206004820152601f60248201527f5061796d656e74207363686564756c6520616c726561647920657869737473006044820152606490fd5b3461032f57602036600319011261032f576004359063ffffffff60e01b821680920361032f57602091637965db0b60e01b8114908115611e28575b5015158152f35b6301ffc9a760e01b14905083611e21565b600435906001600160a01b038216820361032f57565b602435906001600160a01b038216820361032f57565b604090600319011261032f576004359060243590565b805482101561170e576000526005602060002091020190600090565b60071115611ea157565b634e487b7160e01b600052602160045260246000fd5b805482101561170e576000526007602060002091020190600090565b90600182811c92168015611f03575b6020831014611eed57565b634e487b7160e01b600052602260045260246000fd5b91607f1691611ee2565b61016081019081106001600160401b038211176109b757604052565b60a081019081106001600160401b038211176109b757604052565b61010081019081106001600160401b038211176109b757604052565b602081019081106001600160401b038211176109b757604052565b604081019081106001600160401b038211176109b757604052565b608081019081106001600160401b038211176109b757604052565b601f909101601f19168101906001600160401b038211908210176109b757604052565b9060405191826000825492611fe884611ed3565b9081845260019485811690816000146120575750600114612014575b505061201292500383611fb1565b565b9093915060005260209081600020936000915b81831061203f57505061201293508201013880612004565b85548884018501529485019487945091830191612027565b91505061201294506020925060ff191682840152151560051b8201013880612004565b60005b83811061208d5750506000910152565b818101518382015260200161207d565b906020916120b68151809281855285808601910161207a565b601f01601f1916010190565b6001600160401b0381116109b757601f01601f191660200190565b3360009081527ffdb122eb892c6b3193f8499f050265ce5458caab5f6480270d8972921f24f429602090815260408083205490926000805160206132478339815191529160019060ff1615612133575050505050565b61213c336125aa565b9285519161214983611f96565b604283528583019360603686378351156122b4576030855383518210156122b45790607860218501536041915b818311612246575050506122165760486122129386936121f6936121e798519889936000805160206131e78339815191528a8601526121be815180928c60378901910161207a565b8401917001034b99036b4b9b9b4b733903937b6329607d1b60378401525180938684019061207a565b01036028810187520185611fb1565b5192839262461bcd60e51b84526004840152602483019061209d565b0390fd5b60648486519062461bcd60e51b825280600483015260248201526000805160206131878339815191526044820152fd5b909192600f811660108110156122a0576f181899199a1a9b1b9c1cb0b131b232b360811b901a6122768587612599565b5360041c92801561228c57600019019190612176565b634e487b7160e01b82526011600452602482fd5b634e487b7160e01b83526032600452602483fd5b634e487b7160e01b81526032600452602490fd5b3360009081527fa6eef7e35abe7026729641147f7915573c7e97b47efa546f5f6e3230263bcb496020908152604080832054909260019160ff161561230d5750505050565b612316336125aa565b918185519161232483611f96565b604283528583019360603686378351156122b4576030855383518210156122b45790607860218501536041915b818311612399575050506122165760486122129386936121f6936121e798519889936000805160206131e78339815191528a8601526121be815180928c60378901910161207a565b909192600f811660108110156122a0576f181899199a1a9b1b9c1cb0b131b232b360811b901a6123c98587612599565b5360041c92801561228c57600019019190612351565b6000818152600191602091838352604093848220338352845260ff85832054161561240b575050505050565b612414336125aa565b9285519161242183611f96565b604283528583019360603686378351156122b4576030855383518210156122b45790607860218501536041915b818311612496575050506122165760486122129386936121f6936121e798519889936000805160206131e78339815191528a8601526121be815180928c60378901910161207a565b909192600f811660108110156122a0576f181899199a1a9b1b9c1cb0b131b232b360811b901a6124c68587612599565b5360041c92801561228c5760001901919061244e565b9060ff801983541691151516179055565b906000918083526001602052604083209160018060a01b03169182845260205260ff60408420541661251e57505050565b8083526001602052604083208284526020526040832060ff1981541690557ff6391f5c32d9c69d2a47ea670b442974b53935d1edc7fd64eb21e047a839171b339380a4565b8181029291811591840414171561257657565b634e487b7160e01b600052601160045260246000fd5b9190820180921161257657565b90815181101561170e570160200190565b60405190606082016001600160401b038111838210176109b757604052602a825260208201604036823782511561170e5760309053815160019081101561170e57607860218401536029905b8082116126385750506126065790565b606460405162461bcd60e51b815260206004820152602060248201526000805160206131878339815191526044820152fd5b9091600f81166010811015612691576f181899199a1a9b1b9c1cb0b131b232b360811b901a6126678486612599565b5360041c91801561267c5760001901906125f6565b60246000634e487b7160e01b81526011600452fd5b60246000634e487b7160e01b81526032600452fd5b51906001600160a01b038216820361032f57565b81601f8201121561032f5780516126d0816120c2565b926126de6040519485611fb1565b8184526020828401011161032f576126fc916020808501910161207a565b90565b5190811515820361032f57565b6001600160401b0381116109b75760051b60200190565b81811061272e575050565b60008155600101612723565b9181811061274757505050565b6120129260005260206000209182019101612723565b805482101561170e5760005260206000200190600090565b919060018301600090828252806020526040822054156000146127ec57845494600160401b8610156127d8576127b586600160409697980183558261275d565b81549060031b9087821b91600019901b1916179055549382526020522055600190565b634e487b7160e01b83526041600452602483fd5b50925050565b156127f957565b60405162461bcd60e51b815260206004820152601a60248201527914185e5b595b9d081cd8da19591d5b19481b9bdd08199bdd5b9960321b6044820152606490fd5b1561284257565b60405162461bcd60e51b815260206004820152602860248201527f5061796d656e7420616d6f756e74206d7573742062652067726561746572207460448201526768616e207a65726f60c01b6064820152608490fd5b9190820391821161257657565b60008181526003806020526128bf604083205415156127f2565b828252806020526040822090600760205260408320549060ff600a84015416612abe576001830180549091908310612aa45760078401805460ff191660021790555b60078401948554600260ff821661291781611e97565b141580612a97575b612a32575b508554918060ff841661293681611e97565b14612972575b50505050509060ff91600942910155541690600080516020613227833981519152602060405161296b85611e97565b848152a290565b600286015490860154906201518091828102928184041490151715612a1e579061299b9161258c565b9062278d008201809211612a0a57509160ff95949391879342116129c3575b8495965061293c565b7ff632e7549a2b0aee8e4c18743ef9c237f6c638181c4b8dd8b02da89f56c42abe9260209260056129fa938a191617885554612898565b604051908152a2833880806129ba565b634e487b7160e01b81526011600452602490fd5b634e487b7160e01b83526011600452602483fd5b600286015483870154906201518091828102928184041490151715612a8357849291612a5d9161258c565b4211612a77575050855460ff191660041786555b38612924565b60ff1916178655612a71565b634e487b7160e01b84526011600452602484fd5b506002860154421161291f565b82156129015760078401805460ff19166001179055612901565b50506007015460ff1692915050565b15612ad457565b60405162461bcd60e51b815260206004820152601f60248201527f5265656e7472616e637947756172643a207265656e7472616e742063616c6c006044820152606490fd5b612b2860026000541415612acd565b6002600055806000526003602052612b4660406000205415156127f2565b8060005260036020526040600020600a8101805490612b6860ff831615612ea2565b83600052600760205260406000205460018401548110612e645784936000805160206131a783398151915293602093600160ff1980931617905560026007830191825416179055600942910155604051908152a2612bcb60026000541415612acd565b6002600055806000526003602052612be960406000205415156127f2565b80600052600360205260406000209060ff600a8301541615612e295780600052600760205260406000205491612c2f612710612c2760095486612563565b048094612898565b838015801580612e1f575b612def575b505060009460005b6005840154811015612dc157612c60816005860161275d565b905460039190911b1c6001600160a01b031690612710612c93612c86836006890161275d565b90549060031b1c86612563565b0460405192612ca184611f29565b8784528060208501528160408501524260608501526000608085015281151580612db7575b612d5f575b505060008681526006602052604090208054600160401b8110156109b757612cf891600182018155611e7b565b9290926109cd578051835560208101516001840180546001600160a01b0319166001600160a01b0392909216919091179055604081015160028401556060810151600384015560800151612d5a92612d55911515906004016124dc565b613139565b612c47565b909860008a838115612dad575b600092839283928392f1156110e4576000805160206131c78339815191526020612d9e8c8b94600160808a015261258c565b9b604051908152a33880612ccb565b6108fc9250612d6c565b5081471015612cc6565b5094905060409150600080516020613207833981519152929382519182526020820152a26001906001600055565b6000808093819360018060a01b03600a5416908390612e16575bf1156110e4578338612c3f565b506108fc612e09565b5081471015612c3a565b60405162461bcd60e51b8152602060048201526013602482015272125b9d9bda58d9481b9bdd081cd95d1d1b1959606a1b6044820152606490fd5b60405162461bcd60e51b8152602060048201526016602482015275125b9d9bda58d9481b9bdd08199d5b1b1e481c185a5960521b6044820152606490fd5b15612ea957565b60405162461bcd60e51b8152602060048201526017602482015276125b9d9bda58d948185b1c9958591e481cd95d1d1b1959604a1b6044820152606490fd5b612ef760026000541415612acd565b6002600055806000526003602052612f1560406000205415156127f2565b80600052600360205260406000209060ff600a8301541615612e295780600052600760205260406000205491612f53612710612c2760095486612563565b83801580158061312f575b6130ff575b505060009460005b60058401548110156130d357612f84816005860161275d565b905460039190911b1c6001600160a01b031690612710612faa612c86836006890161275d565b0460405192612fb884611f29565b87845280602085015281604085015242606085015260006080850152811515806130c9575b613071575b505060008681526006602052604090208054600160401b8110156109b75761300f91600182018155611e7b565b9290926109cd578051835560208101516001840180546001600160a01b0319166001600160a01b039290921691909117905560408101516002840155606081015160038401556080015161306c92612d55911515906004016124dc565b612f6b565b909860008a8381156130bf575b600092839283928392f1156110e4576000805160206131c783398151915260206130b08c8b94600160808a015261258c565b9b604051908152a33880612fe2565b6108fc925061307e565b5081471015612fdd565b5094936000805160206132078339815191529250604091508151908582526020820152a2906001600055565b6000808093819360018060a01b03600a5416908390613126575bf1156110e4578338612f63565b506108fc613119565b5081471015612f5e565b60001981146125765760010190565b1561314f57565b60405162461bcd60e51b815260206004820152600f60248201526e496e76616c6964206164647265737360881b6044820152606490fdfe537472696e67733a20686578206c656e67746820696e73756666696369656e7403cf45a3e1e0fd704a774e0046fec048a38747c761ca43bd02a7e864fa6cdb46369d5bb25e1d349b2cf7c1131f84c526abb70a0ea35acb13672de0b033931c74416363657373436f6e74726f6c3a206163636f756e7420000000000000000000104d340153d64ef2be46b9e7b5bb20bfce2392b3f9265d6e8264951595adf736ebd5c860ad1b0a1099e13c37fb4f6bc2cdb16ca57058b39960cf269dff3d9c15241ecf16d79d0f8dbfb92cbc07fe17840425976cf0667f022fe9877caa831b082820fa66a65e6dd6cc3ee2a11554367c36a96fe502d1bc111eff97e850cd3aa2a264697066735822122091a3e053a7ab7617e9eb577996b92261abce33cc9687b50809838cacee08030864736f6c634300081400332f8788117e7eff1d82e926ec794901d17c78024a50270940304540a733656f0d",
  "linkReferences": {},
  "deployedLinkReferences": {}
}