{"contracts/SimpleFylaroDeployer.sol":{"SimpleFylaroDeployer":{"abi":[{"inputs":[{"internalType":"address","name":"_stablecoin","type":"address"},{"internalType":"address","name":"_feeCollector","type":"address"},{"internalType":"address","name":"_treasuryWallet","type":"address"}],"stateMutability":"nonpayable","type":"constructor"},{"anonymous":false,"inputs":[{"indexed":false,"internalType":"address","name":"stablecoin","type":"address"},{"indexed":false,"internalType":"address","name":"feeCollector","type":"address"},{"indexed":false,"internalType":"address","name":"treasury","type":"address"}],"name":"ConfigurationUpdated","type":"event"},{"anonymous":false,"inputs":[{"indexed":false,"internalType":"string","name":"contractName","type":"string"},{"indexed":false,"internalType":"address","name":"contractAddress","type":"address"}],"name":"ContractRegistered","type":"event"},{"anonymous":false,"inputs":[{"indexed":true,"internalType":"address","name":"previousOwner","type":"address"},{"indexed":true,"internalType":"address","name":"newOwner","type":"address"}],"name":"OwnershipTransferred","type":"event"},{"inputs":[{"internalType":"string[]","name":"names","type":"string[]"},{"internalType":"address[]","name":"addresses","type":"address[]"}],"name":"batchRegisterContracts","outputs":[],"stateMutability":"nonpayable","type":"function"},{"inputs":[{"internalType":"string","name":"","type":"string"}],"name":"contracts","outputs":[{"internalType":"address","name":"","type":"address"}],"stateMutability":"view","type":"function"},{"inputs":[],"name":"feeCollector","outputs":[{"internalType":"address","name":"","type":"address"}],"stateMutability":"view","type":"function"},{"inputs":[{"internalType":"string","name":"name","type":"string"}],"name":"getContract","outputs":[{"internalType":"address","name":"","type":"address"}],"stateMutability":"view","type":"function"},{"inputs":[],"name":"getEcosystemInfo","outputs":[{"internalType":"address","name":"_stablecoin","type":"address"},{"internalType":"address","name":"_feeCollector","type":"address"},{"internalType":"address","name":"_treasuryWallet","type":"address"},{"internalType":"address","name":"_invoiceToken","type":"address"},{"internalType":"address","name":"_marketplace","type":"address"}],"stateMutability":"view","type":"function"},{"inputs":[],"name":"owner","outputs":[{"internalType":"address","name":"","type":"address"}],"stateMutability":"view","type":"function"},{"inputs":[{"internalType":"string","name":"name","type":"string"},{"internalType":"address","name":"contractAddress","type":"address"}],"name":"registerContract","outputs":[],"stateMutability":"nonpayable","type":"function"},{"inputs":[],"name":"renounceOwnership","outputs":[],"stateMutability":"nonpayable","type":"function"},{"inputs":[],"name":"stablecoin","outputs":[{"internalType":"address","name":"","type":"address"}],"stateMutability":"view","type":"function"},{"inputs":[{"internalType":"address","name":"newOwner","type":"address"}],"name":"transferOwnership","outputs":[],"stateMutability":"nonpayable","type":"function"},{"inputs":[],"name":"treasuryWallet","outputs":[{"internalType":"address","name":"","type":"address"}],"stateMutability":"view","type":"function"},{"inputs":[{"internalType":"address","name":"_stablecoin","type":"address"},{"internalType":"address","name":"_feeCollector","type":"address"},{"internalType":"address","name":"_treasuryWallet","type":"address"}],"name":"updateConfiguration","outputs":[],"stateMutability":"nonpayable","type":"function"}],"devdoc":{"details":"Minimal helper contract for Fylaro ecosystem management","kind":"dev","methods":{"batchRegisterContracts(string[],address[])":{"details":"Batch register contracts"},"constructor":{"details":"Constructor"},"getContract(string)":{"details":"Get contract address by name"},"getEcosystemInfo()":{"details":"Get ecosystem info"},"owner()":{"details":"Returns the address of the current owner."},"registerContract(string,address)":{"details":"Register a deployed contract"},"renounceOwnership()":{"details":"Leaves the contract without owner. It will not be possible to call `onlyOwner` functions anymore. Can only be called by the current owner. NOTE: Renouncing ownership will leave the contract without an owner, thereby removing any functionality that is only available to the owner."},"transferOwnership(address)":{"details":"Transfers ownership of the contract to a new account (`newOwner`). Can only be called by the current owner."},"updateConfiguration(address,address,address)":{"details":"Update configuration"}},"title":"SimpleFylaroDeployer","version":1},"evm":{"bytecode":{"linkReferences":{},"object":"6080346101a657601f610bc338819003918201601f191683019291906001600160401b038411838510176101ab5781606092849260409687528339810103126101a65761004b816101c1565b906100638361005c602084016101c1565b92016101c1565b60008054336001600160a01b03198083168217845587519690956001600160a01b03949093859391908416907f8be0079c531659141344cd1fd0a4f28419497f9722a3daafe3b4186f6b6457e09080a31694851561016f5750811691821561012b57169283156100f4578260025416176002558160035416176003556004541617600455516109ed90816101d68239f35b845162461bcd60e51b815260206004820152601060248201526f496e76616c696420747265617375727960801b6044820152606490fd5b855162461bcd60e51b815260206004820152601560248201527f496e76616c69642066656520636f6c6c6563746f7200000000000000000000006044820152606490fd5b62461bcd60e51b815260206004820152601260248201527124b73b30b634b21039ba30b13632b1b7b4b760711b6044820152606490fd5b600080fd5b634e487b7160e01b600052604160045260246000fd5b51906001600160a01b03821682036101a65756fe6040608081526004908136101561001557600080fd5b600091823560e01c806335817773146104915780634626402b146107525780636e9d98c5146105ed578063715018a6146105a55780637f3c2c28146104f95780638c5b8385146104915780638da5cb5b146104695780638ef768e914610234578063b83828f5146101ae578063c415b95c14610185578063e9cbd822146101585763f2fde38b146100a557600080fd5b34610154576020366003190112610154576100be61080b565b906100c7610871565b6001600160a01b0391821692831561010257505082546001600160a01b0319811683178455166000805160206109788339815191528380a380f35b906020608492519162461bcd60e51b8352820152602660248201527f4f776e61626c653a206e6577206f776e657220697320746865207a65726f206160448201526564647265737360d01b6064820152fd5b8280fd5b50503461018157816003193601126101815760025490516001600160a01b039091168152602090f35b5080fd5b50503461018157816003193601126101815760035490516001600160a01b039091168152602090f35b503461015457826003193601126101545760a09250600180841b038060025416928180600354169354169082602c82516b24b73b37b4b1b2aa37b5b2b760a11b81526001600c82015220541692602b82516a4d61726b6574706c61636560a81b81526001600b820152205416938151958652602086015284015260608301526080820152f35b5082346104665782600319360112610466576001600160401b039282359290848411610154573660238501121561015457838201359461027b6102768761085a565b610779565b809587825260208092016024809960051b8301019136831161043457898101915b83831061043c5750505050863591821161043857366023830112156104385781840135916102cc6102768461085a565b92888385838152019160051b83010191368311610434578901905b828210610411575050506102f9610871565b85518251036103d757845b86518110156103d3576000805160206109988339815191526001600160a01b0361033b81610332858861094d565b511615156108c9565b80610346848761094d565b511661036985610356868d61094d565b51818a5193828580945193849201610837565b60019082019081520301902080546001600160a01b0319169091179055610390838a61094d565b519061039c848761094d565b5116906103ad875192839283610910565b0390a160001981146103c157600101610304565b634e487b7160e01b8652601185528786fd5b8580f35b8360168860649386519362461bcd60e51b855284015282015275082e4e4c2f2e640d8cadccee8d040dad2e6dac2e8c6d60531b6044820152fd5b81356001600160a01b03811681036104305781529083019083016102e7565b8880fd5b8780fd5b8480fd5b823586811161046257859161045783928e36918701016107b4565b81520192019161029c565b8980fd5b80fd5b505034610181578160031936011261018157905490516001600160a01b039091168152602090f35b509134610466576020366003190112610466578235906001600160401b03821161046657506020926104c5913691016107b4565b826104d883519283815193849201610837565b6001908201908152819003830190205490516001600160a01b039091168152f35b50903461015457806003193601126101545781356001600160401b0381116105a15760008051602061099883398151915292610537913691016107b4565b61059b610542610821565b9261054b610871565b6001600160a01b0384166105608115156108c9565b815160208186516105748183858b01610837565b60019082019081520301902080546001600160a01b03191690911790555192839283610910565b0390a180f35b8380fd5b83346104665780600319360112610466576105be610871565b80546001600160a01b03198116825581906001600160a01b03166000805160206109788339815191528280a380f35b5090346101545760603660031901126101545761060861080b565b90610611610821565b926001600160a01b03604435818116949085900361074e578190610633610871565b1694851561071657169081156106db5783156106a557600280546001600160a01b031990811687179091556003805482168417905581541684179055815193845260208401528201527fb3fc5b8fa795a14232efd69faeabfa4d6ae1add7013b9ba01c3ffbda68dc4fba90606090a180f35b606490602084519162461bcd60e51b8352820152601060248201526f496e76616c696420747265617375727960801b6044820152fd5b606490602084519162461bcd60e51b8352820152601560248201527424b73b30b634b2103332b29031b7b63632b1ba37b960591b6044820152fd5b835162461bcd60e51b8152602081850152601260248201527124b73b30b634b21039ba30b13632b1b7b4b760711b6044820152606490fd5b8680fd5b50346101545782600319360112610154575490516001600160a01b03909116815260209150f35b6040519190601f01601f191682016001600160401b0381118382101761079e57604052565b634e487b7160e01b600052604160045260246000fd5b81601f82011215610806578035906001600160401b03821161079e576107e3601f8301601f1916602001610779565b928284526020838301011161080657816000926020809301838601378301015290565b600080fd5b600435906001600160a01b038216820361080657565b602435906001600160a01b038216820361080657565b60005b83811061084a5750506000910152565b818101518382015260200161083a565b6001600160401b03811161079e5760051b60200190565b6000546001600160a01b0316330361088557565b606460405162461bcd60e51b815260206004820152602060248201527f4f776e61626c653a2063616c6c6572206973206e6f7420746865206f776e65726044820152fd5b156108d057565b60405162461bcd60e51b8152602060048201526018602482015277496e76616c696420636f6e7472616374206164647265737360401b6044820152606490fd5b9060606020919493946040845261093581518092816040880152858588019101610837565b601f80199101168301019360018060a01b0316910152565b80518210156109615760209160051b010190565b634e487b7160e01b600052603260045260246000fdfe8be0079c531659141344cd1fd0a4f28419497f9722a3daafe3b4186f6b6457e02a88e68a891ddb61f7aebfdeefd9fb74964fcd5371b692ea59cca73fc58f4805a26469706673582212201c04f50c0dc2ef7bf8f2c0ee64bc5dfcc1d9080417eebc9282078a6a89fa83bc64736f6c63430008140033","opcodes":"PUSH1 0x80 CALLVALUE PUSH2 0x1A6 JUMPI PUSH1 0x1F PUSH2 0xBC3 CODESIZE DUP2 SWAP1 SUB SWAP2 DUP3 ADD PUSH1 0x1F NOT AND DUP4 ADD SWAP3 SWAP2 SWAP1 PUSH1 0x1 PUSH1 0x1 PUSH1 0x40 SHL SUB DUP5 GT DUP4 DUP6 LT OR PUSH2 0x1AB JUMPI DUP2 PUSH1 0x60 SWAP3 DUP5 SWAP3 PUSH1 0x40 SWAP7 DUP8 MSTORE DUP4 CODECOPY DUP2 ADD SUB SLT PUSH2 0x1A6 JUMPI PUSH2 0x4B DUP2 PUSH2 0x1C1 JUMP JUMPDEST SWAP1 PUSH2 0x63 DUP4 PUSH2 0x5C PUSH1 0x20 DUP5 ADD PUSH2 0x1C1 JUMP JUMPDEST SWAP3 ADD PUSH2 0x1C1 JUMP JUMPDEST PUSH1 0x0 DUP1 SLOAD CALLER PUSH1 0x1 PUSH1 0x1 PUSH1 0xA0 SHL SUB NOT DUP1 DUP4 AND DUP3 OR DUP5 SSTORE DUP8 MLOAD SWAP7 SWAP1 SWAP6 PUSH1 0x1 PUSH1 0x1 PUSH1 0xA0 SHL SUB SWAP5 SWAP1 SWAP4 DUP6 SWAP4 SWAP2 SWAP1 DUP5 AND SWAP1 PUSH32 0x8BE0079C531659141344CD1FD0A4F28419497F9722A3DAAFE3B4186F6B6457E0 SWAP1 DUP1 LOG3 AND SWAP5 DUP6 ISZERO PUSH2 0x16F JUMPI POP DUP2 AND SWAP2 DUP3 ISZERO PUSH2 0x12B JUMPI AND SWAP3 DUP4 ISZERO PUSH2 0xF4 JUMPI DUP3 PUSH1 0x2 SLOAD AND OR PUSH1 0x2 SSTORE DUP2 PUSH1 0x3 SLOAD AND OR PUSH1 0x3 SSTORE PUSH1 0x4 SLOAD AND OR PUSH1 0x4 SSTORE MLOAD PUSH2 0x9ED SWAP1 DUP2 PUSH2 0x1D6 DUP3 CODECOPY RETURN JUMPDEST DUP5 MLOAD PUSH3 0x461BCD PUSH1 0xE5 SHL DUP2 MSTORE PUSH1 0x20 PUSH1 0x4 DUP3 ADD MSTORE PUSH1 0x10 PUSH1 0x24 DUP3 ADD MSTORE PUSH16 0x496E76616C6964207472656173757279 PUSH1 0x80 SHL PUSH1 0x44 DUP3 ADD MSTORE PUSH1 0x64 SWAP1 REVERT JUMPDEST DUP6 MLOAD PUSH3 0x461BCD PUSH1 0xE5 SHL DUP2 MSTORE PUSH1 0x20 PUSH1 0x4 DUP3 ADD MSTORE PUSH1 0x15 PUSH1 0x24 DUP3 ADD MSTORE PUSH32 0x496E76616C69642066656520636F6C6C6563746F720000000000000000000000 PUSH1 0x44 DUP3 ADD MSTORE PUSH1 0x64 SWAP1 REVERT JUMPDEST PUSH3 0x461BCD PUSH1 0xE5 SHL DUP2 MSTORE PUSH1 0x20 PUSH1 0x4 DUP3 ADD MSTORE PUSH1 0x12 PUSH1 0x24 DUP3 ADD MSTORE PUSH18 0x24B73B30B634B21039BA30B13632B1B7B4B7 PUSH1 0x71 SHL PUSH1 0x44 DUP3 ADD MSTORE PUSH1 0x64 SWAP1 REVERT JUMPDEST PUSH1 0x0 DUP1 REVERT JUMPDEST PUSH4 0x4E487B71 PUSH1 0xE0 SHL PUSH1 0x0 MSTORE PUSH1 0x41 PUSH1 0x4 MSTORE PUSH1 0x24 PUSH1 0x0 REVERT JUMPDEST MLOAD SWAP1 PUSH1 0x1 PUSH1 0x1 PUSH1 0xA0 SHL SUB DUP3 AND DUP3 SUB PUSH2 0x1A6 JUMPI JUMP INVALID PUSH1 0x40 PUSH1 0x80 DUP2 MSTORE PUSH1 0x4 SWAP1 DUP2 CALLDATASIZE LT ISZERO PUSH2 0x15 JUMPI PUSH1 0x0 DUP1 REVERT JUMPDEST PUSH1 0x0 SWAP2 DUP3 CALLDATALOAD PUSH1 0xE0 SHR DUP1 PUSH4 0x35817773 EQ PUSH2 0x491 JUMPI DUP1 PUSH4 0x4626402B EQ PUSH2 0x752 JUMPI DUP1 PUSH4 0x6E9D98C5 EQ PUSH2 0x5ED JUMPI DUP1 PUSH4 0x715018A6 EQ PUSH2 0x5A5 JUMPI DUP1 PUSH4 0x7F3C2C28 EQ PUSH2 0x4F9 JUMPI DUP1 PUSH4 0x8C5B8385 EQ PUSH2 0x491 JUMPI DUP1 PUSH4 0x8DA5CB5B EQ PUSH2 0x469 JUMPI DUP1 PUSH4 0x8EF768E9 EQ PUSH2 0x234 JUMPI DUP1 PUSH4 0xB83828F5 EQ PUSH2 0x1AE JUMPI DUP1 PUSH4 0xC415B95C EQ PUSH2 0x185 JUMPI DUP1 PUSH4 0xE9CBD822 EQ PUSH2 0x158 JUMPI PUSH4 0xF2FDE38B EQ PUSH2 0xA5 JUMPI PUSH1 0x0 DUP1 REVERT JUMPDEST CALLVALUE PUSH2 0x154 JUMPI PUSH1 0x20 CALLDATASIZE PUSH1 0x3 NOT ADD SLT PUSH2 0x154 JUMPI PUSH2 0xBE PUSH2 0x80B JUMP JUMPDEST SWAP1 PUSH2 0xC7 PUSH2 0x871 JUMP JUMPDEST PUSH1 0x1 PUSH1 0x1 PUSH1 0xA0 SHL SUB SWAP2 DUP3 AND SWAP3 DUP4 ISZERO PUSH2 0x102 JUMPI POP POP DUP3 SLOAD PUSH1 0x1 PUSH1 0x1 PUSH1 0xA0 SHL SUB NOT DUP2 AND DUP4 OR DUP5 SSTORE AND PUSH1 0x0 DUP1 MLOAD PUSH1 0x20 PUSH2 0x978 DUP4 CODECOPY DUP2 MLOAD SWAP2 MSTORE DUP4 DUP1 LOG3 DUP1 RETURN JUMPDEST SWAP1 PUSH1 0x20 PUSH1 0x84 SWAP3 MLOAD SWAP2 PUSH3 0x461BCD PUSH1 0xE5 SHL DUP4 MSTORE DUP3 ADD MSTORE PUSH1 0x26 PUSH1 0x24 DUP3 ADD MSTORE PUSH32 0x4F776E61626C653A206E6577206F776E657220697320746865207A65726F2061 PUSH1 0x44 DUP3 ADD MSTORE PUSH6 0x646472657373 PUSH1 0xD0 SHL PUSH1 0x64 DUP3 ADD MSTORE REVERT JUMPDEST DUP3 DUP1 REVERT JUMPDEST POP POP CALLVALUE PUSH2 0x181 JUMPI DUP2 PUSH1 0x3 NOT CALLDATASIZE ADD SLT PUSH2 0x181 JUMPI PUSH1 0x2 SLOAD SWAP1 MLOAD PUSH1 0x1 PUSH1 0x1 PUSH1 0xA0 SHL SUB SWAP1 SWAP2 AND DUP2 MSTORE PUSH1 0x20 SWAP1 RETURN JUMPDEST POP DUP1 REVERT JUMPDEST POP POP CALLVALUE PUSH2 0x181 JUMPI DUP2 PUSH1 0x3 NOT CALLDATASIZE ADD SLT PUSH2 0x181 JUMPI PUSH1 0x3 SLOAD SWAP1 MLOAD PUSH1 0x1 PUSH1 0x1 PUSH1 0xA0 SHL SUB SWAP1 SWAP2 AND DUP2 MSTORE PUSH1 0x20 SWAP1 RETURN JUMPDEST POP CALLVALUE PUSH2 0x154 JUMPI DUP3 PUSH1 0x3 NOT CALLDATASIZE ADD SLT PUSH2 0x154 JUMPI PUSH1 0xA0 SWAP3 POP PUSH1 0x1 DUP1 DUP5 SHL SUB DUP1 PUSH1 0x2 SLOAD AND SWAP3 DUP2 DUP1 PUSH1 0x3 SLOAD AND SWAP4 SLOAD AND SWAP1 DUP3 PUSH1 0x2C DUP3 MLOAD PUSH12 0x24B73B37B4B1B2AA37B5B2B7 PUSH1 0xA1 SHL DUP2 MSTORE PUSH1 0x1 PUSH1 0xC DUP3 ADD MSTORE KECCAK256 SLOAD AND SWAP3 PUSH1 0x2B DUP3 MLOAD PUSH11 0x4D61726B6574706C616365 PUSH1 0xA8 SHL DUP2 MSTORE PUSH1 0x1 PUSH1 0xB DUP3 ADD MSTORE KECCAK256 SLOAD AND SWAP4 DUP2 MLOAD SWAP6 DUP7 MSTORE PUSH1 0x20 DUP7 ADD MSTORE DUP5 ADD MSTORE PUSH1 0x60 DUP4 ADD MSTORE PUSH1 0x80 DUP3 ADD MSTORE RETURN JUMPDEST POP DUP3 CALLVALUE PUSH2 0x466 JUMPI DUP3 PUSH1 0x3 NOT CALLDATASIZE ADD SLT PUSH2 0x466 JUMPI PUSH1 0x1 PUSH1 0x1 PUSH1 0x40 SHL SUB SWAP3 DUP3 CALLDATALOAD SWAP3 SWAP1 DUP5 DUP5 GT PUSH2 0x154 JUMPI CALLDATASIZE PUSH1 0x23 DUP6 ADD SLT ISZERO PUSH2 0x154 JUMPI DUP4 DUP3 ADD CALLDATALOAD SWAP5 PUSH2 0x27B PUSH2 0x276 DUP8 PUSH2 0x85A JUMP JUMPDEST PUSH2 0x779 JUMP JUMPDEST DUP1 SWAP6 DUP8 DUP3 MSTORE PUSH1 0x20 DUP1 SWAP3 ADD PUSH1 0x24 DUP1 SWAP10 PUSH1 0x5 SHL DUP4 ADD ADD SWAP2 CALLDATASIZE DUP4 GT PUSH2 0x434 JUMPI DUP10 DUP2 ADD SWAP2 JUMPDEST DUP4 DUP4 LT PUSH2 0x43C JUMPI POP POP POP POP DUP7 CALLDATALOAD SWAP2 DUP3 GT PUSH2 0x438 JUMPI CALLDATASIZE PUSH1 0x23 DUP4 ADD SLT ISZERO PUSH2 0x438 JUMPI DUP2 DUP5 ADD CALLDATALOAD SWAP2 PUSH2 0x2CC PUSH2 0x276 DUP5 PUSH2 0x85A JUMP JUMPDEST SWAP3 DUP9 DUP4 DUP6 DUP4 DUP2 MSTORE ADD SWAP2 PUSH1 0x5 SHL DUP4 ADD ADD SWAP2 CALLDATASIZE DUP4 GT PUSH2 0x434 JUMPI DUP10 ADD SWAP1 JUMPDEST DUP3 DUP3 LT PUSH2 0x411 JUMPI POP POP POP PUSH2 0x2F9 PUSH2 0x871 JUMP JUMPDEST DUP6 MLOAD DUP3 MLOAD SUB PUSH2 0x3D7 JUMPI DUP5 JUMPDEST DUP7 MLOAD DUP2 LT ISZERO PUSH2 0x3D3 JUMPI PUSH1 0x0 DUP1 MLOAD PUSH1 0x20 PUSH2 0x998 DUP4 CODECOPY DUP2 MLOAD SWAP2 MSTORE PUSH1 0x1 PUSH1 0x1 PUSH1 0xA0 SHL SUB PUSH2 0x33B DUP2 PUSH2 0x332 DUP6 DUP9 PUSH2 0x94D JUMP JUMPDEST MLOAD AND ISZERO ISZERO PUSH2 0x8C9 JUMP JUMPDEST DUP1 PUSH2 0x346 DUP5 DUP8 PUSH2 0x94D JUMP JUMPDEST MLOAD AND PUSH2 0x369 DUP6 PUSH2 0x356 DUP7 DUP14 PUSH2 0x94D JUMP JUMPDEST MLOAD DUP2 DUP11 MLOAD SWAP4 DUP3 DUP6 DUP1 SWAP5 MLOAD SWAP4 DUP5 SWAP3 ADD PUSH2 0x837 JUMP JUMPDEST PUSH1 0x1 SWAP1 DUP3 ADD SWAP1 DUP2 MSTORE SUB ADD SWAP1 KECCAK256 DUP1 SLOAD PUSH1 0x1 PUSH1 0x1 PUSH1 0xA0 SHL SUB NOT AND SWAP1 SWAP2 OR SWAP1 SSTORE PUSH2 0x390 DUP4 DUP11 PUSH2 0x94D JUMP JUMPDEST MLOAD SWAP1 PUSH2 0x39C DUP5 DUP8 PUSH2 0x94D JUMP JUMPDEST MLOAD AND SWAP1 PUSH2 0x3AD DUP8 MLOAD SWAP3 DUP4 SWAP3 DUP4 PUSH2 0x910 JUMP JUMPDEST SUB SWAP1 LOG1 PUSH1 0x0 NOT DUP2 EQ PUSH2 0x3C1 JUMPI PUSH1 0x1 ADD PUSH2 0x304 JUMP JUMPDEST PUSH4 0x4E487B71 PUSH1 0xE0 SHL DUP7 MSTORE PUSH1 0x11 DUP6 MSTORE DUP8 DUP7 REVERT JUMPDEST DUP6 DUP1 RETURN JUMPDEST DUP4 PUSH1 0x16 DUP9 PUSH1 0x64 SWAP4 DUP7 MLOAD SWAP4 PUSH3 0x461BCD PUSH1 0xE5 SHL DUP6 MSTORE DUP5 ADD MSTORE DUP3 ADD MSTORE PUSH22 0x82E4E4C2F2E640D8CADCCEE8D040DAD2E6DAC2E8C6D PUSH1 0x53 SHL PUSH1 0x44 DUP3 ADD MSTORE REVERT JUMPDEST DUP2 CALLDATALOAD PUSH1 0x1 PUSH1 0x1 PUSH1 0xA0 SHL SUB DUP2 AND DUP2 SUB PUSH2 0x430 JUMPI DUP2 MSTORE SWAP1 DUP4 ADD SWAP1 DUP4 ADD PUSH2 0x2E7 JUMP JUMPDEST DUP9 DUP1 REVERT JUMPDEST DUP8 DUP1 REVERT JUMPDEST DUP5 DUP1 REVERT JUMPDEST DUP3 CALLDATALOAD DUP7 DUP2 GT PUSH2 0x462 JUMPI DUP6 SWAP2 PUSH2 0x457 DUP4 SWAP3 DUP15 CALLDATASIZE SWAP2 DUP8 ADD ADD PUSH2 0x7B4 JUMP JUMPDEST DUP2 MSTORE ADD SWAP3 ADD SWAP2 PUSH2 0x29C JUMP JUMPDEST DUP10 DUP1 REVERT JUMPDEST DUP1 REVERT JUMPDEST POP POP CALLVALUE PUSH2 0x181 JUMPI DUP2 PUSH1 0x3 NOT CALLDATASIZE ADD SLT PUSH2 0x181 JUMPI SWAP1 SLOAD SWAP1 MLOAD PUSH1 0x1 PUSH1 0x1 PUSH1 0xA0 SHL SUB SWAP1 SWAP2 AND DUP2 MSTORE PUSH1 0x20 SWAP1 RETURN JUMPDEST POP SWAP2 CALLVALUE PUSH2 0x466 JUMPI PUSH1 0x20 CALLDATASIZE PUSH1 0x3 NOT ADD SLT PUSH2 0x466 JUMPI DUP3 CALLDATALOAD SWAP1 PUSH1 0x1 PUSH1 0x1 PUSH1 0x40 SHL SUB DUP3 GT PUSH2 0x466 JUMPI POP PUSH1 0x20 SWAP3 PUSH2 0x4C5 SWAP2 CALLDATASIZE SWAP2 ADD PUSH2 0x7B4 JUMP JUMPDEST DUP3 PUSH2 0x4D8 DUP4 MLOAD SWAP3 DUP4 DUP2 MLOAD SWAP4 DUP5 SWAP3 ADD PUSH2 0x837 JUMP JUMPDEST PUSH1 0x1 SWAP1 DUP3 ADD SWAP1 DUP2 MSTORE DUP2 SWAP1 SUB DUP4 ADD SWAP1 KECCAK256 SLOAD SWAP1 MLOAD PUSH1 0x1 PUSH1 0x1 PUSH1 0xA0 SHL SUB SWAP1 SWAP2 AND DUP2 MSTORE RETURN JUMPDEST POP SWAP1 CALLVALUE PUSH2 0x154 JUMPI DUP1 PUSH1 0x3 NOT CALLDATASIZE ADD SLT PUSH2 0x154 JUMPI DUP2 CALLDATALOAD PUSH1 0x1 PUSH1 0x1 PUSH1 0x40 SHL SUB DUP2 GT PUSH2 0x5A1 JUMPI PUSH1 0x0 DUP1 MLOAD PUSH1 0x20 PUSH2 0x998 DUP4 CODECOPY DUP2 MLOAD SWAP2 MSTORE SWAP3 PUSH2 0x537 SWAP2 CALLDATASIZE SWAP2 ADD PUSH2 0x7B4 JUMP JUMPDEST PUSH2 0x59B PUSH2 0x542 PUSH2 0x821 JUMP JUMPDEST SWAP3 PUSH2 0x54B PUSH2 0x871 JUMP JUMPDEST PUSH1 0x1 PUSH1 0x1 PUSH1 0xA0 SHL SUB DUP5 AND PUSH2 0x560 DUP2 ISZERO ISZERO PUSH2 0x8C9 JUMP JUMPDEST DUP2 MLOAD PUSH1 0x20 DUP2 DUP7 MLOAD PUSH2 0x574 DUP2 DUP4 DUP6 DUP12 ADD PUSH2 0x837 JUMP JUMPDEST PUSH1 0x1 SWAP1 DUP3 ADD SWAP1 DUP2 MSTORE SUB ADD SWAP1 KECCAK256 DUP1 SLOAD PUSH1 0x1 PUSH1 0x1 PUSH1 0xA0 SHL SUB NOT AND SWAP1 SWAP2 OR SWAP1 SSTORE MLOAD SWAP3 DUP4 SWAP3 DUP4 PUSH2 0x910 JUMP JUMPDEST SUB SWAP1 LOG1 DUP1 RETURN JUMPDEST DUP4 DUP1 REVERT JUMPDEST DUP4 CALLVALUE PUSH2 0x466 JUMPI DUP1 PUSH1 0x3 NOT CALLDATASIZE ADD SLT PUSH2 0x466 JUMPI PUSH2 0x5BE PUSH2 0x871 JUMP JUMPDEST DUP1 SLOAD PUSH1 0x1 PUSH1 0x1 PUSH1 0xA0 SHL SUB NOT DUP2 AND DUP3 SSTORE DUP2 SWAP1 PUSH1 0x1 PUSH1 0x1 PUSH1 0xA0 SHL SUB AND PUSH1 0x0 DUP1 MLOAD PUSH1 0x20 PUSH2 0x978 DUP4 CODECOPY DUP2 MLOAD SWAP2 MSTORE DUP3 DUP1 LOG3 DUP1 RETURN JUMPDEST POP SWAP1 CALLVALUE PUSH2 0x154 JUMPI PUSH1 0x60 CALLDATASIZE PUSH1 0x3 NOT ADD SLT PUSH2 0x154 JUMPI PUSH2 0x608 PUSH2 0x80B JUMP JUMPDEST SWAP1 PUSH2 0x611 PUSH2 0x821 JUMP JUMPDEST SWAP3 PUSH1 0x1 PUSH1 0x1 PUSH1 0xA0 SHL SUB PUSH1 0x44 CALLDATALOAD DUP2 DUP2 AND SWAP5 SWAP1 DUP6 SWAP1 SUB PUSH2 0x74E JUMPI DUP2 SWAP1 PUSH2 0x633 PUSH2 0x871 JUMP JUMPDEST AND SWAP5 DUP6 ISZERO PUSH2 0x716 JUMPI AND SWAP1 DUP2 ISZERO PUSH2 0x6DB JUMPI DUP4 ISZERO PUSH2 0x6A5 JUMPI PUSH1 0x2 DUP1 SLOAD PUSH1 0x1 PUSH1 0x1 PUSH1 0xA0 SHL SUB NOT SWAP1 DUP2 AND DUP8 OR SWAP1 SWAP2 SSTORE PUSH1 0x3 DUP1 SLOAD DUP3 AND DUP5 OR SWAP1 SSTORE DUP2 SLOAD AND DUP5 OR SWAP1 SSTORE DUP2 MLOAD SWAP4 DUP5 MSTORE PUSH1 0x20 DUP5 ADD MSTORE DUP3 ADD MSTORE PUSH32 0xB3FC5B8FA795A14232EFD69FAEABFA4D6AE1ADD7013B9BA01C3FFBDA68DC4FBA SWAP1 PUSH1 0x60 SWAP1 LOG1 DUP1 RETURN JUMPDEST PUSH1 0x64 SWAP1 PUSH1 0x20 DUP5 MLOAD SWAP2 PUSH3 0x461BCD PUSH1 0xE5 SHL DUP4 MSTORE DUP3 ADD MSTORE PUSH1 0x10 PUSH1 0x24 DUP3 ADD MSTORE PUSH16 0x496E76616C6964207472656173757279 PUSH1 0x80 SHL PUSH1 0x44 DUP3 ADD MSTORE REVERT JUMPDEST PUSH1 0x64 SWAP1 PUSH1 0x20 DUP5 MLOAD SWAP2 PUSH3 0x461BCD PUSH1 0xE5 SHL DUP4 MSTORE DUP3 ADD MSTORE PUSH1 0x15 PUSH1 0x24 DUP3 ADD MSTORE PUSH21 0x24B73B30B634B2103332B29031B7B63632B1BA37B9 PUSH1 0x59 SHL PUSH1 0x44 DUP3 ADD MSTORE REVERT JUMPDEST DUP4 MLOAD PUSH3 0x461BCD PUSH1 0xE5 SHL DUP2 MSTORE PUSH1 0x20 DUP2 DUP6 ADD MSTORE PUSH1 0x12 PUSH1 0x24 DUP3 ADD MSTORE PUSH18 0x24B73B30B634B21039BA30B13632B1B7B4B7 PUSH1 0x71 SHL PUSH1 0x44 DUP3 ADD MSTORE PUSH1 0x64 SWAP1 REVERT JUMPDEST DUP7 DUP1 REVERT JUMPDEST POP CALLVALUE PUSH2 0x154 JUMPI DUP3 PUSH1 0x3 NOT CALLDATASIZE ADD SLT PUSH2 0x154 JUMPI SLOAD SWAP1 MLOAD PUSH1 0x1 PUSH1 0x1 PUSH1 0xA0 SHL SUB SWAP1 SWAP2 AND DUP2 MSTORE PUSH1 0x20 SWAP2 POP RETURN JUMPDEST PUSH1 0x40 MLOAD SWAP2 SWAP1 PUSH1 0x1F ADD PUSH1 0x1F NOT AND DUP3 ADD PUSH1 0x1 PUSH1 0x1 PUSH1 0x40 SHL SUB DUP2 GT DUP4 DUP3 LT OR PUSH2 0x79E JUMPI PUSH1 0x40 MSTORE JUMP JUMPDEST PUSH4 0x4E487B71 PUSH1 0xE0 SHL PUSH1 0x0 MSTORE PUSH1 0x41 PUSH1 0x4 MSTORE PUSH1 0x24 PUSH1 0x0 REVERT JUMPDEST DUP2 PUSH1 0x1F DUP3 ADD SLT ISZERO PUSH2 0x806 JUMPI DUP1 CALLDATALOAD SWAP1 PUSH1 0x1 PUSH1 0x1 PUSH1 0x40 SHL SUB DUP3 GT PUSH2 0x79E JUMPI PUSH2 0x7E3 PUSH1 0x1F DUP4 ADD PUSH1 0x1F NOT AND PUSH1 0x20 ADD PUSH2 0x779 JUMP JUMPDEST SWAP3 DUP3 DUP5 MSTORE PUSH1 0x20 DUP4 DUP4 ADD ADD GT PUSH2 0x806 JUMPI DUP2 PUSH1 0x0 SWAP3 PUSH1 0x20 DUP1 SWAP4 ADD DUP4 DUP7 ADD CALLDATACOPY DUP4 ADD ADD MSTORE SWAP1 JUMP JUMPDEST PUSH1 0x0 DUP1 REVERT JUMPDEST PUSH1 0x4 CALLDATALOAD SWAP1 PUSH1 0x1 PUSH1 0x1 PUSH1 0xA0 SHL SUB DUP3 AND DUP3 SUB PUSH2 0x806 JUMPI JUMP JUMPDEST PUSH1 0x24 CALLDATALOAD SWAP1 PUSH1 0x1 PUSH1 0x1 PUSH1 0xA0 SHL SUB DUP3 AND DUP3 SUB PUSH2 0x806 JUMPI JUMP JUMPDEST PUSH1 0x0 JUMPDEST DUP4 DUP2 LT PUSH2 0x84A JUMPI POP POP PUSH1 0x0 SWAP2 ADD MSTORE JUMP JUMPDEST DUP2 DUP2 ADD MLOAD DUP4 DUP3 ADD MSTORE PUSH1 0x20 ADD PUSH2 0x83A JUMP JUMPDEST PUSH1 0x1 PUSH1 0x1 PUSH1 0x40 SHL SUB DUP2 GT PUSH2 0x79E JUMPI PUSH1 0x5 SHL PUSH1 0x20 ADD SWAP1 JUMP JUMPDEST PUSH1 0x0 SLOAD PUSH1 0x1 PUSH1 0x1 PUSH1 0xA0 SHL SUB AND CALLER SUB PUSH2 0x885 JUMPI JUMP JUMPDEST PUSH1 0x64 PUSH1 0x40 MLOAD PUSH3 0x461BCD PUSH1 0xE5 SHL DUP2 MSTORE PUSH1 0x20 PUSH1 0x4 DUP3 ADD MSTORE PUSH1 0x20 PUSH1 0x24 DUP3 ADD MSTORE PUSH32 0x4F776E61626C653A2063616C6C6572206973206E6F7420746865206F776E6572 PUSH1 0x44 DUP3 ADD MSTORE REVERT JUMPDEST ISZERO PUSH2 0x8D0 JUMPI JUMP JUMPDEST PUSH1 0x40 MLOAD PUSH3 0x461BCD PUSH1 0xE5 SHL DUP2 MSTORE PUSH1 0x20 PUSH1 0x4 DUP3 ADD MSTORE PUSH1 0x18 PUSH1 0x24 DUP3 ADD MSTORE PUSH24 0x496E76616C696420636F6E74726163742061646472657373 PUSH1 0x40 SHL PUSH1 0x44 DUP3 ADD MSTORE PUSH1 0x64 SWAP1 REVERT JUMPDEST SWAP1 PUSH1 0x60 PUSH1 0x20 SWAP2 SWAP5 SWAP4 SWAP5 PUSH1 0x40 DUP5 MSTORE PUSH2 0x935 DUP2 MLOAD DUP1 SWAP3 DUP2 PUSH1 0x40 DUP9 ADD MSTORE DUP6 DUP6 DUP9 ADD SWAP2 ADD PUSH2 0x837 JUMP JUMPDEST PUSH1 0x1F DUP1 NOT SWAP2 ADD AND DUP4 ADD ADD SWAP4 PUSH1 0x1 DUP1 PUSH1 0xA0 SHL SUB AND SWAP2 ADD MSTORE JUMP JUMPDEST DUP1 MLOAD DUP3 LT ISZERO PUSH2 0x961 JUMPI PUSH1 0x20 SWAP2 PUSH1 0x5 SHL ADD ADD SWAP1 JUMP JUMPDEST PUSH4 0x4E487B71 PUSH1 0xE0 SHL PUSH1 0x0 MSTORE PUSH1 0x32 PUSH1 0x4 MSTORE PUSH1 0x24 PUSH1 0x0 REVERT INVALID DUP12 0xE0 SMOD SWAP13 MSTORE8 AND MSIZE EQ SGT PREVRANDAO 0xCD 0x1F 0xD0 LOG4 CALLCODE DUP5 NOT 0x49 PUSH32 0x9722A3DAAFE3B4186F6B6457E02A88E68A891DDB61F7AEBFDEEFD9FB74964FCD MSTORE8 PUSH18 0xB692EA59CCA73FC58F4805A2646970667358 0x22 SLT KECCAK256 SHR DIV CREATE2 0xC 0xD 0xC2 0xEF PUSH28 0xF8F2C0EE64BC5DFCC1D9080417EEBC9282078A6A89FA83BC64736F6C PUSH4 0x43000814 STOP CALLER "},"gasEstimates":{"creation":{"codeDepositCost":"508200","executionCost":"infinite","totalCost":"infinite"},"external":{"batchRegisterContracts(string[],address[])":"infinite","contracts(string)":"infinite","feeCollector()":"2491","getContract(string)":"infinite","getEcosystemInfo()":"11127","owner()":"2425","registerContract(string,address)":"infinite","renounceOwnership()":"28169","stablecoin()":"2513","transferOwnership(address)":"28450","treasuryWallet()":"2312","updateConfiguration(address,address,address)":"76897"}},"methodIdentifiers":{"batchRegisterContracts(string[],address[])":"8ef768e9","contracts(string)":"8c5b8385","feeCollector()":"c415b95c","getContract(string)":"35817773","getEcosystemInfo()":"b83828f5","owner()":"8da5cb5b","registerContract(string,address)":"7f3c2c28","renounceOwnership()":"715018a6","stablecoin()":"e9cbd822","transferOwnership(address)":"f2fde38b","treasuryWallet()":"4626402b","updateConfiguration(address,address,address)":"6e9d98c5"}},"storageLayout":{"storage":[{"astId":7,"contract":"contracts/SimpleFylaroDeployer.sol:SimpleFylaroDeployer","label":"_owner","offset":0,"slot":"0","type":"t_address"},{"astId":144,"contract":"contracts/SimpleFylaroDeployer.sol:SimpleFylaroDeployer","label":"contracts","offset":0,"slot":"1","type":"t_mapping(t_string_memory_ptr,t_address)"},{"astId":146,"contract":"contracts/SimpleFylaroDeployer.sol:SimpleFylaroDeployer","label":"stablecoin","offset":0,"slot":"2","type":"t_address"},{"astId":148,"contract":"contracts/SimpleFylaroDeployer.sol:SimpleFylaroDeployer","label":"feeCollector","offset":0,"slot":"3","type":"t_address"},{"astId":150,"contract":"contracts/SimpleFylaroDeployer.sol:SimpleFylaroDeployer","label":"treasuryWallet","offset":0,"slot":"4","type":"t_address"}],"types":{"t_address":{"encoding":"inplace","label":"address","numberOfBytes":"20"},"t_mapping(t_string_memory_ptr,t_address)":{"encoding":"mapping","key":"t_string_memory_ptr","label":"mapping(string => address)","numberOfBytes":"32","value":"t_address"},"t_string_memory_ptr":{"encoding":"bytes","label":"string","numberOfBytes":"32"}}},"userdoc":{"kind":"user","methods":{},"version":1}}}}