{
  "_format": "hh-sol-artifact-1",
  "contractName": "LiquidityPool",
  "sourceName": "contracts/LiquidityPool.sol",
  "abi": [
    {
      "inputs": [
        {
          "internalType": "address",
          "name": "_stablecoin",
          "type": "address"
        },
        {
          "internalType": "address",
          "name": "_invoiceToken",
          "type": "address"
        },
        {
          "internalType": "address",
          "name": "_creditScoring",
          "type": "address"
        },
        {
          "internalType": "address",
          "name": "_feeRecipient",
          "type": "address"
        }
      ],
      "stateMutability": "nonpayable",
      "type": "constructor"
    },
    {
      "anonymous": false,
      "inputs": [
        {
          "indexed": false,
          "internalType": "uint256",
          "name": "newApy",
          "type": "uint256"
        }
      ],
      "name": "APYUpdated",
      "type": "event"
    },
    {
      "anonymous": false,
      "inputs": [
        {
          "indexed": true,
          "internalType": "address",
          "name": "token",
          "type": "address"
        },
        {
          "indexed": false,
          "internalType": "bool",
          "name": "isSupported",
          "type": "bool"
        }
      ],
      "name": "AssetConfigUpdated",
      "type": "event"
    },
    {
      "anonymous": false,
      "inputs": [
        {
          "indexed": true,
          "internalType": "address",
          "name": "user",
          "type": "address"
        },
        {
          "indexed": false,
          "internalType": "address",
          "name": "token",
          "type": "address"
        },
        {
          "indexed": false,
          "internalType": "uint256",
          "name": "amount",
          "type": "uint256"
        },
        {
          "indexed": false,
          "internalType": "uint256",
          "name": "lpTokens",
          "type": "uint256"
        }
      ],
      "name": "Deposit",
      "type": "event"
    },
    {
      "anonymous": false,
      "inputs": [
        {
          "indexed": true,
          "internalType": "uint256",
          "name": "invoiceId",
          "type": "uint256"
        },
        {
          "indexed": false,
          "internalType": "uint256",
          "name": "amount",
          "type": "uint256"
        },
        {
          "indexed": false,
          "internalType": "uint256",
          "name": "strategyId",
          "type": "uint256"
        }
      ],
      "name": "InvoiceFinanced",
      "type": "event"
    },
    {
      "anonymous": false,
      "inputs": [
        {
          "indexed": true,
          "internalType": "uint256",
          "name": "invoiceId",
          "type": "uint256"
        },
        {
          "indexed": false,
          "internalType": "uint256",
          "name": "amount",
          "type": "uint256"
        }
      ],
      "name": "RepaymentReceived",
      "type": "event"
    },
    {
      "anonymous": false,
      "inputs": [
        {
          "indexed": true,
          "internalType": "address",
          "name": "user",
          "type": "address"
        },
        {
          "indexed": false,
          "internalType": "uint256",
          "name": "amount",
          "type": "uint256"
        }
      ],
      "name": "RewardClaimed",
      "type": "event"
    },
    {
      "anonymous": false,
      "inputs": [
        {
          "indexed": true,
          "internalType": "bytes32",
          "name": "role",
          "type": "bytes32"
        },
        {
          "indexed": true,
          "internalType": "bytes32",
          "name": "previousAdminRole",
          "type": "bytes32"
        },
        {
          "indexed": true,
          "internalType": "bytes32",
          "name": "newAdminRole",
          "type": "bytes32"
        }
      ],
      "name": "RoleAdminChanged",
      "type": "event"
    },
    {
      "anonymous": false,
      "inputs": [
        {
          "indexed": true,
          "internalType": "bytes32",
          "name": "role",
          "type": "bytes32"
        },
        {
          "indexed": true,
          "internalType": "address",
          "name": "account",
          "type": "address"
        },
        {
          "indexed": true,
          "internalType": "address",
          "name": "sender",
          "type": "address"
        }
      ],
      "name": "RoleGranted",
      "type": "event"
    },
    {
      "anonymous": false,
      "inputs": [
        {
          "indexed": true,
          "internalType": "bytes32",
          "name": "role",
          "type": "bytes32"
        },
        {
          "indexed": true,
          "internalType": "address",
          "name": "account",
          "type": "address"
        },
        {
          "indexed": true,
          "internalType": "address",
          "name": "sender",
          "type": "address"
        }
      ],
      "name": "RoleRevoked",
      "type": "event"
    },
    {
      "anonymous": false,
      "inputs": [
        {
          "indexed": true,
          "internalType": "uint256",
          "name": "strategyId",
          "type": "uint256"
        },
        {
          "indexed": false,
          "internalType": "string",
          "name": "name",
          "type": "string"
        }
      ],
      "name": "StrategyAdded",
      "type": "event"
    },
    {
      "anonymous": false,
      "inputs": [
        {
          "indexed": true,
          "internalType": "uint256",
          "name": "strategyId",
          "type": "uint256"
        },
        {
          "indexed": false,
          "internalType": "string",
          "name": "name",
          "type": "string"
        }
      ],
      "name": "StrategyUpdated",
      "type": "event"
    },
    {
      "anonymous": false,
      "inputs": [
        {
          "indexed": true,
          "internalType": "address",
          "name": "user",
          "type": "address"
        },
        {
          "indexed": false,
          "internalType": "address",
          "name": "token",
          "type": "address"
        },
        {
          "indexed": false,
          "internalType": "uint256",
          "name": "amount",
          "type": "uint256"
        },
        {
          "indexed": false,
          "internalType": "uint256",
          "name": "lpTokens",
          "type": "uint256"
        }
      ],
      "name": "Withdrawal",
      "type": "event"
    },
    {
      "inputs": [],
      "name": "DEFAULT_ADMIN_ROLE",
      "outputs": [
        {
          "internalType": "bytes32",
          "name": "",
          "type": "bytes32"
        }
      ],
      "stateMutability": "view",
      "type": "function"
    },
    {
      "inputs": [],
      "name": "MANAGER_ROLE",
      "outputs": [
        {
          "internalType": "bytes32",
          "name": "",
          "type": "bytes32"
        }
      ],
      "stateMutability": "view",
      "type": "function"
    },
    {
      "inputs": [],
      "name": "STRATEGY_ROLE",
      "outputs": [
        {
          "internalType": "bytes32",
          "name": "",
          "type": "bytes32"
        }
      ],
      "stateMutability": "view",
      "type": "function"
    },
    {
      "inputs": [
        {
          "internalType": "string",
          "name": "name",
          "type": "string"
        },
        {
          "internalType": "uint256",
          "name": "targetRiskLevel",
          "type": "uint256"
        },
        {
          "internalType": "uint256",
          "name": "minCreditScore",
          "type": "uint256"
        },
        {
          "internalType": "uint256",
          "name": "maxInterestRate",
          "type": "uint256"
        },
        {
          "internalType": "uint256",
          "name": "maxDuration",
          "type": "uint256"
        },
        {
          "internalType": "uint256",
          "name": "allocationPercentage",
          "type": "uint256"
        },
        {
          "internalType": "bool",
          "name": "isActive",
          "type": "bool"
        }
      ],
      "name": "addStrategy",
      "outputs": [
        {
          "internalType": "uint256",
          "name": "strategyId",
          "type": "uint256"
        }
      ],
      "stateMutability": "nonpayable",
      "type": "function"
    },
    {
      "inputs": [],
      "name": "claimRewards",
      "outputs": [
        {
          "internalType": "uint256",
          "name": "rewardAmount",
          "type": "uint256"
        }
      ],
      "stateMutability": "nonpayable",
      "type": "function"
    },
    {
      "inputs": [],
      "name": "creditScoring",
      "outputs": [
        {
          "internalType": "contract CreditScoring",
          "name": "",
          "type": "address"
        }
      ],
      "stateMutability": "view",
      "type": "function"
    },
    {
      "inputs": [
        {
          "internalType": "uint256",
          "name": "amount",
          "type": "uint256"
        }
      ],
      "name": "deposit",
      "outputs": [
        {
          "internalType": "uint256",
          "name": "lpTokens",
          "type": "uint256"
        }
      ],
      "stateMutability": "nonpayable",
      "type": "function"
    },
    {
      "inputs": [],
      "name": "depositFee",
      "outputs": [
        {
          "internalType": "uint256",
          "name": "",
          "type": "uint256"
        }
      ],
      "stateMutability": "view",
      "type": "function"
    },
    {
      "inputs": [],
      "name": "earlyWithdrawalFee",
      "outputs": [
        {
          "internalType": "uint256",
          "name": "",
          "type": "uint256"
        }
      ],
      "stateMutability": "view",
      "type": "function"
    },
    {
      "inputs": [],
      "name": "feeRecipient",
      "outputs": [
        {
          "internalType": "address",
          "name": "",
          "type": "address"
        }
      ],
      "stateMutability": "view",
      "type": "function"
    },
    {
      "inputs": [
        {
          "internalType": "uint256",
          "name": "invoiceId",
          "type": "uint256"
        },
        {
          "internalType": "uint256",
          "name": "amount",
          "type": "uint256"
        }
      ],
      "name": "financeInvoice",
      "outputs": [
        {
          "internalType": "bool",
          "name": "success",
          "type": "bool"
        }
      ],
      "stateMutability": "nonpayable",
      "type": "function"
    },
    {
      "inputs": [],
      "name": "getActiveStrategies",
      "outputs": [
        {
          "internalType": "uint256[]",
          "name": "activeStrategyIds",
          "type": "uint256[]"
        }
      ],
      "stateMutability": "view",
      "type": "function"
    },
    {
      "inputs": [],
      "name": "getPoolInfo",
      "outputs": [
        {
          "components": [
            {
              "internalType": "uint256",
              "name": "totalSupply",
              "type": "uint256"
            },
            {
              "internalType": "uint256",
              "name": "totalAssets",
              "type": "uint256"
            },
            {
              "internalType": "uint256",
              "name": "totalInvoicesBacked",
              "type": "uint256"
            },
            {
              "internalType": "uint256",
              "name": "totalValueFinanced",
              "type": "uint256"
            },
            {
              "internalType": "uint256",
              "name": "totalValueRepaid",
              "type": "uint256"
            },
            {
              "internalType": "uint256",
              "name": "apy",
              "type": "uint256"
            },
            {
              "internalType": "uint256",
              "name": "utilizationRate",
              "type": "uint256"
            },
            {
              "internalType": "uint256",
              "name": "lastUpdateTimestamp",
              "type": "uint256"
            }
          ],
          "internalType": "struct LiquidityPool.PoolInfo",
          "name": "",
          "type": "tuple"
        }
      ],
      "stateMutability": "view",
      "type": "function"
    },
    {
      "inputs": [
        {
          "internalType": "bytes32",
          "name": "role",
          "type": "bytes32"
        }
      ],
      "name": "getRoleAdmin",
      "outputs": [
        {
          "internalType": "bytes32",
          "name": "",
          "type": "bytes32"
        }
      ],
      "stateMutability": "view",
      "type": "function"
    },
    {
      "inputs": [
        {
          "internalType": "uint256",
          "name": "strategyId",
          "type": "uint256"
        }
      ],
      "name": "getStrategyInfo",
      "outputs": [
        {
          "components": [
            {
              "internalType": "string",
              "name": "name",
              "type": "string"
            },
            {
              "internalType": "uint256",
              "name": "targetRiskLevel",
              "type": "uint256"
            },
            {
              "internalType": "uint256",
              "name": "minCreditScore",
              "type": "uint256"
            },
            {
              "internalType": "uint256",
              "name": "maxInterestRate",
              "type": "uint256"
            },
            {
              "internalType": "uint256",
              "name": "maxDuration",
              "type": "uint256"
            },
            {
              "internalType": "uint256",
              "name": "allocationPercentage",
              "type": "uint256"
            },
            {
              "internalType": "bool",
              "name": "isActive",
              "type": "bool"
            }
          ],
          "internalType": "struct LiquidityPool.Strategy",
          "name": "",
          "type": "tuple"
        }
      ],
      "stateMutability": "view",
      "type": "function"
    },
    {
      "inputs": [
        {
          "internalType": "address",
          "name": "user",
          "type": "address"
        }
      ],
      "name": "getUserInfo",
      "outputs": [
        {
          "internalType": "uint256",
          "name": "lpTokens",
          "type": "uint256"
        },
        {
          "internalType": "uint256",
          "name": "pendingRewards",
          "type": "uint256"
        },
        {
          "internalType": "uint256",
          "name": "userShare",
          "type": "uint256"
        }
      ],
      "stateMutability": "view",
      "type": "function"
    },
    {
      "inputs": [
        {
          "internalType": "bytes32",
          "name": "role",
          "type": "bytes32"
        },
        {
          "internalType": "address",
          "name": "account",
          "type": "address"
        }
      ],
      "name": "grantRole",
      "outputs": [],
      "stateMutability": "nonpayable",
      "type": "function"
    },
    {
      "inputs": [
        {
          "internalType": "bytes32",
          "name": "role",
          "type": "bytes32"
        },
        {
          "internalType": "address",
          "name": "account",
          "type": "address"
        }
      ],
      "name": "hasRole",
      "outputs": [
        {
          "internalType": "bool",
          "name": "",
          "type": "bool"
        }
      ],
      "stateMutability": "view",
      "type": "function"
    },
    {
      "inputs": [
        {
          "internalType": "uint256",
          "name": "",
          "type": "uint256"
        }
      ],
      "name": "invoiceToStrategy",
      "outputs": [
        {
          "internalType": "uint256",
          "name": "",
          "type": "uint256"
        }
      ],
      "stateMutability": "view",
      "type": "function"
    },
    {
      "inputs": [],
      "name": "invoiceToken",
      "outputs": [
        {
          "internalType": "contract InvoiceToken",
          "name": "",
          "type": "address"
        }
      ],
      "stateMutability": "view",
      "type": "function"
    },
    {
      "inputs": [],
      "name": "maxPoolSize",
      "outputs": [
        {
          "internalType": "uint256",
          "name": "",
          "type": "uint256"
        }
      ],
      "stateMutability": "view",
      "type": "function"
    },
    {
      "inputs": [],
      "name": "minLockPeriod",
      "outputs": [
        {
          "internalType": "uint256",
          "name": "",
          "type": "uint256"
        }
      ],
      "stateMutability": "view",
      "type": "function"
    },
    {
      "inputs": [],
      "name": "performanceFee",
      "outputs": [
        {
          "internalType": "uint256",
          "name": "",
          "type": "uint256"
        }
      ],
      "stateMutability": "view",
      "type": "function"
    },
    {
      "inputs": [],
      "name": "poolInfo",
      "outputs": [
        {
          "internalType": "uint256",
          "name": "totalSupply",
          "type": "uint256"
        },
        {
          "internalType": "uint256",
          "name": "totalAssets",
          "type": "uint256"
        },
        {
          "internalType": "uint256",
          "name": "totalInvoicesBacked",
          "type": "uint256"
        },
        {
          "internalType": "uint256",
          "name": "totalValueFinanced",
          "type": "uint256"
        },
        {
          "internalType": "uint256",
          "name": "totalValueRepaid",
          "type": "uint256"
        },
        {
          "internalType": "uint256",
          "name": "apy",
          "type": "uint256"
        },
        {
          "internalType": "uint256",
          "name": "utilizationRate",
          "type": "uint256"
        },
        {
          "internalType": "uint256",
          "name": "lastUpdateTimestamp",
          "type": "uint256"
        }
      ],
      "stateMutability": "view",
      "type": "function"
    },
    {
      "inputs": [
        {
          "internalType": "uint256",
          "name": "invoiceId",
          "type": "uint256"
        },
        {
          "internalType": "uint256",
          "name": "amount",
          "type": "uint256"
        }
      ],
      "name": "recordRepayment",
      "outputs": [
        {
          "internalType": "bool",
          "name": "success",
          "type": "bool"
        }
      ],
      "stateMutability": "nonpayable",
      "type": "function"
    },
    {
      "inputs": [
        {
          "internalType": "bytes32",
          "name": "role",
          "type": "bytes32"
        },
        {
          "internalType": "address",
          "name": "account",
          "type": "address"
        }
      ],
      "name": "renounceRole",
      "outputs": [],
      "stateMutability": "nonpayable",
      "type": "function"
    },
    {
      "inputs": [
        {
          "internalType": "bytes32",
          "name": "role",
          "type": "bytes32"
        },
        {
          "internalType": "address",
          "name": "account",
          "type": "address"
        }
      ],
      "name": "revokeRole",
      "outputs": [],
      "stateMutability": "nonpayable",
      "type": "function"
    },
    {
      "inputs": [
        {
          "internalType": "uint256",
          "name": "_depositFee",
          "type": "uint256"
        },
        {
          "internalType": "uint256",
          "name": "_withdrawalFee",
          "type": "uint256"
        },
        {
          "internalType": "uint256",
          "name": "_performanceFee",
          "type": "uint256"
        },
        {
          "internalType": "uint256",
          "name": "_earlyWithdrawalFee",
          "type": "uint256"
        }
      ],
      "name": "setFeeConfig",
      "outputs": [
        {
          "internalType": "bool",
          "name": "success",
          "type": "bool"
        }
      ],
      "stateMutability": "nonpayable",
      "type": "function"
    },
    {
      "inputs": [
        {
          "internalType": "address",
          "name": "_feeRecipient",
          "type": "address"
        }
      ],
      "name": "setFeeRecipient",
      "outputs": [
        {
          "internalType": "bool",
          "name": "success",
          "type": "bool"
        }
      ],
      "stateMutability": "nonpayable",
      "type": "function"
    },
    {
      "inputs": [
        {
          "internalType": "uint256",
          "name": "_maxPoolSize",
          "type": "uint256"
        }
      ],
      "name": "setMaxPoolSize",
      "outputs": [
        {
          "internalType": "bool",
          "name": "success",
          "type": "bool"
        }
      ],
      "stateMutability": "nonpayable",
      "type": "function"
    },
    {
      "inputs": [
        {
          "internalType": "uint256",
          "name": "_minLockPeriod",
          "type": "uint256"
        }
      ],
      "name": "setMinLockPeriod",
      "outputs": [
        {
          "internalType": "bool",
          "name": "success",
          "type": "bool"
        }
      ],
      "stateMutability": "nonpayable",
      "type": "function"
    },
    {
      "inputs": [],
      "name": "stablecoin",
      "outputs": [
        {
          "internalType": "address",
          "name": "",
          "type": "address"
        }
      ],
      "stateMutability": "view",
      "type": "function"
    },
    {
      "inputs": [
        {
          "internalType": "uint256",
          "name": "",
          "type": "uint256"
        }
      ],
      "name": "strategies",
      "outputs": [
        {
          "internalType": "string",
          "name": "name",
          "type": "string"
        },
        {
          "internalType": "uint256",
          "name": "targetRiskLevel",
          "type": "uint256"
        },
        {
          "internalType": "uint256",
          "name": "minCreditScore",
          "type": "uint256"
        },
        {
          "internalType": "uint256",
          "name": "maxInterestRate",
          "type": "uint256"
        },
        {
          "internalType": "uint256",
          "name": "maxDuration",
          "type": "uint256"
        },
        {
          "internalType": "uint256",
          "name": "allocationPercentage",
          "type": "uint256"
        },
        {
          "internalType": "bool",
          "name": "isActive",
          "type": "bool"
        }
      ],
      "stateMutability": "view",
      "type": "function"
    },
    {
      "inputs": [],
      "name": "strategyCount",
      "outputs": [
        {
          "internalType": "uint256",
          "name": "",
          "type": "uint256"
        }
      ],
      "stateMutability": "view",
      "type": "function"
    },
    {
      "inputs": [
        {
          "internalType": "address",
          "name": "",
          "type": "address"
        }
      ],
      "name": "supportedAssets",
      "outputs": [
        {
          "internalType": "address",
          "name": "tokenAddress",
          "type": "address"
        },
        {
          "internalType": "bool",
          "name": "isSupported",
          "type": "bool"
        },
        {
          "internalType": "uint256",
          "name": "weight",
          "type": "uint256"
        },
        {
          "internalType": "uint256",
          "name": "minDeposit",
          "type": "uint256"
        },
        {
          "internalType": "uint256",
          "name": "maxDeposit",
          "type": "uint256"
        }
      ],
      "stateMutability": "view",
      "type": "function"
    },
    {
      "inputs": [
        {
          "internalType": "bytes4",
          "name": "interfaceId",
          "type": "bytes4"
        }
      ],
      "name": "supportsInterface",
      "outputs": [
        {
          "internalType": "bool",
          "name": "",
          "type": "bool"
        }
      ],
      "stateMutability": "view",
      "type": "function"
    },
    {
      "inputs": [
        {
          "internalType": "uint256",
          "name": "newApy",
          "type": "uint256"
        }
      ],
      "name": "updateAPY",
      "outputs": [
        {
          "internalType": "bool",
          "name": "success",
          "type": "bool"
        }
      ],
      "stateMutability": "nonpayable",
      "type": "function"
    },
    {
      "inputs": [
        {
          "internalType": "address",
          "name": "token",
          "type": "address"
        },
        {
          "internalType": "bool",
          "name": "isSupported",
          "type": "bool"
        },
        {
          "internalType": "uint256",
          "name": "weight",
          "type": "uint256"
        },
        {
          "internalType": "uint256",
          "name": "minDeposit",
          "type": "uint256"
        },
        {
          "internalType": "uint256",
          "name": "maxDeposit",
          "type": "uint256"
        }
      ],
      "name": "updateAssetConfig",
      "outputs": [
        {
          "internalType": "bool",
          "name": "success",
          "type": "bool"
        }
      ],
      "stateMutability": "nonpayable",
      "type": "function"
    },
    {
      "inputs": [
        {
          "internalType": "uint256",
          "name": "strategyId",
          "type": "uint256"
        },
        {
          "internalType": "string",
          "name": "name",
          "type": "string"
        },
        {
          "internalType": "uint256",
          "name": "targetRiskLevel",
          "type": "uint256"
        },
        {
          "internalType": "uint256",
          "name": "minCreditScore",
          "type": "uint256"
        },
        {
          "internalType": "uint256",
          "name": "maxInterestRate",
          "type": "uint256"
        },
        {
          "internalType": "uint256",
          "name": "maxDuration",
          "type": "uint256"
        },
        {
          "internalType": "uint256",
          "name": "allocationPercentage",
          "type": "uint256"
        },
        {
          "internalType": "bool",
          "name": "isActive",
          "type": "bool"
        }
      ],
      "name": "updateStrategy",
      "outputs": [
        {
          "internalType": "bool",
          "name": "success",
          "type": "bool"
        }
      ],
      "stateMutability": "nonpayable",
      "type": "function"
    },
    {
      "inputs": [
        {
          "internalType": "address",
          "name": "",
          "type": "address"
        }
      ],
      "name": "userPositions",
      "outputs": [
        {
          "internalType": "uint256",
          "name": "lpTokens",
          "type": "uint256"
        },
        {
          "internalType": "uint256",
          "name": "pendingRewards",
          "type": "uint256"
        },
        {
          "internalType": "uint256",
          "name": "lastClaimTimestamp",
          "type": "uint256"
        }
      ],
      "stateMutability": "view",
      "type": "function"
    },
    {
      "inputs": [
        {
          "internalType": "uint256",
          "name": "lpTokenAmount",
          "type": "uint256"
        }
      ],
      "name": "withdraw",
      "outputs": [
        {
          "internalType": "uint256",
          "name": "withdrawnAmount",
          "type": "uint256"
        }
      ],
      "stateMutability": "nonpayable",
      "type": "function"
    },
    {
      "inputs": [],
      "name": "withdrawalFee",
      "outputs": [
        {
          "internalType": "uint256",
          "name": "",
          "type": "uint256"
        }
      ],
      "stateMutability": "view",
      "type": "function"
    },
    {
      "stateMutability": "payable",
      "type": "receive"
    }
  ],
  "bytecode": "0x60e03462000b8b57601f62003f8238819003918201601f19168301916001600160401b03831184841017620007b75780849260809460405283398101031262000b8b576200004d8162000bb0565b906200005c6020820162000bb0565b91620000796060620000716040850162000bb0565b930162000bb0565b60016000556032600e556064600f556103e86010556509184e72a00060125562093a8060135561012c6014556001600160a01b0382811694909390851562000b4657841690811562000b0157841691821562000abc57841692831562000a775760805260a05260c052601180546001600160a01b03191691909117905533600090815260008051602062003f42833981519152602052604090205460ff161562000a34575b3360009081527ffdb122eb892c6b3193f8499f050265ce5458caab5f6480270d8972921f24f42960205260409020547f241ecf16d79d0f8dbfb92cbc07fe17840425976cf0667f022fe9877caa831b089060ff1615620009f0575b503360009081527f21d442261a7cc2346fd3ca5e1f22fe015f6b71188f57ab4761df2e3faed3703f60205260409020547f928286c473ded01ff8bf61a1986f14a0579066072fa8261442d9fea514d93a4c9060ff1615620009ac575b5060405161010081016001600160401b03811182821017620007b7576040526000815260006020820152600060408201526000606082015260006080820152600060a0820152600060c082015260e0429101526000600255600060035560006004556000600555600060065560006007556000600855426009556040519160a083019183831060018060401b03841117620007b75760039260405281845260208401600181526040850190612710825260608601926305f5e1008452608087019460008652600052600c602052604060002096511686549160ff60a01b9051151560a01b169160018060a81b0319161717855551600185015551600284015551910155620002e262000b90565b600c81526b436f6e73657276617469766560a01b60208201526015546000198114620007cd576001810160158190556000908152600b60205260409020825192906001600160401b038411620007b7578054600181811c91168015620009a1575b60208210146200079657601f811162000958575b50602093601f8111600114620008ec578091929394600091620008e0575b508160011b916000199060031b1c19161781555b600360018201556102bc60028201556103206003820155603c6004820155611b5860058201556006600160ff198284015416179101556040516020815281519182602083015260005b838110620008c9578360008051602062003f628339815191528460408160018a60008488850101520194601f80199101168101030190a26200041362000b90565b600881526710985b185b98d95960c21b60208201526015546000198114620007cd576001810160158190556000908152600b60205260409020825192906001600160401b038411620007b7578054600181811c91168015620008be575b60208210146200079657601f811162000875575b50602093601f81116001146200080657806006939495600091620007fa575b508160011b916000199060031b1c19161781555b6005600182015561025860028201556104b06003820155605a60048201556107d0600582015501600160ff198254161790556040516020815281519182602083015260005b838110620007e3578360008051602062003f628339815191528460408160018a60008488850101520194601f80199101168101030190a26200053d62000b90565b600a8152694167677265737369766560b01b60208201526015546000198114620007cd576001810160158190556000908152600b60205260409020825192906001600160401b038411620007b7578054600181811c91168015620007ac575b60208210146200079657601f81116200074d575b50602093601f8111600114620006de57806006939495600091620006d2575b508160011b916000199060031b1c19161781555b600860018201556101f460028201556107d06003820155607860048201556103e8600582015501600160ff198254161790556040516020815281519182602083015260005b838110620006bb578360008051602062003f628339815191528460408160018a60008488850101520194601f80199101168101030190a260405161335c908162000bc682396080518181816102bd01528181610fb001528181611de301528181611e4e0152818161211a015261216d015260a0518181816103e30152611d2f015260c05181818161045701526112cd0152f35b806020809284010151604082860101520162000628565b905084015186620005cf565b81600052602060002060005b601f198316811062000734575090600191600694959682601f198116106200071a575b5050811b018155620005e3565b86015160001960f88460031b161c1916905586806200070d565b84870151825560209687019660019092019101620006ea565b816000526020600020601f860160051c8101602087106200078e575b601f830160051c8201811062000781575050620005b0565b6000815560010162000769565b508062000769565b634e487b7160e01b600052602260045260246000fd5b90607f16906200059c565b634e487b7160e01b600052604160045260246000fd5b634e487b7160e01b600052601160045260246000fd5b8060208092840101516040828601015201620004fc565b905084015186620004a3565b81600052602060002060005b601f19831681106200085c575090600191600694959682601f1981161062000842575b5050811b018155620004b7565b86015160001960f88460031b161c19169055868062000835565b8487015182556020968701966001909201910162000812565b816000526020600020601f860160051c810160208710620008b6575b601f830160051c82018110620008a957505062000484565b6000815560010162000891565b508062000891565b90607f169062000470565b8060208092840101516040828601015201620003d2565b90508301513862000375565b81600052602060002060005b601f19831681106200093f575060019293949582601f1981161062000925575b5050811b01815562000389565b85015160001960f88460031b161c19169055388062000918565b84870151825560209687019660019092019101620008f8565b816000526020600020601f860160051c81016020871062000999575b601f830160051c820181106200098c57505062000357565b6000815560010162000974565b508062000974565b90607f169062000343565b8060005260016020526040600020336000526020526040600020600160ff198254161790553390339060008051602062003f22833981519152600080a438620001d5565b8060005260016020526040600020336000526020526040600020600160ff198254161790553390339060008051602062003f22833981519152600080a43862000179565b33600081815260008051602062003f4283398151915260205260408120805460ff19166001179055819060008051602062003f228339815191528180a46200011e565b60405162461bcd60e51b815260206004820152601d60248201527f496e76616c69642066656520726563697069656e7420616464726573730000006044820152606490fd5b60405162461bcd60e51b815260206004820152601e60248201527f496e76616c6964206372656469742073636f72696e67206164647265737300006044820152606490fd5b60405162461bcd60e51b815260206004820152601d60248201527f496e76616c696420696e766f69636520746f6b656e20616464726573730000006044820152606490fd5b60405162461bcd60e51b815260206004820152601a60248201527f496e76616c696420737461626c65636f696e20616464726573730000000000006044820152606490fd5b600080fd5b60408051919082016001600160401b03811183821017620007b757604052565b51906001600160a01b038216820362000b8b5756fe608080604052600436101561001d575b50361561001b57600080fd5b005b60009060e08235811c91826301ffc9a71461225f5750816316330d401461224157816322068b4414612223578163248a9ca3146121f75781632e1a7d4d1461202a5781632f2ff15d14611f7b57816336568abe14611ee8578163372500ab14611d5e578163464b539114611d195781634690484014611cf057816348a4565d14611c7d578163580b7c2e14611c54578163587436e414611b0a5781635a2f3d0914611aae57816360246c88146119d5578163613cf4201461198c5781636386c1c7146118cd57816367a52793146118af5781636bf1ad6d146117ba578163724806701461143a5781637320ca26146113c957816373ae54b5146113ab578163859fba6a1461138157816387788782146113635781638bc7e8c41461134557816391d14854146112fc5781639883688f146112b7578163a217fddf1461129b578163b6b55f2514610f71578163bab9106d14610d8e578163bd81579e14610d23578163c5579dc014610d05578163cad45a4114610c71578163d547741f14610c30578163d574ea3d14610ba7578163db089e7914610a8a578163dbd5ef6d1461092b578163de6d00f71461037d57508063e74b981b146102ec578063e9cbd822146102a7578063ec87621c1461027e5763fae728cd0361000f573461027b57602036600319011261027b5760043561021261250c565b6113888111610247576020816000805160206132678339815191529260075542600955604051908152a1602060405160018152f35b60405162461bcd60e51b815260206004820152600c60248201526b082a0b240e8dede40d0d2ced60a31b6044820152606490fd5b80fd5b503461027b578060031936011261027b5760206040516000805160206132c78339815191528152f35b503461027b578060031936011261027b576040517f00000000000000000000000000000000000000000000000000000000000000006001600160a01b03168152602090f35b503461027b57602036600319011261027b576103066122cf565b61030e61281e565b6001600160a01b031680156103385760018060a01b03196011541617601155602060405160018152f35b60405162461bcd60e51b815260206004820152601d60248201527f496e76616c69642066656520726563697069656e7420616464726573730000006044820152606490fd5b823461027b5761038c36612328565b9261039561250c565b60026103a48185541415612c0c565b8084556103b2851515612c58565b600391825486116108eb57604051631d11e60560e11b8152600481018590526024926001600160a01b0392878386817f000000000000000000000000000000000000000000000000000000000000000088165afa9283156106bc57889361077f575b5082015115610744578151881161070157604082015191428311156106c757839060609485809201511686604051809481936355b56bff60e11b835260048301527f0000000000000000000000000000000000000000000000000000000000000000165afa9081156106bc578891610676575b5060ff809116908896620151806104a08b964290612cc4565b04926001968b601554985b8981111561058c578e828e8e8e811561054b57828452600d602052816040852055600454906001820180921161053957506001947fedd65c7639fb6c865f1f98f6a15aea4f7a0f9132f8ba11290ed0d5bf2e6ddac59260409260045561051382600554612ad1565b60055542600955610522613135565b82519182526020820152a255602060405160018152f35b634e487b7160e01b8552601160045284fd5b606490601a6040519162461bcd60e51b83526020600484015282015279139bc81cdd5a5d18589b19481cdd1c985d1959de48199bdd5b9960321b6044820152fd5b8082526020600b8152866040842091604051906105a8826123c5565b6105b18461241e565b82526001840154908201528a830154908160408201528884015487820152826006600486015495866080850152600581015460a0850152015416159060c08215910152610660578610938415948561066d575b6106605761062b9394600014610659576064925b8a1161065257508060645b169116612ad1565b888111610644575b5061063d90612ffa565b8c906104ab565b909a5096508961063d610633565b8190610623565b8092610618565b50505061063d9150612ffa565b50828a11610604565b90508381813d83116106b5575b61068d81836123fb565b810103126106b1576106aa60206106a383612f56565b9201612f56565b5089610487565b8780fd5b503d610683565b6040513d8a823e3d90fd5b60405162461bcd60e51b81526020600482015260138187015272496e766f69636520616c72656164792064756560681b6044820152606490fd5b60405162461bcd60e51b815260206004820152601c818601527b416d6f756e74206578636565647320696e766f6963652076616c756560201b6044820152606490fd5b60405162461bcd60e51b81526020600482015260148186015273125b9d9bda58d9481b9bdd081d995c9a599a595960621b6044820152606490fd5b9092503d8089833e61079181836123fb565b8101906020818303126108e75780516001600160401b03918282116108e35701906101e09283838203126108e357604051938401848110838211176108d0576040528251845260208301516020850152604083015160408501526107f760608401612efd565b606085015261080860808401612efd565b608085015260a08301518281116108cc5781610825918501612f11565b60a085015260c08301518281116108cc5781610842918501612f11565b60c0850152610852868401612d3e565b86850152610100610864818501612d3e565b90850152610120808401519085015261014091828401519081116108cc579061088e918401612f11565b90830152610160808201519083015261018080820151908301526101a06108b6818301612f56565b908301526101c080910151908201529189610414565b8b80fd5b634e487b7160e01b8c526041600452888cfd5b8a80fd5b8880fd5b60405162461bcd60e51b8152602060048201526018602482015277496e73756666696369656e7420706f6f6c2061737365747360401b6044820152606490fd5b823461027b57608036600319011261027b5760643560443560243560043561095161281e565b6101f4808211610a4e578211610a0f57610bb883116109cf576103e8841161098a57600e55600f55601055601455602060405160018152f35b60405162461bcd60e51b815260206004820152601d60248201527f4561726c79207769746864726177616c2066656520746f6f20686967680000006044820152606490fd5b60405162461bcd60e51b81526020600482015260186024820152770a0cae4ccdee4dac2dcc6ca40cccaca40e8dede40d0d2ced60431b6044820152606490fd5b60405162461bcd60e51b81526020600482015260176024820152760aed2e8d0c8e4c2eec2d840cccaca40e8dede40d0d2ced604b1b6044820152606490fd5b60405162461bcd60e51b8152602060048201526014602482015273088cae0dee6d2e840cccaca40e8dede40d0d2ced60631b6044820152606490fd5b823461027b576020908160031936011261027b576040906004358160c08451610ab2816123c5565b60608152828782015282868201528260608201528260808201528260a0820152015280151580610b9b575b610ae690612f64565b8152600b8352208260405192610afb846123c5565b610b048361241e565b845260018301549281850193845260028101546040860190815260038201546060870190815260048301549160808801928352610b7160ff600660058701549660a08c019788520154169560c08a0196151587526040519a8b9a828c5251918b01526101008a01906124e7565b965160408901525160608801525160808701525160a08601525160c0850152511515908301520390f35b50601554811115610add565b823461027b57602036600319011261027b576040906004358152600b6020522090610bd18261241e565b91600181015490600281015490600381015460048201549060ff600660058501549401541693610c0b60405198888a998a528901906124e7565b95602088015260408701526060860152608085015260a0840152151560c08301520390f35b823461027b57604036600319011261027b57610c6e600435610c506122b4565b908084526001602052610c696001604086200154612935565b612a32565b80f35b823461027b5760019060207f93779ca16187e897d4f01a19100fe66162991c20afb461c7e2628809196deb0d610ca636612328565b610cb193919361250c565b610cbf600286541415612c0c565b60028555610cce811515612c58565b610cda81600654612ad1565b60065542600955610ce9613135565b610cf2816131d1565b604051908152a255602060405160018152f35b823461027b578060031936011261027b576020601254604051908152f35b823461027b57602036600319011261027b5760a0906001600160a01b039060409082610d4d6122cf565b168152600c60205220805490600181015460ff60036002840154930154936040519581168652861c1615156020850152604084015260608301526080820152f35b823461027b5761010036600319011261027b576001600160401b0390600435602435838111610f6d57610dc59036906004016122fb565b9060e4358015158103610f6957610dda6126f7565b83151580610f5d575b610dec90612f64565b838552602095600b875260408620908411610f4957610e1584610e0f835461233e565b83612fa6565b85601f8511600114610ecc5795610e946040949360068794856000805160206132e78339815191529a9b8691610ec1575b508660011b906000198860031b1c19161781555b60443560018201556064356002820155608435600382015560a435600482015560c4356005820155019060ff801983541691151516179055565b8351948593898552818a86015285850137828201840152601f01601f19168101030190a260405160018152f35b90508701358d610e46565b81875287872090601f198616885b8a828210610f3357505093600687946000805160206132e7833981519152999a94610e94948760409a9910610f19575b5050600186811b018155610e5a565b880135600019600389901b60f8161c191690558c80610f0a565b600184958293958a013581550194019201610eda565b634e487b7160e01b86526041600452602486fd5b50601554841115610de3565b8480fd5b8280fd5b823461027b576020908160031936011261027b57600435906002610f988183541415612c0c565b808255610fa6831515612c58565b6001600160a01b037f0000000000000000000000000000000000000000000000000000000000000000818116808552600c8752604080862090516001600160401b0397939594929160a082018981118382101761117a5760405260ff8154858116845260a01c161580158b8401526001820154604084015260806003888401549360608601948552015493019283526112605751841061121c57518015908115611211575b50156111cd5761105d83600354612ad1565b6012541061118e57612710611074600e5485612aa8565b04906110808285612cc4565b6040516323b872dd60e01b8b82015233602482015230604482015260648082018790528152909860a082019081118282101761117a57916110ee7fdcbc1c05240f31ff3ad067ef1ee35ce4997762752e3a095284754544f4c709d796949260019a9998969460405282612d4b565b81611164575b50505061113861110388613020565b978893338852600a8b526040882061111c868254612ad1565b8155814291015561112e858254612ad1565b9055600354612ad1565b60035542600955611147613135565b611158604051928392339684612cd1565b0390a255604051908152f35b611172926011541690612cef565b8880806110f4565b634e487b7160e01b89526041600452602489fd5b60405162461bcd60e51b8152600481018990526017602482015276141bdbdb081cda5e99481b1a5b5a5d081c995858da1959604a1b6044820152606490fd5b60405162461bcd60e51b815260048101899052601c60248201527b105b5bdd5b9d0818589bdd99481b585e1a5b5d5b4819195c1bdcda5d60221b6044820152606490fd5b90508311158961104b565b60405162461bcd60e51b8152600481018a9052601c60248201527b105b5bdd5b9d0818995b1bddc81b5a5b9a5b5d5b4819195c1bdcda5d60221b6044820152606490fd5b60405162461bcd60e51b8152600481018b90526013602482015272105cdcd95d081b9bdd081cdd5c1c1bdc9d1959606a1b6044820152606490fd5b823461027b578060031936011261027b57602090604051908152f35b823461027b578060031936011261027b576040517f00000000000000000000000000000000000000000000000000000000000000006001600160a01b03168152602090f35b823461027b57604036600319011261027b5760ff604060209261131d6122b4565b6004358252600185528282206001600160a01b03909116825284522054604051911615158152f35b823461027b578060031936011261027b576020600f54604051908152f35b823461027b578060031936011261027b576020601054604051908152f35b823461027b57602036600319011261027b5760406020916004358152600d83522054604051908152f35b823461027b578060031936011261027b576020601354604051908152f35b823461027b57602036600319011261027b576004356113e661250c565b62278d0081116113fe57601355602060405160018152f35b60405162461bcd60e51b81526020600482015260146024820152734c6f636b20706572696f6420746f6f206c6f6e6760601b6044820152606490fd5b9050346117b65736600319011261027b576001600160401b03816004358281116117b65761146c9036906004016122fb565b919060c435151560c435036117b6576114836126f7565b61148c83612ade565b9261149a60405194856123fb565b8084523681830111610f6d57806020928386013783010152602492600184351015806117aa575b156117715761012c604435101580611763575b1561172857611388606435116116eb57608435156116b45761271060a4351161167057611502601554612ffa565b9283601555838252600b6020526040822091835191821161165d57948160209661153985946115338998975461233e565b86612fa6565b8790601f83116001146115e05792826115b8936115ca96936000805160206132a78339815191529896916115d5575b508160011b916000199060031b1c19161782555b35600182015560443560028201556064356003820155608435600482015560a4356005820155600601805460ff191660ff60c435151516179055565b604051918291878352878301906124e7565b0390a2604051908152f35b905085015138611568565b90848252888220915b601f19841681106116435750926001836115ca96936000805160206132a783398151915298966115b896601f1981161061162a575b5050811b01825561157c565b87015160001960f88460031b161c19169055388061161e565b8187015183558897506001909201919089019089016115e9565b634e487b7160e01b815260416004528590fd5b60405162461bcd60e51b815260206004820152601d818601527f496e76616c696420616c6c6f636174696f6e2070657263656e746167650000006044820152606490fd5b60405162461bcd60e51b8152602060048201526010818601526f24b73b30b634b210323ab930ba34b7b760811b6044820152606490fd5b60405162461bcd60e51b81526020600482015260168186015275092dce8cae4cae6e840e4c2e8ca40e8dede40d0d2ced60531b6044820152606490fd5b60405162461bcd60e51b81526020600482015260148186015273496e76616c6964206372656469742073636f726560601b6044820152606490fd5b5061035260443511156114d4565b60405162461bcd60e51b81526020600482015260128186015271125b9d985b1a59081c9a5cdac81b195d995b60721b6044820152606490fd5b50600a843511156114c1565b5080fd5b823461027b5760a036600319011261027b576117d46122cf565b60243590811515809203610f6d576117ea61250c565b6001600160a01b031691821561187257828152600c602090815260409182902080546001600160a81b031916851760a085901b60ff60a01b161781556044356001820155606435600282015560843560039091015590519182527f85601d3ca5ef894ba970c21e3a63d681ee0e39464e8698464e62fbd44b81886c91a2602060405160018152f35b60405162461bcd60e51b8152602060048201526015602482015274496e76616c696420746f6b656e206164647265737360581b6044820152606490fd5b823461027b578060031936011261027b576020600e54604051908152f35b823461027b57602036600319011261027b576118e76122cf565b6001600160a01b0381168252600a60205260408083209051909161192c9061190e836123aa565b60028454948585526001810154602086015201546040840152613079565b6002549093909182156119815751906127109182810292818404149015171561196d57506119699161195d91612ca4565b604051938493846122e5565b0390f35b634e487b7160e01b81526011600452602490fd5b50611969915061195d565b823461027b57602036600319011261027b576040906001600160a01b036119b16122cf565b168152600a60205220805461196960026001840154930154604051938493846122e5565b9050346117b657816003193601126117b65761010091816040516119f881612378565b8281528260208201528260408201528260608201528260808201528260a08201528260c0820152015260405190611a2e82612378565b6002549182815260035460208201908152600454604083019081526005546060840190815260065490608085019182526007549260a086019384526008549460c087019586528760095497019687526040519889525160208901525160408801525160608701525160808601525160a08501525160c08401525190820152f35b9050346117b657816003193601126117b657610100906002549060035490600454600554600654600754916008549360095496604051988952602089015260408801526060870152608086015260a085015260c0840152820152f35b823461027b578060031936011261027b57601554600182815b83811115611c105750611b4e611b3885613009565b94611b4660405196876123fb565b808652613009565b9360209384820195601f19013687378290845b81811115611ba2575050506040519380850191818652518092526040850195925b828110611b8f5785870386f35b8351875295810195928101928401611b82565b808597949598969852600b845260ff600660408920015416611bd4575b611bc890612ffa565b96949695939295611b61565b918451811015611bfc57611bf4818486611bc89460051b89010152612ffa565b929050611bbf565b634e487b7160e01b87526032600452602487fd5b80829493959252600b60205260ff600660408620015416611c3f575b611c3590612ffa565b9391929093611b23565b90611c4c611c3591612ffa565b919050611c2c565b823461027b578060031936011261027b5760206040516000805160206133078339815191528152f35b823461027b57602036600319011261027b57600435611c9a61250c565b6003548110611cb157601255602060405160018152f35b60405162461bcd60e51b815260206004820152601760248201527613585e081c1bdbdb081cda5e99481d1bdbc81cdb585b1b604a1b6044820152606490fd5b823461027b578060031936011261027b576011546040516001600160a01b039091168152602090f35b823461027b578060031936011261027b576040517f00000000000000000000000000000000000000000000000000000000000000006001600160a01b03168152602090f35b823461027b578060031936011261027b57611d7d600282541415612c0c565b60028155338152600a60205260408120805415611eb457611d9d33613079565b8015611e7957602092600191611dc3612710611dbb60105484612aa8565b048092612cc4565b93828482015560024291015580611e3c575b50611e088333848060a01b037f000000000000000000000000000000000000000000000000000000000000000016612cef565b6040518381527f106f923f993c2149d49b4255ff723acafa1f2d94393f561d3eda32ae348f7241853392a255604051908152f35b611e7390838060a01b038060115416907f000000000000000000000000000000000000000000000000000000000000000016612cef565b84611dd5565b60405162461bcd60e51b81526020600482015260136024820152724e6f207265776172647320746f20636c61696d60681b6044820152606490fd5b60405162461bcd60e51b815260206004820152600c60248201526b4e6f204c5020746f6b656e7360a01b6044820152606490fd5b823461027b57604036600319011261027b57611f026122b4565b336001600160a01b03821603611f1e57610c6e90600435612a32565b60405162461bcd60e51b815260206004820152602f60248201527f416363657373436f6e74726f6c3a2063616e206f6e6c792072656e6f756e636560448201526e103937b632b9903337b91039b2b63360891b6064820152608490fd5b823461027b57604036600319011261027b57600435611f986122b4565b8183526001602052611fb06001604085200154612935565b8183526001602052604083209060018060a01b03169081845260205260ff60408420541615611fdd578280f35b81835260016020526040832081845260205260408320600160ff1982541617905533917f2f8788117e7eff1d82e926ec794901d17c78024a50270940304540a733656f0d8480a481808280f35b823461027b57602036600319011261027b576004359061204e600282541415612c0c565b6002815561205d821515612c58565b338152600a602052604081208054918383106121b957602093826120876002600195015442612cc4565b6013541161209483613054565b612710806120a4600f5484612aa8565b0492612198575b5081926120c5856120bf6120de9585612cc4565b99612cc4565b90556120d384600254612cc4565b600255600354612cc4565b600355426009556120ed613135565b8061215b575b507fc2b4a290c20fb28939d29f102514fbffd2b73c059ffba8b78250c94161d5fcc66111587f00000000000000000000000000000000000000000000000000000000000000009261214c8733888060a01b038716612cef565b60405191829188339684612cd1565b61219290848060a01b038060115416907f000000000000000000000000000000000000000000000000000000000000000016612cef565b856120f3565b6120de926121b3916121ac60145485612aa8565b0490612ad1565b916120ab565b60405162461bcd60e51b8152602060048201526016602482015275496e73756666696369656e74204c5020746f6b656e7360501b6044820152606490fd5b823461027b57602036600319011261027b57600160406020926004358152828452200154604051908152f35b823461027b578060031936011261027b576020601554604051908152f35b823461027b578060031936011261027b576020601454604051908152f35b8390346117b65760203660031901126117b65760043563ffffffff60e01b8116809103610f6d5760209250637965db0b60e01b81149081156122a3575b5015158152f35b6301ffc9a760e01b1490508361229c565b602435906001600160a01b03821682036122ca57565b600080fd5b600435906001600160a01b03821682036122ca57565b6040919493926060820195825260208201520152565b9181601f840112156122ca578235916001600160401b0383116122ca57602083818601950101116122ca57565b60409060031901126122ca576004359060243590565b90600182811c9216801561236e575b602083101461235857565b634e487b7160e01b600052602260045260246000fd5b91607f169161234d565b61010081019081106001600160401b0382111761239457604052565b634e487b7160e01b600052604160045260246000fd5b606081019081106001600160401b0382111761239457604052565b60e081019081106001600160401b0382111761239457604052565b608081019081106001600160401b0382111761239457604052565b601f909101601f19168101906001600160401b0382119082101761239457604052565b90604051918260008254926124328461233e565b9081845260019485811690816000146124a1575060011461245e575b505061245c925003836123fb565b565b9093915060005260209081600020936000915b81831061248957505061245c9350820101388061244e565b85548884018501529485019487945091830191612471565b91505061245c94506020925060ff191682840152151560051b820101388061244e565b60005b8381106124d75750506000910152565b81810151838201526020016124c7565b90602091612500815180928185528580860191016124c4565b601f01601f1916010190565b3360009081527ffdb122eb892c6b3193f8499f050265ce5458caab5f6480270d8972921f24f429602090815260408083205490926000805160206132c78339815191529160019060ff1615612562575050505050565b61256b33612b20565b92855191612578836123e0565b604283528583019360603686378351156126e3576030855383518210156126e35790607860218501536041915b818311612675575050506126455760486126419386936126259361261698519889936000805160206132878339815191528a8601526125ed815180928c6037890191016124c4565b8401917001034b99036b4b9b9b4b733903937b6329607d1b6037840152518093868401906124c4565b010360288101875201856123fb565b5192839262461bcd60e51b8452600484015260248301906124e7565b0390fd5b60648486519062461bcd60e51b825280600483015260248201526000805160206132478339815191526044820152fd5b909192600f811660108110156126cf576f181899199a1a9b1b9c1cb0b131b232b360811b901a6126a58587612af9565b5360041c9280156126bb576000190191906125a5565b634e487b7160e01b82526011600452602482fd5b634e487b7160e01b83526032600452602483fd5b634e487b7160e01b81526032600452602490fd5b3360009081527f21d442261a7cc2346fd3ca5e1f22fe015f6b71188f57ab4761df2e3faed3703f602090815260408083205490926000805160206133078339815191529160019060ff161561274d575050505050565b61275633612b20565b92855191612763836123e0565b604283528583019360603686378351156126e3576030855383518210156126e35790607860218501536041915b8183116127d8575050506126455760486126419386936126259361261698519889936000805160206132878339815191528a8601526125ed815180928c6037890191016124c4565b909192600f811660108110156126cf576f181899199a1a9b1b9c1cb0b131b232b360811b901a6128088587612af9565b5360041c9280156126bb57600019019190612790565b3360009081527fa6eef7e35abe7026729641147f7915573c7e97b47efa546f5f6e3230263bcb496020908152604080832054909260019160ff16156128635750505050565b61286c33612b20565b918185519161287a836123e0565b604283528583019360603686378351156126e3576030855383518210156126e35790607860218501536041915b8183116128ef575050506126455760486126419386936126259361261698519889936000805160206132878339815191528a8601526125ed815180928c6037890191016124c4565b909192600f811660108110156126cf576f181899199a1a9b1b9c1cb0b131b232b360811b901a61291f8587612af9565b5360041c9280156126bb576000190191906128a7565b6000818152600191602091838352604093848220338352845260ff858320541615612961575050505050565b61296a33612b20565b92855191612977836123e0565b604283528583019360603686378351156126e3576030855383518210156126e35790607860218501536041915b8183116129ec575050506126455760486126419386936126259361261698519889936000805160206132878339815191528a8601526125ed815180928c6037890191016124c4565b909192600f811660108110156126cf576f181899199a1a9b1b9c1cb0b131b232b360811b901a612a1c8587612af9565b5360041c9280156126bb576000190191906129a4565b906000918083526001602052604083209160018060a01b03169182845260205260ff604084205416612a6357505050565b8083526001602052604083208284526020526040832060ff1981541690557ff6391f5c32d9c69d2a47ea670b442974b53935d1edc7fd64eb21e047a839171b339380a4565b81810292918115918404141715612abb57565b634e487b7160e01b600052601160045260246000fd5b91908201809211612abb57565b6001600160401b03811161239457601f01601f191660200190565b908151811015612b0a570160200190565b634e487b7160e01b600052603260045260246000fd5b60405190612b2d826123aa565b602a8252602082016040368237825115612b0a57603090538151600190811015612b0a57607860218401536029905b808211612b9e575050612b6c5790565b606460405162461bcd60e51b815260206004820152602060248201526000805160206132478339815191526044820152fd5b9091600f81166010811015612bf7576f181899199a1a9b1b9c1cb0b131b232b360811b901a612bcd8486612af9565b5360041c918015612be2576000190190612b5c565b60246000634e487b7160e01b81526011600452fd5b60246000634e487b7160e01b81526032600452fd5b15612c1357565b60405162461bcd60e51b815260206004820152601f60248201527f5265656e7472616e637947756172643a207265656e7472616e742063616c6c006044820152606490fd5b15612c5f57565b60405162461bcd60e51b815260206004820152601d60248201527f416d6f756e74206d7573742062652067726561746572207468616e20300000006044820152606490fd5b8115612cae570490565b634e487b7160e01b600052601260045260246000fd5b91908203918211612abb57565b604091949392606082019560018060a01b0316825260208201520152565b60405163a9059cbb60e01b60208201526001600160a01b03909216602483015260448083019390935291815260808101916001600160401b038311828410176123945761245c92604052612d4b565b519081151582036122ca57565b604080516001600160a01b03929092169290918083016001600160401b038111828210176123945783526020938482527f5361666545524332303a206c6f772d6c6576656c2063616c6c206661696c656485830152803b15612e795790612de79160008481959282898195519301915af13d15612e71573d90612dcd82612ade565b91612dda875193846123fb565b82523d858884013e612ebd565b90815180612df7575b5050505050565b8285918101031261027b575082612e0e9101612d3e565b15612e1b57808080612df0565b60849250519062461bcd60e51b82526004820152602a60248201527f5361666545524332303a204552433230206f7065726174696f6e20646964206e6044820152691bdd081cdd58d8d9595960b21b6064820152fd5b606090612ebd565b835162461bcd60e51b815260048101869052601d60248201527f416464726573733a2063616c6c20746f206e6f6e2d636f6e74726163740000006044820152606490fd5b90919015612ec9575090565b815115612ed95750805190602001fd5b60405162461bcd60e51b8152602060048201529081906126419060248301906124e7565b51906001600160a01b03821682036122ca57565b81601f820112156122ca578051612f2781612ade565b92612f3560405194856123fb565b818452602082840101116122ca57612f5391602080850191016124c4565b90565b519060ff821682036122ca57565b15612f6b57565b60405162461bcd60e51b8152602060048201526013602482015272125b9d985b1a59081cdd1c985d1959de481251606a1b6044820152606490fd5b90601f8111612fb457505050565b600091825260208220906020601f850160051c83019410612ff0575b601f0160051c01915b828110612fe557505050565b818155600101612fd9565b9092508290612fd0565b6000198114612abb5760010190565b6001600160401b0381116123945760051b60200190565b6002548015801561304a575b6130465761303d90612f5392612aa8565b60035490612ca4565b5090565b506003541561302c565b60025480156130725761306d612f539260035490612aa8565b612ca4565b5050600090565b60018060a01b0316600052600a602052604060002060405161309a816123aa565b81549182825260026001820154918260208501520154928360408401521561312d576130c7819342612cc4565b91826130d4575b50505090565b909192505161271080820291808304821490151715612abb57613125936131206121ac9261311661310e64496cebb8009660025490612ca4565b600354612aa8565b0460075490612aa8565b612aa8565b3880806130ce565b505050600090565b60035480156131c9576005549061271091828102928184041490151715612abb5761315f91612ca4565b80600855600090611f4081116000146131a45750506102bc5b61012c908101809111612abb5760208160008051602061326783398151915292600755604051908152a1565b6113888111156131b8575050610190613178565b6107d01015613178575060c8613178565b506000600855565b600254156132435760005b600181106131e8575050565b61271090818302918383041483151715612abb576237b1d083029180830461016d1490151715612abb5760035491601e92838102938185041490151715612abb5761323e9261323691612ca4565b600755612ffa565b6131dc565b5056fe537472696e67733a20686578206c656e67746820696e73756666696369656e745d96611557274413c64267972d202ca41009c399954bcb4cbab17d2a5156fbb0416363657373436f6e74726f6c3a206163636f756e74200000000000000000007669d2328717ffda0d0e7e68960ff1e5ffee66f90e78304476acbb0da41a3f03241ecf16d79d0f8dbfb92cbc07fe17840425976cf0667f022fe9877caa831b08098d156056b1ac9d020c47e6ad89841c28ca71c86b5af2b8d19201b1a3404f76928286c473ded01ff8bf61a1986f14a0579066072fa8261442d9fea514d93a4ca2646970667358221220d40fa2fcec6ea99dbb51281868bdb3f466d16d7d9110662ae34871553a6b9f3264736f6c634300081400332f8788117e7eff1d82e926ec794901d17c78024a50270940304540a733656f0da6eef7e35abe7026729641147f7915573c7e97b47efa546f5f6e3230263bcb497669d2328717ffda0d0e7e68960ff1e5ffee66f90e78304476acbb0da41a3f03",
  "linkReferences": {},
  "deployedLinkReferences": {}
}