{
  "_format": "hh-sol-artifact-1",
  "contractName": "FylaroDeployer",
  "sourceName": "contracts/FylaroDeployer.sol",
  "abi": [
    {
      "inputs": [
        {
          "internalType": "address",
          "name": "_stablecoin",
          "type": "address"
        },
        {
          "internalType": "address",
          "name": "_feeCollector",
          "type": "address"
        },
        {
          "internalType": "address",
          "name": "_treasuryWallet",
          "type": "address"
        }
      ],
      "stateMutability": "nonpayable",
      "type": "constructor"
    },
    {
      "anonymous": false,
      "inputs": [
        {
          "indexed": false,
          "internalType": "string",
          "name": "contractName",
          "type": "string"
        },
        {
          "indexed": false,
          "internalType": "address",
          "name": "contractAddress",
          "type": "address"
        }
      ],
      "name": "ContractDeployed",
      "type": "event"
    },
    {
      "anonymous": false,
      "inputs": [
        {
          "indexed": false,
          "internalType": "address",
          "name": "gateway",
          "type": "address"
        }
      ],
      "name": "EcosystemDeployed",
      "type": "event"
    },
    {
      "anonymous": false,
      "inputs": [
        {
          "indexed": true,
          "internalType": "address",
          "name": "previousOwner",
          "type": "address"
        },
        {
          "indexed": true,
          "internalType": "address",
          "name": "newOwner",
          "type": "address"
        }
      ],
      "name": "OwnershipTransferred",
      "type": "event"
    },
    {
      "inputs": [],
      "name": "creditScoring",
      "outputs": [
        {
          "internalType": "address",
          "name": "",
          "type": "address"
        }
      ],
      "stateMutability": "view",
      "type": "function"
    },
    {
      "inputs": [],
      "name": "deployEcosystem",
      "outputs": [
        {
          "internalType": "bool",
          "name": "success",
          "type": "bool"
        }
      ],
      "stateMutability": "nonpayable",
      "type": "function"
    },
    {
      "inputs": [],
      "name": "deployed",
      "outputs": [
        {
          "internalType": "bool",
          "name": "",
          "type": "bool"
        }
      ],
      "stateMutability": "view",
      "type": "function"
    },
    {
      "inputs": [],
      "name": "feeCollector",
      "outputs": [
        {
          "internalType": "address",
          "name": "",
          "type": "address"
        }
      ],
      "stateMutability": "view",
      "type": "function"
    },
    {
      "inputs": [],
      "name": "finternetGateway",
      "outputs": [
        {
          "internalType": "address",
          "name": "",
          "type": "address"
        }
      ],
      "stateMutability": "view",
      "type": "function"
    },
    {
      "inputs": [],
      "name": "getAllContractAddresses",
      "outputs": [
        {
          "internalType": "address",
          "name": "_invoiceToken",
          "type": "address"
        },
        {
          "internalType": "address",
          "name": "_marketplace",
          "type": "address"
        },
        {
          "internalType": "address",
          "name": "_creditScoring",
          "type": "address"
        },
        {
          "internalType": "address",
          "name": "_paymentTracker",
          "type": "address"
        },
        {
          "internalType": "address",
          "name": "_unifiedLedger",
          "type": "address"
        },
        {
          "internalType": "address",
          "name": "_riskAssessment",
          "type": "address"
        },
        {
          "internalType": "address",
          "name": "_liquidityPool",
          "type": "address"
        },
        {
          "internalType": "address",
          "name": "_finternetGateway",
          "type": "address"
        }
      ],
      "stateMutability": "view",
      "type": "function"
    },
    {
      "inputs": [],
      "name": "invoiceToken",
      "outputs": [
        {
          "internalType": "address",
          "name": "",
          "type": "address"
        }
      ],
      "stateMutability": "view",
      "type": "function"
    },
    {
      "inputs": [],
      "name": "liquidityPool",
      "outputs": [
        {
          "internalType": "address",
          "name": "",
          "type": "address"
        }
      ],
      "stateMutability": "view",
      "type": "function"
    },
    {
      "inputs": [],
      "name": "marketplace",
      "outputs": [
        {
          "internalType": "address",
          "name": "",
          "type": "address"
        }
      ],
      "stateMutability": "view",
      "type": "function"
    },
    {
      "inputs": [],
      "name": "owner",
      "outputs": [
        {
          "internalType": "address",
          "name": "",
          "type": "address"
        }
      ],
      "stateMutability": "view",
      "type": "function"
    },
    {
      "inputs": [],
      "name": "paymentTracker",
      "outputs": [
        {
          "internalType": "address",
          "name": "",
          "type": "address"
        }
      ],
      "stateMutability": "view",
      "type": "function"
    },
    {
      "inputs": [],
      "name": "renounceOwnership",
      "outputs": [],
      "stateMutability": "nonpayable",
      "type": "function"
    },
    {
      "inputs": [],
      "name": "riskAssessment",
      "outputs": [
        {
          "internalType": "address",
          "name": "",
          "type": "address"
        }
      ],
      "stateMutability": "view",
      "type": "function"
    },
    {
      "inputs": [],
      "name": "stablecoin",
      "outputs": [
        {
          "internalType": "address",
          "name": "",
          "type": "address"
        }
      ],
      "stateMutability": "view",
      "type": "function"
    },
    {
      "inputs": [
        {
          "internalType": "address",
          "name": "newOwner",
          "type": "address"
        }
      ],
      "name": "transferOwnership",
      "outputs": [],
      "stateMutability": "nonpayable",
      "type": "function"
    },
    {
      "inputs": [],
      "name": "treasuryWallet",
      "outputs": [
        {
          "internalType": "address",
          "name": "",
          "type": "address"
        }
      ],
      "stateMutability": "view",
      "type": "function"
    },
    {
      "inputs": [],
      "name": "unifiedLedger",
      "outputs": [
        {
          "internalType": "address",
          "name": "",
          "type": "address"
        }
      ],
      "stateMutability": "view",
      "type": "function"
    },
    {
      "inputs": [
        {
          "internalType": "address",
          "name": "_stablecoin",
          "type": "address"
        },
        {
          "internalType": "address",
          "name": "_feeCollector",
          "type": "address"
        },
        {
          "internalType": "address",
          "name": "_treasuryWallet",
          "type": "address"
        }
      ],
      "name": "updateConfig",
      "outputs": [
        {
          "internalType": "bool",
          "name": "success",
          "type": "bool"
        }
      ],
      "stateMutability": "nonpayable",
      "type": "function"
    }
  ],
  "bytecode": "0x608034620001cd57601f6201d77838819003918201601f191683019291906001600160401b03841183851017620001d2578160609284926040968752833981010312620001cd576200005181620001e8565b906200006d836200006560208401620001e8565b9201620001e8565b60008054336001600160a01b03198083168217845587519690956001600160a01b03949093859391908416907f8be0079c531659141344cd1fd0a4f28419497f9722a3daafe3b4186f6b6457e09080a3169485156200018b57508116918215620001475716928315620001035782600954161760095581600a541617600a55600b541617600b55516201d57a9081620001fe8239f35b845162461bcd60e51b815260206004820152601f60248201527f496e76616c69642074726561737572792077616c6c65742061646472657373006044820152606490fd5b855162461bcd60e51b815260206004820152601d60248201527f496e76616c69642066656520636f6c6c6563746f7220616464726573730000006044820152606490fd5b62461bcd60e51b815260206004820152601a60248201527f496e76616c696420737461626c65636f696e20616464726573730000000000006044820152606490fd5b600080fd5b634e487b7160e01b600052604160045260246000fd5b51906001600160a01b0382168203620001cd5756fe60808060405260043610156200001457600080fd5b600090813560e01c9081630726bd6a14620010365750806311c9a94d1462000ebe5780633b33b61a1462000e495780634626402b1462000e1e578063464b53911462000df3578063665a11ca1462000dc857806370a1a7d51462000d9d578063711e6d081462000355578063715018a614620003085780637ba0d4ca14620002dd5780638da5cb5b14620002b45780639883688f14620002895780639a2df2c9146200025e578063abc8c7af1462000233578063c415b95c1462000208578063e9cbd82214620001dd578063f2fde38b14620001245763f905c15a14620000fa57600080fd5b346200012157806003193601126200012157602060ff600b5460a01c166040519015158152f35b80fd5b5034620001215760203660031901126200012157620001426200105d565b6200014c62001079565b6001600160a01b0390811690811562000189576000548260018060a01b0319821617600055166000805160206201d525833981519152600080a380f35b60405162461bcd60e51b815260206004820152602660248201527f4f776e61626c653a206e6577206f776e657220697320746865207a65726f206160448201526564647265737360d01b6064820152608490fd5b503462000121578060031936011262000121576009546040516001600160a01b039091168152602090f35b50346200012157806003193601126200012157600a546040516001600160a01b039091168152602090f35b503462000121578060031936011262000121576002546040516001600160a01b039091168152602090f35b503462000121578060031936011262000121576008546040516001600160a01b039091168152602090f35b503462000121578060031936011262000121576003546040516001600160a01b039091168152602090f35b50346200012157806003193601126200012157546040516001600160a01b039091168152602090f35b503462000121578060031936011262000121576004546040516001600160a01b039091168152602090f35b503462000121578060031936011262000121576200032562001079565b600080546001600160a01b0319811682556001600160a01b03166000805160206201d5258339815191528280a380f35b50346200012157600319818136011262000c3b576200037362001079565b600b546200038860ff8260a01c1615620010d2565b6040519061323780830191906001600160401b0383118484101762000d75579183916020936200814f84396001600160a01b0316815203019083f0801562000c0957600180546001600160a01b0319166001600160a01b039092169182179055604080518181526000805160206201d5058339815191529290918291906200041290830162001112565b9060208301520390a160405161292f808201906001600160401b0382118383101762000d89579082916200128c8339039083f0801562000c0957600380546001600160a01b0319166001600160a01b039092169182179055604080518181526000805160206201d5058339815191529290918291906200049490830162001131565b9060208301520390a16001546040519061192c808301916001600160a01b0316906001600160401b0383118484101762000d75579183916020936200f3088439815203019083f0801562000c0957600280546001600160a01b0319166001600160a01b039092169182179055604080518181526000805160206201d5058339815191529290918291906200052a90830162001151565b9060208301520390a1600154600a54604051916001600160a01b03918216911661358b808401906001600160401b0382118583101762000d615791849391620005799362010c3486396200116f565b039083f0801562000c0957600480546001600160a01b0319166001600160a01b039092169182179055604080518181526000805160206201d505833981519152929091829190620005cc90830162001189565b9060208301520390a1600154600354604051916001600160a01b039182169116614b69808401906001600160401b0382118583101762000d6157918493916200061b936201899c86396200116f565b039083f0801562000c0957600580546001600160a01b0319166001600160a01b039092169182179055604080518181526000805160206201d5058339815191529290918291906200066e908301620011aa565b9060208301520390a1600154600354604051916001600160a01b0391821691166147dd808401906001600160401b0382118583101762000d615791849391620006bd93620141bf86396200116f565b039083f0801562000c0957600680546001600160a01b0319166001600160a01b039092169182179055604080518181526000805160206201d50583398151915292909182919062000710908301620011ca565b9060208301520390a1600954600154600354600b546040516001600160a01b0391821694909392821692821691166001600160401b03613f8285019081119085111762000d6157613f826200b3868539613f828401526020613f82840101526040613f828301015260609182613f8283010152608081613f82810103019084f0801562000d5657600780546001600160a01b0319166001600160a01b039092169182179055604080518181526000805160206201d505833981519152929091829190620007df908301620011eb565b9060208301520390a160095460405190614594808301916001600160a01b0316906001600160401b0383118484101762000d615791839160209362003bbb8439815203019084f0801562000d565760018060a01b0316918260018060a01b031960085416176008556000805160206201d505833981519152608060405160408152601160408201527046696e7465726e656e744761746577617960781b85820152856020820152a160015460405163a738e97560e01b80825260048201859052946001600160a01b0390921693909160649187620008bf84860162001112565b976024978887015260208680620008e260449c8d8c848303019084015262001273565b038185885af195861562000c09576200093f9662000d32575b506002546040518281526004810185905296602091889182916001600160a01b03166200092a8a840162001151565b908d8401528d8c848303019084015262001273565b038185885af195861562000c0957620009879662000d0e575b506003546040518281526004810185905296602091889182916001600160a01b03166200092a8a840162001131565b038185885af195861562000c0957620009cb9662000cea575b50602060018060a01b0360045416604051809881928583528760048401526200092a8a840162001189565b038185885af195861562000c095762000a139662000cc6575b506005546040518281526004810185905296602091889182916001600160a01b03166200092a8a8401620011aa565b038185885af195861562000c095762000a5b9662000ca2575b506006546040518281526004810185905296602091889182916001600160a01b03166200092a8a8401620011ca565b038185885af1801562000c095762000aa19760209762000ab49262000c80575b5060018060a01b036007541690604051998a9889978896875260048701528501620011eb565b918b850152838203018b84015262001273565b03925af1801562000c755762000c3f575b506003546008546001600160a01b039081169391859116803b1562000c3b5781908360405180948193632f2ff15d60e01b998a84527f9f4de61ee0a27bbb9b31d54eb4763d20f594fd4e21db4df58a141f10a97b35676004850152898401525af1801562000c305762000c18575b506004546008546001600160a01b039081169486949392909116803b1562000c14578490604051968795869485527f241ecf16d79d0f8dbfb92cbc07fe17840425976cf0667f022fe9877caa831b0860048601528401525af1801562000c095762000bf1575b600b805460ff60a01b1916600160a01b1790556008546040516001600160a01b039190911681527f0f0bcaec3239e4b6a292c8c651b626413fb70e53b46ed28cee4b2dcb528d58bd90602090a1602060405160018152f35b62000bfd82916200120b565b62000121578062000b99565b6040513d84823e3d90fd5b8480fd5b62000c2790949192946200120b565b92903862000b33565b6040513d87823e3d90fd5b5080fd5b62000c659060203d60201162000c6d575b62000c5c818362001235565b81019062001259565b503862000ac5565b503d62000c50565b6040513d86823e3d90fd5b62000c9a90893d8b1162000c6d5762000c5c818362001235565b503862000a7b565b62000cbe9060203d60201162000c6d5762000c5c818362001235565b503862000a2c565b62000ce29060203d60201162000c6d5762000c5c818362001235565b5038620009e4565b62000d069060203d60201162000c6d5762000c5c818362001235565b5038620009a0565b62000d2a9060203d60201162000c6d5762000c5c818362001235565b503862000958565b62000d4e9060203d60201162000c6d5762000c5c818362001235565b5038620008fb565b6040513d85823e3d90fd5b634e487b7160e01b87526041600452602487fd5b634e487b7160e01b86526041600452602486fd5b634e487b7160e01b85526041600452602485fd5b503462000121578060031936011262000121576006546040516001600160a01b039091168152602090f35b503462000121578060031936011262000121576007546040516001600160a01b039091168152602090f35b503462000121578060031936011262000121576001546040516001600160a01b039091168152602090f35b50346200012157806003193601126200012157600b546040516001600160a01b039091168152602090f35b5034620001215780600319360112620001215761010060018060a01b03806001541690806002541690806003541681600454168260055416908360065416928460075416946008541695604051978852602088015260408701526060860152608085015260a084015260c083015260e0820152f35b503462000121576060366003190112620001215762000edc6200105d565b6024356001600160a01b03818116929183900362001032576044359381851680950362000121575062000f0e62001079565b600b549162000f2460ff8460a01c1615620010d2565b1691821562000ff057801562000fab57831562000f665760018060a01b03199283600954161760095582600a541617600a551617600b55602060405160018152f35b60405162461bcd60e51b815260206004820152601f60248201527f496e76616c69642074726561737572792077616c6c65742061646472657373006044820152606490fd5b60405162461bcd60e51b815260206004820152601d60248201527f496e76616c69642066656520636f6c6c6563746f7220616464726573730000006044820152606490fd5b60405162461bcd60e51b815260206004820152601a602482015279496e76616c696420737461626c65636f696e206164647265737360301b6044820152606490fd5b8380fd5b90503462000c3b578160031936011262000c3b576005546001600160a01b03168152602090f35b600435906001600160a01b03821682036200107457565b600080fd5b6000546001600160a01b031633036200108e57565b606460405162461bcd60e51b815260206004820152602060248201527f4f776e61626c653a2063616c6c6572206973206e6f7420746865206f776e65726044820152fd5b15620010da57565b60405162461bcd60e51b815260206004820152601060248201526f105b1c9958591e4819195c1b1bde595960821b6044820152606490fd5b600c81526b24b73b37b4b1b2aa37b5b2b760a11b602082015260400190565b600d81526c43726564697453636f72696e6760981b602082015260400190565b600b81526a4d61726b6574706c61636560a81b602082015260400190565b6001600160a01b0391821681529116602082015260400190565b600e81526d2830bcb6b2b73a2a3930b1b5b2b960911b602082015260400190565b600d81526c2ab734b334b2b22632b233b2b960991b602082015260400190565b600e81526d149a5cdad05cdcd95cdcdb595b9d60921b602082015260400190565b600d81526c131a5c5d5a591a5d1e541bdbdb609a1b602082015260400190565b6001600160401b0381116200121f57604052565b634e487b7160e01b600052604160045260246000fd5b601f909101601f19168101906001600160401b038211908210176200121f57604052565b908160209103126200107457518015158103620010745790565b60058152640312e302e360dc1b60208201526040019056fe608060408181523462000209576107d09060018080556008600091828052602090838252848420338552825260ff858520541615620001d2575b7f73e573f9566d61418a34d5de3ff49360f9c51fec37f7486551670290f6285dab808552848352858520338652835260ff86862054161562000199575b507f0ce23c3e399818cfee81a7ab0880f714e53d7672b08df0fa62f2843416e1ea09808552848352858520338652835260ff86862054161562000160575b5083805260028252605a858520558084526050858520556002845260558585205560038452606e858520556004845260648585205560058452605f85852055600684526069858520556007845260738585205582845260558585205560098452606e85852055600a84526078858520558352526032828220556002815260c882822055600381526101f482822055600481526103e88282205560058152205561270090816200020f8239f35b80855284835285852033865283528585208260ff19825416179055339033906000805160206200290f8339815191528780a438620000b4565b80855284835285852033865283528585208260ff19825416179055339033906000805160206200290f8339815191528780a43862000076565b83805283825284842033855282528484208160ff198254161790553333856000805160206200290f8339815191528180a462000039565b600080fdfe6080604052600436101561001257600080fd5b60003560e01c806291588a1461143957806301ffc9a7146113e357806302cb7d0e146113af5780630f954e1e1461133a578063137c94d01461117d5780631b21504014611143578063248a9ca31461111457806325246fcf146110905780632f2ff15d14610fdd5780632f30aa4714610f1657806336568abe14610e8457806347e6338014610e5b578063503de9d014610e2f578063589a389d14610dfb5780636518044e14610dca57806391d1485414610d7d57806393a7021414610d04578063a217fddf14610ce8578063a3c7b6ce14610a51578063ab6ad7fe1461093c578063ab95a7481461091e578063b1055144146103a1578063c22b658c146102aa578063cc38b4771461020a578063cd1d81ff146101ec578063d547741f146101ab578063e7705db6146101825763f1c3753a1461014f57600080fd5b3461017d57602036600319011261017d57602061017261016d61185e565b611fca565b60ff60405191168152f35b600080fd5b3461017d57600036600319011261017d5760206040516000805160206126ab8339815191528152f35b3461017d57604036600319011261017d576101ea6004356101ca611874565b908060005260006020526101e5600160406000200154611b46565b611cdb565b005b3461017d57600036600319011261017d576020600b54604051908152f35b3461017d57604036600319011261017d5761022361185e565b6001600160a01b031660009081526006602052604090208054602435919082101561017d5760e09161025491611b14565b5080549060018101549061029e6002820154600383015460ff600485015416916006600586015495015495604051978852602088015260408701526060860152608085019061188a565b60a083015260c0820152f35b3461017d57602036600319011261017d5760206001600160a01b03806102ce61185e565b166000526003825260406000208054916001820154166102f060028301611a3c565b9160038101549260048201546005830154600684015460078501549160088601549360ff6103498160098a01541697600b600a8b01549a01549a6040519e8f9e8f908152015260408d6101c091829101528d0190611ae2565b9961035960608d01838316611b07565b818160081c1660808d015260101c1660a08b015260c08a015260e089015261010088015261012087015261014086015215156101608501526101808401526101a08301520390f35b3461017d57606036600319011261017d576103ba61185e565b6024356001600160401b03811161017d573660238201121561017d576001600160401b0360048201351161017d5736602482600401358301011161017d57600b604435101561017d576001600160a01b038216156108de576001600160a01b03821660009081526003602052604090205461089b5760405181600401356024830182376005600483013582019081528190036020019020546001600160a01b031661085957600b549061046c82611e7c565b600b556040519261047c84611940565b61012c84526101f460208501526107d06080610320958660408201526104b0606082015201526104ad6044356118f0565b548481810204810361084357606490604051956104c987611924565b8587526001600160a01b03841660208801526104ed36600487013560248801611999565b604088015261050160443560608901611e8b565b60326080880152600360a0880152600060c0880152600060e088015260006101008801526000610120880152600061014088015260006101608801524261018088015202046101a085015260018060a01b03811660005260036020526040600020918451835560018060a01b0360208601511660018060a01b0319600185015416176001840155604085015180519060018060401b03821161082d5781906105ac6002870154611a02565b601f81116107da575b50602090601f831160011461076d57600092610762575b50508160011b916000199060031b1c19161760028401555b606085015192600b84101561074c57600b6101a06020976106308897600386019060ff8019835416911617815561062260ff60808501511682611e97565b60ff60a08401511690611ead565b60c0810151600485015560e081015160058501556101008101516006850155610120810151600785015561014081015160088501556106856101608201511515600986019060ff801983541691151516179055565b610180810151600a85015501519101556000838152600480875260409182902080546001600160a01b0319166001600160a01b038616179055905191869183919081013560248201833760056004919091013582019081520301902080546001600160a01b0319166001600160a01b03831690811790915561070690611ec5565b507fff4d3d176f19cf4da51626846023be00c8437e0f567a6dceac1a0f09dcd855c9846040519261073984604435611b07565b6001600160a01b031692a3604051908152f35b634e487b7160e01b600052602160045260246000fd5b0151905087806105cc565b600287016000908152602081209350601f198516905b8181106107c257509084600195949392106107a9575b505050811b0160028401556105e4565b015160001960f88460031b161c19169055878080610799565b92936020600181928786015181550195019301610783565b909150600286016000526020600020601f840160051c810160208510610826575b90849392915b601f830160051c820181106108175750506105b5565b60008155859450600101610801565b50806107fb565b634e487b7160e01b600052604160045260246000fd5b634e487b7160e01b600052601160045260246000fd5b60405162461bcd60e51b815260206004820152601a602482015279427573696e65737320494420616c72656164792065786973747360301b6044820152606490fd5b60405162461bcd60e51b815260206004820152601b60248201527a109d5cda5b995cdcc8185b1c9958591e481c9959da5cdd195c9959602a1b6044820152606490fd5b60405162461bcd60e51b8152602060048201526018602482015277496e76616c696420627573696e657373206164647265737360401b6044820152606490fd5b3461017d57600036600319011261017d576020600954604051908152f35b3461017d57602036600319011261017d5760606001600160a01b038061096061185e565b1680600052600360205261097a6040600020541515611f4b565b60005260036020526101a060406000206040519261099784611924565b8154845260018201541660208401526109b260028201611a3c565b60408401526003810154926109cc60ff8516868301611e8b565b600b60ff808660081c169586608085015260101c16928360a0840152600481015460c0840152600581015460e084015260068101546101008401526007810154610120840152600881015461014084015260ff6009820154161515610160840152600a8101546101808401520154928391015260405192835260208301526040820152f35b3461017d57604036600319011261017d57610a6a61185e565b60248035918215159081840361017d573360009081527f1da0b5176dfe03406af5a6eed66ca01dda9b45ac4da671c3fa379cb93717ef8160209081526040909120549093906000805160206126ab8339815191529060ff1615610b3a57857fa3ce0f8b75d9bfdb1e275c3fc980bb233818a774ea2de83d2909fa3ff7c6be268686610b318760018060a01b0316948560005260038452610b106040600020541515611f4b565b856000526003845260096040600020019060ff801983541691151516179055565b604051908152a2005b8490610b4533611d80565b90604051610b528161195b565b60428152838101916060368437815115610cd357603083538151600190811015610cbe57607860218401536041905b808211610c50575050610c20576048610c1c93610bf193610c009360405195869360008051602061264b8339815191528a860152610bc8815180928c6037890191016119df565b8401917001034b99036b4b9b9b4b733903937b6329607d1b6037840152518093868401906119df565b01036028810184520182611976565b60405193849362461bcd60e51b85526004850152830190611ae2565b0390fd5b606485856040519162461bcd60e51b835281600484015282015260008051602061260b8339815191526044820152fd5b9091600f81166010811015610ca9576f181899199a1a9b1b9c1cb0b131b232b360811b901a610c7f8486611d6f565b5360041c918015610c94576000190190610b81565b87634e487b7160e01b60005260116004526000fd5b88634e487b7160e01b60005260326004526000fd5b86634e487b7160e01b60005260326004526000fd5b85634e487b7160e01b60005260326004526000fd5b3461017d57600036600319011261017d57602060405160008152f35b3461017d57602036600319011261017d576004356001600160401b03811161017d573660238201121561017d57610d476020913690602481600401359101611999565b81610d5b60405192838151938492016119df565b600590820190815281900382019020546040516001600160a01b039091168152f35b3461017d57604036600319011261017d57610d96611874565b600435600052600060205260406000209060018060a01b0316600052602052602060ff604060002054166040519015158152f35b3461017d57602036600319011261017d57600435600b81101561017d57610df26020916118f0565b54604051908152f35b3461017d57602036600319011261017d5760ff610e166118e0565b1660005260086020526020604060002054604051908152f35b3461017d57602036600319011261017d5760043560005260076020526020604060002054604051908152f35b3461017d57600036600319011261017d57602060405160008051602061266b8339815191528152f35b3461017d57604036600319011261017d57610e9d611874565b336001600160a01b03821603610eb9576101ea90600435611cdb565b60405162461bcd60e51b815260206004820152602f60248201527f416363657373436f6e74726f6c3a2063616e206f6e6c792072656e6f756e636560448201526e103937b632b9903337b91039b2b63360891b6064820152608490fd5b3461017d57604036600319011261017d57610f2f61185e565b60243590610f3b612427565b5060018060a01b031690816000526003602052610f5e6040600020541515611f4b565b816000526006602052604060002054811015610fa557610f90610f969160e09360005260066020526040600020611b14565b50612473565b610fa36040518092611897565bf35b60405162461bcd60e51b815260206004820152601060248201526f149958dbdc99081b9bdd08199bdd5b9960821b6044820152606490fd5b3461017d57604036600319011261017d57600435610ff9611874565b816000526000602052611013600160406000200154611b46565b81600052600060205260406000209060018060a01b0316908160005260205260ff604060002054161561104257005b8160005260006020526040600020816000526020526040600020600160ff1982541617905533917f2f8788117e7eff1d82e926ec794901d17c78024a50270940304540a733656f0d600080a4005b3461017d57602036600319011261017d576004356009548110156110d957600960005260008051602061268b83398151915201546040516001600160a01b039091168152602090f35b60405162461bcd60e51b8152602060048201526013602482015272496e646578206f7574206f6620626f756e647360681b6044820152606490fd5b3461017d57602036600319011261017d5760043560005260006020526020600160406000200154604051908152f35b3461017d57604036600319011261017d5761115c6118e0565b60243590600b82101561017d5760209161117591612349565b604051908152f35b3461017d57604036600319011261017d57600435600b81101561017d573360009081527fad3228b676f7d3cd4284a5443f17f1962b36e491b30a40b2405849e597ba5fb56020908152604090912054602480359160ff1615611268578115158061125d575b1561121f575090817f4e085230c6eab40695e1caea859cc0914709e55a21b084c0252798901442379b92611215856118f0565b55604051908152a2005b8260186064926040519262461bcd60e51b8452600484015282015277496e76616c6964206d756c7469706c6965722072616e676560401b6044820152fd5b5060c88211156111e2565b8261127233611d80565b60006040516112808161195b565b60428152838101916060368437815115610cd357603083538151600190811015610cbe57607860218401536041905b8082116112f6575050610c20576048610c1c93610bf193610c009360405195869360008051602061264b8339815191528a860152610bc8815180928c6037890191016119df565b9091600f81166010811015610ca9576f181899199a1a9b1b9c1cb0b131b232b360811b901a6113258486611d6f565b5360041c918015610c945760001901906112af565b3461017d57606036600319011261017d5761136361135661185e565b60443590602435906124cd565b6040516020918282018383528151809152836040840192019360005b82811061138c5784840385f35b9091928260e0826113a06001948a51611897565b0196019101949291909461137f565b3461017d57602036600319011261017d576004356000526004602052602060018060a01b0360406000205416604051908152f35b3461017d57602036600319011261017d5760043563ffffffff60e01b811680910361017d57602090637965db0b60e01b8114908115611428575b506040519015158152f35b6301ffc9a760e01b1490508261141d565b3461017d5760a036600319011261017d5761145261185e565b60248035916044356064359060843592600584101561017d573360009081527f738678fe42df6a4211eb7628ac9b056229141839eb4f4ef4cc249f1d36e8c921602090815260409091205490929060008051602061266b8339815191529060ff161561178b575060018060a01b0382169586600052600384526114db6040600020541515611f4b565b600094828111611774575b8760005260068552604060002054906040519161150283611909565b8252858201908a82526040830194855260608301908152608083016115278a82611fbe565b60a084019089825260c08501924284528c60005260068a526040600020978854600160401b81101561175f576115649060019a8b82018155611b14565b96909661174a5787518755518987015551600286015551600385015560048401905160058110156117355790600693929160ff801983541691161790555160058401555191015551886000526007855260406000205586600052600384526040600020600481018054908482018092116117205755866116365760050190815492830180931161162257506040949260008051602061262b83398151915296949261160f9255611fca565b5061161c8451809461188a565b820152a3005b634e487b7160e01b60009081526011600452fd5b60008388148015611713575b156116b457506006810180549384019283851161162257509560008051602061262b83398151915297959383600883979461160f9660409b550191825480156000146116915750505055611fca565b936116a36116a8926116ad9596611d4f565b611d62565b611f9e565b9055611fca565b6116fe57600387146116e1575b5050509160008051602061262b833981519152939161160f604094611fca565b6007019081549283018093116116225750558161160f60406116c1565b50634e487b7160e01b60009081526021600452fd5b5050600060028814611642565b83634e487b7160e01b60005260116004526000fd5b86634e487b7160e01b60005260216004526000fd5b88634e487b7160e01b60005260006004526000fd5b88634e487b7160e01b60005260416004526000fd5b9450620151806117848387611f91565b04946114e6565b83879161179733611d80565b906040516117a48161195b565b60428152838101916060368437815115610cd357603083538151600190811015610cbe57607860218401536041905b80821161181a575050610c20576048610c1c93610bf193610c009360405195869360008051602061264b8339815191528a860152610bc8815180928c6037890191016119df565b9091600f81166010811015610ca9576f181899199a1a9b1b9c1cb0b131b232b360811b901a6118498486611d6f565b5360041c918015610c945760001901906117d3565b600435906001600160a01b038216820361017d57565b602435906001600160a01b038216820361017d57565b90600582101561074c5752565b60c08091805184526020810151602085015260408101516040850152606081015160608501526118cf6080820151608086019061188a565b60a081015160a08501520151910152565b6004359060ff8216820361017d57565b600b81101561074c576000526002602052604060002090565b60e081019081106001600160401b0382111761082d57604052565b6101c081019081106001600160401b0382111761082d57604052565b60a081019081106001600160401b0382111761082d57604052565b608081019081106001600160401b0382111761082d57604052565b601f909101601f19168101906001600160401b0382119082101761082d57604052565b9192916001600160401b03821161082d57604051916119c2601f8201601f191660200184611976565b82948184528183011161017d578281602093846000960137010152565b60005b8381106119f25750506000910152565b81810151838201526020016119e2565b90600182811c92168015611a32575b6020831014611a1c57565b634e487b7160e01b600052602260045260246000fd5b91607f1691611a11565b9060405191826000825492611a5084611a02565b908184526001948581169081600014611abf5750600114611a7c575b5050611a7a92500383611976565b565b9093915060005260209081600020936000915b818310611aa7575050611a7a93508201013880611a6c565b85548884018501529485019487945091830191611a8f565b915050611a7a94506020925060ff191682840152151560051b8201013880611a6c565b90602091611afb815180928185528580860191016119df565b601f01601f1916010190565b90600b82101561074c5752565b8054821015611b30576000526007602060002091020190600090565b634e487b7160e01b600052603260045260246000fd5b600090808252602090828252604092838120338252835260ff848220541615611b6f5750505050565b611b7833611d80565b91845190611b858261195b565b60428252848201926060368537825115611cc75760308453825190600191821015611cc75790607860218501536041915b818311611c5957505050611c29576048610c1c938693611c0d93611bfe985198899360008051602061264b8339815191528a860152610bc8815180928c6037890191016119df565b01036028810187520185611976565b5192839262461bcd60e51b845260048401526024830190611ae2565b60648486519062461bcd60e51b8252806004830152602482015260008051602061260b8339815191526044820152fd5b909192600f81166010811015611cb3576f181899199a1a9b1b9c1cb0b131b232b360811b901a611c898587611d6f565b5360041c928015611c9f57600019019190611bb6565b634e487b7160e01b82526011600452602482fd5b634e487b7160e01b83526032600452602483fd5b634e487b7160e01b81526032600452602490fd5b9060009180835282602052604083209160018060a01b03169182845260205260ff604084205416611d0b57505050565b80835282602052604083208284526020526040832060ff1981541690557ff6391f5c32d9c69d2a47ea670b442974b53935d1edc7fd64eb21e047a839171b339380a4565b8181029291811591840414171561084357565b9190820180921161084357565b908151811015611b30570160200190565b60405190606082016001600160401b0381118382101761082d57604052602a8252602082016040368237825115611b3057603090538151600190811015611b3057607860218401536029905b808211611e0e575050611ddc5790565b606460405162461bcd60e51b8152602060048201526020602482015260008051602061260b8339815191526044820152fd5b9091600f81166010811015611e67576f181899199a1a9b1b9c1cb0b131b232b360811b901a611e3d8486611d6f565b5360041c918015611e52576000190190611dcc565b60246000634e487b7160e01b81526011600452fd5b60246000634e487b7160e01b81526032600452fd5b60001981146108435760010190565b600b82101561074c5752565b9061ff0082549160081b169061ff001916179055565b9062ff000082549160101b169062ff00001916179055565b6000818152600a6020526040812054611f4657600954600160401b811015611f32576001810180600955811015611f1e5760008051602061268b83398151915201829055600954918152600a6020526040902055600190565b634e487b7160e01b82526032600452602482fd5b634e487b7160e01b82526041600452602482fd5b905090565b15611f5257565b60405162461bcd60e51b8152602060048201526017602482015276109d5cda5b995cdcc81b9bdd081c9959da5cdd195c9959604a1b6044820152606490fd5b9190820391821161084357565b8115611fa8570490565b634e487b7160e01b600052601260045260246000fd5b600582101561074c5752565b6001600160a01b0316600081815260036020526040812054909190611ff0901515611f4b565b8082526003602052604082206003810180549060ff91828160081c1693600480820154801561233d57600593848401549160649283810290808204851490151715612204578161203f91611f9e565b91836007870154801580156122f0575b5050898592600889015480158015612272575b50509061206f91166118f0565b5485811161224f575084925b6014811061223d575084935b60238102908082046023149015171561222a57601e820291808304601e149015171561222a57906120b791611d62565b60148202918083046014149015171561221757906120d491611d62565b600a820291808304600a149015171561220457906120f191611d62565b858202918083048714901517156121f15791878161213860609a9896947f4f8ac23fe70d2ffc0085ab7573c34ab3270473d47da336eee668ff6caafe72889c9a9896611d62565b04828111156121e8575050995b61214f8b86611e97565b5042600a83015589851692605a8410612198575050600b612180856001955b6121788782611ead565b541685612349565b9101556040519384526020840152166040820152a290565b604b84106121b0575050600b6121808560029561216e565b85603285106121ca57600b9250612180915060039561216e565b600b9261218092601987106121e057509561216e565b90509561216e565b169a9050612145565b634e487b7160e01b8b526011845260248bfd5b634e487b7160e01b8c526011855260248cfd5b634e487b7160e01b8d526011865260248dfd5b634e487b7160e01b8e526011875260248efd5b888102908104890361222a5793612087565b801561225f57612710049261207b565b634e487b7160e01b8e526012875260248efd5b9194509150600782116122a5578982029182048a14171561222a57850385811161222a578a61206f91935b909138612062565b50601e81116122e357600619810190811161222a578060011b908082046002149015171561222a576041036041811161222a578a61206f919361229d565b5061206f8a600f9361229d565b868202925090820486141715612217578261230a91611f9e565b60328111612336578060011b9080820460021490151715612217578403848111612217575b388061204f565b508b61232f565b50505050505091505090565b60ff6040519161235883611940565b61012c83526101f4602084015261032060408401526104b060608401526107d0608084015216600181101580612405575b156123cb57600019019160ff831161084357600560ff84161015611b30576123c06123c792611fe060649560051b160151916118f0565b5490611d4f565b0490565b60405162461bcd60e51b8152602060048201526012602482015271125b9d985b1a59081c9a5cdac81b195d995b60721b6044820152606490fd5b506005811115612389565b6001600160401b03811161082d5760051b60200190565b6040519061243482611909565b8160c06000918281528260208201528260408201528260608201528260808201528260a08201520152565b8051821015611b305760209160051b010190565b9060405161248081611909565b60c060068294805484526001810154602085015260028101546040850152600381015460608501526124bc60ff60048301541660808601611fbe565b600581015460a08501520154910152565b91909160018060a01b0316916000838152602090600382526040916124f6838320541515611f4b565b85825260069081815283832054808610156125d157806125168888611d62565b116125bd575b5061252686612410565b9661253385519889611976565b868852601f1961254288612410565b0182855b8281106125a757505050835b87811061256457505050505050505090565b6125a290828652848452612587610f90888820612581848c611d62565b90611b14565b612591828c61245f565b5261259c818b61245f565b50611e7c565b612552565b6125af612427565b82828d010152018390612546565b6125ca9196508590611f91565b943861251c565b508351965091945050840191506001600160401b038211848310176125f65752815290565b634e487b7160e01b83526041600452602483fdfe537472696e67733a20686578206c656e67746820696e73756666696369656e7434989bb0945d28de587f9e906cd19387106c0c6be48374b981f749524d6ef8c1416363657373436f6e74726f6c3a206163636f756e742000000000000000000073e573f9566d61418a34d5de3ff49360f9c51fec37f7486551670290f6285dab6e1540171b6c0c960b71a7020d9f60077f6af931a8bbf590da0223dacf75c7af0ce23c3e399818cfee81a7ab0880f714e53d7672b08df0fa62f2843416e1ea09a2646970667358221220c885a1ae43538ec083c80485b265394ce772c8f011b5f4199df95ae1f277448264736f6c634300081400332f8788117e7eff1d82e926ec794901d17c78024a50270940304540a733656f0d608034620009bb57601f1990601f620045943881900382810185168401936001600160401b0392909183861183871017620009c05780839260409788528339602092839181010312620009bb57516001600160a01b03811690819003620009bb5760019360009185835580156200097757600980546001600160a01b03191691909117905581805284835285822033835283528582205460ff161562000940575b7f241ecf16d79d0f8dbfb92cbc07fe17840425976cf0667f022fe9877caa831b08808352858452868320338452845260ff87842054161562000907575b507f97667070c54ef182b0f5858b034beac1b6f3089aa2d3188bb1e8929f4fa9b929808352858452868320338452845260ff878420541615620008ce575b507fc2979137d1774e40fe2638d355bf7a7b092be4c67f242aad1655e1e27f9df9cc808352858452868320338452845260ff87842054161562000895575b5062000164620009d6565b90600882526769737375616e636560c01b8483015286518481620001898186620009f6565b600c815203019020978251868111620008815789548881811c9116801562000876575b8782101462000862578381116200081a575b5085838211600114620007b55799816002928b9c889c9b9c91620007a9575b50600019600383901b1c1916908b1b1781555b60648a820155018054610100600160a81b033360081b166001600160a81b031991821681178b1790925588519094919391819062000230908290620009f6565b0390208851606481528a888201527fa5e32259185fb502078246fd3196ba8f57e17c171f68d7bf52d60c4f993ddabb998a91a26200026d620009d6565b600781526674726164696e6760c81b878201528a518781620002908185620009f6565b600c8152030190208151898111620006c25781548c81811c911680156200079e575b8a821014620006a35784811162000756575b508b89858311600114620006e257918080620003159695936002958d93620006d6575b501b916000199060031b1c19161781555b60328d820155018b8688835416171790558b5191828092620009f6565b039020888b8051603281528c8a820152a262000330620009d6565b600c81526b3b32b934b334b1b0ba34b7b760a11b878201528a518781620003588185620009f6565b600c8152030190208151898111620006c25781548c81811c91168015620006b7575b8a821014620006a3578481116200065b575b508b89858311600114620005e757918080620003db9695936002958d93620005db575b501b916000199060031b1c19161781555b60c88d8201550185878254161790558b5191828092620009f6565b039020888b805160c88152888a820152a2620003f6620009d6565b94600a8652691cd95d1d1b195b595b9d60b21b878701528a5187816200041d818a620009f6565b600c815203019020928651988911620005c75783548b81811c91168015620005bc575b89821014620005a857918391838e9a999897958e97951162000546575b5088928b11600114620004d65750988060029392620004ad999a9b91620004ca575b50600019600383901b1c191690851b1781555b601984820155019283541617179055835191828092620009f6565b0390209382519160198352820152a251613b50908162000a248239f35b9050870151386200047f565b8a939a929192168a8352888320925b8181106200052b575092620004ad98999a928692826002961062000511575b5050811b01815562000492565b89015160001960f88460031b161c19169055388062000504565b8883015184558e9a508d9690930192918901918901620004e5565b9184965080949193959798999a505288832084808c0160051c8201928b8d106200059e575b918f9b9a9998968f9896949295930160051c01905b8181106200058f57506200045d565b8381558f9b508e970162000580565b925081926200056b565b634e487b7160e01b83526022600452602483fd5b90607f169062000440565b634e487b7160e01b82526041600452602482fd5b870151925038620003af565b868392931690848b528b8b20918b5b8d8282106200063d575050918391620003db979694600296941062000623575b5050811b018155620003c0565b86015160001960f88460031b161c19169055388062000616565b91929495829194868a015181550194019201908f94939291620005f6565b8289528989208580840160051c8201928c851062000699575b0160051c01908d905b8281106200068d5750506200038c565b8a8155018d906200067d565b9250819262000674565b634e487b7160e01b89526022600452602489fd5b90607f16906200037a565b634e487b7160e01b88526041600452602488fd5b870151925038620002e7565b868392931690848b528b8b20918b5b8d828210620007385750509183916200031597969460029694106200071e575b5050811b018155620002f8565b86015160001960f88460031b161c19169055388062000711565b91929495829194868a015181550194019201908f94939291620006f1565b8289528989208580840160051c8201928c851062000794575b0160051c01908d905b82811062000788575050620002c4565b8a8155018d9062000778565b925081926200076f565b90607f1690620002b2565b905086015138620001dd565b8a865286862090828416875b818110620008045750928b9c928b9c9b928260029610620007ea575b5050811b018155620001f0565b88015160001960f88460031b161c191690553880620007dd565b878301518455928b0192918901918901620007c1565b8a86528686208480840160051c82019289851062000858575b0160051c019089905b8281106200084c575050620001be565b8781550189906200083c565b9250819262000833565b634e487b7160e01b86526022600452602486fd5b90607f1690620001ac565b634e487b7160e01b85526041600452602485fd5b80835285845286832033845284528683208660ff1982541617905533903390600080516020620045748339815191528580a43862000159565b80835285845286832033845284528683208660ff1982541617905533903390600080516020620045748339815191528580a4386200011b565b80835285845286832033845284528683208660ff1982541617905533903390600080516020620045748339815191528580a438620000dd565b81805284835285822033835283528582208560ff19825416179055333383600080516020620045748339815191528180a4620000a0565b865162461bcd60e51b815260048101859052601a60248201527f496e76616c696420737461626c65636f696e20616464726573730000000000006044820152606490fd5b600080fd5b634e487b7160e01b600052604160045260246000fd5b60408051919082016001600160401b03811183821017620009c057604052565b9081519160005b83811062000a0f575050016000815290565b8060208092840101518185015201620009fd56fe60806040818152600480361015610021575b505050361561001f57600080fd5b005b60009260e0908435821c90816301ffc9a714612adf575080630726bd6a14612ab557806316596d7f1461286957806321b4b5aa1461265e578063248a9ca3146126345780632f2ff15d1461258757806336568abe146124f557806342f1e879146124cb578063464b5391146124a15780634c1301e9146121965780634d2f64ca14611ee457806351e4c45114611c54578063595e2e3814611af2578063665a11ca14611ac857806370a1a7d514611a9e578063727ba3581461197f5780637ba0d4ca146119555780638c255b7a146116a25780638c5b83851461165a57806391d148541461161457806393c8e7ac146114705780639883688f146114485780639c43c774146112445780639f42f7481461116f578063a217fddf14611153578063a738e97514610c39578063a87430ba14610ba7578063abc8c7af14610b7d578063bc63c17114610a54578063d547741f14610a16578063de6d00f714610513578063e005cbbf1461048e578063e9cbd82214610464578063ea0d5dcd146103a7578063ec87621c1461037d578063f5b541a61461034f5763f73cfdaf146101c95750610011565b3461034b57608036600319011261034b5760248235926101e7612fb2565b6005546001600160a01b0393879185169061020382151561390d565b828660025416895196878092631d11e60560e11b82528b898301525afa948515610341578395610319575b5061023d9085015115156138ca565b846080850151168688519462f715ad60e31b865285015260243560248501526044356044850152606435606485015260848401528260a48160209a8b945af1801561030d576102d1575b5050606001511690600080516020613a9b833981519152606084518681526016878201527507061796d656e742d747261636b696e672d73657475760541b86820152a35160018152f35b8682813d8311610306575b6102e68183612c61565b810103126103035750906102fb606092613539565b509038610287565b80fd5b503d6102dc565b508551903d90823e3d90fd5b61023d91955061033a903d8086833e6103328183612c61565b810190613749565b949061022e565b88513d85823e3d90fd5b8380fd5b5050503461037957816003193601126103795760209051600080516020613abb8339815191528152f35b5080fd5b5050503461037957816003193601126103795760209051600080516020613a7b8339815191528152f35b50503461046057602036600319011261046057610449926001600160a01b039160a0918490846103d5612b34565b168152600b60205220908451936103eb85612bfa565b82541684526103fc60018301612d4e565b9485602086015260028301549460ff808716151596878484015260081c1615159283606083015260038501549485608084015201549485910152805196879660a0885260a0880190612bd5565b946020870152850152606084015260808301520390f35b8280fd5b5050503461037957816003193601126103795760095490516001600160a01b039091168152602090f35b50505034610379576104ec906104ba60206104a836612cd6565b81845193828580945193849201612bb2565b8101600c8152030190206104cd81612d4e565b9160026001830154920154908051948594608086526080860190612bd5565b602085019390935260ff821615159084015260081c6001600160a01b031660608301520390f35b5090913461034b578060031936011261034b57823593602480359582546002141561053d9061340d565b6002808455546001600160a01b03908116959061055b871515613459565b60089381855416151561056d9061387f565b338652602098600b8a52878720938851996105878b612bfa565b855485168b5260019a61059b8c8801612d4e565b908d8101918252600288015460ff811615158d8301528a1c60ff1615159085606099838b8401526003810154608084015201549060a001526105dc906134a3565b518a516105e881612c46565b8981526734b73b32b9ba37b960c11b8e820152610604916139c5565b80156109eb575b156109b357908884928b5195868092631d11e60560e11b82528b888301525afa938415610948578994610993575b506106489084015115156138ca565b82518c1161095257836007541680610836575b50898b8d8b87896002602784516674726164696e6760c81b8152600c60078201522084519761068989612c2b565b61069282612d4e565b8952810154809789015201549560ff87161515809482015201948c1c16845260001461083057612710916106c59161324c565b045b80610814575b5050600080516020613a7b8339815191528852898b52888820336000528b5260ff8960002054166000146107e3578a90848854168a519d8e9263de6d00f760e01b84528986850152830152818a5a92604493f19a8b156107d957899a9b99989961077c575b5092809291600080516020613a9b833981519152945b338952600b8d5242908b8a200155015116938751908a82528a82015267199a5b985b98d95960c21b88820152a35551908152f35b9091929394959697508a81813d83116107d2575b61079a8183612c61565b810103126107ce57938092600080516020613a9b83398151915294926107c38c9a999897613539565b509150919293610732565b8780fd5b503d610790565b88513d89823e3d90fd5b50928291600080516020613a9b8339815191529461080f8b9c9d849660099d9c9d5416309033906134e1565b610748565b610829918680600954169151169033906134e1565b38806106cd565b506106c7565b858d60448c5180948193634bec4a8b60e11b83528c89840152878301525afa9081156109485789908a92610908575b50156108c9578c11610877573861065b565b885162461bcd60e51b81529182018b90526027908201527f416d6f756e742065786365656473206d6178696d756d2066696e616e63696e6760448201526608185b5bdd5b9d60ca1b6064820152608490fd5b895162461bcd60e51b81528084018d9052601a8184015279125b9d9bda58d94818d85b9b9bdd08189948199a5b985b98d95960321b6044820152606490fd5b809250878092503d8311610941575b6109218183612c61565b8101031261093d578b61093382613539565b9101519038610865565b8880fd5b503d610917565b8a513d8b823e3d90fd5b885162461bcd60e51b81529182018b9052601c908201527b416d6f756e74206578636565647320696e766f6963652076616c756560201b6044820152606490fd5b6106489194506109ac903d808c833e6103328183612c61565b9390610639565b895162461bcd60e51b81528084018d905260138186015272155cd95c881b9bdd08185d5d1a1bdc9a5e9959606a1b6044820152606490fd5b50600080516020613a7b83398151915289528a8c52898920336000528c5260ff8a600020541661060b565b50509034610460578060031936011261046057610a519135610a4c6001610a3b612b4a565b9383875281602052862001546130d9565b6131d6565b80f35b50509134610303576020366003190112610303576005546001600160a01b039081169360c090610a8586151561390d565b602485518097819363bc63c17160e01b83528035908301525afa918215610b72578093819082918380988197610aed575b50509187939160ff9593610acb60c09a613959565b81519889526020890152870152166060850152166080830152151560a0820152f35b97509750509350505060c0833d8211610b6a575b81610b0e60c09383612c61565b8101031261034b578251936020840151938381015193610b30606083016136e5565b91608081015193600785101561030357509160c0979391610b5660a060ff979501613539565b949796919294969193958193959950610ab6565b3d9150610b01565b8351903d90823e3d90fd5b5050503461037957816003193601126103795760035490516001600160a01b039091168152602090f35b50509034610460576020366003190112610460576001600160a01b0392819084610bcf612b34565b168152600b602052209283541691610be960018501612d4e565b9360ff600282015492600383015492015492610c168551978897885260c0602089015260c0880190612bd5565b9482821615159087015260081c1615156060850152608084015260a08301520390f35b82858534610379576060366003190112610379576001600160401b03833581811161034b57610c6b9036908601612b76565b9360249485359360018060a01b0385168095036104605760443590811161046057610c999036908901612b76565b939092600080516020613afb833981519152988960005260019860209a8a8c5289600020336000528c5260ff8a600020541615610fc157508715610f84578415610f4a575090867f9cdf53a2180bc35fba548a5c453c528596a434c394e235e9fbbb1a686d99db2195949392895185858237600a8682019081528190038d01902080546001600160a01b0319908116841790915590610d668d8c6b24b73b37b4b1b2aa37b5b2b760a11b610d4e368b8b612c9f565b915192610d5a84612c46565b600c84528301526139c5565b15610da3575060025416176002555b8288519384938437820190815203902092610d9a86519283928a84528a840191613398565b0390a351908152f35b610dda8d8c6a4d61726b6574706c61636560a81b610dc2368b8b612c9f565b915192610dce84612c46565b600b84528301526139c5565b15610ded57506003541617600355610d75565b9190610e288d8c6c43726564697453636f72696e6760981b610e10368b8b612c9f565b915192610e1c84612c46565b600d84528301526139c5565b15610e3857825416179055610d75565b909150610e748c610e4a368888612c9f565b6d2830bcb6b2b73a2a3930b1b5b2b960911b8d5192610e6884612c46565b600e84528301526139c5565b15610e86576005541617600555610d75565b610eb28c610e95368888612c9f565b6c2ab734b334b2b22632b233b2b960991b8d5192610e1c84612c46565b15610ec4576006541617600655610d75565b610ef18c610ed3368888612c9f565b6d149a5cdad05cdcd95cdcdb595b9d60921b8d5192610e6884612c46565b15610f03576007541617600755610d75565b610f2f8c610f12368888612c9f565b6c131a5c5d5a591a5d1e541bdbdb609a1b8d5192610e1c84612c46565b610f3b575b5050610d75565b6008541617600855868b610f34565b885162461bcd60e51b81529182018b905260159082015274496e76616c696420636f6e7472616374207479706560581b6044820152606490fd5b885162461bcd60e51b81529182018b905260189082015277496e76616c696420636f6e7472616374206164647265737360401b6044820152606490fd5b8b935089908b610fd03361329c565b91835190610fdd82612c2b565b6042825287820192606036853782511561113f5760308453825181101561113f57607860218401536041905b8082116110d45750506110a65760486110a29593859361108a9361107b9751978893600080516020613a5b8339815191528d8601526110528d8251928391603789019101612bb2565b8401917001034b99036b4b9b9b4b733903937b6329607d1b603784015251809386840190612bb2565b01036028810186520184612c61565b5194859462461bcd60e51b8652850152830190612bd5565b0390fd5b60648688878188519362461bcd60e51b8552840152820152600080516020613a1b8339815191526044820152fd5b9091600f8116601081101561112b576f181899199a1a9b1b9c1cb0b131b232b360811b901a6111038486613275565b53881c918015611117576000190190611009565b8760118a634e487b7160e01b600052526000fd5b8860328b634e487b7160e01b600052526000fd5b86603289634e487b7160e01b600052526000fd5b5050503461037957816003193601126103795751908152602090f35b50913461034b57602036600319011261034b576002546001600160a01b039290831690859061119f831515613459565b6024845180948193631d11e60560e11b83528035908301525afa90811561123a578561121b9495969261121f575b5050836060820151169381519582015115156101408484015192608085015116930151938051978897885260208801528601526060850152608084015260c060a084015260c0830190612bd5565b0390f35b61123392503d8091833e6103328183612c61565b38806111cd565b82513d87823e3d90fd5b509183816003193601126103035782359360249485359560ff871680970361138c5761127460028554141561340d565b600284556006546001600160a01b0390811693908415611407578060025416908685858b8b519586938492631d11e60560e11b84528301525afa9182156107d95787926113eb575b5060608201511633036113b55701516112d69015156138ca565b600a8710156113a4578451968796632476566160e01b8852870152850152836044602096879334905af1928315611398578193611363575b506001908383518681526010878201526f34b73b37b4b1b296ba3930b739b332b960811b858201527fbdaa5cccd543605e67d2fc18ff3147ffdca4bf3e7cf64467feb7e4e7a84d3e1560603392a35551908152f35b9092508381813d8311611391575b61137b8183612c61565b8101031261138c575191600161130e565b600080fd5b503d611371565b509051903d90823e3d90fd5b634e487b7160e01b84526021865283fd5b865162461bcd60e51b81526020818a0152601181850152702737ba1034b73b37b4b1b29037bbb732b960791b6044820152606490fd5b6114009192503d8089833e6103328183612c61565b908a6112bc565b865162461bcd60e51b81526020818a0152601c818501527b155b9a599a595913195919d95c881b9bdd081c9959da5cdd195c995960221b6044820152606490fd5b5050346104605782600319360112610460575490516001600160a01b03909116815260209150f35b828585346103795760803660031901126103795782356044359260ff841680940361138c576064356001600160401b038111610379576114b39036908701612b76565b9190956114be612fb2565b6005546001600160a01b03908116969093906114db88151561390d565b6114e481613959565b8651978891635d14b3e560e11b83528785840152602435602484015233604484015261150f81613959565b606483015260a0608483015281858161153060209d8e9760a4840191613398565b03925af195861561160a5782966115db575b508184602485600254169388519485938492631d11e60560e11b84528301525afa9182156115d05790816060936115b5575b505001511690600080516020613a9b833981519152606084518781526010888201526f1c185e5b595b9d0b5c9958dbdc99195960821b86820152a351908152f35b6115c992503d8091833e6103328183612c61565b8780611574565b8551903d90823e3d90fd5b9095508681813d8311611603575b6115f38183612c61565b8101031261138c57519487611542565b503d6115e9565b85513d84823e3d90fd5b50503461046057816003193601126104605781602093611632612b4a565b9235815260018552209060018060a01b0316600052825260ff81600020541690519015158152f35b505050346103795760209061166e36612cd6565b8261168183519283815193849201612bb2565b600a908201908152819003830190205490516001600160a01b039091168152f35b828585346103795760a0366003190112610379576001600160401b0392803584811161034b576116d59036908301612b76565b5050602435936116e3612b60565b5060843590811161034b576116fb9036908301612b76565b505061170b60028454141561340d565b6002808455546001600160a01b03906117279082161515613459565b841561191c574260443511156118e657338452602094600b86526117c78486206117a386519161175683612bfa565b85815416835261176860018201612d4e565b928a810193845260a08860ff600285015481811615158d86015260081c161515938460608501526003810154608085015201549101526134a3565b518551906117b082612c46565b600682526534b9b9bab2b960d11b898301526139c5565b156118ae57602884516769737375616e636560c01b8152600c6008820152208451916117f283612c2b565b6117fb82612d4e565b83526002600183015492838a86015201549284606060ff8616151592838a820152019460081c1684526000146118a757612710916118389161324c565b04905b8161188b575b505050338352600b84524290828420015580518381526007848201526618dc99585d195960ca1b8282015282600080516020613a9b83398151915260603393a36001825551908152f35b8261189f93600954169151169033906134e1565b848080611841565b509061183b565b835162461bcd60e51b815280840187905260126024820152712ab9b2b9103737ba1030b71034b9b9bab2b960711b6044820152606490fd5b506020606492519162461bcd60e51b8352820152601060248201526f496e76616c696420647565206461746560801b6044820152fd5b506020606492519162461bcd60e51b83528201526013602482015272496e76616c696420746f74616c2076616c756560681b6044820152fd5b5050503461037957816003193601126103795760055490516001600160a01b039091168152602090f35b828585346103795760209283600319360112610460578035906119a0612fb2565b6007546001600160a01b03918591879084166119bd811515613979565b6024875180998193630e4f746b60e31b835289878401525af195861561160a578296611a6f575b508184602485600254169388519485938492631d11e60560e11b84528301525afa9182156115d0579081606093611a54575b505001511690600080516020613a9b83398151915260608451878152600d888201526c1c9a5cdacb585cdcd95cdcd959609a1b86820152a351908152f35b611a6892503d8091833e6103328183612c61565b8780611a16565b9095508681813d8311611a97575b611a878183612c61565b8101031261138c575194876119e4565b503d611a7d565b5050503461037957816003193601126103795760075490516001600160a01b039091168152602090f35b5050503461037957816003193601126103795760085490516001600160a01b039091168152602090f35b50508234610303576020928360031936011261037957611b1660028354141561340d565b6002825560085482906001600160a01b039086908216611b3781151561387f565b338452600b8252611b998585208651611b4f81612bfa565b858254168152611b6160018301612d4e565b8582015260a08a60ff600285015481811615158c86015260081c161515938460608501526003810154608085015201549101526134a3565b6024855180978193632e1a7d4d60e01b83528a358b8401525af1938415611c4a578294611c18575b506001929394338352600b875242908584200155600854168351908582528487830152600a85830152691dda5d1a191c985dd85b60b21b6060830152600080516020613a3b83398151915260803393a35551908152f35b9293508583813d8311611c43575b611c308183612c61565b8101031261138c57600192519392611bc1565b503d611c26565b83513d84823e3d90fd5b505082346103035760209283600319360112610379578235611c7a60028454141561340d565b600283556008546001600160a01b0390611c97908216151561387f565b338452600b8652611cf98385208451611caf81612bfa565b838254168152611cc160018301612d4e565b8982015260a08860ff600285015481811615158a86015260081c161515938460608501526003810154608085015201549101526134a3565b611d0b828260095416309033906134e1565b806009541681600854169083158015611e77575b15611e155785939291611d589186519163095ea7b360e01b8b840152602483015284604483015260448252611d5382612c2b565b613546565b868160085416602486518098819363b6b55f2560e01b8352878c8401525af1948515611e0b578395611dd9575b506001939495338452600b8852429086852001556008541690845190815284878201526007858201526619195c1bdcda5d60ca1b6060820152600080516020613a3b83398151915260803392a35551908152f35b9394508684813d8311611e04575b611df18183612c61565b8101031261138c57600193519493611d85565b503d611de7565b84513d85823e3d90fd5b845162461bcd60e51b8152808801899052603660248201527f5361666545524332303a20617070726f76652066726f6d206e6f6e2d7a65726f60448201527520746f206e6f6e2d7a65726f20616c6c6f77616e636560501b6064820152608490fd5b508451636eb1769f60e11b81523088820152602481018390528881604481855afa908115611eda578791611ead575b5015611d1f565b90508881813d8311611ed3575b611ec48183612c61565b8101031261138c575189611ea6565b503d611eba565b86513d89823e3d90fd5b82858534610379576080366003190112610379576001600160401b03833581811161034b57611f169036908601612b76565b909160243591611f24612ba3565b93611f2d612b60565b91611f36612df4565b8015612160576001600160a01b0383161561212957856120ed575b90611f5d913691612c9f565b90855196825193602098898181870197611f7881838b612bb2565b8101600c8152030190209184519182116120da57908291611fa782611fa18c9998979654612d14565b856133b9565b8a90601f831160011461205e579282600080516020613adb8339815191529997959360029361203a989691612053575b508160011b916000199060031b1c19161781555b866001820155019061200989839060ff801983541691151516179055565b8154610100600160a81b03191660089190911b610100600160a81b0316179055845190519092839282908490612bb2565b8101039020938251918252151586820152a25160018152f35b90508501518e611fd7565b90601f1983168483528c8320925b8d8282106120c15750508360029361203a989693600080516020613adb8339815191529c9a9896600194106120a8575b5050811b018155611feb565b87015160001960f88460031b161c191690558e8061209c565b8884015185558d9a50600190940193928301920161206c565b634e487b7160e01b815260418b52602490fd5b6103e8851115611f5157865162461bcd60e51b81526020818b0152600c60248201526b08ccaca40e8dede40d0d2ced60a31b6044820152606490fd5b865162461bcd60e51b81526020818b01526011602482015270125b9d985b1a59081c9958da5c1a595b9d607a1b6044820152606490fd5b865162461bcd60e51b81526020818b0152601060248201526f496e76616c696420666565207479706560801b6044820152606490fd5b509183346103035760209283600319360112610379578035906002906121bf828554141561340d565b81845581546001600160a01b03908116979092906121de891515613459565b338652600b885261226e886122488989208a60a08860ff83519361220185612bfa565b8c865416855261221360018701612d4e565b9785019788528a8601549082821615159086015260081c161515938460608501526003810154608085015201549101526134a3565b5188519061225582612c46565b60088252673b32b934b334b2b960c11b8b8301526139c5565b15612468578560249988519a8b8092631d11e60560e11b825289888301525afa98891561245e578699612442575b50880151612404578290602c87516b3b32b934b334b1b0ba34b7b760a11b8152600c80820152208751906122cf82612c2b565b6122d881612d4e565b825282600182015491828c85015201549184606060ff8516151592838d820152019360081c1683526000146123ff57612315612710918c5161324c565b045b8a816123dd575b5050505416803b156123d9578480916024885180948193634c1301e960e01b835289888401525af180156123cf576123a1575b506001949596606091338652600b89524290888720015501511690600080516020613a9b83398151915260608651888152600889820152671d995c9a599a595960c21b88820152a3555160018152f35b9093906001600160401b0381116123bc578552926001612351565b634e487b7160e01b825260418552602482fd5b86513d87823e3d90fd5b8480fd5b6123f79285806060816009541694015116915116916134e1565b89808a61231e565b612317565b855162461bcd60e51b81528083018890526018602482015277125b9d9bda58d948185b1c9958591e481d995c9a599a595960421b6044820152606490fd5b6124579199503d8088833e6103328183612c61565b978961229c565b87513d88823e3d90fd5b865162461bcd60e51b815280840189905260136024820152722ab9b2b9103737ba1030903b32b934b334b2b960691b6044820152606490fd5b5050503461037957816003193601126103795760025490516001600160a01b039091168152602090f35b5050503461037957816003193601126103795760209051600080516020613afb8339815191528152f35b83858434610379578260031936011261037957612510612b4a565b90336001600160a01b0383160361252c5790610a5191356131d6565b608490602085519162461bcd60e51b8352820152602f60248201527f416363657373436f6e74726f6c3a2063616e206f6e6c792072656e6f756e636560448201526e103937b632b9903337b91039b2b63360891b6064820152fd5b50503461046057816003193601126104605735906125a3612b4a565b9082845260016020526125bb600182862001546130d9565b828452600160209081528185206001600160a01b039093168086529290528084205460ff16156125e9578380f35b82845260016020528084208285526020528320600160ff1982541617905533917f2f8788117e7eff1d82e926ec794901d17c78024a50270940304540a733656f0d8480a43880808380f35b50503461046057602036600319011261046057816020936001923581528285522001549051908152f35b5090913461034b57602036600319011261034b576007546024939085906001600160a01b031661268f811515613979565b8351634be58e1b60e11b815283358482015295869182905afa93841561123a578594612718575b505061121b9060ff8060c08601511693850151169360ff6101008201511661ffff61012083015116906101606101408401511515930151938051978897885260208801528601526060850152608084015260c060a084015260c0830190612bd5565b909193503d8086833e61272b8183612c61565b8101946020828703126103035781516001600160401b03928382116104605701916101c093848489031261046057865194850190858210838311176128565750865282518452602083015160208501526127868684016136e5565b86850152612796606084016136e5565b60608501526080830151608085015260a083015160a08501526127bb60c0840161373b565b60c08501526127cb85840161373b565b858501526101006127dd81850161373b565b90850152610120808401519061ffff8216820361034b57850152610140612805818501613539565b908501526101609182840151918211610303575061121b94959661282a9184016136f9565b9083015261018080820151908301526128476101a08092016136e5565b908201529190508238806126b6565b634e487b7160e01b845260419052602483fd5b8285853461037957606036600319011261037957612885612b34565b6001600160401b03906024358281116123d9576128a59036908701612b76565b6128ad612ba3565b926128b6612df4565b6001600160a01b03908116948515612a7b57858852602098600b8a5287892091878354948516159460018060a01b0319161783556001998a8401918611612a6857859061290782611fa18554612d14565b80601f8311600114612a0357916129f8575b50600019600387901b1c1916858b1b1790555b826002830161294788829060ff801983541691151516179055565b805461ff0019166101001790556129ed575b42910155156129a9577f0b2d2fe99b0620e0994de6f522eb19dcc5b5fd39b27be67cea0547c4ed9dbdfc92612998865193849388855288850191613398565b901515888301520390a25b51908152f35b7f3da9aaec9e805c4b46639d38e89883f11a946eb14932c056072c03721cfff82f92506129e0855192839287845287840191613398565b86888301520390a26129a3565b426003830155612959565b90508601358c612919565b8381528d81209290601f198216908f8f5b8c848410612a4e575050505010612a34575b50508985811b01905561292c565b870135600019600388901b60f8161c191690558b80612a26565b860135875590950194938401938a9350908101908f612a14565b634e487b7160e01b815260418352602490fd5b865162461bcd60e51b81526020818b01526014602482015273496e76616c69642075736572206164647265737360601b6044820152606490fd5b5050503461037957816003193601126103795760065490516001600160a01b039091168152602090f35b9350505034610460576020366003190112610460573563ffffffff60e01b81168091036104605760209250637965db0b60e01b8114908115612b23575b5015158152f35b6301ffc9a760e01b14905038612b1c565b600435906001600160a01b038216820361138c57565b602435906001600160a01b038216820361138c57565b606435906001600160a01b038216820361138c57565b9181601f8401121561138c578235916001600160401b03831161138c576020838186019501011161138c57565b60443590811515820361138c57565b60005b838110612bc55750506000910152565b8181015183820152602001612bb5565b90602091612bee81518092818552858086019101612bb2565b601f01601f1916010190565b60c081019081106001600160401b03821117612c1557604052565b634e487b7160e01b600052604160045260246000fd5b608081019081106001600160401b03821117612c1557604052565b604081019081106001600160401b03821117612c1557604052565b601f909101601f19168101906001600160401b03821190821017612c1557604052565b6001600160401b038111612c1557601f01601f191660200190565b929192612cab82612c84565b91612cb96040519384612c61565b82948184528183011161138c578281602093846000960137010152565b602060031982011261138c57600435906001600160401b03821161138c578060238301121561138c57816024612d1193600401359101612c9f565b90565b90600182811c92168015612d44575b6020831014612d2e57565b634e487b7160e01b600052602260045260246000fd5b91607f1691612d23565b9060405191826000825492612d6284612d14565b908184526001948581169081600014612dd15750600114612d8e575b5050612d8c92500383612c61565b565b9093915060005260209081600020936000915b818310612db9575050612d8c93508201013880612d7e565b85548884018501529485019487945091830191612da1565b915050612d8c94506020925060ff191682840152151560051b8201013880612d7e565b3360009081527ffdb122eb892c6b3193f8499f050265ce5458caab5f6480270d8972921f24f42960209081526040808320549092600080516020613a7b8339815191529160019060ff1615612e4a575050505050565b612e533361329c565b92855191612e6083612c2b565b60428352858301936060368637835115612f9e57603085538351821015612f9e5790607860218501536041915b818311612f3057505050612f005760486110a2938693612ee493612ed59851988993600080516020613a5b8339815191528a860152611052815180928c603789019101612bb2565b01036028810187520185612c61565b5192839262461bcd60e51b845260048401526024830190612bd5565b60648486519062461bcd60e51b82528060048301526024820152600080516020613a1b8339815191526044820152fd5b909192600f81166010811015612f8a576f181899199a1a9b1b9c1cb0b131b232b360811b901a612f608587613275565b5360041c928015612f7657600019019190612e8d565b634e487b7160e01b82526011600452602482fd5b634e487b7160e01b83526032600452602483fd5b634e487b7160e01b81526032600452602490fd5b3360009081527f31c1e66639f421f1853aeefe8ad6b62a3b96f3287efe23106923cd924aa025c260209081526040808320549092600080516020613abb8339815191529160019060ff1615613008575050505050565b6130113361329c565b9285519161301e83612c2b565b60428352858301936060368637835115612f9e57603085538351821015612f9e5790607860218501536041915b81831161309357505050612f005760486110a2938693612ee493612ed59851988993600080516020613a5b8339815191528a860152611052815180928c603789019101612bb2565b909192600f81166010811015612f8a576f181899199a1a9b1b9c1cb0b131b232b360811b901a6130c38587613275565b5360041c928015612f765760001901919061304b565b6000818152600191602091838352604093848220338352845260ff858320541615613105575050505050565b61310e3361329c565b9285519161311b83612c2b565b60428352858301936060368637835115612f9e57603085538351821015612f9e5790607860218501536041915b81831161319057505050612f005760486110a2938693612ee493612ed59851988993600080516020613a5b8339815191528a860152611052815180928c603789019101612bb2565b909192600f81166010811015612f8a576f181899199a1a9b1b9c1cb0b131b232b360811b901a6131c08587613275565b5360041c928015612f7657600019019190613148565b906000918083526001602052604083209160018060a01b03169182845260205260ff60408420541661320757505050565b8083526001602052604083208284526020526040832060ff1981541690557ff6391f5c32d9c69d2a47ea670b442974b53935d1edc7fd64eb21e047a839171b339380a4565b8181029291811591840414171561325f57565b634e487b7160e01b600052601160045260246000fd5b908151811015613286570160200190565b634e487b7160e01b600052603260045260246000fd5b60405190606082016001600160401b03811183821017612c1557604052602a82526020820160403682378251156132865760309053815160019081101561328657607860218401536029905b80821161332a5750506132f85790565b606460405162461bcd60e51b81526020600482015260206024820152600080516020613a1b8339815191526044820152fd5b9091600f81166010811015613383576f181899199a1a9b1b9c1cb0b131b232b360811b901a6133598486613275565b5360041c91801561336e5760001901906132e8565b60246000634e487b7160e01b81526011600452fd5b60246000634e487b7160e01b81526032600452fd5b908060209392818452848401376000828201840152601f01601f1916010190565b90601f81116133c757505050565b600091825260208220906020601f850160051c83019410613403575b601f0160051c01915b8281106133f857505050565b8181556001016133ec565b90925082906133e3565b1561341457565b60405162461bcd60e51b815260206004820152601f60248201527f5265656e7472616e637947756172643a207265656e7472616e742063616c6c006044820152606490fd5b1561346057565b60405162461bcd60e51b815260206004820152601b60248201527a125b9d9bda58d9551bdad95b881b9bdd081c9959da5cdd195c9959602a1b6044820152606490fd5b156134aa57565b60405162461bcd60e51b815260206004820152600f60248201526e55736572206e6f742061637469766560881b6044820152606490fd5b6040516323b872dd60e01b60208201526001600160a01b03928316602482015292909116604483015260648083019390935291815260a08101918183106001600160401b03841117612c1557612d8c92604052613546565b5190811515820361138c57565b60018060a01b03169060405161355b81612c46565b6020928382527f5361666545524332303a206c6f772d6c6576656c2063616c6c206661696c656484830152803b1561366057906135ce9160008481959282888195519301915af13d15613658573d906135b382612c84565b916135c16040519384612c61565b82523d858784013e6136a5565b908151806135dd575b50505050565b828491810103126103035750816135f49101613539565b15613601578080806135d7565b6084906040519062461bcd60e51b82526004820152602a60248201527f5361666545524332303a204552433230206f7065726174696f6e20646964206e6044820152691bdd081cdd58d8d9595960b21b6064820152fd5b6060906136a5565b60405162461bcd60e51b815260048101859052601d60248201527f416464726573733a2063616c6c20746f206e6f6e2d636f6e74726163740000006044820152606490fd5b909190156136b1575090565b8151156136c15750805190602001fd5b60405162461bcd60e51b8152602060048201529081906110a2906024830190612bd5565b51906001600160a01b038216820361138c57565b81601f8201121561138c57805161370f81612c84565b9261371d6040519485612c61565b8184526020828401011161138c57612d119160208085019101612bb2565b519060ff8216820361138c57565b9060208282031261138c5781516001600160401b039283821161138c5701906101e092838383031261138c5760405193840184811082821117612c15576040528251845260208301516020850152604083015160408501526137ad606084016136e5565b60608501526137be608084016136e5565b608085015260a083015181811161138c57826137db9185016136f9565b60a085015260c083015181811161138c57826137f89185016136f9565b60c085015261380960e08401613539565b60e085015261010061381c818501613539565b908501526101208084015190850152610140918284015191821161138c576138459184016136f9565b90830152610160808201519083015261018080820151908301526101a061386d81830161373b565b908301526101c0809101519082015290565b1561388657565b60405162461bcd60e51b815260206004820152601c60248201527b131a5c5d5a591a5d1e541bdbdb081b9bdd081c9959da5cdd195c995960221b6044820152606490fd5b156138d157565b60405162461bcd60e51b8152602060048201526014602482015273125b9d9bda58d9481b9bdd081d995c9a599a595960621b6044820152606490fd5b1561391457565b60405162461bcd60e51b815260206004820152601d60248201527f5061796d656e74547261636b6572206e6f7420726567697374657265640000006044820152606490fd5b6007111561396357565b634e487b7160e01b600052602160045260246000fd5b1561398057565b60405162461bcd60e51b815260206004820152601d60248201527f5269736b4173736573736d656e74206e6f7420726567697374657265640000006044820152606490fd5b90604051916020926139f38482816139e68183019687815193849201612bb2565b8101038084520182612c61565b51902091613a136040519182816139e68183019687815193849201612bb2565b519020149056fe537472696e67733a20686578206c656e67746820696e73756666696369656e74bf17895d1e9eadc8d5f0875d825b7141745c54fba5014bd1c3d300d4a9bc6031416363657373436f6e74726f6c3a206163636f756e7420000000000000000000241ecf16d79d0f8dbfb92cbc07fe17840425976cf0667f022fe9877caa831b08cd8d2c3b70d54e80bb5d2277899df2f622425ba9964da3e7b3da65411a4d01be97667070c54ef182b0f5858b034beac1b6f3089aa2d3188bb1e8929f4fa9b929a5e32259185fb502078246fd3196ba8f57e17c171f68d7bf52d60c4f993ddabbc2979137d1774e40fe2638d355bf7a7b092be4c67f242aad1655e1e27f9df9cca26469706673582212203ea992ea6bd39063baedc1841e1c45dc896c09fd49a9199f15601b2074becff064736f6c634300081400332f8788117e7eff1d82e926ec794901d17c78024a50270940304540a733656f0d608034620001e4576001600160401b0390601f6200323738819003918201601f191683019184831184841017620001ce57808492602094604052833981010312620001e457516001600160a01b038082169291839003620001e457604051916020830190811183821017620001ce5760405260008092526002546001908181811c91168015620001c3575b6020821014620001af57601f811162000161575b508260025560035460018060a01b03199333858316176003557f8be0079c531659141344cd1fd0a4f28419497f9722a3daafe3b4186f6b6457e0604051943393169180a360045560ff196005541660055560fa600d55662386f26fc10000600e5582156200011f5750600f541617600f5560405161304d9081620001ea8239f35b62461bcd60e51b815260206004820152601560248201527f496e76616c69642066656520726563697069656e7400000000000000000000006044820152606490fd5b60028452601f0160051c7f405787fa12a823e0f2b7631cc41b3ba8828b3321ca811111fa75cd3aa3bb5ace9081019082905b828110620001a35750506200009e565b85815501829062000193565b634e487b7160e01b84526022600452602484fd5b90607f16906200008a565b634e487b7160e01b600052604160045260246000fd5b600080fdfe6080604052600436101561001257600080fd5b60003560e01c8062fdd58e1461217557806301ffc9a7146121075780630e89341c1461204257806319e6e1581461201657806326232a2e14611ff85780632eb2c2d614611e285780633424629714611de05780633a23cc0a14611b8e5780633ed46f7a14611b4f5780633f4ba83a14611abb5780634690484014611a925780634c1301e9146119bb5780634e1273f41461183d5780634e6d14051461171a5780635c975abb146116f7578063715018a6146116ac57806372b184f71461166a578063799d288f1461140c57806380bb7273146113d25780638456cb59146113785780638da5cb5b1461134f57806393285bf8146112f3578063a22cb46514611209578063a8c278a2146111eb578063aa0b59881461118d578063b033fc7914610691578063bbb4ef4114610663578063c0d0080114610608578063c9d27afe146104ac578063cd89b2e31461047c578063d4309f4b1461045b578063db2e21bc1461040b578063e985e9c5146103b5578063f160d36914610338578063f242432a1461025d5763f2fde38b146101a757600080fd5b34610258576020366003190112610258576101c061219c565b6101c861243d565b6001600160a01b0390811690811561020457600380546001600160a01b03198116841790915516600080516020612ff8833981519152600080a3005b60405162461bcd60e51b815260206004820152602660248201527f4f776e61626c653a206e6577206f776e657220697320746865207a65726f206160448201526564647265737360d01b6064820152608490fd5b600080fd5b346102585760a03660031901126102585761027661219c565b61027e6121b2565b6044359160643591906084356001600160401b03811161025857600080516020612fd8833981519152936102b96103139236906004016122c4565b908660005260076020526102d760ff600760406000200154166127e7565b6102f16127106102e9600d548461282a565b04809261285d565b916102ff81848a89896128f0565b81610318575b50506040519384938461286a565b0390a2005b600f54610331929089906001600160a01b0316876128f0565b8680610305565b346102585760203660031901126102585761035161219c565b61035961243d565b6001600160a01b0316801561037e57600f80546001600160a01b031916919091179055005b60405162461bcd60e51b815260206004820152600f60248201526e496e76616c6964206164647265737360881b6044820152606490fd5b34610258576040366003190112610258576103ce61219c565b6103d66121b2565b9060018060a01b03809116600052600160205260406000209116600052602052602060ff604060002054166040519015158152f35b346102585760003660031901126102585761042461243d565b600080808060018060a01b03600354164790828215610452575bf11561044657005b6040513d6000823e3d90fd5b506108fc61043e565b346102585760203660031901126102585761047461243d565b600435600e55005b3461025857602036600319011261025857600435600052600c602052604080600020548151908082526020820152f35b34610258576040366003190112610258576004356104c861242e565b81600052602090600782526104ee6104e760056040600020015461234e565b15156127a4565b6104f88333612495565b80156105c95783600052600b8352604060002033600052835260406000205461059457916060917fb898e75d5aac8de2f407e4a683c8d909e832d1e371e3bff0fa3ed934e88d95629385600052600b835260406000203360005283528181604060002055610575575b6040519233845283015215156040820152a2005b85600052600c8352604060002061058d828254612615565b9055610561565b60405162461bcd60e51b815260048101849052600d60248201526c105b1c9958591e481d9bdd1959609a1b6044820152606490fd5b60405162461bcd60e51b81526004810184905260176024820152764d757374206f776e2073686172657320746f20766f746560481b6044820152606490fd5b346102585760203660031901126102585761062161219c565b61062961243d565b60018060a01b031660005260096020526040600020600160ff19825416179055600a602052604060002080541561065c57005b61028a9055005b346102585760403660031901126102585760206106896106816121b2565b600435612e72565b604051908152f35b610120366003190112610258576004356001600160401b038111610258576106bd9036906004016122c4565b6084356001600160a01b03811681036102585760a4356001600160401b038111610258576106ef9036906004016122c4565b9060c4356001600160401b0381116102585761070f9036906004016122c4565b60e43560ff811681036102585733600052600960205260ff60406000205416156111505761073b6125d1565b61074a60026004541415612585565b6002600455600e54341061110b57602435156110d0576044351515806110c2575b156110875742606435111561104f576001600160a01b0383161561101157600160ff8216101580611003575b15610fc85760405160208187516107b18183858c016121c8565b8101600881520301902054610f875760ff91600160065401948560065533600052600a60205260406000205490604051956107eb87612210565b60243587526044356020880152606435604088015233606088015260018060a01b031660808701528760a087015260c0860152600060e0860152600061010086015261012085015261014084015242610160840152606435610180840152166101a0820152610104356101c08201528160005260076020526040600020908051825560208101516001830155604081015160028301556003820160018060a01b036060830151169060018060a01b03199182825416179055600483019060018060a01b036080840151169082541617905560a081015180519060018060401b038211610d095781906108e0600586015461234e565b601f8111610f34575b50602090601f8311600114610ec257600092610eb7575b50508160011b916000199060031b1c19161760058301555b60c08101518051906001600160401b038211610d0957819061093d600686015461234e565b601f8111610e64575b50602090601f8311600114610df257600092610de7575b50508160011b916000199060031b1c19161760068301555b6007820161099560e08301511515829060ff801983541691151516179055565b610100820151151561ff0082549160081b169061ff001916179055610120810151600883015561014081015180519060018060401b038211610d09576109de600985015461234e565b601f8111610da0575b50602090601f8311600114610d2a579180600d94926101c094600092610d1f575b50508160011b916000199060031b1c19161760098501555b610160810151600a850155610180810151600b850155600c840160ff6101a08301511660ff198254161790550151910155806040516020818551610a678183858a016121c8565b60089082019081520301902055604051602081016001600160401b03811182821017610d0957604052600081523315610cba57610aa38261276f565b50610aaf60443561276f565b508160005260006020526040600020336000526020526040600020610ad76044358254612615565b9055604051828152604435602082015260003391600080516020612fb883398151915260403392a4333b610b9d575b5034158015610b6d575b507f58edd0819f386745be5a0abadd29d2414b80bad6ceea55b7a38e041695e38fe4610b47604051936080855260808501906121eb565b926024356020820152604435604082015260643560608201528033940390a36001600455005b60008080809360018060a01b03600f54168291610b93575b3491f1156104465782610b10565b6108fc9150610b85565b60405160208180610bdf63f23a6e6160e01b9586835233600484015260006024840152876044840152604435606484015260a0608484015260a48301906121eb565b03816000335af160009181610c89575b50610c5b57610bfc61268b565b6308c379a014610c24575b60405162461bcd60e51b815280610c206004820161271a565b0390fd5b610c2c6126a9565b80610c375750610c07565b60405162461bcd60e51b815260206004820152908190610c209060248301906121eb565b6001600160e01b03191603610c705782610b06565b60405162461bcd60e51b815280610c2060048201612642565b610cac91925060203d602011610cb3575b610ca4818361222c565b810190612622565b9085610bef565b503d610c9a565b60405162461bcd60e51b815260206004820152602160248201527f455243313135353a206d696e7420746f20746865207a65726f206164647265736044820152607360f81b6064820152608490fd5b634e487b7160e01b600052604160045260246000fd5b015190508880610a08565b906009850160005260206000209160005b601f1985168110610d88575092600d94926001926101c09583601f19811610610d6f575b505050811b016009850155610a20565b015160001960f88460031b161c19169055888080610d5f565b91926020600181928685015181550194019201610d3b565b600985016000526020600020601f840160051c810160208510610de0575b601f830160051c82018110610dd45750506109e7565b60008155600101610dbe565b5080610dbe565b01519050868061095d565b9250600685016000526020600020906000935b601f1984168510610e49576001945083601f19811610610e30575b505050811b016006830155610975565b015160001960f88460031b161c19169055868080610e20565b81810151835560209485019460019093019290910190610e05565b909150600685016000526020600020601f840160051c810160208510610eb0575b90849392915b601f830160051c82018110610ea1575050610946565b60008155859450600101610e8b565b5080610e85565b015190508680610900565b9250600585016000526020600020906000935b601f1984168510610f19576001945083601f19811610610f00575b505050811b016005830155610918565b015160001960f88460031b161c19169055868080610ef0565b81810151835560209485019460019093019290910190610ed5565b909150600585016000526020600020601f840160051c810160208510610f80575b90849392915b601f830160051c82018110610f715750506108e9565b60008155859450600101610f5b565b5080610f55565b60405162461bcd60e51b8152602060048201526019602482015278125b9d9bda58d948185b1c9958591e481d1bdad95b9a5e9959603a1b6044820152606490fd5b60405162461bcd60e51b8152602060048201526013602482015272496e76616c6964207269736b20726174696e6760681b6044820152606490fd5b50600a60ff82161115610797565b60405162461bcd60e51b8152602060048201526016602482015275496e76616c696420646562746f72206164647265737360501b6044820152606490fd5b60405162461bcd60e51b815260206004820152601060248201526f496e76616c696420647565206461746560801b6044820152606490fd5b60405162461bcd60e51b8152602060048201526013602482015272125b9d985b1a59081cda185c994818dbdd5b9d606a1b6044820152606490fd5b50612710604435111561076b565b60405162461bcd60e51b8152602060048201526013602482015272496e76616c696420746f74616c2076616c756560681b6044820152606490fd5b60405162461bcd60e51b815260206004820152601d60248201527f496e73756666696369656e7420766572696669636174696f6e206665650000006044820152606490fd5b60405162461bcd60e51b81526020600482015260156024820152742737ba1030903b32b934b334b2b21034b9b9bab2b960591b6044820152606490fd5b34610258576020366003190112610258576004356111a961243d565b6103e881116111b757600d55005b60405162461bcd60e51b815260206004820152600c60248201526b08ccaca40e8dede40d0d2ced60a31b6044820152606490fd5b34610258576000366003190112610258576020600e54604051908152f35b346102585760403660031901126102585761122261219c565b61122a61242e565b6001600160a01b039091169033821461129c5733600052600160205260406000208260005260205261126c8160406000209060ff801983541691151516179055565b60405190151581527f17307eab39ab6107e8899845ad3d59bd9653f200f220920489ca2b5937696c3160203392a3005b60405162461bcd60e51b815260206004820152602960248201527f455243313135353a2073657474696e6720617070726f76616c20737461747573604482015268103337b91039b2b63360b91b6064820152608490fd5b34610258576020366003190112610258576004356001600160401b0381116102585761133c6020611329819336906004016122c4565b81604051938285809451938492016121c8565b8101600881520301902054604051908152f35b34610258576000366003190112610258576003546040516001600160a01b039091168152602090f35b346102585760003660031901126102585761139161243d565b6113996125d1565b600160ff1960055416176005557f62e78cea01bee320cd4e420270b5ea74000d11b0c9f74754ebdbfc544b05a2586020604051338152a1005b34610258576020366003190112610258576001600160a01b036113f361219c565b16600052600a6020526020604060002054604051908152f35b3461025857604036600319011261025857600435602435816000526020600781526114416104e760056040600020015461234e565b61145060026004541415612585565b600260045582600052600781526040600020916007830180549060ff8260081c1661162e5760048501546001600160a01b039290831633148015611621575b156115ed5783156115af5761ff0019166101001790556003840154935493166000818152600a8452604090205480156115a6575b60648302838104606403611590576115287f79c012a0cfae660e09134956bc432c8497ec80e86a3a108d130e8b3fca52b3ad926115227f1dc1ff445d92fc99ebf61a473f0f7dda3c6c8f9bd1cedfd74bafb2ff69395b3398889461283d565b90612615565b610352908082101561158957505b83600052600a825280604060002055604051908152a2837f2a2856cfa1df898bbc0e6d517e310b7056b588c393f1918685a541f213f2f1a7604080518481524286820152a2604051908152a26001600455005b9050611536565b634e487b7160e01b600052601160045260246000fd5b5061028a6114c3565b60405162461bcd60e51b8152600481018690526016602482015275125b9d985b1a59081c185e5b595b9d08185b5bdd5b9d60521b6044820152606490fd5b60405162461bcd60e51b815260048101869052600c60248201526b155b985d5d1a1bdc9a5e995960a21b6044820152606490fd5b508260035416331461148f565b60405162461bcd60e51b8152600481018590526014602482015273125b9d9bda58d948185b1c9958591e481c185a5960621b6044820152606490fd5b346102585760203660031901126102585761168361219c565b61168b61243d565b6001600160a01b03166000908152600960205260409020805460ff19169055005b34610258576000366003190112610258576116c561243d565b600380546001600160a01b031981169091556000906001600160a01b0316600080516020612ff88339815191528280a3005b3461025857600036600319011261025857602060ff600554166040519015158152f35b34610258576020366003190112610258576004356000526007602052604060002080546001820154916002810154600160a01b60019003918260038201541692600482015416926005820161176e90612388565b61177a60068401612388565b60078401546008850154909161179260098701612388565b93600a87015498600b88015496600c89015460ff1698600d0154996040519d8e809e81526020015260408d015260608c015260808b01526101e08060a08c01528a016117dd916121eb565b89810360c08b01526117ee916121eb565b9160ff8116151560e08a015260081c60ff161515610100890152610120880152868103610140880152611820916121eb565b936101608601526101808501526101a08401526101c08301520390f35b34610258576040366003190112610258576004356001600160401b0380821161025857366023830112156102585781600401359061187a8261224f565b92611888604051948561222c565b82845260209260248486019160051b8301019136831161025857602401905b82821061199c57505050602435908111610258576118c9903690600401612266565b8251815103611945576118dc835161251a565b9260005b815181101561192a57611925906119156001600160a01b03611902838661255b565b511661190e838761255b565b5190612495565b61191f828861255b565b5261254c565b6118e0565b50505061194160405192828493845283019061231a565b0390f35b60405162461bcd60e51b815260048101839052602960248201527f455243313135353a206163636f756e747320616e6420696473206c656e677468604482015268040dad2e6dac2e8c6d60bb1b6064820152608490fd5b81356001600160a01b03811681036102585781529084019084016118a7565b346102585760208060031936011261025857600435906119d961243d565b81600052600781526119f56104e760056040600020015461234e565b816000526007815260ff60076040600020015416611a53577f5f335aeb90296421c78d3bdc1af9043846ad4773cee0a0d0d909915726b30a589082600052600781526007604060002001600160ff19825416179055604051338152a2005b6064906040519062461bcd60e51b825260048201526018602482015277125b9d9bda58d948185b1c9958591e481d995c9a599a595960421b6044820152fd5b3461025857600036600319011261025857600f546040516001600160a01b039091168152602090f35b3461025857600036600319011261025857611ad461243d565b60055460ff811615611b135760ff19166005557f5db9ee0a495bf2e6ff9c91a7834c1ba4fdd244a5e8aa4e537bd38aeae4b073aa6020604051338152a1005b60405162461bcd60e51b815260206004820152601460248201527314185d5cd8589b194e881b9bdd081c185d5cd95960621b6044820152606490fd5b34610258576020366003190112610258576001600160a01b03611b7061219c565b166000526009602052602060ff604060002054166040519015158152f35b346102585760203660031901126102585760006101c0604051611bb081612210565b828152826020820152826040820152826060820152826080820152606060a0820152606060c08201528260e0820152826101008201528261012082015260606101408201528261016082015282610180820152826101a0820152015260043560005260076020526040600020600d60405191611c2b83612210565b80548352600181015460208401526002810154604084015260038101546001600160a01b0390811660608501526004820154166080840152611c6f60058201612388565b60a0840152611c8060068201612388565b60c084015260ff6007820154818116151560e086015260081c1615156101008401526008810154610120840152611cb960098201612388565b610140840152600a810154610160840152600b81015461018084015260ff600c820154166101a084015201546101c082015260405180916020825280516020830152602081015160408301526040810151606083015260018060a01b03606082015116608083015260018060a01b0360808201511660a08301526101c0611dae611d5460a08401516101e060c08701526102008601906121eb565b611d7060c085015191601f1992838883030160e08901526121eb565b9060e08501511515610100870152610100850151151561012087015261012085015161014087015261014085015190868303016101608701526121eb565b916101608101516101808501526101808101516101a085015260ff6101a0820151168285015201516101e08301520390f35b3461025857604036600319011261025857611df96121b2565b600435600052600b60205260406000209060018060a01b03166000526020526020604060002054604051908152f35b346102585760a036600319011261025857611e4161219c565b611e496121b2565b6001600160401b0360443581811161025857611e69903690600401612266565b9060643581811161025857611e82903690600401612266565b9060843590811161025857611e9b9036906004016122c4565b8251825103611fba5792611eaf825161251a565b92611eba835161251a565b95600092600d54935b8351811015611f3c5780611eda611f37928661255b565b51600052611ef660ff60078060205260406000200154166127e7565b612710611f0d87611f07848b61255b565b5161282a565b04611f2281611f1c848b61255b565b5161285d565b611f2c838b61255b565b5261191f828c61255b565b611ec3565b508583611f65898b611f51828686898b612bb4565b600f5484906001600160a01b031688612bb4565b60005b8151811015611fb85780611f7f611fb3928461255b565b51600080516020612fd8833981519152611fab611f9c848861255b565b516040519182918a8c8461286a565b0390a261254c565b611f68565b005b60405162461bcd60e51b8152602060048201526016602482015275082e4e4c2f2e640d8cadccee8d040dad2e6dac2e8c6d60531b6044820152606490fd5b34610258576000366003190112610258576020600d54604051908152f35b3461025857602036600319011261025857600435600052600c6020526020604060002054604051908152f35b34610258576020806003193601126102585760405190600082600254916120688361234e565b928383526001908582821691826000146120e75750506001146120a7575b506120939250038361222c565b6119416040519282849384528301906121eb565b849150600260005281600020906000915b8583106120cf575050612093935082010185612086565b805483890185015287945086939092019181016120b8565b60ff19168582015261209395151560051b85010192508791506120869050565b346102585760203660031901126102585760043563ffffffff60e01b811680910361025857602090636cdb3d1360e11b8114908115612164575b8115612153575b506040519015158152f35b6301ffc9a760e01b14905082612148565b6303a24d0760e21b81149150612141565b3461025857604036600319011261025857602061068961219361219c565b60243590612495565b600435906001600160a01b038216820361025857565b602435906001600160a01b038216820361025857565b60005b8381106121db5750506000910152565b81810151838201526020016121cb565b90602091612204815180928185528580860191016121c8565b601f01601f1916010190565b6101e081019081106001600160401b03821117610d0957604052565b601f909101601f19168101906001600160401b03821190821017610d0957604052565b6001600160401b038111610d095760051b60200190565b81601f820112156102585780359161227d8361224f565b9261228b604051948561222c565b808452602092838086019260051b820101928311610258578301905b8282106122b5575050505090565b813581529083019083016122a7565b81601f82011215610258578035906001600160401b038211610d0957604051926122f8601f8401601f19166020018561222c565b8284526020838301011161025857816000926020809301838601378301015290565b90815180825260208080930193019160005b82811061233a575050505090565b83518552938101939281019260010161232c565b90600182811c9216801561237e575b602083101461236857565b634e487b7160e01b600052602260045260246000fd5b91607f169161235d565b906040519182600082549261239c8461234e565b90818452600194858116908160001461240b57506001146123c8575b50506123c69250038361222c565b565b9093915060005260209081600020936000915b8183106123f35750506123c6935082010138806123b8565b855488840185015294850194879450918301916123db565b9150506123c694506020925060ff191682840152151560051b82010138806123b8565b60243590811515820361025857565b6003546001600160a01b0316330361245157565b606460405162461bcd60e51b815260206004820152602060248201527f4f776e61626c653a2063616c6c6572206973206e6f7420746865206f776e65726044820152fd5b6001600160a01b03169081156124c257600052600060205260406000209060005260205260406000205490565b60405162461bcd60e51b815260206004820152602a60248201527f455243313135353a2061646472657373207a65726f206973206e6f742061207660448201526930b634b21037bbb732b960b11b6064820152608490fd5b906125248261224f565b612531604051918261222c565b8281528092612542601f199161224f565b0190602036910137565b60001981146115905760010190565b805182101561256f5760209160051b010190565b634e487b7160e01b600052603260045260246000fd5b1561258c57565b60405162461bcd60e51b815260206004820152601f60248201527f5265656e7472616e637947756172643a207265656e7472616e742063616c6c006044820152606490fd5b60ff600554166125dd57565b60405162461bcd60e51b815260206004820152601060248201526f14185d5cd8589b194e881c185d5cd95960821b6044820152606490fd5b9190820180921161159057565b9081602091031261025857516001600160e01b0319811681036102585790565b60809060208152602860208201527f455243313135353a204552433131353552656365697665722072656a656374656040820152676420746f6b656e7360c01b60608201520190565b60009060033d1161269857565b905060046000803e60005160e01c90565b600060443d1061270657604051600319913d83016004833e81516001600160401b03918282113d60248401111761270957818401948551938411612711573d8501016020848701011161270957506127069291016020019061222c565b90565b949350505050565b50949350505050565b60809060208152603460208201527f455243313135353a207472616e7366657220746f206e6f6e20455243313135356040820152732932b1b2b4bb32b91034b6b83632b6b2b73a32b960611b60608201520190565b60408051919082016001600160401b03811183821017610d09576040526001825260208201602036823782511561256f575290565b156127ab57565b60405162461bcd60e51b8152602060048201526014602482015273151bdad95b88191bd95cc81b9bdd08195e1a5cdd60621b6044820152606490fd5b156127ee57565b60405162461bcd60e51b8152602060048201526014602482015273125b9d9bda58d9481b9bdd081d995c9a599a595960621b6044820152606490fd5b8181029291811591840414171561159057565b8115612847570490565b634e487b7160e01b600052601260045260246000fd5b9190820391821161159057565b6001600160a01b03918216815291166020820152604081019190915260600190565b1561289357565b60405162461bcd60e51b815260206004820152602f60248201527f455243313135353a2063616c6c6572206973206e6f7420746f6b656e206f776e60448201526e195c881b9bdc88185c1c1c9bdd9959608a1b6064820152608490fd5b909391926001600160a01b039182169290913384148015612ad2575b6129159061288c565b8516612922811515612afb565b61292b8561276f565b506129358361276f565b506000928584526020958487526040978886208787528852828987205461295e82821015612b55565b838852878a528a88208989528a520389872055818652858852888620848752885288862061298d848254612615565b905583878a51848152858b820152600080516020612fb88339815191528c3392a43b6129be575b5050505050505050565b91849391612a069588999a98948b519788958694859363f23a6e6160e01b9c8d865233600487015260248601526044850152606484015260a0608484015260a48301906121eb565b03925af1909181612ab3575b50612a7957505050612a2261268b565b6308c379a014612a45575b505162461bcd60e51b815280610c206004820161271a565b612a4d6126a9565b9081612a595750612a2d565b610c20835192839262461bcd60e51b8452600484015260248301906121eb565b919392506001600160e01b031990911603612a9c575038808080808080806129b4565b5162461bcd60e51b815280610c2060048201612642565b612acb919250853d8711610cb357610ca4818361222c565b9038612a12565b5083600052600160205260406000203360005260205261291560ff60406000205416905061290c565b15612b0257565b60405162461bcd60e51b815260206004820152602560248201527f455243313135353a207472616e7366657220746f20746865207a65726f206164604482015264647265737360d81b6064820152608490fd5b15612b5c57565b60405162461bcd60e51b815260206004820152602a60248201527f455243313135353a20696e73756666696369656e742062616c616e636520666f60448201526939103a3930b739b332b960b11b6064820152608490fd5b90946001600160a01b0391821692913384148015612e49575b612bd69061288c565b8251855103612df357861695612bed871515612afb565b60005b8351811015612c805780612c07612c7b928661255b565b51612c74612c15838a61255b565b519180600052602060008152604091826000208b6000528252848360002054612c4082821015612b55565b8260005260008452846000208d60005284520383600020556000526000815281600020908d60005252600020918254612615565b905561254c565b612bf0565b509492939095604095818688518981527f4a39dc06d4c0dbc64b70af90fd698a233a518aa5d07e595d983b8c0526c8f7fb612cbd8b83018961231a565b91808303602082015280612cd233948a61231a565b0390a43b612ce3575b505050505050565b612d236000602094612d45612d36958a519889978896879563bc197c8160e01b9d8e8852336004890152602488015260a0604488015260a487019061231a565b600319938487830301606488015261231a565b918483030160848501526121eb565b03925af160009181612dd3575b50612db85782612d6061268b565b6308c379a014612d82575b5162461bcd60e51b815280610c206004820161271a565b612d8a6126a9565b80612d955750612d6b565b905162461bcd60e51b815260206004820152908190610c209060248301906121eb565b6001600160e01b03191603612a9c5750388080808080612cdb565b612dec91925060203d8111610cb357610ca4818361222c565b9038612d52565b60405162461bcd60e51b815260206004820152602860248201527f455243313135353a2069647320616e6420616d6f756e7473206c656e677468206044820152670dad2e6dac2e8c6d60c31b6064820152608490fd5b50836000526001602052604060002033600052602052612bd660ff604060002054169050612bcd565b80600052600760205260406000209060405192612e8e84612210565b825484526001830154602085019081526002840154604086015260038401546001600160a01b039081166060870152600485015416608086015291612ed560058501612388565b60a0860152612ee660068501612388565b60c0860152600d60078501549460ff8616151560e088015260ff61010088019660081c16151586526008810154610120880152612f2560098201612388565b610140880152600a810154610160880152600b81015461018088015260ff600c820154166101a08801520154936101c086019485525115612fad57612f6991612495565b92612710918285029480860484149015171561159057612f9d612fa692612f96612706978694519061283d565b905161282a565b0492518361282a565b0490612615565b505050505060009056fec3d58168c5ae7397731d063d5bbf3d657854427343f4c083240f7aacaa2d0f62eda26ee56ceca2601894016faaf344b1543b1c30d49c7238f7d0c1530bd1fc1b8be0079c531659141344cd1fd0a4f28419497f9722a3daafe3b4186f6b6457e0a2646970667358221220968be6a0e286b745053a6a34ebc9106a1c2248e11786ebf56e7ccf7b5442261064736f6c6343000814003360e03462000b8b57601f62003f8238819003918201601f19168301916001600160401b03831184841017620007b75780849260809460405283398101031262000b8b576200004d8162000bb0565b906200005c6020820162000bb0565b91620000796060620000716040850162000bb0565b930162000bb0565b60016000556032600e556064600f556103e86010556509184e72a00060125562093a8060135561012c6014556001600160a01b0382811694909390851562000b4657841690811562000b0157841691821562000abc57841692831562000a775760805260a05260c052601180546001600160a01b03191691909117905533600090815260008051602062003f42833981519152602052604090205460ff161562000a34575b3360009081527ffdb122eb892c6b3193f8499f050265ce5458caab5f6480270d8972921f24f42960205260409020547f241ecf16d79d0f8dbfb92cbc07fe17840425976cf0667f022fe9877caa831b089060ff1615620009f0575b503360009081527f21d442261a7cc2346fd3ca5e1f22fe015f6b71188f57ab4761df2e3faed3703f60205260409020547f928286c473ded01ff8bf61a1986f14a0579066072fa8261442d9fea514d93a4c9060ff1615620009ac575b5060405161010081016001600160401b03811182821017620007b7576040526000815260006020820152600060408201526000606082015260006080820152600060a0820152600060c082015260e0429101526000600255600060035560006004556000600555600060065560006007556000600855426009556040519160a083019183831060018060401b03841117620007b75760039260405281845260208401600181526040850190612710825260608601926305f5e1008452608087019460008652600052600c602052604060002096511686549160ff60a01b9051151560a01b169160018060a81b0319161717855551600185015551600284015551910155620002e262000b90565b600c81526b436f6e73657276617469766560a01b60208201526015546000198114620007cd576001810160158190556000908152600b60205260409020825192906001600160401b038411620007b7578054600181811c91168015620009a1575b60208210146200079657601f811162000958575b50602093601f8111600114620008ec578091929394600091620008e0575b508160011b916000199060031b1c19161781555b600360018201556102bc60028201556103206003820155603c6004820155611b5860058201556006600160ff198284015416179101556040516020815281519182602083015260005b838110620008c9578360008051602062003f628339815191528460408160018a60008488850101520194601f80199101168101030190a26200041362000b90565b600881526710985b185b98d95960c21b60208201526015546000198114620007cd576001810160158190556000908152600b60205260409020825192906001600160401b038411620007b7578054600181811c91168015620008be575b60208210146200079657601f811162000875575b50602093601f81116001146200080657806006939495600091620007fa575b508160011b916000199060031b1c19161781555b6005600182015561025860028201556104b06003820155605a60048201556107d0600582015501600160ff198254161790556040516020815281519182602083015260005b838110620007e3578360008051602062003f628339815191528460408160018a60008488850101520194601f80199101168101030190a26200053d62000b90565b600a8152694167677265737369766560b01b60208201526015546000198114620007cd576001810160158190556000908152600b60205260409020825192906001600160401b038411620007b7578054600181811c91168015620007ac575b60208210146200079657601f81116200074d575b50602093601f8111600114620006de57806006939495600091620006d2575b508160011b916000199060031b1c19161781555b600860018201556101f460028201556107d06003820155607860048201556103e8600582015501600160ff198254161790556040516020815281519182602083015260005b838110620006bb578360008051602062003f628339815191528460408160018a60008488850101520194601f80199101168101030190a260405161335c908162000bc682396080518181816102bd01528181610fb001528181611de301528181611e4e0152818161211a015261216d015260a0518181816103e30152611d2f015260c05181818161045701526112cd0152f35b806020809284010151604082860101520162000628565b905084015186620005cf565b81600052602060002060005b601f198316811062000734575090600191600694959682601f198116106200071a575b5050811b018155620005e3565b86015160001960f88460031b161c1916905586806200070d565b84870151825560209687019660019092019101620006ea565b816000526020600020601f860160051c8101602087106200078e575b601f830160051c8201811062000781575050620005b0565b6000815560010162000769565b508062000769565b634e487b7160e01b600052602260045260246000fd5b90607f16906200059c565b634e487b7160e01b600052604160045260246000fd5b634e487b7160e01b600052601160045260246000fd5b8060208092840101516040828601015201620004fc565b905084015186620004a3565b81600052602060002060005b601f19831681106200085c575090600191600694959682601f1981161062000842575b5050811b018155620004b7565b86015160001960f88460031b161c19169055868062000835565b8487015182556020968701966001909201910162000812565b816000526020600020601f860160051c810160208710620008b6575b601f830160051c82018110620008a957505062000484565b6000815560010162000891565b508062000891565b90607f169062000470565b8060208092840101516040828601015201620003d2565b90508301513862000375565b81600052602060002060005b601f19831681106200093f575060019293949582601f1981161062000925575b5050811b01815562000389565b85015160001960f88460031b161c19169055388062000918565b84870151825560209687019660019092019101620008f8565b816000526020600020601f860160051c81016020871062000999575b601f830160051c820181106200098c57505062000357565b6000815560010162000974565b508062000974565b90607f169062000343565b8060005260016020526040600020336000526020526040600020600160ff198254161790553390339060008051602062003f22833981519152600080a438620001d5565b8060005260016020526040600020336000526020526040600020600160ff198254161790553390339060008051602062003f22833981519152600080a43862000179565b33600081815260008051602062003f4283398151915260205260408120805460ff19166001179055819060008051602062003f228339815191528180a46200011e565b60405162461bcd60e51b815260206004820152601d60248201527f496e76616c69642066656520726563697069656e7420616464726573730000006044820152606490fd5b60405162461bcd60e51b815260206004820152601e60248201527f496e76616c6964206372656469742073636f72696e67206164647265737300006044820152606490fd5b60405162461bcd60e51b815260206004820152601d60248201527f496e76616c696420696e766f69636520746f6b656e20616464726573730000006044820152606490fd5b60405162461bcd60e51b815260206004820152601a60248201527f496e76616c696420737461626c65636f696e20616464726573730000000000006044820152606490fd5b600080fd5b60408051919082016001600160401b03811183821017620007b757604052565b51906001600160a01b038216820362000b8b5756fe608080604052600436101561001d575b50361561001b57600080fd5b005b60009060e08235811c91826301ffc9a71461225f5750816316330d401461224157816322068b4414612223578163248a9ca3146121f75781632e1a7d4d1461202a5781632f2ff15d14611f7b57816336568abe14611ee8578163372500ab14611d5e578163464b539114611d195781634690484014611cf057816348a4565d14611c7d578163580b7c2e14611c54578163587436e414611b0a5781635a2f3d0914611aae57816360246c88146119d5578163613cf4201461198c5781636386c1c7146118cd57816367a52793146118af5781636bf1ad6d146117ba578163724806701461143a5781637320ca26146113c957816373ae54b5146113ab578163859fba6a1461138157816387788782146113635781638bc7e8c41461134557816391d14854146112fc5781639883688f146112b7578163a217fddf1461129b578163b6b55f2514610f71578163bab9106d14610d8e578163bd81579e14610d23578163c5579dc014610d05578163cad45a4114610c71578163d547741f14610c30578163d574ea3d14610ba7578163db089e7914610a8a578163dbd5ef6d1461092b578163de6d00f71461037d57508063e74b981b146102ec578063e9cbd822146102a7578063ec87621c1461027e5763fae728cd0361000f573461027b57602036600319011261027b5760043561021261250c565b6113888111610247576020816000805160206132678339815191529260075542600955604051908152a1602060405160018152f35b60405162461bcd60e51b815260206004820152600c60248201526b082a0b240e8dede40d0d2ced60a31b6044820152606490fd5b80fd5b503461027b578060031936011261027b5760206040516000805160206132c78339815191528152f35b503461027b578060031936011261027b576040517f00000000000000000000000000000000000000000000000000000000000000006001600160a01b03168152602090f35b503461027b57602036600319011261027b576103066122cf565b61030e61281e565b6001600160a01b031680156103385760018060a01b03196011541617601155602060405160018152f35b60405162461bcd60e51b815260206004820152601d60248201527f496e76616c69642066656520726563697069656e7420616464726573730000006044820152606490fd5b823461027b5761038c36612328565b9261039561250c565b60026103a48185541415612c0c565b8084556103b2851515612c58565b600391825486116108eb57604051631d11e60560e11b8152600481018590526024926001600160a01b0392878386817f000000000000000000000000000000000000000000000000000000000000000088165afa9283156106bc57889361077f575b5082015115610744578151881161070157604082015191428311156106c757839060609485809201511686604051809481936355b56bff60e11b835260048301527f0000000000000000000000000000000000000000000000000000000000000000165afa9081156106bc578891610676575b5060ff809116908896620151806104a08b964290612cc4565b04926001968b601554985b8981111561058c578e828e8e8e811561054b57828452600d602052816040852055600454906001820180921161053957506001947fedd65c7639fb6c865f1f98f6a15aea4f7a0f9132f8ba11290ed0d5bf2e6ddac59260409260045561051382600554612ad1565b60055542600955610522613135565b82519182526020820152a255602060405160018152f35b634e487b7160e01b8552601160045284fd5b606490601a6040519162461bcd60e51b83526020600484015282015279139bc81cdd5a5d18589b19481cdd1c985d1959de48199bdd5b9960321b6044820152fd5b8082526020600b8152866040842091604051906105a8826123c5565b6105b18461241e565b82526001840154908201528a830154908160408201528884015487820152826006600486015495866080850152600581015460a0850152015416159060c08215910152610660578610938415948561066d575b6106605761062b9394600014610659576064925b8a1161065257508060645b169116612ad1565b888111610644575b5061063d90612ffa565b8c906104ab565b909a5096508961063d610633565b8190610623565b8092610618565b50505061063d9150612ffa565b50828a11610604565b90508381813d83116106b5575b61068d81836123fb565b810103126106b1576106aa60206106a383612f56565b9201612f56565b5089610487565b8780fd5b503d610683565b6040513d8a823e3d90fd5b60405162461bcd60e51b81526020600482015260138187015272496e766f69636520616c72656164792064756560681b6044820152606490fd5b60405162461bcd60e51b815260206004820152601c818601527b416d6f756e74206578636565647320696e766f6963652076616c756560201b6044820152606490fd5b60405162461bcd60e51b81526020600482015260148186015273125b9d9bda58d9481b9bdd081d995c9a599a595960621b6044820152606490fd5b9092503d8089833e61079181836123fb565b8101906020818303126108e75780516001600160401b03918282116108e35701906101e09283838203126108e357604051938401848110838211176108d0576040528251845260208301516020850152604083015160408501526107f760608401612efd565b606085015261080860808401612efd565b608085015260a08301518281116108cc5781610825918501612f11565b60a085015260c08301518281116108cc5781610842918501612f11565b60c0850152610852868401612d3e565b86850152610100610864818501612d3e565b90850152610120808401519085015261014091828401519081116108cc579061088e918401612f11565b90830152610160808201519083015261018080820151908301526101a06108b6818301612f56565b908301526101c080910151908201529189610414565b8b80fd5b634e487b7160e01b8c526041600452888cfd5b8a80fd5b8880fd5b60405162461bcd60e51b8152602060048201526018602482015277496e73756666696369656e7420706f6f6c2061737365747360401b6044820152606490fd5b823461027b57608036600319011261027b5760643560443560243560043561095161281e565b6101f4808211610a4e578211610a0f57610bb883116109cf576103e8841161098a57600e55600f55601055601455602060405160018152f35b60405162461bcd60e51b815260206004820152601d60248201527f4561726c79207769746864726177616c2066656520746f6f20686967680000006044820152606490fd5b60405162461bcd60e51b81526020600482015260186024820152770a0cae4ccdee4dac2dcc6ca40cccaca40e8dede40d0d2ced60431b6044820152606490fd5b60405162461bcd60e51b81526020600482015260176024820152760aed2e8d0c8e4c2eec2d840cccaca40e8dede40d0d2ced604b1b6044820152606490fd5b60405162461bcd60e51b8152602060048201526014602482015273088cae0dee6d2e840cccaca40e8dede40d0d2ced60631b6044820152606490fd5b823461027b576020908160031936011261027b576040906004358160c08451610ab2816123c5565b60608152828782015282868201528260608201528260808201528260a0820152015280151580610b9b575b610ae690612f64565b8152600b8352208260405192610afb846123c5565b610b048361241e565b845260018301549281850193845260028101546040860190815260038201546060870190815260048301549160808801928352610b7160ff600660058701549660a08c019788520154169560c08a0196151587526040519a8b9a828c5251918b01526101008a01906124e7565b965160408901525160608801525160808701525160a08601525160c0850152511515908301520390f35b50601554811115610add565b823461027b57602036600319011261027b576040906004358152600b6020522090610bd18261241e565b91600181015490600281015490600381015460048201549060ff600660058501549401541693610c0b60405198888a998a528901906124e7565b95602088015260408701526060860152608085015260a0840152151560c08301520390f35b823461027b57604036600319011261027b57610c6e600435610c506122b4565b908084526001602052610c696001604086200154612935565b612a32565b80f35b823461027b5760019060207f93779ca16187e897d4f01a19100fe66162991c20afb461c7e2628809196deb0d610ca636612328565b610cb193919361250c565b610cbf600286541415612c0c565b60028555610cce811515612c58565b610cda81600654612ad1565b60065542600955610ce9613135565b610cf2816131d1565b604051908152a255602060405160018152f35b823461027b578060031936011261027b576020601254604051908152f35b823461027b57602036600319011261027b5760a0906001600160a01b039060409082610d4d6122cf565b168152600c60205220805490600181015460ff60036002840154930154936040519581168652861c1615156020850152604084015260608301526080820152f35b823461027b5761010036600319011261027b576001600160401b0390600435602435838111610f6d57610dc59036906004016122fb565b9060e4358015158103610f6957610dda6126f7565b83151580610f5d575b610dec90612f64565b838552602095600b875260408620908411610f4957610e1584610e0f835461233e565b83612fa6565b85601f8511600114610ecc5795610e946040949360068794856000805160206132e78339815191529a9b8691610ec1575b508660011b906000198860031b1c19161781555b60443560018201556064356002820155608435600382015560a435600482015560c4356005820155019060ff801983541691151516179055565b8351948593898552818a86015285850137828201840152601f01601f19168101030190a260405160018152f35b90508701358d610e46565b81875287872090601f198616885b8a828210610f3357505093600687946000805160206132e7833981519152999a94610e94948760409a9910610f19575b5050600186811b018155610e5a565b880135600019600389901b60f8161c191690558c80610f0a565b600184958293958a013581550194019201610eda565b634e487b7160e01b86526041600452602486fd5b50601554841115610de3565b8480fd5b8280fd5b823461027b576020908160031936011261027b57600435906002610f988183541415612c0c565b808255610fa6831515612c58565b6001600160a01b037f0000000000000000000000000000000000000000000000000000000000000000818116808552600c8752604080862090516001600160401b0397939594929160a082018981118382101761117a5760405260ff8154858116845260a01c161580158b8401526001820154604084015260806003888401549360608601948552015493019283526112605751841061121c57518015908115611211575b50156111cd5761105d83600354612ad1565b6012541061118e57612710611074600e5485612aa8565b04906110808285612cc4565b6040516323b872dd60e01b8b82015233602482015230604482015260648082018790528152909860a082019081118282101761117a57916110ee7fdcbc1c05240f31ff3ad067ef1ee35ce4997762752e3a095284754544f4c709d796949260019a9998969460405282612d4b565b81611164575b50505061113861110388613020565b978893338852600a8b526040882061111c868254612ad1565b8155814291015561112e858254612ad1565b9055600354612ad1565b60035542600955611147613135565b611158604051928392339684612cd1565b0390a255604051908152f35b611172926011541690612cef565b8880806110f4565b634e487b7160e01b89526041600452602489fd5b60405162461bcd60e51b8152600481018990526017602482015276141bdbdb081cda5e99481b1a5b5a5d081c995858da1959604a1b6044820152606490fd5b60405162461bcd60e51b815260048101899052601c60248201527b105b5bdd5b9d0818589bdd99481b585e1a5b5d5b4819195c1bdcda5d60221b6044820152606490fd5b90508311158961104b565b60405162461bcd60e51b8152600481018a9052601c60248201527b105b5bdd5b9d0818995b1bddc81b5a5b9a5b5d5b4819195c1bdcda5d60221b6044820152606490fd5b60405162461bcd60e51b8152600481018b90526013602482015272105cdcd95d081b9bdd081cdd5c1c1bdc9d1959606a1b6044820152606490fd5b823461027b578060031936011261027b57602090604051908152f35b823461027b578060031936011261027b576040517f00000000000000000000000000000000000000000000000000000000000000006001600160a01b03168152602090f35b823461027b57604036600319011261027b5760ff604060209261131d6122b4565b6004358252600185528282206001600160a01b03909116825284522054604051911615158152f35b823461027b578060031936011261027b576020600f54604051908152f35b823461027b578060031936011261027b576020601054604051908152f35b823461027b57602036600319011261027b5760406020916004358152600d83522054604051908152f35b823461027b578060031936011261027b576020601354604051908152f35b823461027b57602036600319011261027b576004356113e661250c565b62278d0081116113fe57601355602060405160018152f35b60405162461bcd60e51b81526020600482015260146024820152734c6f636b20706572696f6420746f6f206c6f6e6760601b6044820152606490fd5b9050346117b65736600319011261027b576001600160401b03816004358281116117b65761146c9036906004016122fb565b919060c435151560c435036117b6576114836126f7565b61148c83612ade565b9261149a60405194856123fb565b8084523681830111610f6d57806020928386013783010152602492600184351015806117aa575b156117715761012c604435101580611763575b1561172857611388606435116116eb57608435156116b45761271060a4351161167057611502601554612ffa565b9283601555838252600b6020526040822091835191821161165d57948160209661153985946115338998975461233e565b86612fa6565b8790601f83116001146115e05792826115b8936115ca96936000805160206132a78339815191529896916115d5575b508160011b916000199060031b1c19161782555b35600182015560443560028201556064356003820155608435600482015560a4356005820155600601805460ff191660ff60c435151516179055565b604051918291878352878301906124e7565b0390a2604051908152f35b905085015138611568565b90848252888220915b601f19841681106116435750926001836115ca96936000805160206132a783398151915298966115b896601f1981161061162a575b5050811b01825561157c565b87015160001960f88460031b161c19169055388061161e565b8187015183558897506001909201919089019089016115e9565b634e487b7160e01b815260416004528590fd5b60405162461bcd60e51b815260206004820152601d818601527f496e76616c696420616c6c6f636174696f6e2070657263656e746167650000006044820152606490fd5b60405162461bcd60e51b8152602060048201526010818601526f24b73b30b634b210323ab930ba34b7b760811b6044820152606490fd5b60405162461bcd60e51b81526020600482015260168186015275092dce8cae4cae6e840e4c2e8ca40e8dede40d0d2ced60531b6044820152606490fd5b60405162461bcd60e51b81526020600482015260148186015273496e76616c6964206372656469742073636f726560601b6044820152606490fd5b5061035260443511156114d4565b60405162461bcd60e51b81526020600482015260128186015271125b9d985b1a59081c9a5cdac81b195d995b60721b6044820152606490fd5b50600a843511156114c1565b5080fd5b823461027b5760a036600319011261027b576117d46122cf565b60243590811515809203610f6d576117ea61250c565b6001600160a01b031691821561187257828152600c602090815260409182902080546001600160a81b031916851760a085901b60ff60a01b161781556044356001820155606435600282015560843560039091015590519182527f85601d3ca5ef894ba970c21e3a63d681ee0e39464e8698464e62fbd44b81886c91a2602060405160018152f35b60405162461bcd60e51b8152602060048201526015602482015274496e76616c696420746f6b656e206164647265737360581b6044820152606490fd5b823461027b578060031936011261027b576020600e54604051908152f35b823461027b57602036600319011261027b576118e76122cf565b6001600160a01b0381168252600a60205260408083209051909161192c9061190e836123aa565b60028454948585526001810154602086015201546040840152613079565b6002549093909182156119815751906127109182810292818404149015171561196d57506119699161195d91612ca4565b604051938493846122e5565b0390f35b634e487b7160e01b81526011600452602490fd5b50611969915061195d565b823461027b57602036600319011261027b576040906001600160a01b036119b16122cf565b168152600a60205220805461196960026001840154930154604051938493846122e5565b9050346117b657816003193601126117b65761010091816040516119f881612378565b8281528260208201528260408201528260608201528260808201528260a08201528260c0820152015260405190611a2e82612378565b6002549182815260035460208201908152600454604083019081526005546060840190815260065490608085019182526007549260a086019384526008549460c087019586528760095497019687526040519889525160208901525160408801525160608701525160808601525160a08501525160c08401525190820152f35b9050346117b657816003193601126117b657610100906002549060035490600454600554600654600754916008549360095496604051988952602089015260408801526060870152608086015260a085015260c0840152820152f35b823461027b578060031936011261027b57601554600182815b83811115611c105750611b4e611b3885613009565b94611b4660405196876123fb565b808652613009565b9360209384820195601f19013687378290845b81811115611ba2575050506040519380850191818652518092526040850195925b828110611b8f5785870386f35b8351875295810195928101928401611b82565b808597949598969852600b845260ff600660408920015416611bd4575b611bc890612ffa565b96949695939295611b61565b918451811015611bfc57611bf4818486611bc89460051b89010152612ffa565b929050611bbf565b634e487b7160e01b87526032600452602487fd5b80829493959252600b60205260ff600660408620015416611c3f575b611c3590612ffa565b9391929093611b23565b90611c4c611c3591612ffa565b919050611c2c565b823461027b578060031936011261027b5760206040516000805160206133078339815191528152f35b823461027b57602036600319011261027b57600435611c9a61250c565b6003548110611cb157601255602060405160018152f35b60405162461bcd60e51b815260206004820152601760248201527613585e081c1bdbdb081cda5e99481d1bdbc81cdb585b1b604a1b6044820152606490fd5b823461027b578060031936011261027b576011546040516001600160a01b039091168152602090f35b823461027b578060031936011261027b576040517f00000000000000000000000000000000000000000000000000000000000000006001600160a01b03168152602090f35b823461027b578060031936011261027b57611d7d600282541415612c0c565b60028155338152600a60205260408120805415611eb457611d9d33613079565b8015611e7957602092600191611dc3612710611dbb60105484612aa8565b048092612cc4565b93828482015560024291015580611e3c575b50611e088333848060a01b037f000000000000000000000000000000000000000000000000000000000000000016612cef565b6040518381527f106f923f993c2149d49b4255ff723acafa1f2d94393f561d3eda32ae348f7241853392a255604051908152f35b611e7390838060a01b038060115416907f000000000000000000000000000000000000000000000000000000000000000016612cef565b84611dd5565b60405162461bcd60e51b81526020600482015260136024820152724e6f207265776172647320746f20636c61696d60681b6044820152606490fd5b60405162461bcd60e51b815260206004820152600c60248201526b4e6f204c5020746f6b656e7360a01b6044820152606490fd5b823461027b57604036600319011261027b57611f026122b4565b336001600160a01b03821603611f1e57610c6e90600435612a32565b60405162461bcd60e51b815260206004820152602f60248201527f416363657373436f6e74726f6c3a2063616e206f6e6c792072656e6f756e636560448201526e103937b632b9903337b91039b2b63360891b6064820152608490fd5b823461027b57604036600319011261027b57600435611f986122b4565b8183526001602052611fb06001604085200154612935565b8183526001602052604083209060018060a01b03169081845260205260ff60408420541615611fdd578280f35b81835260016020526040832081845260205260408320600160ff1982541617905533917f2f8788117e7eff1d82e926ec794901d17c78024a50270940304540a733656f0d8480a481808280f35b823461027b57602036600319011261027b576004359061204e600282541415612c0c565b6002815561205d821515612c58565b338152600a602052604081208054918383106121b957602093826120876002600195015442612cc4565b6013541161209483613054565b612710806120a4600f5484612aa8565b0492612198575b5081926120c5856120bf6120de9585612cc4565b99612cc4565b90556120d384600254612cc4565b600255600354612cc4565b600355426009556120ed613135565b8061215b575b507fc2b4a290c20fb28939d29f102514fbffd2b73c059ffba8b78250c94161d5fcc66111587f00000000000000000000000000000000000000000000000000000000000000009261214c8733888060a01b038716612cef565b60405191829188339684612cd1565b61219290848060a01b038060115416907f000000000000000000000000000000000000000000000000000000000000000016612cef565b856120f3565b6120de926121b3916121ac60145485612aa8565b0490612ad1565b916120ab565b60405162461bcd60e51b8152602060048201526016602482015275496e73756666696369656e74204c5020746f6b656e7360501b6044820152606490fd5b823461027b57602036600319011261027b57600160406020926004358152828452200154604051908152f35b823461027b578060031936011261027b576020601554604051908152f35b823461027b578060031936011261027b576020601454604051908152f35b8390346117b65760203660031901126117b65760043563ffffffff60e01b8116809103610f6d5760209250637965db0b60e01b81149081156122a3575b5015158152f35b6301ffc9a760e01b1490508361229c565b602435906001600160a01b03821682036122ca57565b600080fd5b600435906001600160a01b03821682036122ca57565b6040919493926060820195825260208201520152565b9181601f840112156122ca578235916001600160401b0383116122ca57602083818601950101116122ca57565b60409060031901126122ca576004359060243590565b90600182811c9216801561236e575b602083101461235857565b634e487b7160e01b600052602260045260246000fd5b91607f169161234d565b61010081019081106001600160401b0382111761239457604052565b634e487b7160e01b600052604160045260246000fd5b606081019081106001600160401b0382111761239457604052565b60e081019081106001600160401b0382111761239457604052565b608081019081106001600160401b0382111761239457604052565b601f909101601f19168101906001600160401b0382119082101761239457604052565b90604051918260008254926124328461233e565b9081845260019485811690816000146124a1575060011461245e575b505061245c925003836123fb565b565b9093915060005260209081600020936000915b81831061248957505061245c9350820101388061244e565b85548884018501529485019487945091830191612471565b91505061245c94506020925060ff191682840152151560051b820101388061244e565b60005b8381106124d75750506000910152565b81810151838201526020016124c7565b90602091612500815180928185528580860191016124c4565b601f01601f1916010190565b3360009081527ffdb122eb892c6b3193f8499f050265ce5458caab5f6480270d8972921f24f429602090815260408083205490926000805160206132c78339815191529160019060ff1615612562575050505050565b61256b33612b20565b92855191612578836123e0565b604283528583019360603686378351156126e3576030855383518210156126e35790607860218501536041915b818311612675575050506126455760486126419386936126259361261698519889936000805160206132878339815191528a8601526125ed815180928c6037890191016124c4565b8401917001034b99036b4b9b9b4b733903937b6329607d1b6037840152518093868401906124c4565b010360288101875201856123fb565b5192839262461bcd60e51b8452600484015260248301906124e7565b0390fd5b60648486519062461bcd60e51b825280600483015260248201526000805160206132478339815191526044820152fd5b909192600f811660108110156126cf576f181899199a1a9b1b9c1cb0b131b232b360811b901a6126a58587612af9565b5360041c9280156126bb576000190191906125a5565b634e487b7160e01b82526011600452602482fd5b634e487b7160e01b83526032600452602483fd5b634e487b7160e01b81526032600452602490fd5b3360009081527f21d442261a7cc2346fd3ca5e1f22fe015f6b71188f57ab4761df2e3faed3703f602090815260408083205490926000805160206133078339815191529160019060ff161561274d575050505050565b61275633612b20565b92855191612763836123e0565b604283528583019360603686378351156126e3576030855383518210156126e35790607860218501536041915b8183116127d8575050506126455760486126419386936126259361261698519889936000805160206132878339815191528a8601526125ed815180928c6037890191016124c4565b909192600f811660108110156126cf576f181899199a1a9b1b9c1cb0b131b232b360811b901a6128088587612af9565b5360041c9280156126bb57600019019190612790565b3360009081527fa6eef7e35abe7026729641147f7915573c7e97b47efa546f5f6e3230263bcb496020908152604080832054909260019160ff16156128635750505050565b61286c33612b20565b918185519161287a836123e0565b604283528583019360603686378351156126e3576030855383518210156126e35790607860218501536041915b8183116128ef575050506126455760486126419386936126259361261698519889936000805160206132878339815191528a8601526125ed815180928c6037890191016124c4565b909192600f811660108110156126cf576f181899199a1a9b1b9c1cb0b131b232b360811b901a61291f8587612af9565b5360041c9280156126bb576000190191906128a7565b6000818152600191602091838352604093848220338352845260ff858320541615612961575050505050565b61296a33612b20565b92855191612977836123e0565b604283528583019360603686378351156126e3576030855383518210156126e35790607860218501536041915b8183116129ec575050506126455760486126419386936126259361261698519889936000805160206132878339815191528a8601526125ed815180928c6037890191016124c4565b909192600f811660108110156126cf576f181899199a1a9b1b9c1cb0b131b232b360811b901a612a1c8587612af9565b5360041c9280156126bb576000190191906129a4565b906000918083526001602052604083209160018060a01b03169182845260205260ff604084205416612a6357505050565b8083526001602052604083208284526020526040832060ff1981541690557ff6391f5c32d9c69d2a47ea670b442974b53935d1edc7fd64eb21e047a839171b339380a4565b81810292918115918404141715612abb57565b634e487b7160e01b600052601160045260246000fd5b91908201809211612abb57565b6001600160401b03811161239457601f01601f191660200190565b908151811015612b0a570160200190565b634e487b7160e01b600052603260045260246000fd5b60405190612b2d826123aa565b602a8252602082016040368237825115612b0a57603090538151600190811015612b0a57607860218401536029905b808211612b9e575050612b6c5790565b606460405162461bcd60e51b815260206004820152602060248201526000805160206132478339815191526044820152fd5b9091600f81166010811015612bf7576f181899199a1a9b1b9c1cb0b131b232b360811b901a612bcd8486612af9565b5360041c918015612be2576000190190612b5c565b60246000634e487b7160e01b81526011600452fd5b60246000634e487b7160e01b81526032600452fd5b15612c1357565b60405162461bcd60e51b815260206004820152601f60248201527f5265656e7472616e637947756172643a207265656e7472616e742063616c6c006044820152606490fd5b15612c5f57565b60405162461bcd60e51b815260206004820152601d60248201527f416d6f756e74206d7573742062652067726561746572207468616e20300000006044820152606490fd5b8115612cae570490565b634e487b7160e01b600052601260045260246000fd5b91908203918211612abb57565b604091949392606082019560018060a01b0316825260208201520152565b60405163a9059cbb60e01b60208201526001600160a01b03909216602483015260448083019390935291815260808101916001600160401b038311828410176123945761245c92604052612d4b565b519081151582036122ca57565b604080516001600160a01b03929092169290918083016001600160401b038111828210176123945783526020938482527f5361666545524332303a206c6f772d6c6576656c2063616c6c206661696c656485830152803b15612e795790612de79160008481959282898195519301915af13d15612e71573d90612dcd82612ade565b91612dda875193846123fb565b82523d858884013e612ebd565b90815180612df7575b5050505050565b8285918101031261027b575082612e0e9101612d3e565b15612e1b57808080612df0565b60849250519062461bcd60e51b82526004820152602a60248201527f5361666545524332303a204552433230206f7065726174696f6e20646964206e6044820152691bdd081cdd58d8d9595960b21b6064820152fd5b606090612ebd565b835162461bcd60e51b815260048101869052601d60248201527f416464726573733a2063616c6c20746f206e6f6e2d636f6e74726163740000006044820152606490fd5b90919015612ec9575090565b815115612ed95750805190602001fd5b60405162461bcd60e51b8152602060048201529081906126419060248301906124e7565b51906001600160a01b03821682036122ca57565b81601f820112156122ca578051612f2781612ade565b92612f3560405194856123fb565b818452602082840101116122ca57612f5391602080850191016124c4565b90565b519060ff821682036122ca57565b15612f6b57565b60405162461bcd60e51b8152602060048201526013602482015272125b9d985b1a59081cdd1c985d1959de481251606a1b6044820152606490fd5b90601f8111612fb457505050565b600091825260208220906020601f850160051c83019410612ff0575b601f0160051c01915b828110612fe557505050565b818155600101612fd9565b9092508290612fd0565b6000198114612abb5760010190565b6001600160401b0381116123945760051b60200190565b6002548015801561304a575b6130465761303d90612f5392612aa8565b60035490612ca4565b5090565b506003541561302c565b60025480156130725761306d612f539260035490612aa8565b612ca4565b5050600090565b60018060a01b0316600052600a602052604060002060405161309a816123aa565b81549182825260026001820154918260208501520154928360408401521561312d576130c7819342612cc4565b91826130d4575b50505090565b909192505161271080820291808304821490151715612abb57613125936131206121ac9261311661310e64496cebb8009660025490612ca4565b600354612aa8565b0460075490612aa8565b612aa8565b3880806130ce565b505050600090565b60035480156131c9576005549061271091828102928184041490151715612abb5761315f91612ca4565b80600855600090611f4081116000146131a45750506102bc5b61012c908101809111612abb5760208160008051602061326783398151915292600755604051908152a1565b6113888111156131b8575050610190613178565b6107d01015613178575060c8613178565b506000600855565b600254156132435760005b600181106131e8575050565b61271090818302918383041483151715612abb576237b1d083029180830461016d1490151715612abb5760035491601e92838102938185041490151715612abb5761323e9261323691612ca4565b600755612ffa565b6131dc565b5056fe537472696e67733a20686578206c656e67746820696e73756666696369656e745d96611557274413c64267972d202ca41009c399954bcb4cbab17d2a5156fbb0416363657373436f6e74726f6c3a206163636f756e74200000000000000000007669d2328717ffda0d0e7e68960ff1e5ffee66f90e78304476acbb0da41a3f03241ecf16d79d0f8dbfb92cbc07fe17840425976cf0667f022fe9877caa831b08098d156056b1ac9d020c47e6ad89841c28ca71c86b5af2b8d19201b1a3404f76928286c473ded01ff8bf61a1986f14a0579066072fa8261442d9fea514d93a4ca2646970667358221220d40fa2fcec6ea99dbb51281868bdb3f466d16d7d9110662ae34871553a6b9f3264736f6c634300081400332f8788117e7eff1d82e926ec794901d17c78024a50270940304540a733656f0da6eef7e35abe7026729641147f7915573c7e97b47efa546f5f6e3230263bcb497669d2328717ffda0d0e7e68960ff1e5ffee66f90e78304476acbb0da41a3f036080346100b157601f61192c38819003918201601f19168301916001600160401b038311848410176100b6578084926020946040528339810103126100b157516001600160a01b0390818116908190036100b157600160005560015460018060a01b0319903382821617600155604051933391167f8be0079c531659141344cd1fd0a4f28419497f9722a3daafe3b4186f6b6457e0600080a360fa600755600254161760025561185f90816100cd8239f35b600080fd5b634e487b7160e01b600052604160045260246000fdfe60406080815260048036101561001457600080fd5b600091823560e01c80630eaaf4c8146113a1578063107a274a146112d357806326232a2e146112b45780632b1fd58a146110a15780632d296bf114610e1c578063305a67a814610d35578063451df52e14610d02578063464b539114610cd9578063476343ee14610c89578063582c7ffd14610b9d578063715018a614610b51578063744d341114610b2a5780638305699114610abf5780638da5cb5b14610a965780639269051f146109955780639979ef4514610763578063aa0b598814610702578063b14c63c5146106da578063bc063e1a146106bd578063bce64a7d14610239578063de74e57b146101d05763f2fde38b1461011257600080fd5b346101cc5760203660031901126101cc576001600160a01b038235818116939192908490036101c85761014361151b565b8315610176575050600180546001600160a01b0319811684179091551660008051602061180a833981519152600080a380f35b906020608492519162461bcd60e51b8352820152602660248201527f4f776e61626c653a206e6577206f776e657220697320746865207a65726f206160448201526564647265737360d01b6064820152fd5b8480fd5b8280fd5b50346101cc5760203660031901126101cc578060c0938335815260036020522080549260018060a01b0360018301541692600283015490600560ff60038601541693850154940154948151968752602087015285015215156060840152608083015260a0820152f35b508290346106b95760603660031901126106b9578235602491823592826044803560018060a01b039182600254168651627eeac760e11b81528b81806102866020998a94339084016115f5565b0381855afa80156106af578b9061067b575b6102a491501515611610565b881561063b578215158061062d575b156105f957878a526003855260ff6003888c200154166105c1578988878d8a519485938492631d11e60560e11b84528301525afa9081156105b7578a9161044d575b5060e0810151156104155761010001516103de57504201928342116103cd57506005838899876103b68a9b7f2428821d20d9a8080d99a3d335d478f0546d90a0376be12c52a6d600f15586bf9a9b8a519761034f89611573565b848952898901903382528c8a019283528c60608b01946001865260808c019742895260a08d019a8b52815260038d522099518a5560018a0191511660018060a01b0319825416179055516002880155511515600387019060ff801983541691151516179055565b51908401555191015582519586528501523393a380f35b634e487b7160e01b88526011895287fd5b8973125b9d9bda58d948185b1c9958591e481c185a5960621b606492601488888b519562461bcd60e51b8752860152840152820152fd5b865162461bcd60e51b8152808c0186905260148188015273125b9d9bda58d9481b9bdd081d995c9a599a595960621b81840152606490fd5b90503d808b833e61045e81836115d2565b81019085818303126105b35780516001600160401b03918282116105965701906101e09283838203126105965789519384018481108382111761059e578a52825184528783015188850152898301518a8501526104bd6060840161164e565b60608501526104ce6080840161164e565b608085015260a083015182811161059a57816104eb918501611662565b60a085015260c083015182811161059a5781610508918501611662565b60c085015261051960e084016116d2565b60e085015261010061052c8185016116d2565b908501526101208084015190850152610140918284015190811161059a5790610556918401611662565b90830152610160808201519083015261018080820151908301526101a0808201519060ff82168203610596578301526101c080910151908201528b6102f5565b8c80fd5b8d80fd5b508860418f634e487b7160e01b600052526000fd5b8a80fd5b87513d8c823e3d90fd5b865162461bcd60e51b8152808c0186905260148188015273151bdad95b88185b1c9958591e481b1a5cdd195960621b81840152606490fd5b865162461bcd60e51b8152808c018690526010818801526f24b73b30b634b210323ab930ba34b7b760811b81840152606490fd5b506301e133808311156102b3565b865162461bcd60e51b8152808c01869052601c818801527b05072696365206d7573742062652067726561746572207468616e20360241b81840152606490fd5b508581813d83116106a8575b61069181836115d2565b810103126106a3576102a49051610298565b600080fd5b503d610687565b88513d8d823e3d90fd5b5080fd5b8382346106b957816003193601126106b957602090516103e88152f35b5090346101cc5760203660031901126101cc5760209282913581526005845220549051908152f35b5090346101cc5760203660031901126101cc5780359161072061151b565b6103e8831161073157505060075580f35b906020606492519162461bcd60e51b8352820152600c60248201526b08ccaca40e8dede40d0d2ced60a31b6044820152fd5b509060209182600319360112610991578135916107846002865414156116df565b6002855534156109535782855260058452818520543411156108fe5782855260068452818520546001600160a01b039086908216806108c9575b50849052600585528286203490556006855282862080546001600160a01b031990811633179091558286528387208451909290916107fb836115b7565b3383528783019134835286840193428552606081019560018752805490600160401b8210156108b65790610834916001820181556114e9565b9790976108a457509261089595927f0e54eff26401bf69b81b26f60bd85ef47f5d85275c1d268d84f68d6897431c479897959260039551169086541617855551600185015551600284015551151591019060ff801983541691151516179055565b51923484523393a36001815580f35b634e487b7160e01b8c528b905260248bfd5b634e487b7160e01b8d526041895260248dfd5b8180809260058a5287822054908282156108f5575bf1156108eb5785386107be565b82513d87823e3d90fd5b506108fc6108de565b83608492519162461bcd60e51b8352820152602b60248201527f426964206d75737420626520686967686572207468616e2063757272656e742060448201526a1a1a59da195cdd08189a5960aa1b6064820152fd5b83606492519162461bcd60e51b8352820152601a6024820152790426964206d7573742062652067726561746572207468616e20360341b6044820152fd5b8380fd5b5090346101cc5760209182600319360112610991576001600160401b0391803590838211610a925736602383011215610a92578101359283116101c8576024600591368286851b83010111610a8e576109ec61151b565b865b8581106109f9578780f35b80841b82018301358089526006808952868a20549091908a906001600160a01b0316878b82610a37575b505050505050610a32906117da565b6109ee565b5288822054829182918291828215610a85575bf115610a7b578952848852858920899055875284882080546001600160a01b0319169055610a32388981878b610a23565b86513d8b823e3d90fd5b506108fc610a4a565b8680fd5b8580fd5b8382346106b957816003193601126106b95760015490516001600160a01b039091168152602090f35b508234610b2757610acf366114d3565b93908252602052818120908154841015610b275750608092610af0916114e9565b509060018060a01b038254169160018101549160ff6003600284015493015416928151948552602085015283015215156060820152f35b80fd5b5090346101cc5760203660031901126101cc57602092818392358252845220549051908152f35b8334610b275780600319360112610b2757610b6a61151b565b600180546001600160a01b031981169091556000906001600160a01b031660008051602061180a8339815191528280a380f35b508290346106b957610bae366114d3565b9092825193610bbc856115b7565b81855281606060209682888201528287820152015280825285855283822054831015610c5257816080968592610bf69594528652206114e9565b5090805191610c04836115b7565b60018060a01b03815416938484526001820154818501908152606060ff6003600286015495878901968752015416950194151585528351958652519085015251908301525115156060820152f35b835162461bcd60e51b81528087018690526011602482015270092dcecc2d8d2c840c4d2c840d2dcc8caf607b1b6044820152606490fd5b8382346106b957816003193601126106b957610ca361151b565b8180808060018060a01b03600154164790828215610cd0575bf115610cc6575080f35b51903d90823e3d90fd5b506108fc610cbc565b8382346106b957816003193601126106b95760025490516001600160a01b039091168152602090f35b5090346101cc5760203660031901126101cc5735825260066020908152918190205490516001600160a01b039091168152f35b50346101cc5760209081600319360112610991576002548151627eeac760e11b81528435949091849183916001600160a01b03169082908190610d7d908a90339084016115f5565b03915afa9081156108eb578591610dee575b50600392610d9f84921515611610565b848652818152610db660ff8385892001541661172b565b84865252832001805460ff1916905533907f8e25282255ab31897df2b0456bb993ac7f84d376861aefd84901d2d63a7428a28380a380f35b90508281813d8311610e15575b610e0581836115d2565b810103126106a357516003610d8f565b503d610dfb565b509060208060031936011261099157813590610e3c6002865414156116df565b60028555818552600390818152610e5a60ff8387892001541661172b565b8286528181526005858720015442101561106d5782865281815284862093855192610e8484611573565b8554845260018060a01b0391826001880154169484810195865260028801549060a060058b83019a848c5260ff8782015416151560608501528581015460808501520154910152341061103357828551163314610ff957908891610efa612710610ef28a516007549061176c565b048951611795565b918784528086528984200160ff19815416905583600254169084875116823b156101c857610f43928592838b938e5196879586948593637921219560e11b8552339185016117a2565b03925af1908115610fef578391610fdb575b5080809285885116828215610fd2575bf115610fbf57868551803411610f9b575b50506000805160206117ea833981519152925116935194519485523394a46001815580f35b8180610fa8819334611795565b818115610fc9575b3390f115610fbf578638610f76565b85513d88823e3d90fd5b506108fc610fb0565b506108fc610f65565b610fe4906115a4565b6106b9578138610f55565b89513d85823e3d90fd5b875162461bcd60e51b8152908101849052601460248201527321b0b73737ba10313abc9037bbb7103a37b5b2b760611b6044820152606490fd5b875162461bcd60e51b81529081018490526014602482015273125b9cdd59999a58da595b9d081c185e5b595b9d60621b6044820152606490fd5b8360649186519162461bcd60e51b8352820152600f60248201526e131a5cdd1a5b99c8195e1c1a5c9959608a1b6044820152fd5b50346101cc57602080600319360112610991576002548251627eeac760e11b81526001600160a01b03938535939290919083908290871681806110e78933838e016115f5565b03915afa80156112aa57879061127b575b61110491501515611610565b6111126002875414156116df565b600286558286526006825283818720541615611244578286526005825280862054936006835280828820541695876111596127106111526007548a61176c565b0488611795565b868252600586528482208290556006865284822080546001600160a01b0319169055600380875285832001805491949160ff8116611237575b50506002541691823b156106b9576111c49289838993885196879586948593637921219560e11b8552339085016117a2565b03925af1801561122d5761121a575b508680808093818115611211575b3390f11561120857906000805160206117ea83398151915291519384523393a46001815580f35b513d86823e3d90fd5b506108fc6111e1565b611226909791976115a4565b95386111d3565b83513d8a823e3d90fd5b60ff191690553880611192565b5162461bcd60e51b81528085019190915260116024820152704e6f206269647320617661696c61626c6560781b6044820152606490fd5b508281813d83116112a3575b61129181836115d2565b81010312610a8e5761110490516110f8565b503d611287565b82513d89823e3d90fd5b8382346106b957816003193601126106b9576020906007549051908152f35b5090346101cc5760203660031901126101cc57818360c09460a083516112f881611573565b828152826020820152828582015282606082015282608082015201528235815260036020522082519161132a83611573565b81549384845260018060a01b0380600185015416906020860191825260028501549183870192835260a0600560ff6003890154169660608a0197151588528801549760808a0198895201549701968752835197885251166020870152519085015251151560608401525160808301525160a0820152f35b50346101cc5760203660031901126101cc578135916113c46002855414156116df565b600284558284526006602052818420546001600160a01b03939084163314611492578452602052808320835b8154811015611489578461140482846114e9565b50548516331480611471575b611423575061141e906117da565b6113f0565b80939450600161144c8385600361143d86989787986114e9565b5001805460ff191690556114e9565b500154818115611468575b3390f115610cc657505b6001815580f35b506108fc611457565b5060ff600361148084866114e9565b50015416611410565b50505050611461565b506020606492519162461bcd60e51b8352820152601b60248201527a10d85b9b9bdd081dda5d1a191c985dc81a1a59da195cdd08189a59602a1b6044820152fd5b60409060031901126106a3576004359060243590565b80548210156115055760005260206000209060021b0190600090565b634e487b7160e01b600052603260045260246000fd5b6001546001600160a01b0316330361152f57565b606460405162461bcd60e51b815260206004820152602060248201527f4f776e61626c653a2063616c6c6572206973206e6f7420746865206f776e65726044820152fd5b60c081019081106001600160401b0382111761158e57604052565b634e487b7160e01b600052604160045260246000fd5b6001600160401b03811161158e57604052565b608081019081106001600160401b0382111761158e57604052565b601f909101601f19168101906001600160401b0382119082101761158e57604052565b6001600160a01b039091168152602081019190915260400190565b1561161757565b60405162461bcd60e51b815260206004820152600f60248201526e2737ba103a37b5b2b71037bbb732b960891b6044820152606490fd5b51906001600160a01b03821682036106a357565b919080601f840112156106a3578251906001600160401b03821161158e576040519160209161169a601f8301601f19168401856115d2565b8184528282870101116106a35760005b8181106116bf57508260009394955001015290565b85810183015184820184015282016116aa565b519081151582036106a357565b156116e657565b60405162461bcd60e51b815260206004820152601f60248201527f5265656e7472616e637947756172643a207265656e7472616e742063616c6c006044820152606490fd5b1561173257565b60405162461bcd60e51b81526020600482015260126024820152714c697374696e67206e6f742061637469766560701b6044820152606490fd5b8181029291811591840414171561177f57565b634e487b7160e01b600052601160045260246000fd5b9190820391821161177f57565b6001600160a01b0391821681529116602082015260408101919091526001606082015260a06080820181905260009082015260c00190565b600019811461177f576001019056fe3d5eb834b5d6cadc063c171c3f25f60bca8ea892ba9db25342278927d0af95568be0079c531659141344cd1fd0a4f28419497f9722a3daafe3b4186f6b6457e0a26469706673582212205c4dcd6ac2b58a42cb866b0604f07908cf8af4acfbed9663ea266629111b2c8e64736f6c634300081400336080346200027e576200358b90601f38839003908101601f19168201906001600160401b038211838310176200028357808391604095869485528339810103126200027e576200004f8162000299565b6200005e602080930162000299565b6001600081815560646009559290916001600160a01b03918216919082156200023a5716908115620001f65760018060a01b031990816002541617600255600a541617600a55818052808352838220338352835260ff848320541615620001bf575b7f241ecf16d79d0f8dbfb92cbc07fe17840425976cf0667f022fe9877caa831b08808352818452848320338452845260ff85842054161562000186575b507f68e79a7bf1e0bc45d0a330c573bc367f9cf464fd326078812f301165fbda4ef192838352818152848320338452815260ff8584205416156200014b575b84516132bc9081620002af8239f35b83835281815284832090338452528382209060ff1982541617905533916000805160206200356b833981519152339280a4388080806200013c565b80835281845284832033845284528483208260ff19825416179055339033906000805160206200356b8339815191528580a438620000fd565b81805280835283822033835283528382208160ff198254161790553333836000805160206200356b8339815191528180a4620000c0565b855162461bcd60e51b815260048101869052601d60248201527f496e76616c69642066656520636f6c6c6563746f7220616464726573730000006044820152606490fd5b865162461bcd60e51b815260048101879052601d60248201527f496e76616c696420696e766f69636520746f6b656e20616464726573730000006044820152606490fd5b600080fd5b634e487b7160e01b600052604160045260246000fd5b51906001600160a01b03821682036200027e5756fe608080604052600436101561001d575b50361561001b57600080fd5b005b60003560e01c90816301ffc9a714611de65750806307b8ad681461188b57806307e2cea5146118505780630c6286b3146117dd57806312e8e2c31461177f57806317ec243314611753578063248a9ca31461172457806324d3b3e2146116245780632f2ff15d1461157157806336568abe146114df578063464b5391146114b65780635bb518f81461148e57806369c54a52146111645780637c279b06146111355780637c5b4a37146110a957806386acb21214610f9057806391d1485414610f435780639cfe9fe614610f1d578063a217fddf14610f01578063a42dce8014610eb6578063a61f727214610e6b578063a8b5179614610dce578063b153b5dc14610d18578063b9ad2f91146109e3578063ba2967ca1461060e578063bc63c17114610468578063c415b95c1461043f578063cdd78cfc14610421578063d547741f146103e2578063db1a75b01461035d578063ec87621c146103345763f71b42071461018a573861000f565b3461032f5760208060031936011261032f57600435600052600481526040600020908154916101b88361270c565b926101c66040519485611fb1565b8084528284018092600052836000206000915b8383106102a25750505050604051918083019381845251809452604083019360408160051b85010192916000955b8287106102145785850386f35b909192938280600192603f19898203018552875190815181528282015183820152604082015160408201526060858060a01b038184015116908201526080808301519061026082611e97565b82015260e08061028060a08086015190610100809187015285019061209d565b9360c08082015190850152015115159101529601920196019592919092610207565b6007866001926040999899516102b781611f44565b855481528486015483820152600286015460408201526003860154858060a01b038116606083015260ff908160a091821c166102f281611e97565b608084015261030360048901611fd4565b90830152600587015460c0830152600687015416151560e08201528152019201920191909594956101d9565b600080fd5b3461032f57600036600319011261032f5760206040516000805160206132478339815191528152f35b3461032f5761036b36611e65565b906000526005602052604060002090815481101561032f5761038c91611e7b565b5080546001820154916103d660028201549160ff60046103ae60038401611fd4565b920154169260405195869586526020860152604085015260a0606085015260a084019061209d565b90151560808301520390f35b3461032f57604036600319011261032f5761001b600435610401611e4f565b9080600052600160205261041c6001604060002001546123df565b6124ed565b3461032f57600036600319011261032f576020600954604051908152f35b3461032f57600036600319011261032f57600a546040516001600160a01b039091168152602090f35b3461032f5760208060031936011261032f57600435806000526003825261049560406000205415156127f2565b60005260038152604060002090604051906104af82611f0d565b8254825260019283810154928281019384526002820154936040820194855260038301546060830190815260018060a01b038060048601541692608085019384526005860160405180828a8294549384815201906000528a600020928d60005b8d8382106105f6575050505061052792500382611fb1565b60a086015260068601986040518091898c5492838152019b600052896000209160005b8181106105e357505050506105638160c09b0382611fb1565b8986015261014060ff600a8160078a0154169861057f8a611e97565b8960e08a015260088101546101008a015260098101546101208a0152015416950194151585525196519151925116926105b785611e97565b51151594604051968752860152604085015260608401526105d781611e97565b608083015260a0820152f35b83548e529c8b019c92820192820161054a565b86548a1685529582019587955090930192810161050f565b3461032f5760a036600319011261032f576044356001600160a01b038116810361032f576007606435101561032f576001600160401b036084351161032f5736602360843501121561032f57610669608435600401356120c2565b6106766040519182611fb1565b6004608435908101358083523691016024011161032f5760843560040135602460843501602083013760006020608435600401358301015260043560005260036020526106c960406000205415156127f2565b6106d6602435151561283b565b60043560005260036020526040600020600460205260406000205491604051926106ff84611f44565b8352600435602084015260243560408401526001600160a01b038416606084015261072b606435611e97565b606435608084015260a08301524260c0830152600060e0830152600435600052600460205260406000208054600160401b8110156109b75761077291600182018155611eb7565b9390936109cd578251845560208301516001850155604083015160028501556003840160018060a01b0360608501511681549060808601516107b381611e97565b6107bc81611e97565b6001600160a81b03199092161760a091821b60ff60a01b161790915583015180519094906001600160401b0381116109b7576020956107fe6004840154611ed3565b601f8111610979575b508690601f831160011461090757610856939291600091836108fc575b50508160011b916000199060031b1c19161760048201555b60c08501516005820155600660e0860151151591016124dc565b600435600052600784526040600020610872602435825461258c565b905582516040805160243581526001600160a01b039093168684015290916004359160008051602061326783398151915291a36108b06004356128a5565b50600260ff6007830154166108c481611e97565b1490816108ec575b506108db575b51604051908152f35b6108e6600435612b19565b506108d2565b60ff9150600a01541615836108cc565b015190508880610824565b9060048401600052876000209160005b601f198516811061096257509183916001936108569695601f19811610610949575b505050811b01600482015561083c565b015160001960f88460031b161c19169055888080610939565b919289600181928685015181550194019201610917565b6109a7906004850160005288600020601f850160051c8101918a86106109ad575b601f0160051c0190612723565b87610807565b909150819061099a565b634e487b7160e01b600052604160045260246000fd5b634e487b7160e01b600052600060045260246000fd5b3461032f576109f136611e65565b906109fa6120dd565b806000526003602052610a1360406000205415156127f2565b8060005260036020526040600020600560ff600783015416610a3481611e97565b03610cd357610a4a60ff600a8301541615612ea2565b60405192610a5784611f29565b828452602084018181526040850142815260405190610a7582611f7b565b601082526f44656661756c74207265636f7665727960801b6020830152606087019182526000608088015285600052600560205260406000208054600160401b8110156109b757610acb91600182018155611e7b565b9390936109cd57875184555160018401555160028301555180519095906001600160401b0381116109b757610b036003840154611ed3565b601f8111610c9e575b506020601f8211600114610c1f579260046080600a969484610b5995600198610c089d600092610c14575b505081891b916000199060031b1c19161760038501555b0151151591016124dc565b8460005260076020526040600020610b7282825461258c565b9055847f78ea0f18095fbf65dc236fa07e5e9a8b9309967eb8a1fe3503d63ed13582c44b602060ff199360068560078a015416176007890155426009890155604051908152a284600080516020613227833981519152602060405160068152a2828401541617910155806000526007602052806000805160206131a78339815191526020604060002054604051908152a2612ee8565b50602060405160018152f35b015190508d80610b37565b6003840160005260206000209760005b601f1984168110610c8657506080600a9694600185610c089c829996600496610b5999601f19811610610c6d575b505050811b016003850155610b4e565b015160001960f88460031b161c191690558d8080610c5d565b828201518a5560019099019860209283019201610c2f565b610ccd90600385016000526020600020601f840160051c810191602085106109ad57601f0160051c0190612723565b87610b0c565b60405162461bcd60e51b815260206004820152601d60248201527f496e766f696365206e6f7420696e2064656661756c74207374617475730000006044820152606490fd5b3461032f57610d2636611e65565b906000526004602052604060002090815481101561032f57610d4791611eb7565b5080546001820154916002810154610dbd600383015460ff8160a01c16610d7060048601611fd4565b9160ff60066005880154970154169460405198899889526020890152604088015260018060a01b03166060870152610da781611e97565b60808601526101008060a087015285019061209d565b9160c0840152151560e08301520390f35b3461032f57602036600319011261032f57600435600052600360205261012060406000208054906001810154906002810154600382015460018060a01b0360048401541660ff6007850154169160088501549360ff600a600988015497015416966040519889526020890152604088015260608701526080860152610e5281611e97565b60a085015260c084015260e08301521515610100820152f35b3461032f57602036600319011261032f57610e84611e39565b610e8c6122c8565b6001600160a01b0316610ea0811515613148565b600280546001600160a01b031916919091179055005b3461032f57602036600319011261032f57610ecf611e39565b610ed76122c8565b6001600160a01b0316610eeb811515613148565b600a80546001600160a01b031916919091179055005b3461032f57600036600319011261032f57602060405160008152f35b3461032f57602036600319011261032f576020610f3b600435612ee8565b604051908152f35b3461032f57604036600319011261032f57610f5c611e4f565b600435600052600160205260406000209060018060a01b0316600052602052602060ff604060002054166040519015158152f35b3461032f5760208060031936011261032f57600435600052600681526040600020908154610fbd8161270c565b90610fcb6040519283611fb1565b8082528282018094600052836000206000915b8383106110535760408051878152865181890181905289928201908960005b82811061100a5784840385f35b855180518552808301516001600160a01b03168584015260408082015190860152606080820151908601526080908101511515908501529481019460a090930192600101610ffd565b60058660019260405161106581611f29565b85548152848060a01b03858701541683820152600286015460408201526003860154606082015260ff60048701541615156080820152815201920192019190610fde565b3461032f57602036600319011261032f576004356110c56122c8565b4781116110f9576000808080938181156110f0575b3390f1156110e457005b6040513d6000823e3d90fd5b506108fc6110da565b60405162461bcd60e51b8152602060048201526014602482015273496e73756666696369656e742062616c616e636560601b6044820152606490fd5b3461032f57602036600319011261032f5760206111536004356128a5565b6040519061116081611e97565b8152f35b602036600319011261032f57600435600052600360205261118b60406000205415156127f2565b3415156111978161283b565b6111de604051916111a783611f7b565b600a83526911551217d112549150d560b21b602084015260043560005260036020526111d960406000205415156127f2565b61283b565b6004356000526003602052604060002060046020526040600020546040519061120682611f44565b81526020810192600435845260408201348152606083019033825260808401906000825260a085019384524260c0860152600060e0860152600435600052600460205260406000208054600160401b8110156109b75761126b91600182018155611eb7565b9790976109cd5785518855516001880155516002870155905160038601805492519092916001600160a01b0316906112a281611e97565b6112ab81611e97565b6001600160a81b03199092161760a09190911b60ff60a01b161790555180519093906001600160401b0381116109b7576112e86004830154611ed3565b601f8111611459575b506020601f82116001146113e55781906113419495966000926113da575b50508160011b916000199060031b1c19161760048201555b60c08301516005820155600660e0840151151591016124dc565b6004356000526007602052604060002061135c34825461258c565b905551604051348152336020820152600080516020613267833981519152604060043592a361138c6004356128a5565b50600260ff6007830154166113a081611e97565b1490816113ca575b506113b9575b602060405160018152f35b6113c4600435612b19565b506113ae565b60ff9150600a01541615816113a8565b01519050868061130f565b6004830160005260206000209560005b601f19841681106114415750958291611341959697600194601f19811610611428575b505050811b016004820155611327565b015160001960f88460031b161c19169055868080611418565b828201518855600190970196602092830192016113f5565b61148890600484016000526020600020601f840160051c810191602085106109ad57601f0160051c0190612723565b856112f1565b3461032f57602036600319011261032f5760206114ac600435612b19565b6040519015158152f35b3461032f57600036600319011261032f576002546040516001600160a01b039091168152602090f35b3461032f57604036600319011261032f576114f8611e4f565b336001600160a01b038216036115145761001b906004356124ed565b60405162461bcd60e51b815260206004820152602f60248201527f416363657373436f6e74726f6c3a2063616e206f6e6c792072656e6f756e636560448201526e103937b632b9903337b91039b2b63360891b6064820152608490fd5b3461032f57604036600319011261032f5760043561158d611e4f565b8160005260016020526115a76001604060002001546123df565b81600052600160205260406000209060018060a01b0316908160005260205260ff60406000205416156115d657005b8160005260016020526040600020816000526020526040600020600160ff1982541617905533917f2f8788117e7eff1d82e926ec794901d17c78024a50270940304540a733656f0d600080a4005b3461032f5760208060031936011261032f576001600160a01b03611646611e39565b1680600052600880835260406000205461165f8161270c565b9161166d6040519384611fb1565b8183526116798261270c565b8386019490601f190136863760005b8381106116d257868587604051928392818401908285525180915260408401929160005b8281106116bb57505050500390f35b8351855286955093810193928101926001016116ac565b816000528287526116e781604060002061275d565b919054865182101561170e576117099260031b1c888260051b88010152613139565b611688565b634e487b7160e01b600052603260045260246000fd5b3461032f57602036600319011261032f5760043560005260016020526020600160406000200154604051908152f35b3461032f57602036600319011261032f5760043560005260076020526020604060002054604051908152f35b3461032f57602036600319011261032f5760043561179b6122c8565b6103e881116117a957600955005b60405162461bcd60e51b815260206004820152600c60248201526b08ccaca40e8dede40d0d2ced60a31b6044820152606490fd5b3461032f576117eb36611e65565b9060005260066020526040600020805482101561032f5760a09161180e91611e7b565b50805490600180841b0360018201541690600281015460ff60046003840154930154169260405194855260208501526040840152606083015215156080820152f35b3461032f57600036600319011261032f5760206040517f68e79a7bf1e0bc45d0a330c573bc367f9cf464fd326078812f301165fbda4ef18152f35b3461032f5760a036600319011261032f576084356001600160a01b038116810361032f576118b76120dd565b6004356000526003602052604060002054611da15760243515611d4a57426044351115611d0557600254604051631d11e60560e11b8152600480359082015290600090829060249082906001600160a01b03165afa80156110e457600090611bb4575b60e09150015115611b785760405161193181611f60565b6000815260405161194181611f60565b600081526040519161195283611f0d565b600435835260243560208401526044356040840152606435606084015260018060a01b038416608084015260a083015260c0820152600060e0820152426101008201524261012082015260006101408201526004356000526003602052604060002090805182556020810151600183015560408101516002830155606081015160038301556004820160018060a01b0360808301511660018060a01b031982541617905560a081015180519060018060401b0382116109b757600160401b82116109b75760206005850191611a2c8484548186558561273a565b0190600052602060002060005b838110611b5b575050505060c081015180519060068401906001600160401b0383116109b757600160401b83116109b757602090611a7c8484548186558561273a565b0190600052602060002060005b838110611b475786611ae387600a610140896007840160e0820151611aad81611e97565b611ab681611e97565b60ff80198354169116179055610100810151600885015561012081015160098501550151151591016124dc565b60018060a01b03166000526008602052611b036004356040600020612775565b50604051602435815260443560208201527fb11df40b7785923a457e78807e54a31f12cb1309d8080cd158d96d2b265d671f604060043592a2602060405160018152f35b600190602084519401938184015501611a89565b82516001600160a01b031681830155602090920191600101611a39565b60405162461bcd60e51b8152602060048201526014602482015273125b9d9bda58d9481b9bdd081d995c9a599a595960621b6044820152606490fd5b503d806000833e611bc58183611fb1565b81019060208183031261032f5780516001600160401b039182821161032f5701916101e091828483031261032f57604051928301838110828211176109b757604052835183526020840151602084015260408401516040840152611c2b606085016126a6565b6060840152611c3c608085016126a6565b608084015260a084015181811161032f5782611c599186016126ba565b60a084015260c084015181811161032f5782611c769186016126ba565b60c0840152611c8760e085016126ff565b60e0840152610100611c9a8186016126ff565b908401526101208085015190840152610140918285015191821161032f57611cc39185016126ba565b90820152610160808301519082015261018080830151908201526101a0918281015160ff8116810361032f5760e0938301526101c0809101519082015261191a565b60405162461bcd60e51b815260206004820152601e60248201527f4475652064617465206d75737420626520696e207468652066757475726500006044820152606490fd5b60405162461bcd60e51b815260206004820152602960248201527f457870656374656420616d6f756e74206d7573742062652067726561746572206044820152687468616e207a65726f60b81b6064820152608490fd5b60405162461bcd60e51b815260206004820152601f60248201527f5061796d656e74207363686564756c6520616c726561647920657869737473006044820152606490fd5b3461032f57602036600319011261032f576004359063ffffffff60e01b821680920361032f57602091637965db0b60e01b8114908115611e28575b5015158152f35b6301ffc9a760e01b14905083611e21565b600435906001600160a01b038216820361032f57565b602435906001600160a01b038216820361032f57565b604090600319011261032f576004359060243590565b805482101561170e576000526005602060002091020190600090565b60071115611ea157565b634e487b7160e01b600052602160045260246000fd5b805482101561170e576000526007602060002091020190600090565b90600182811c92168015611f03575b6020831014611eed57565b634e487b7160e01b600052602260045260246000fd5b91607f1691611ee2565b61016081019081106001600160401b038211176109b757604052565b60a081019081106001600160401b038211176109b757604052565b61010081019081106001600160401b038211176109b757604052565b602081019081106001600160401b038211176109b757604052565b604081019081106001600160401b038211176109b757604052565b608081019081106001600160401b038211176109b757604052565b601f909101601f19168101906001600160401b038211908210176109b757604052565b9060405191826000825492611fe884611ed3565b9081845260019485811690816000146120575750600114612014575b505061201292500383611fb1565b565b9093915060005260209081600020936000915b81831061203f57505061201293508201013880612004565b85548884018501529485019487945091830191612027565b91505061201294506020925060ff191682840152151560051b8201013880612004565b60005b83811061208d5750506000910152565b818101518382015260200161207d565b906020916120b68151809281855285808601910161207a565b601f01601f1916010190565b6001600160401b0381116109b757601f01601f191660200190565b3360009081527ffdb122eb892c6b3193f8499f050265ce5458caab5f6480270d8972921f24f429602090815260408083205490926000805160206132478339815191529160019060ff1615612133575050505050565b61213c336125aa565b9285519161214983611f96565b604283528583019360603686378351156122b4576030855383518210156122b45790607860218501536041915b818311612246575050506122165760486122129386936121f6936121e798519889936000805160206131e78339815191528a8601526121be815180928c60378901910161207a565b8401917001034b99036b4b9b9b4b733903937b6329607d1b60378401525180938684019061207a565b01036028810187520185611fb1565b5192839262461bcd60e51b84526004840152602483019061209d565b0390fd5b60648486519062461bcd60e51b825280600483015260248201526000805160206131878339815191526044820152fd5b909192600f811660108110156122a0576f181899199a1a9b1b9c1cb0b131b232b360811b901a6122768587612599565b5360041c92801561228c57600019019190612176565b634e487b7160e01b82526011600452602482fd5b634e487b7160e01b83526032600452602483fd5b634e487b7160e01b81526032600452602490fd5b3360009081527fa6eef7e35abe7026729641147f7915573c7e97b47efa546f5f6e3230263bcb496020908152604080832054909260019160ff161561230d5750505050565b612316336125aa565b918185519161232483611f96565b604283528583019360603686378351156122b4576030855383518210156122b45790607860218501536041915b818311612399575050506122165760486122129386936121f6936121e798519889936000805160206131e78339815191528a8601526121be815180928c60378901910161207a565b909192600f811660108110156122a0576f181899199a1a9b1b9c1cb0b131b232b360811b901a6123c98587612599565b5360041c92801561228c57600019019190612351565b6000818152600191602091838352604093848220338352845260ff85832054161561240b575050505050565b612414336125aa565b9285519161242183611f96565b604283528583019360603686378351156122b4576030855383518210156122b45790607860218501536041915b818311612496575050506122165760486122129386936121f6936121e798519889936000805160206131e78339815191528a8601526121be815180928c60378901910161207a565b909192600f811660108110156122a0576f181899199a1a9b1b9c1cb0b131b232b360811b901a6124c68587612599565b5360041c92801561228c5760001901919061244e565b9060ff801983541691151516179055565b906000918083526001602052604083209160018060a01b03169182845260205260ff60408420541661251e57505050565b8083526001602052604083208284526020526040832060ff1981541690557ff6391f5c32d9c69d2a47ea670b442974b53935d1edc7fd64eb21e047a839171b339380a4565b8181029291811591840414171561257657565b634e487b7160e01b600052601160045260246000fd5b9190820180921161257657565b90815181101561170e570160200190565b60405190606082016001600160401b038111838210176109b757604052602a825260208201604036823782511561170e5760309053815160019081101561170e57607860218401536029905b8082116126385750506126065790565b606460405162461bcd60e51b815260206004820152602060248201526000805160206131878339815191526044820152fd5b9091600f81166010811015612691576f181899199a1a9b1b9c1cb0b131b232b360811b901a6126678486612599565b5360041c91801561267c5760001901906125f6565b60246000634e487b7160e01b81526011600452fd5b60246000634e487b7160e01b81526032600452fd5b51906001600160a01b038216820361032f57565b81601f8201121561032f5780516126d0816120c2565b926126de6040519485611fb1565b8184526020828401011161032f576126fc916020808501910161207a565b90565b5190811515820361032f57565b6001600160401b0381116109b75760051b60200190565b81811061272e575050565b60008155600101612723565b9181811061274757505050565b6120129260005260206000209182019101612723565b805482101561170e5760005260206000200190600090565b919060018301600090828252806020526040822054156000146127ec57845494600160401b8610156127d8576127b586600160409697980183558261275d565b81549060031b9087821b91600019901b1916179055549382526020522055600190565b634e487b7160e01b83526041600452602483fd5b50925050565b156127f957565b60405162461bcd60e51b815260206004820152601a60248201527914185e5b595b9d081cd8da19591d5b19481b9bdd08199bdd5b9960321b6044820152606490fd5b1561284257565b60405162461bcd60e51b815260206004820152602860248201527f5061796d656e7420616d6f756e74206d7573742062652067726561746572207460448201526768616e207a65726f60c01b6064820152608490fd5b9190820391821161257657565b60008181526003806020526128bf604083205415156127f2565b828252806020526040822090600760205260408320549060ff600a84015416612abe576001830180549091908310612aa45760078401805460ff191660021790555b60078401948554600260ff821661291781611e97565b141580612a97575b612a32575b508554918060ff841661293681611e97565b14612972575b50505050509060ff91600942910155541690600080516020613227833981519152602060405161296b85611e97565b848152a290565b600286015490860154906201518091828102928184041490151715612a1e579061299b9161258c565b9062278d008201809211612a0a57509160ff95949391879342116129c3575b8495965061293c565b7ff632e7549a2b0aee8e4c18743ef9c237f6c638181c4b8dd8b02da89f56c42abe9260209260056129fa938a191617885554612898565b604051908152a2833880806129ba565b634e487b7160e01b81526011600452602490fd5b634e487b7160e01b83526011600452602483fd5b600286015483870154906201518091828102928184041490151715612a8357849291612a5d9161258c565b4211612a77575050855460ff191660041786555b38612924565b60ff1916178655612a71565b634e487b7160e01b84526011600452602484fd5b506002860154421161291f565b82156129015760078401805460ff19166001179055612901565b50506007015460ff1692915050565b15612ad457565b60405162461bcd60e51b815260206004820152601f60248201527f5265656e7472616e637947756172643a207265656e7472616e742063616c6c006044820152606490fd5b612b2860026000541415612acd565b6002600055806000526003602052612b4660406000205415156127f2565b8060005260036020526040600020600a8101805490612b6860ff831615612ea2565b83600052600760205260406000205460018401548110612e645784936000805160206131a783398151915293602093600160ff1980931617905560026007830191825416179055600942910155604051908152a2612bcb60026000541415612acd565b6002600055806000526003602052612be960406000205415156127f2565b80600052600360205260406000209060ff600a8301541615612e295780600052600760205260406000205491612c2f612710612c2760095486612563565b048094612898565b838015801580612e1f575b612def575b505060009460005b6005840154811015612dc157612c60816005860161275d565b905460039190911b1c6001600160a01b031690612710612c93612c86836006890161275d565b90549060031b1c86612563565b0460405192612ca184611f29565b8784528060208501528160408501524260608501526000608085015281151580612db7575b612d5f575b505060008681526006602052604090208054600160401b8110156109b757612cf891600182018155611e7b565b9290926109cd578051835560208101516001840180546001600160a01b0319166001600160a01b0392909216919091179055604081015160028401556060810151600384015560800151612d5a92612d55911515906004016124dc565b613139565b612c47565b909860008a838115612dad575b600092839283928392f1156110e4576000805160206131c78339815191526020612d9e8c8b94600160808a015261258c565b9b604051908152a33880612ccb565b6108fc9250612d6c565b5081471015612cc6565b5094905060409150600080516020613207833981519152929382519182526020820152a26001906001600055565b6000808093819360018060a01b03600a5416908390612e16575bf1156110e4578338612c3f565b506108fc612e09565b5081471015612c3a565b60405162461bcd60e51b8152602060048201526013602482015272125b9d9bda58d9481b9bdd081cd95d1d1b1959606a1b6044820152606490fd5b60405162461bcd60e51b8152602060048201526016602482015275125b9d9bda58d9481b9bdd08199d5b1b1e481c185a5960521b6044820152606490fd5b15612ea957565b60405162461bcd60e51b8152602060048201526017602482015276125b9d9bda58d948185b1c9958591e481cd95d1d1b1959604a1b6044820152606490fd5b612ef760026000541415612acd565b6002600055806000526003602052612f1560406000205415156127f2565b80600052600360205260406000209060ff600a8301541615612e295780600052600760205260406000205491612f53612710612c2760095486612563565b83801580158061312f575b6130ff575b505060009460005b60058401548110156130d357612f84816005860161275d565b905460039190911b1c6001600160a01b031690612710612faa612c86836006890161275d565b0460405192612fb884611f29565b87845280602085015281604085015242606085015260006080850152811515806130c9575b613071575b505060008681526006602052604090208054600160401b8110156109b75761300f91600182018155611e7b565b9290926109cd578051835560208101516001840180546001600160a01b0319166001600160a01b039290921691909117905560408101516002840155606081015160038401556080015161306c92612d55911515906004016124dc565b612f6b565b909860008a8381156130bf575b600092839283928392f1156110e4576000805160206131c783398151915260206130b08c8b94600160808a015261258c565b9b604051908152a33880612fe2565b6108fc925061307e565b5081471015612fdd565b5094936000805160206132078339815191529250604091508151908582526020820152a2906001600055565b6000808093819360018060a01b03600a5416908390613126575bf1156110e4578338612f63565b506108fc613119565b5081471015612f5e565b60001981146125765760010190565b1561314f57565b60405162461bcd60e51b815260206004820152600f60248201526e496e76616c6964206164647265737360881b6044820152606490fdfe537472696e67733a20686578206c656e67746820696e73756666696369656e7403cf45a3e1e0fd704a774e0046fec048a38747c761ca43bd02a7e864fa6cdb46369d5bb25e1d349b2cf7c1131f84c526abb70a0ea35acb13672de0b033931c74416363657373436f6e74726f6c3a206163636f756e7420000000000000000000104d340153d64ef2be46b9e7b5bb20bfce2392b3f9265d6e8264951595adf736ebd5c860ad1b0a1099e13c37fb4f6bc2cdb16ca57058b39960cf269dff3d9c15241ecf16d79d0f8dbfb92cbc07fe17840425976cf0667f022fe9877caa831b082820fa66a65e6dd6cc3ee2a11554367c36a96fe502d1bc111eff97e850cd3aa2a264697066735822122091a3e053a7ab7617e9eb577996b92261abce33cc9687b50809838cacee08030864736f6c634300081400332f8788117e7eff1d82e926ec794901d17c78024a50270940304540a733656f0d6080346200156857601f620047dd38819003918201601f19168301916001600160401b0383118484101762000c6957808492604094855283398101031262001568576200005a602062000052836200158d565b92016200158d565b600180556046600555611f406006556101f46007556001600160a01b0391821691908215620015235716908115620014de57600280546001600160a01b03199081169092179055600380549091169190911790553360009081526000805160206200479d833981519152602052604090205460ff16156200149b575b3360009081527f14928f2929d79111484e50b2447243297c5730481bdb02a692f015e6a04e869e60205260409020547fb2e3ee861706f0756afea8a5257301f83561f9ac10b8f43b771dc928566f8c619060ff161562001457575b503360009081527f3108fbc31e7e3c27f61b391b00a9389bcd4672405932c22a42e5c3fdca1816d060205260409020547fb6f6b279a7a4e2aa16012cbd36fcdc1fbdb91b92fd6dab57885c9de496473a8d9060ff161562001413575b503360009081527fa629f6981c2f6895a67dc766e8e03ff72d04a413d0d8773a3ca56e9e474032c160205260409020547f68e79a7bf1e0bc45d0a330c573bc367f9cf464fd326078812f301165fbda4ef19060ff1615620013cf575b5060405160a081016001600160401b0381118282101762000c6957604052604681526032602082015260416040820152604b6060820152608042910152634b41324663ffffffff19600e541617600e5542600f55620002476200156d565b600a815269546563686e6f6c6f677960b01b6020820152604051602081620002708185620015a2565b600a815203019020815191906001600160401b03831162000c695780548060011c906001811615620013c4575b600116602082101462000c4857601f81116200137b575b506020601f84116001146200130b5792806200030f94600091620012ff575b508160011b916000199060031b1c19161781555b600181016319503c2863ffffffff1982541617905560024291015560405191828092620015a2565b039020600080516020620047bd833981519152602060405160288152a2620003366200156d565b600a8152694865616c74686361726560b01b60208201526040516020816200035f8185620015a2565b600a815203019020815191906001600160401b03831162000c69578054600181811c91168015620012f4575b602082101462000c4857601f8111620012ab575b506020601f84116001146200123b579280620003fa946000916200122f575b508160011b916000199060031b1c19161781555b6001810163144b282363ffffffff1982541617905560024291015560405191828092620015a2565b039020600080516020620047bd833981519152602060405160238152a2620004216200156d565b600781526646696e616e636560c81b6020820152604051602081620004478185620015a2565b600a815203019020815191906001600160401b03831162000c69578054600181811c9116801562001224575b602082101462000c4857601f8111620011db575b506020601f84116001146200116b579280620004e2946000916200115f575b508160011b916000199060031b1c19161781555b60018101631e41462d63ffffffff1982541617905560024291015560405191828092620015a2565b039020600080516020620047bd8339815191526020604051602d8152a2620005096200156d565b600681526514995d185a5b60d21b60208201526040516020816200052e8185620015a2565b600a815203019020815191906001600160401b03831162000c69578054600181811c9116801562001154575b602082101462000c4857601f81116200110b575b506020601f84116001146200109b579280620005c9946000916200108f575b508160011b916000199060031b1c19161781555b60018101632832413c63ffffffff1982541617905560024291015560405191828092620015a2565b039020600080516020620047bd8339815191526020604051603c8152a2620005f06200156d565b600d81526c4d616e75666163747572696e6760981b60208201526040516020816200061c8185620015a2565b600a815203019020815191906001600160401b03831162000c69578054600181811c9116801562001084575b602082101462000c4857601f81116200103b575b506020601f841160011462000fcb579280620006b79460009162000fbf575b508160011b916000199060031b1c19161781555b6001810163233c323763ffffffff1982541617905560024291015560405191828092620015a2565b039020600080516020620047bd833981519152602060405160378152a2620006de6200156d565b6006815265456e6572677960d01b6020820152604051602081620007038185620015a2565b600a815203019020815191906001600160401b03831162000c69578054600181811c9116801562000fb4575b602082101462000c4857601f811162000f6b575b506020601f841160011462000efb5792806200079e9460009162000eef575b508160011b916000199060031b1c19161781555b60018101631e374b3263ffffffff1982541617905560024291015560405191828092620015a2565b039020600080516020620047bd833981519152602060405160328152a2620007c56200156d565b600c81526b21b7b739ba393ab1ba34b7b760a11b6020820152604051602081620007f08185620015a2565b600a815203019020815191906001600160401b03831162000c69578054600181811c9116801562000ee4575b602082101462000c4857601f811162000e9b575b506020601f841160011462000e2b5792806200088b9460009162000e1f575b508160011b916000199060031b1c19161781555b60018101632d323c4163ffffffff1982541617905560024291015560405191828092620015a2565b039020600080516020620047bd833981519152602060405160418152a2620008b26200156d565b600e81526d2a3930b739b837b93a30ba34b7b760911b6020820152604051602081620008df8185620015a2565b600a815203019020815191906001600160401b03831162000c69578054600181811c9116801562000e14575b602082101462000c4857601f811162000dcb575b506020601f841160011462000d5b5792806200097a9460009162000d4f575b508160011b916000199060031b1c19161781555b6001810163282d373763ffffffff1982541617905560024291015560405191828092620015a2565b039020600080516020620047bd833981519152602060405160378152a2620009a16200156d565b600b81526a4167726963756c7475726560a81b6020820152604051602081620009cb8185620015a2565b600a815203019020815191906001600160401b03831162000c69578054600181811c9116801562000d44575b602082101462000c4857601f811162000cfb575b506020601f841160011462000c8b57928062000a669460009162000c7f575b508160011b916000199060031b1c19161781555b60018101632328463c63ffffffff1982541617905560024291015560405191828092620015a2565b039020600080516020620047bd8339815191526020604051603c8152a262000a8d6200156d565b600d81526c115b9d195c9d185a5b9b595b9d609a1b602082015260405160208162000ab98185620015a2565b600a815203019020815191906001600160401b03831162000c69578054600181811c9116801562000c5e575b602082101462000c4857601f811162000bfb575b506020601f841160011462000b8d57928062000b549460009162000b81575b508160011b916000199060031b1c19161781555b6001810163323c504663ffffffff1982541617905560024291015560405191828092620015a2565b039020600080516020620047bd833981519152602060405160468152a26040516131ad9081620015d08239f35b90508301513862000b18565b601f198416908260005260206000209160005b81811062000be2575091859162000b54966001941062000bc8575b5050811b01815562000b2c565b85015160001960f88460031b161c19169055388062000bbb565b9192602060018192868901518155019401920162000ba0565b816000526020600020601f850160051c8101916020861062000c3d575b601f0160051c01905b81811062000c30575062000af9565b6000815560010162000c21565b909150819062000c18565b634e487b7160e01b600052602260045260246000fd5b90607f169062000ae5565b634e487b7160e01b600052604160045260246000fd5b90508301513862000a2a565b8160005260206000209060005b601f198616811062000ce257509360019162000a669582601f1981161062000cc8575b5050811b01815562000a3e565b85015160001960f88460031b161c19169055388062000cbb565b9091602060018192858801518155019301910162000c98565b816000526020600020601f850160051c81016020861062000d3c575b601f830160051c8201811062000d2f57505062000a0b565b6000815560010162000d17565b508062000d17565b90607f1690620009f7565b9050830151386200093e565b8160005260206000209060005b601f198616811062000db25750936001916200097a9582601f1981161062000d98575b5050811b01815562000952565b85015160001960f88460031b161c19169055388062000d8b565b9091602060018192858801518155019301910162000d68565b816000526020600020601f850160051c81016020861062000e0c575b601f830160051c8201811062000dff5750506200091f565b6000815560010162000de7565b508062000de7565b90607f16906200090b565b9050830151386200084f565b8160005260206000209060005b601f198616811062000e825750936001916200088b9582601f1981161062000e68575b5050811b01815562000863565b85015160001960f88460031b161c19169055388062000e5b565b9091602060018192858801518155019301910162000e38565b816000526020600020601f850160051c81016020861062000edc575b601f830160051c8201811062000ecf57505062000830565b6000815560010162000eb7565b508062000eb7565b90607f16906200081c565b90508301513862000762565b8160005260206000209060005b601f198616811062000f525750936001916200079e9582601f1981161062000f38575b5050811b01815562000776565b85015160001960f88460031b161c19169055388062000f2b565b9091602060018192858801518155019301910162000f08565b816000526020600020601f850160051c81016020861062000fac575b601f830160051c8201811062000f9f57505062000743565b6000815560010162000f87565b508062000f87565b90607f16906200072f565b9050830151386200067b565b8160005260206000209060005b601f198616811062001022575093600191620006b79582601f1981161062001008575b5050811b0181556200068f565b85015160001960f88460031b161c19169055388062000ffb565b9091602060018192858801518155019301910162000fd8565b816000526020600020601f850160051c8101602086106200107c575b601f830160051c820181106200106f5750506200065c565b6000815560010162001057565b508062001057565b90607f169062000648565b9050830151386200058d565b8160005260206000209060005b601f1986168110620010f2575093600191620005c99582601f19811610620010d8575b5050811b018155620005a1565b85015160001960f88460031b161c191690553880620010cb565b90916020600181928588015181550193019101620010a8565b816000526020600020601f850160051c8101602086106200114c575b601f830160051c820181106200113f5750506200056e565b6000815560010162001127565b508062001127565b90607f16906200055a565b905083015138620004a6565b8160005260206000209060005b601f1986168110620011c2575093600191620004e29582601f19811610620011a8575b5050811b018155620004ba565b85015160001960f88460031b161c1916905538806200119b565b9091602060018192858801518155019301910162001178565b816000526020600020601f850160051c8101602086106200121c575b601f830160051c820181106200120f57505062000487565b60008155600101620011f7565b5080620011f7565b90607f169062000473565b905083015138620003be565b8160005260206000209060005b601f198616811062001292575093600191620003fa9582601f1981161062001278575b5050811b018155620003d2565b85015160001960f88460031b161c1916905538806200126b565b9091602060018192858801518155019301910162001248565b816000526020600020601f850160051c810160208610620012ec575b601f830160051c82018110620012df5750506200039f565b60008155600101620012c7565b5080620012c7565b90607f16906200038b565b905083015138620002d3565b8160005260206000209060005b601f1986168110620013625750936001916200030f9582601f1981161062001348575b5050811b018155620002e7565b85015160001960f88460031b161c1916905538806200133b565b9091602060018192858801518155019301910162001318565b816000526020600020601f850160051c810160208610620013bc575b601f830160051c82018110620013af575050620002b4565b6000815560010162001397565b508062001397565b90607f16906200029d565b8060005260006020526040600020336000526020526040600020600160ff19825416179055339033906000805160206200477d833981519152600080a438620001e9565b8060005260006020526040600020336000526020526040600020600160ff19825416179055339033906000805160206200477d833981519152600080a4386200018d565b8060005260006020526040600020336000526020526040600020600160ff19825416179055339033906000805160206200477d833981519152600080a43862000131565b3360008181526000805160206200479d83398151915260205260408120805460ff1916600117905581906000805160206200477d8339815191528180a4620000d6565b60405162461bcd60e51b815260206004820152601e60248201527f496e76616c6964206372656469742073636f72696e67206164647265737300006044820152606490fd5b60405162461bcd60e51b815260206004820152601d60248201527f496e76616c696420696e766f69636520746f6b656e20616464726573730000006044820152606490fd5b600080fd5b60408051919082016001600160401b0381118382101762000c6957604052565b51906001600160a01b03821682036200156857565b9081519160005b838110620015bb575050016000815290565b8060208092840101518185015201620015a956fe608080604052600436101561001357600080fd5b60003560e01c90816301ffc9a7146122725750806307e2cea51461223757806317b1867e146121d0578063205b784d14612168578063248a9ca3146121395780632b6d74d614611f605780632cf288a114611f345780632f2ff15d14611e8157806330eea7f514611d975780633189e0d614611d4d57806332f298691461185c57806336568abe14611cbb5780633aeae31d14611c92578063464b539114611c695780634eb6a3b214611b7e5780635e0624ff146118b05780636cf44bdd1461185c578063727ba35814610dc757806377803a8a14610b335780637d0eef6114610b15578063817215e114610af75780638255268a1461096c57806391d148541461091f57806397cb1c36146106de57806397d895161461059f5780639883688f14610576578063a0016b8c146104d7578063a217fddf146104bb578063a57916cb14610481578063a760280c14610458578063a9084c1514610340578063afd9276214610322578063c6875fa314610304578063ca86939a1461022b578063d547741f146101ea5763f3af231b146101ab57600080fd5b346101e55760203660031901126101e5576001600160a01b036101cc61230b565b16600052600b6020526020604060002054604051908152f35b600080fd5b346101e55760403660031901126101e5576102296004356102096122f5565b9080600052600060205261022460016040600020015461294b565b612a49565b005b346101e55760603660031901126101e55761024461230b565b61024c6122f5565b6102546122d5565b9061025d612824565b6001600160a01b03838116156102ce578116156102985761028d92610288606460ff85161115612ded565b613053565b602060405160018152f35b60405162461bcd60e51b815260206004820152600e60248201526d24b73b30b634b2103232b13a37b960911b6044820152606490fd5b60405162461bcd60e51b815260206004820152600e60248201526d24b73b30b634b21034b9b9bab2b960911b6044820152606490fd5b346101e55760003660031901126101e5576020600654604051908152f35b346101e55760003660031901126101e5576020600754604051908152f35b346101e5576020806003193601126101e5576004356001600160401b0381116101e557610372829136906004016124f4565b9190600060a060405161038481612321565b60608152828582015282604082015282606082015282608082015201528260405193849283378101600a81520301902090604051916103c283612321565b6103cb81612429565b83526001810154908284019160ff908181168452816040870193818360081c16855281600260608a0192828660101c1684528260808c019660181c16865201549560a08a01968752816104318a60c06040519d8e9d8e5251918d015260e08c01906124cf565b98511660408a01525116606088015251166080860152511660a08401525160c08301520390f35b346101e55760003660031901126101e55760206040516000805160206130f88339815191528152f35b346101e55760203660031901126101e5576001600160a01b036104a261230b565b16600052600c6020526020604060002054604051908152f35b346101e55760003660031901126101e557602060405160008152f35b346101e55760203660031901126101e5576004356104f3612521565b6064811161053d5760407fa602a70b142b0e450e942db996f4521ca4cdf7f4429be4273638cee7a953a4aa91600554908060055582519182526020820152a1602060405160018152f35b60405162461bcd60e51b8152602060048201526011602482015270125b9d985b1a59081d1a1c995cda1bdb19607a1b6044820152606490fd5b346101e55760003660031901126101e5576003546040516001600160a01b039091168152602090f35b346101e55760403660031901126101e55760043560005260096020526040600020546105cc811515612e2e565b600052600860205260606040600020604051906105e88261233c565b805482526001810154602083015260018060a01b039081600282015416604084015281600382015416848401526127106106b260048301549460808101958652600584015460a082015260068401549060ff821660c082015260ff8260081c1660e082015260ff8260101c166101008201526101a0610120820196600961ffff97888660181c168a5260ff61014086019660281c161515865261068d60078201612429565b6101608601526008810154610180860152015416910152511515945160065490612abd565b049151169080602435116106d5575b604051921515835260208301526040820152f35b600092506106c1565b346101e55760203660031901126101e55760006101a06040516107008161233c565b8281528260208201528260408201528260608201528260808201528260a08201528260c08201528260e08201528261010082015282610120820152826101408201526060610160820152826101808201520152600435600052600960205260406000205461076f811515612e2e565b60005260086020526040600020604051906107898261233c565b805482526001810154602083015260028101546001600160a01b039081166040840152600382015416606083015260048101546080830152600581015460a0830152600681015460ff81811660c0850152600882901c811660e0850152601082901c8116610100850152601882901c61ffff1661012085015260289190911c16151561014083015261081d60078201612429565b6101608301526008810154610180830152600960018060a01b03910154166101a0820152604051809160208252805160208301526020810151604083015260018060a01b03604082015116606083015260018060a01b036060820151166080830152608081015160a083015260a081015160c083015260ff60c08201511660e083015260ff60e08201511661010083015260ff6101008201511661012083015261ffff6101208201511661014083015261014081015115156101608301526101608101516108fa6101c091826101808601526101e08501906124cf565b6101808301516101a085810191909152909201516001600160a01b0316908301520390f35b346101e55760403660031901126101e5576109386122f5565b600435600052600060205260406000209060018060a01b0316600052602052602060ff604060002054166040519015158152f35b346101e55760203660031901126101e5576004356000526009602052604060002054610999811515612e2e565b600052600860205260406000206040516109b28161233c565b815481526001820154602082015260018060a01b03908160028401541660408201528160038401541660608201526101a060048401549260808301938452600585015460a0840152600960068601549560ff60c08601978181168952818160081c1660e0880152818160101c1661010088015261ffff8160181c1661012088015260281c161515610140860152610a4b60078201612429565b610160860152600881015461018086015201541691015260065460ff81935116604b8111600014610abf575050604682029180830460461490151715610aa957610aa061271091606460209404905b51612abd565b04604051908152f35b634e487b7160e01b600052601160045260246000fd5b603291935011610ad9575b610aa060209261271092610a9a565b605582029180830460551490151715610aa957606490910490610aca565b346101e55760003660031901126101e5576020600454604051908152f35b346101e55760003660031901126101e5576020600554604051908152f35b346101e55760c03660031901126101e557600435610b4f6122c5565b90610b586122d5565b91610b616122e5565b906084359061ffff821682036101e55760a4359485151586036101e557610b86612824565b84151580610dbb575b15610d7e5784600052610bf260209660088852604060002092610bed60ff8616966019881115600014610d4757610be7610bc7612d13565b995b610be160068901958b60ff1988541617875586612d32565b84612d48565b82612d60565b612d7c565b835160078201906001600160401b038111610d31578795610c1d82610c1785546123ef565b85612d99565b8690601f8311600114610cb45791806000805160206131188339815191529897969492610c999694600092610ca9575b50508160011b916000199060031b1c19161790555b4260088201556009810180546001600160a01b0319163317905560028101546003909101546001600160a01b039081169116613053565b604051908152a260405160018152f35b015190508b80610c4d565b90601f1983169184600052886000209260005b818110610d1a5750926001928592610c9998966000805160206131188339815191529c9b9a989610610d01575b505050811b019055610c62565b015160001960f88460031b161c191690558b8080610cf4565b92938a600181928786015181550195019301610cc7565b634e487b7160e01b600052604160045260246000fd5b60328811610d6057610be7610d5a612cf1565b99610bc9565b604b8811610d7357610be7610d5a612cd1565b610be7610d5a612cac565b60405162461bcd60e51b8152602060048201526015602482015274125b9d985b1a5908185cdcd95cdcdb595b9d081251605a1b6044820152606490fd5b50600454851115610b8f565b346101e55760203660031901126101e557610de0612824565b600260015414611817576002600181905554604051631d11e60560e11b8152600480359082015290600090829060249082906001600160a01b03165afa90811561165f576000916116cb575b5060e08101511561168f57604081810151608083015161014084015160035460608087015195516355b56bff60e11b8082526001600160a01b039788166004830152959790969395948416949093909216919086602481855afa95861561165f5760009661166b575b5060609060246040518094819382528760048301525afa90811561165f5760009161162e575b5060ff80610eca600454612c9d565b968760045516911690606481029080820460641490151715610aa95761035280910460640360648111610aa95760ff1691606481029080820460641490151715610aa9570460640360648111610aa95760ff1680603c810204603c1481151715610aa95781602881020460281482151715610aa957610f54606491603c602860ff95029102612ad0565b0416610f5f84612e81565b90610f768460018060a01b03606086015116612f75565b600e5460ff610f86818316612e70565b16602881029080820460281490151715610aa95760ff8260081c16601481029080820460141490151715610aa957610fbd91612ad0565b60ff610fcd818460101c16612e70565b1690601482029180830460141490151715610aa95760ff610ff28193610ffc93612ad0565b9360181c16612e70565b16601481029080820460141490151715610aa95761101e60649160ff93612ad0565b04169161102a89613008565b93602882029180830460281490151715610aa95760ff1690601482029180830460141490151715610aa95760ff9161106191612ad0565b9116601481029080820460141490151715610aa95761107f91612ad0565b9080600a810204600a1481151715610aa95760ff91600a6110a1920290612ad0565b91169081600a810204600a1482151715610aa9576110c7606491600a60ff940290612ad0565b04169260405160208183516110df81838588016123cc565b8101600a8152030190206040516110f581612321565b6110fe82612429565b815260a0600260ff60018501548181166020860152818160081c166040860152818160101c16606086015260181c16938460808501520154910152801515600014611626575b84604681020460461485151715610aa95780601e810204601e1481151715610aa957611178601e6064920260468702612ad0565b04906064821161161d575b606485810311610aa95760206111a69181604051938285809451938492016123cc565b8101600a815203019020604051906111bd82612321565b6111c681612429565b9182815260a0600260018401549360ff8516602085015260ff8560081c16604085015260ff808660101c169586606087015260181c166080850152015491015260329151611615575b5084606403603c866064030204603c14856064141715610aa95780602881020460281481151715610aa95761124e602860649202603c87840302612ad0565b04906064821161160c575b60075485601e810204601e1486151715610aa95760ff8216601460ff8416020460141460ff8316151715610aa9576112a790600a6112a0601460ff861602601e8a02612ad0565b0490612ad0565b6113888111611603575b601986116115d5576112c1612d13565b925b600554606086015186516040519b928a11159592916001600160a01b03166112ea8d61233c565b8b8d528c600435906020015260408d01528860608d015260808c015260a08b01528760c08b015260ff1660e08a015260ff1661010089015261ffff1661012088015261014087015261016086015242610180860152336101a08601528360005260086020526040600020918551835560208601516001840155600160a01b60019003604087015116600160a01b600190031960028501541617600284015560038301600160a01b60019003606088015116600160a01b60019003198254161790556080860151600484015560a086015160058401556006830160c087015160ff1660ff1982541617815560e087015160ff166113e69082612d32565b61010087015160ff166113f99082612d48565b61012087015161ffff1661140d9082612d60565b610140870151151561141e91612d7c565b6101608601518051969092906001600160401b038811610d315787869461145760209a61144e60078a01546123ef565b60078a01612d99565b8990601f831160011461155c5791806115179892600994600092611551575b50508160011b916000199060031b1c19161760078201555b61018083015160088201556101a090920151910180546001600160a01b0319166001600160a01b03928316179055600435600090815260098952604080822089905560608401519092168152600b89522080546114ea90612c9d565b905581600052600c875260406000206115038154612c9d565b9055606001516001600160a01b0316613053565b604051908152817f27fc4f540e4173a2b1759eb780ad0226e015a3490da22aa496a5a4773d4865948460043593a360018055604051908152f35b015190508c80611476565b600788939298016000528a6000209060005b601f19841681106115bb575091600191611517996009959483601f198116106115a2575b505050811b01600782015561148e565b015160001960f88460031b161c191690558c8080611592565b818a01518355988c01988a98506001909201918c0161156e565b603286116115eb576115e5612cf1565b926112c3565b604b86116115fb576115e5612cd1565b6115e5612cac565b506113886112b1565b60649150611259565b90508761120f565b60649150611183565b506023611144565b611650915060603d606011611658575b611648818361238e565b810190612c74565b505086610ebb565b503d61163e565b6040513d6000823e3d90fd5b606091965061168690823d841161165857611648818361238e565b50509590610e95565b60405162461bcd60e51b8152602060048201526014602482015273125b9d9bda58d9481b9bdd081d995c9a599a595960621b6044820152606490fd5b90503d806000833e6116dd818361238e565b81016020828203126101e55781516001600160401b03928382116101e55701906101e09283838303126101e55760405193840184811082821117610d315760405282518452602083015160208501526040830151604085015261174260608401612c00565b606085015261175360808401612c00565b608085015260a08301518181116101e55782611770918501612c14565b60a085015260c08301518181116101e5578261178d918501612c14565b60c085015261179e60e08401612c59565b60e08501526101006117b1818501612c59565b90850152610120808401519085015261014091828401519182116101e5576117da918401612c14565b90830152610160808201519083015261018080820151908301526101a0611802818301612c66565b908301526101c0809101519082015281610e2c565b60405162461bcd60e51b815260206004820152601f60248201527f5265656e7472616e637947756172643a207265656e7472616e742063616c6c006044820152606490fd5b346101e55760403660031901126101e55761187561230b565b61187d6122f5565b9060018060a01b03809116600052600d60205260406000209116600052602052602060ff60406000205416604051908152f35b346101e55760a03660031901126101e5576001600160401b036004358181116101e5576118e19036906004016124f4565b916118ea6122c5565b906118f36122d5565b936118fc6122e5565b936084359260ff8416948585036101e5576119156126fd565b8315611b465760ff169460649061192e82881115612ded565b8160ff8a1611611b0e578160ff891611611ad2578110611a995750604051968383893787848101600a81526020998a9103019020918411610d3157879461197985610c1785546123ef565b6000601f8611600114611a21576000805160206131588339815191529798866119d692600091611a16575b508760011b906000198960031b1c19161785555b6119d060018601948b60ff1987541617865585612d32565b83612d48565b63ff00000082549160181b169063ff000000191617905560024291015581604051928392833781016000815203902092604051908152a260405160018152f35b90508601358c6119a4565b601f1986169084600052876000209160005b818110611a82575091600080516020613158833981519152999a91886119d69410611a68575b5050600187811b0185556119b8565b87013560001960038a901b60f8161c191690558b80611a59565b91928960018192868b013581550194019201611a33565b60405162461bcd60e51b8152602060048201526014602482015273496e76616c69642064656661756c74207261746560601b6044820152fd5b5060405162461bcd60e51b8152602060048201526016602482015275496e76616c69642067726f777468206f75746c6f6f6b60501b6044820152fd5b5060405162461bcd60e51b8152602060048201526012602482015271496e76616c696420766f6c6174696c69747960701b6044820152fd5b60405162461bcd60e51b815260206004820152601060248201526f496e76616c696420696e64757374727960801b6044820152606490fd5b346101e55760203660031901126101e55760043560005260086020526040600020805460018201549160018060a01b03611c58816002840154169160ff816003860154166004860154600587015490600688015492611bdf60078a01612429565b95600960088b01549a015416976040519b8c9b8c5260208c015260408b015260608a0152608089015260a088015281811660c0880152818160081c1660e0880152818160101c1661010088015261ffff8160181c1661012088015260281c1615156101408601526101c0806101608701528501906124cf565b916101808401526101a08301520390f35b346101e55760003660031901126101e5576002546040516001600160a01b039091168152602090f35b346101e55760003660031901126101e55760206040516000805160206131388339815191528152f35b346101e55760403660031901126101e557611cd46122f5565b336001600160a01b03821603611cf05761022990600435612a49565b60405162461bcd60e51b815260206004820152602f60248201527f416363657373436f6e74726f6c3a2063616e206f6e6c792072656e6f756e636560448201526e103937b632b9903337b91039b2b63360891b6064820152608490fd5b346101e55760003660031901126101e55760a0600e54600f5460ff604051928181168452818160081c166020850152818160101c16604085015260181c1660608301526080820152f35b346101e55760203660031901126101e5576004356001600160401b0381116101e557366023820112156101e5578060040135611dd2816123b1565b91611de0604051938461238e565b8183526020830136602484840101116101e557611e50936000602085611e1c9660248397018637830101526040519384928392519283916123cc565b8101600a815203019020611e2f81612429565b906002600182015491015460ff60405194859460c0865260c08601906124cf565b928181166020860152818160081c166040860152818160101c16606086015260181c16608084015260a08301520390f35b346101e55760403660031901126101e557600435611e9d6122f5565b816000526000602052611eb760016040600020015461294b565b81600052600060205260406000209060018060a01b0316908160005260205260ff6040600020541615611ee657005b8160005260006020526040600020816000526020526040600020600160ff1982541617905533917f2f8788117e7eff1d82e926ec794901d17c78024a50270940304540a733656f0d600080a4005b346101e55760203660031901126101e55760043560005260096020526020604060002054604051908152f35b346101e55760803660031901126101e55760043560ff81168091036101e557611f876122c5565b611f8f6122d5565b611f976122e5565b90611fa06126fd565b6064928385116120fb578360ff8216116120b9578360ff8316116120775760ff83169380851161203a577f8c5207f696a074874424fa966ed8a5101bdeb40140cd71aae13863ec467156f560408787878762ff00008861ff008663ff000000600e549660181b169563ffffffff1916179160081b16179160101b161717600e5542600f5582519182526020820152a1602060405160018152f35b60405162461bcd60e51b8152602060048201526018602482015277496e76616c6964206d61726b6574206c697175696469747960401b6044820152fd5b60405162461bcd60e51b815260206004820152601b60248201527a496e76616c69642063726564697420617661696c6162696c69747960281b60448201528490fd5b60405162461bcd60e51b815260206004820152601b60248201527a125b9d985b1a59081a5b9d195c995cdd081c985d19481d1c995b99602a1b60448201528490fd5b60405162461bcd60e51b8152602060048201526017602482015276092dcecc2d8d2c840cac6dedcdedad2c640d0cac2d8e8d604b1b60448201528490fd5b346101e55760203660031901126101e55760043560005260006020526020600160406000200154604051908152f35b346101e55760203660031901126101e557600435612184612521565b612710811161219b57600655602060405160018152f35b60405162461bcd60e51b815260206004820152600d60248201526c496e76616c696420726174696f60981b6044820152606490fd5b346101e55760203660031901126101e5576004356121ec612521565b610bb8811161220357600755602060405160018152f35b60405162461bcd60e51b815260206004820152600c60248201526b496e76616c6964207261746560a01b6044820152606490fd5b346101e55760003660031901126101e55760206040517f68e79a7bf1e0bc45d0a330c573bc367f9cf464fd326078812f301165fbda4ef18152f35b346101e55760203660031901126101e5576004359063ffffffff60e01b82168092036101e557602091637965db0b60e01b81149081156122b4575b5015158152f35b6301ffc9a760e01b149050836122ad565b6024359060ff821682036101e557565b6044359060ff821682036101e557565b6064359060ff821682036101e557565b602435906001600160a01b03821682036101e557565b600435906001600160a01b03821682036101e557565b60c081019081106001600160401b03821117610d3157604052565b6101c081019081106001600160401b03821117610d3157604052565b604081019081106001600160401b03821117610d3157604052565b608081019081106001600160401b03821117610d3157604052565b601f909101601f19168101906001600160401b03821190821017610d3157604052565b6001600160401b038111610d3157601f01601f191660200190565b60005b8381106123df5750506000910152565b81810151838201526020016123cf565b90600182811c9216801561241f575b602083101461240957565b634e487b7160e01b600052602260045260246000fd5b91607f16916123fe565b906040519182600082549261243d846123ef565b9081845260019485811690816000146124ac5750600114612469575b50506124679250038361238e565b565b9093915060005260209081600020936000915b81831061249457505061246793508201013880612459565b8554888401850152948501948794509183019161247c565b91505061246794506020925060ff191682840152151560051b8201013880612459565b906020916124e8815180928185528580860191016123cc565b601f01601f1916010190565b9181601f840112156101e5578235916001600160401b0383116101e557602083818601950101116101e557565b3360009081527fad3228b676f7d3cd4284a5443f17f1962b36e491b30a40b2405849e597ba5fb5602090815260408083205490929060ff161561256357505050565b61256c33612b04565b908084519061257a82612373565b604282528482019260603685378251156126e957603084538251906001918210156126e95790607860218501536041915b81831161267b5750505061264b57604861264793869361262b9361261c98519889936000805160206130d88339815191528a8601526125f3815180928c6037890191016123cc565b8401917001034b99036b4b9b9b4b733903937b6329607d1b6037840152518093868401906123cc565b0103602881018752018561238e565b5192839262461bcd60e51b8452600484015260248301906124cf565b0390fd5b60648486519062461bcd60e51b825280600483015260248201526000805160206130b88339815191526044820152fd5b909192600f811660108110156126d5576f181899199a1a9b1b9c1cb0b131b232b360811b901a6126ab8587612add565b5360041c9280156126c1576000190191906125ab565b634e487b7160e01b82526011600452602482fd5b634e487b7160e01b83526032600452602483fd5b634e487b7160e01b81526032600452602490fd5b3360009081527f3108fbc31e7e3c27f61b391b00a9389bcd4672405932c22a42e5c3fdca1816d0602090815260408083205490926000805160206131388339815191529160ff161561274f5750505050565b61275833612b04565b9184519061276582612373565b604282528482019260603685378251156126e957603084538251906001918210156126e95790607860218501536041915b8183116127de5750505061264b57604861264793869361262b9361261c98519889936000805160206130d88339815191528a8601526125f3815180928c6037890191016123cc565b909192600f811660108110156126d5576f181899199a1a9b1b9c1cb0b131b232b360811b901a61280e8587612add565b5360041c9280156126c157600019019190612796565b3360009081527f14928f2929d79111484e50b2447243297c5730481bdb02a692f015e6a04e869e602090815260408083205490926000805160206130f88339815191529160ff16156128765750505050565b61287f33612b04565b9184519061288c82612373565b604282528482019260603685378251156126e957603084538251906001918210156126e95790607860218501536041915b8183116129055750505061264b57604861264793869361262b9361261c98519889936000805160206130d88339815191528a8601526125f3815180928c6037890191016123cc565b909192600f811660108110156126d5576f181899199a1a9b1b9c1cb0b131b232b360811b901a6129358587612add565b5360041c9280156126c1576000190191906128bd565b600090808252602090828252604092838120338252835260ff8482205416156129745750505050565b61297d33612b04565b9184519061298a82612373565b604282528482019260603685378251156126e957603084538251906001918210156126e95790607860218501536041915b818311612a035750505061264b57604861264793869361262b9361261c98519889936000805160206130d88339815191528a8601526125f3815180928c6037890191016123cc565b909192600f811660108110156126d5576f181899199a1a9b1b9c1cb0b131b232b360811b901a612a338587612add565b5360041c9280156126c1576000190191906129bb565b9060009180835282602052604083209160018060a01b03169182845260205260ff604084205416612a7957505050565b80835282602052604083208284526020526040832060ff1981541690557ff6391f5c32d9c69d2a47ea670b442974b53935d1edc7fd64eb21e047a839171b339380a4565b81810292918115918404141715610aa957565b91908201809211610aa957565b908151811015612aee570160200190565b634e487b7160e01b600052603260045260246000fd5b60405190606082016001600160401b03811183821017610d3157604052602a8252602082016040368237825115612aee57603090538151600190811015612aee57607860218401536029905b808211612b92575050612b605790565b606460405162461bcd60e51b815260206004820152602060248201526000805160206130b88339815191526044820152fd5b9091600f81166010811015612beb576f181899199a1a9b1b9c1cb0b131b232b360811b901a612bc18486612add565b5360041c918015612bd6576000190190612b50565b60246000634e487b7160e01b81526011600452fd5b60246000634e487b7160e01b81526032600452fd5b51906001600160a01b03821682036101e557565b81601f820112156101e5578051612c2a816123b1565b92612c38604051948561238e565b818452602082840101116101e557612c5691602080850191016123cc565b90565b519081151582036101e557565b519060ff821682036101e557565b908160609103126101e557612c8881612c66565b916040612c9760208401612c66565b92015190565b6000198114610aa95760010190565b60405190612cb982612358565b60098252680accae4f24090d2ced60bb1b6020830152565b60405190612cde82612358565b6004825263090d2ced60e31b6020830152565b60405190612cfe82612358565b60068252654d656469756d60d01b6020830152565b60405190612d2082612358565b60038252624c6f7760e81b6020830152565b9061ff0082549160081b169061ff001916179055565b9062ff000082549160101b169062ff00001916179055565b9064ffff00000082549160181b169064ffff0000001916179055565b805460ff60281b191691151560281b60ff60281b16919091179055565b90601f8111612da757505050565b600091825260208220906020601f850160051c83019410612de3575b601f0160051c01915b828110612dd857505050565b818155600101612dcc565b9092508290612dc3565b15612df457565b60405162461bcd60e51b8152602060048201526012602482015271496e76616c6964207269736b2073636f726560701b6044820152606490fd5b15612e3557565b60405162461bcd60e51b8152602060048201526013602482015272139bc8185cdcd95cdcdb595b9d08199bdd5b99606a1b6044820152606490fd5b60ff166064039060ff8211610aa957565b6020612e9a9181604051938285809451938492016123cc565b8101600a81520301902060405190612eb182612321565b612eba81612429565b9182815260018201549160ff938484169283602082015260a060026040830194888860081c168652886060850198818160101c168a5260181c16608085015201549101525115612f6c57603c820291808304603c1490151715610aa9578390511690601482029180830460141490151715610aa95783612f3e8193612f4693612ad0565b935116612e70565b1690601482029180830460141490151715610aa957606491612f6791612ad0565b041690565b50505050603290565b6001600160a01b039081166000818152600d60209081526040808320949095168083529390529283205460ff169290836130025760409293508152600b60205281812054928152600c6020522054901590818092612ffa575b15612fda575050604b90565b8115612ff1575b5015612fec57603c90565b603290565b90501538612fe1565b508015612fce565b50505090565b428103908111610aa957620151809004601e81116130265750601490565b603c81116130345750602890565b605a81116130425750603c90565b60b41061304e57605090565b606490565b909160207f75a5becdc4a76b08bee4cebf7e4e9a670e38dbf3a40b7c169ced7dfebac5cff79160018060a01b038094169384600052600d8352604060002095169485600052825260ff60406000209116908160ff19825416179055604051908152a356fe537472696e67733a20686578206c656e67746820696e73756666696369656e74416363657373436f6e74726f6c3a206163636f756e7420000000000000000000b2e3ee861706f0756afea8a5257301f83561f9ac10b8f43b771dc928566f8c61ee0452171a87a533a0a01d7aebef976e970b83328b0d687f2d5f05e9873ab39db6f6b279a7a4e2aa16012cbd36fcdc1fbdb91b92fd6dab57885c9de496473a8de847b1578ddf32f6c9b81fd3724fdd55bd1247a397e66b3783005ca7b2d05e70a2646970667358221220c3e0b3e0ec5ae27f41e837f54b16865cb05c5ff24f65c1bf5e805158c4537e9564736f6c634300081400332f8788117e7eff1d82e926ec794901d17c78024a50270940304540a733656f0dad3228b676f7d3cd4284a5443f17f1962b36e491b30a40b2405849e597ba5fb5e847b1578ddf32f6c9b81fd3724fdd55bd1247a397e66b3783005ca7b2d05e7060803462000b4457601f62004b6938819003918201601f19168301916001600160401b03831184841017620007e157808492604094855283398101031262000b44576200005a6020620000528362000b69565b920162000b69565b600160005566038d7ea4c68000600c8190556003600d5591906001600160a01b03908183161562000aff571690811562000aba57600e8054610100600160a81b03191660089290921b610100600160a81b0316919091179055600f80546001600160a01b03191691909117905533600090815260008051602062004b29833981519152602052604090205460ff161562000a77575b3360009081527f794daf18569cbd6eb16d8ca6a4da292be3594e621335fad8067fb88607cfba3860205260409020547f077a1d526a4ce8a773632ab13b4fbbf1fcc954c3dab26cd27ea0e2a6750da5d79060ff161562000a33575b503360009081527ff7c11a6d0ec535894a90c88b42cba2ccb348cb15b5e3ad22a710d1d4ac63281960205260409020547f68e79a7bf1e0bc45d0a330c573bc367f9cf464fd326078812f301165fbda4ef19060ff1615620009ef575b503360009081527f2229a7fcf4cca19fbfd8582c9c17d12e894d6d7c0120ae12a8cc35a69c25ec5860205260409020547ffb4c63731d4193edbc29892546c0334b7d4908d88d1f39b3d3143333406a52249060ff1615620009ab575b506200020d62000b49565b601d81527f68747470733a2f2f657468657265756d2e7270632e656e64706f696e7400000060208083019190915260008052600290527fac33ff75c19e70fe83507db0d683fd3465c996598dc972688b7ace676c89077b805460ff19166001178155600c7fac33ff75c19e70fe83507db0d683fd3465c996598dc972688b7ace676c89077c557fac33ff75c19e70fe83507db0d683fd3465c996598dc972688b7ace676c89077d929092556406fc23ac007fac33ff75c19e70fe83507db0d683fd3465c996598dc972688b7ace676c89077e557fac33ff75c19e70fe83507db0d683fd3465c996598dc972688b7ace676c89077f80546001600160a01b03191690558051906001600160401b038211620007e1576005830154600181811c91168015620009a0575b6020821014620007c057601f811162000950575b50602090601f8311600114620008db576005929160009183620008cf575b50508160011b916000199060031b1c1916179101555b600060008051602062004b49833981519152602060405160018152a2620003a362000b49565b601c81527f68747470733a2f2f706f6c79676f6e2e7270632e656e64706f696e74000000006020808301919091526001600081905260029091527fe90b7bceb6e7df5418fb78d8ee546e97c83a08bbccc01a0644d599ccd2a7c2e0805460ff1916909117815560807fe90b7bceb6e7df5418fb78d8ee546e97c83a08bbccc01a0644d599ccd2a7c2e1556601c6bf526340007fe90b7bceb6e7df5418fb78d8ee546e97c83a08bbccc01a0644d599ccd2a7c2e255640ba43b74007fe90b7bceb6e7df5418fb78d8ee546e97c83a08bbccc01a0644d599ccd2a7c2e3557fe90b7bceb6e7df5418fb78d8ee546e97c83a08bbccc01a0644d599ccd2a7c2e480546001600160a01b0319169055815190916001600160401b038211620007e1576005830154600181811c91168015620008c4575b6020821014620007c057601f811162000878575b50602090601f831160011462000803576005929160009183620007f7575b50508160011b916000199060031b1c1916179101555b600160008051602062004b498339815191526020604051838152a26200054262000b49565b601d81527f68747470733a2f2f617262697472756d2e7270632e656e64706f696e740000006020808301919091526002600081905290527f679795a0195a1b76cdebb7c51d74e058aee92919b8c3389af86ef24535e8a28c805460ff19166001179055600a7f679795a0195a1b76cdebb7c51d74e058aee92919b8c3389af86ef24535e8a28d5565b5e620f480007f679795a0195a1b76cdebb7c51d74e058aee92919b8c3389af86ef24535e8a28e556305f5e1007f679795a0195a1b76cdebb7c51d74e058aee92919b8c3389af86ef24535e8a28f557f679795a0195a1b76cdebb7c51d74e058aee92919b8c3389af86ef24535e8a29080546001600160a01b031916905580517f679795a0195a1b76cdebb7c51d74e058aee92919b8c3389af86ef24535e8a291906001600160401b038111620007e1578154600181811c91168015620007d6575b6020821014620007c057601f811162000773575b50602092601f82116001146200070a5792819293600092620006fe575b50508160011b916000199060031b1c19161790555b600260008051602062004b49833981519152602060405160018152a2604051613f8a908162000b7f8239f35b015190503880620006bd565b601f198216938360005260206000209160005b8681106200075a575083600195961062000740575b505050811b019055620006d2565b015160001960f88460031b161c1916905538808062000732565b919260206001819286850151815501940192016200071d565b826000526020600020601f830160051c81019160208410620007b5575b601f0160051c01905b818110620007a85750620006a0565b6000815560010162000799565b909150819062000790565b634e487b7160e01b600052602260045260246000fd5b90607f16906200068c565b634e487b7160e01b600052604160045260246000fd5b01519050388062000507565b906005840160005260206000209160005b601f19851681106200085f5750918391600193600595601f1981161062000845575b505050811b019101556200051d565b015160001960f88460031b161c1916905538808062000836565b9192602060018192868501518155019401920162000814565b600584016000526020600020601f840160051c810160208510620008bc575b601f830160051c82018110620008af575050620004e9565b6000815560010162000897565b508062000897565b90607f1690620004d5565b01519050388062000367565b906005840160005260206000209160005b601f1985168110620009375750918391600193600595601f198116106200091d575b505050811b019101556200037d565b015160001960f88460031b161c191690553880806200090e565b91926020600181928685015181550194019201620008ec565b600584016000526020600020601f840160051c8101916020851062000995575b601f0160051c01905b81811062000988575062000349565b6000815560010162000979565b909150819062000970565b90607f169062000335565b8060005260016020526040600020336000526020526040600020600160ff198254161790553390339060008051602062004b09833981519152600080a43862000202565b8060005260016020526040600020336000526020526040600020600160ff198254161790553390339060008051602062004b09833981519152600080a438620001a6565b8060005260016020526040600020336000526020526040600020600160ff198254161790553390339060008051602062004b09833981519152600080a4386200014a565b33600081815260008051602062004b2983398151915260205260408120805460ff19166001179055819060008051602062004b098339815191528180a4620000ef565b60405162461bcd60e51b815260206004820152601e60248201527f496e76616c6964206372656469742073636f72696e67206164647265737300006044820152606490fd5b60405162461bcd60e51b815260206004820152601d60248201527f496e76616c696420696e766f69636520746f6b656e20616464726573730000006044820152606490fd5b600080fd5b60408051919082016001600160401b03811183821017620007e157604052565b51906001600160a01b038216820362000b445756fe608080604052600436101561001d575b50361561001b57600080fd5b005b60003560e01c90816301ffc9a714612c1b575080630442182314612bf257806307e2cea514612bb7578063112b9d8c14612b0857806316c38b3c14612acf5780632476566114612636578063248a9ca3146126075780632f2ff15d1461255457806333ea3dc8146123b357806334e511031461239557806336568abe146123035780633956db5814611e965780633c54068714611e785780634198beca14611cc3578063464b539114611c965780634686069814611c75578063542c5eb71461162e5780635c975abb1461160b5780635e318e071461158b57806360864eed14611521578063625f6205146114895780636ef25c3a1461146b57806379dfe40c146113f157806388ba16ab146113c05780638bba8e801461122357806391d14854146111d657806394fbaeea146111b85780639883688f1461118f5780639ace38c214611064578063a217fddf14611048578063a6e121cd14610f7e578063a7c5cf6114610f55578063ae7ed94b14610b94578063b06b65761461098a578063ba62c28814610836578063be13b64114610644578063beb57c42146105de578063c5ab2241146105c0578063d547741f14610581578063de9d1afc146104f55763fcb889e3146101ed573861000f565b346104f05760803660031901126104f05760043560243560048110156104f0576001600160401b03916044358381116104f05761022e903690600401612dbb565b926064358581116104f057610247903690600401612cf9565b9590610251613196565b61026060026000541415613569565b6002600055841515806104e4575b610277906139cc565b8460005260209660038852604060002091600a83019160ff908184541660048110156104ce5761048f57908693929189896102de60418f8f8060405195869384019788528c60f81b6040850152848401378101600083820152036021810184520182612eaa565b519020906102f0600d54821015613a11565b60005b81811061041c575050505050600b929161030c91613745565b0190851161040657859261032a866103248454612de8565b846136f1565b600090601f871160011461039057958091600080516020613f358339815191529697600092610385575b50508160011b916000199060031b1c19161790555b6103766040518092612cbd565ba2600160005560405160018152f35b013590503880610354565b601f1987169183600052856000209260005b8181106103ef5750916001939189600080516020613f35833981519152999a94106103d5575b505050811b019055610369565b0135600019600384901b60f8161c191690553880806103c8565b9193876001819287870135815501950192016103a2565b634e487b7160e01b600052604160045260246000fd5b849596508d61044561043f61043884866104839798999a613a67565b3691613955565b86613bda565b90600080516020613f158339815191526000526001815260406000209160018060a01b03166000525261047e856040600020541661398c565b613678565b908895949392916102f3565b60405162461bcd60e51b8152600481018c905260176024820152765472616e73616374696f6e206e6f742070656e64696e6760481b6044820152606490fd5b634e487b7160e01b600052602160045260246000fd5b5060095485111561026e565b600080fd5b346104f05760203660031901126104f057600435600a8110156104f05761051b90612d5c565b60ff81541661057d600183015492600281015490600381015461054d600560018060a01b036004850154169301612ecd565b9260405196879615158752602087015260408601526060850152608084015260c060a084015260c0830190612f96565b0390f35b346104f05760403660031901126104f05761001b6004356105a0612c7b565b908060005260016020526105bb6001604060002001546132bd565b6133cb565b346104f05760003660031901126104f0576020600d54604051908152f35b346104f05760603660031901126104f0576105f7612ca7565b60243590600a8210156104f05761062c61060f612c91565b9260018060a01b0380931660005260066020526040600020612d75565b91166000526020526020604060002054604051908152f35b346104f05760803660031901126104f057600435600a8110156104f057610669612c7b565b906001600160401b03906044358281116104f05761068b903690600401612dbb565b9390926064359081116104f0576106a6903690600401612dbb565b936106af613196565b6106be60026000541415613569565b600260005560405161070c603582602099808b8301966106de888c613945565b60608a901b6001600160601b0319166021850152848401378101600083820152036015810184520182612eaa565b51902093846000526004865260ff604060002054166107f557927fc1eb5421cc7a45731dc7da68386f7e8b9ea9e8a0139fa10b44c615066fde4e3c9261075a61043f60409488973691613955565b90600080516020613f15833981519152600052600188528360002060018060a01b03809316600052885261079460ff85600020541661398c565b856000526004885283600020600160ff198254161790556107b784518094612c6e565b1686820152a27fce1682f5002e4561cc52ee288e67110a7e66071f7f158d4c146bc35616eddeab8260405160018152a2600160005560405160018152f35b60405162461bcd60e51b815260048101879052601960248201527813595cdcd859d948185b1c9958591e481c1c9bd8d95cdcd959603a1b6044820152606490fd5b346104f05761084436612d29565b909161084e613196565b61085d60026000541415613569565b60026000558015158061097e575b61087490613aa8565b60005260209160088352604060002080549260019384830154600284015493600460038201549101549060405192898401948552604084015260ff956108bf60608501888316613945565b6108d160618501888360081c16613945565b60501b6001600160601b0319166062840152607683015260968083019190915281526108fc81612e8f565b5190209061090e600d54821015613a11565b60005b81811061092657868660005560405160008152f35b8061094161093b61043861097994868a613a67565b85613bda565b600080516020613f1583398151915260005287895260406000209060018060a01b0316600052885261047e856040600020541661398c565b610911565b50600b5481111561086b565b346104f05760c03660031901126104f0576109a3612ca7565b602435600a8110156104f0576109b7612c91565b60643560a4356001600160401b0381116104f0576109d9903690600401612cf9565b92906109e3613196565b6109f260026000541415613569565b60026000556001600160a01b03868116948515610b605781841693610a18851515613809565b610a23861515613845565b6040516020998a82019260018060601b0319809260601b168452610a4a603484018c613945565b60601b166035820152866049820152608435606982015260698152610a6e81612e74565b51902090610a80600d54821015613a11565b60005b818110610b125750505050508260005260068552610aa5846040600020612d75565b816000528552604060002090815492808401809411610afc577f455581676924f4c62882e2639fbc37f91b8be4baea3bd58700d247e3ed4dcdf29360409355825191825286820152a3600160005560405160018152f35b634e487b7160e01b600052601160045260246000fd5b80610b2761093b610438610b5b94868a613a67565b600080516020613f1583398151915260005260018c5285604060002091166000528b5261047e60ff6040600020541661398c565b610a83565b60405162461bcd60e51b815260206004820152600c60248201526b24b73b30b634b2103ab9b2b960a11b6044820152606490fd5b610b9d36612cca565b90610bad60026000541415613569565b6002600055610bc160ff600e5416156135b5565b610bd660ff610bcf83612d5c565b54166135f6565b610be4600c543410156137ca565b6001600160a01b03821615610f1e57600f546040516355b56bff60e11b81526001600160a01b0384811660048301526024939192606091849186918391165afa918215610f1257600092610ec9575b5060ff821615610e8957610c48600a54613678565b600a81905560405190939061010081016001600160401b03811182821017610e745760409081528582526001600160a01b0387166020830152600090820152610c948360608301613687565b60ff841660808201524260a0820152600060c0820152600060e0820152805160208201516040830151600a811015610e5f576060840151600a811015610e4a57610d17608086015191610d0d60a088015194604051966020880198895260018060601b03199060601b1660408801526054870190613945565b6055850190613945565b6056830152607682015260768152610d2e81612e74565b51902060e08201528460005260076020526040600020918151835560018060a01b03602083015116600184015490604084015192600a841015610e3657606085015190600a821015610e36575095608095600560e060209c9760ff978d9c97610e22977fdb45837ad079a51885284d41c9a741dbfeee950c53411ed76f7154906f50ac0d9d8b60a81b9060a81b16928b60a01b9060a01b169160018060b01b031916171717600185015589810151600285015560a08101516003850155610dfe60c08201511515600486016133ba565b0151910155604080516001600160a01b03909616865260008b870152850190612c6e565b166060820152a26001600055604051908152f35b634e487b7160e01b60009081526021600452fd5b85634e487b7160e01b60005260216004526000fd5b84634e487b7160e01b60005260216004526000fd5b82634e487b7160e01b60005260416004526000fd5b60405162461bcd60e51b815260206004820152601981850152784e6f206372656469742073636f726520617661696c61626c6560381b6044820152606490fd5b9091506060813d606011610f0a575b81610ee560609383612eaa565b810103126104f057610f026020610efb83613937565b9201613937565b509084610c33565b3d9150610ed8565b6040513d6000823e3d90fd5b60405162461bcd60e51b815260206004820152600f60248201526e125b9d985b1a59081cdd589a9958dd608a1b6044820152606490fd5b346104f05760003660031901126104f0576020604051600080516020613f158339815191528152f35b346104f05760403660031901126104f057610f97612ca7565b60243590600a8210156104f05760018060a01b0316600052610fc3602091600583526040600020612d75565b60405190818382549182815201908192600052846000209060005b86828210611034578686610ff482880383612eaa565b604051928392818401908285525180915260408401929160005b82811061101d57505050500390f35b83518552869550938101939281019260010161100e565b835485529093019260019283019201610fde565b346104f05760003660031901126104f057602060405160008152f35b346104f05760203660031901126104f057600435600052600360205260406000208054906001810154600282015460018060a01b0360038401541691600484015492600585015494600681015460078201546110c260088401612ecd565b9060ff6009850154976110de600b83600a890154169701612ecd565b97611106604080519e8f9081526110fa60208201878616612c6e565b01848360081c16612c6e565b60101c6001600160a01b0390811660608e0152811660808d015260a01c169260068410156104ce578a9961057d996111819761116f9660a08e015260c08d015260e08c01526101008b01526101208a01526101408901526101e0806101608a0152880190612f96565b936101808701526101a0860190612cbd565b8382036101c0850152612f96565b346104f05760003660031901126104f057600f546040516001600160a01b039091168152602090f35b346104f05760003660031901126104f0576020600b54604051908152f35b346104f05760403660031901126104f0576111ef612c7b565b600435600052600160205260406000209060018060a01b0316600052602052602060ff604060002054166040519015158152f35b346104f05760e03660031901126104f057600435600a8110156104f057602435801515908181036104f05760a4356001600160a01b038116908190036104f0576001600160401b039060c4358281116104f0576112916112896005923690600401612dbb565b610438612fbb565b936112a561129e88612d5c565b91826133ba565b6001926044358483015560643560028301556084356003830155600482019060018060a01b031982541617905501928051928311610406576112f1836112eb8654612de8565b866136f1565b602090601f8411600114611346579280602095938193600080516020613e95833981519152989660009461133b575b50501b916000199060031b1c19161790555b604051908152a2005b015192508980611320565b90601f9392931983169185600052816000209260005b8181106113aa575091600080516020613e958339815191529795939185602098969410611391575b505050811b019055611332565b015160001960f88460031b161c19169055878080611384565b828401518555938601936020938401930161135c565b346104f05760203660031901126104f0576004356000526004602052602060ff604060002054166040519015158152f35b346104f05760203660031901126104f05760043561140d612fbb565b801561141857600d55005b60405162461bcd60e51b815260206004820152602560248201527f4d696e2076616c696461746f7273206d75737420626520677265617465722074604482015264068616e20360dc1b6064820152608490fd5b346104f05760003660031901126104f0576020600c54604051908152f35b346104f05760203660031901126104f057600435600052600760205261010060406000208054906001810154906002810154600382015490611509600560ff6004860154169401549460405196875260018060a01b03811660208801526114f96040880160ff8360a01c16612c6e565b60ff606088019160a81c16612c6e565b608085015260a0840152151560c083015260e0820152f35b346104f05760603660031901126104f05761153a612ca7565b602435600a8110156104f057611568906044359260018060a01b031660005260056020526040600020612d75565b80548210156104f05760209161157d91612d8d565b90546040519160031b1c8152f35b346104f05760203660031901126104f0576004356115a7612fbb565b4781116115cf576000808080938181156115c6575b3390f115610f1257005b506108fc6115bc565b60405162461bcd60e51b8152602060048201526014602482015273496e73756666696369656e742062616c616e636560601b6044820152606490fd5b346104f05760003660031901126104f057602060ff600e54166040519015158152f35b60803660031901126104f057600a60043510156104f05761164d612c7b565b611655612c91565b9061166560026000541415613569565b600260005561167960ff600e5416156135b5565b61168960ff610bcf600435612d5c565b611697600c543410156137ca565b6116ab6001600160a01b0382161515613638565b6116bf6001600160a01b0383161515613809565b6116cc6064351515613845565b6040516323b872dd60e01b6020820152336024820152306044820152606480358183015281526116fb81612e74565b604080519081018082116001600160401b0390911117610406576040818101905260208082527f5361666545524332303a206c6f772d6c6576656c2063616c6c206661696c6564908201526001600160a01b0384163b15611c3057815161179f926000918291602001826001600160a01b0389165af13d15611c28573d9061178282613441565b916117906040519384612eaa565b82523d6000602084013e61389e565b805180611bac575b50506117b4600954613678565b90816009556117c233613aea565b604051906117cf82612e3e565b60008252604051946117e086612e22565b848652600060208701526117f960043560408801613687565b3360608701526001600160a01b038481166080880152600160a08801521660c086015260643560e08601523461010086015261012085015260006101408501819052610160850191909152426101808501526101a084015260405161185d81612e3e565b600081526101c084015261187083613b23565b610140840152816000526003602052604060002083518155600181016020850151600a8110156104ce576118a49082613693565b604085015190600a8210156104ce576118c06118d492826136ab565b60608601516001600160a01b0316906136ca565b6002810160018060a01b0360808601511681549060a087015160068110156104ce576001600160a81b03199092161760a09190911b60ff60a01b1617905560c08401516003820180546001600160a01b0319166001600160a01b039290921691909117905560e084015160048201556101008401516005820155610120840151600682015561014084015160078201556101608401518051906001600160401b0382116104065781906119978261198e6008870154612de8565b600887016136f1565b602090601f8311600114611b3a57600092611b2f575b50508160011b916000199060031b1c19161760088201555b61018084015160098201556101a084015160048110156104ce57816119f2600b92600a6101c09501613745565b019301519081519360018060401b03851161040657848493611a20602097611a1a8554612de8565b856136f1565b8690601f8311600114611ab2579180611a979492600080516020613eb58339815191529694600092611aa7575b50508160011b916000199060031b1c19161790555b3360005260058652611a8384611a7e6004356040600020612d75565b61375d565b604051918291606435903360043585613792565b0390a26001600055604051908152f35b015190508980611a4d565b90601f1983169184600052886000209260005b818110611b155750926001928592600080516020613eb58339815191529896611a97989610611afc575b505050811b019055611a62565b015160001960f88460031b161c19169055898080611aef565b828401518555899850600190940193928a01928a01611ac5565b0151905086806119ad565b9250600884016000526020600020906000935b601f1984168510611b91576001945083601f19811610611b78575b505050811b0160088201556119c5565b015160001960f88460031b161c19169055868080611b68565b81810151835560209485019460019093019290910190611b4d565b81602091810103126104f0576020611bc49101613891565b15611bd05782806117a7565b60405162461bcd60e51b815260206004820152602a60248201527f5361666545524332303a204552433230206f7065726174696f6e20646964206e6044820152691bdd081cdd58d8d9595960b21b6064820152608490fd5b60609061389e565b60405162461bcd60e51b815260206004820152601d60248201527f416464726573733a2063616c6c20746f206e6f6e2d636f6e74726163740000006044820152606490fd5b346104f05760203660031901126104f057611c8e612fbb565b600435600c55005b346104f05760003660031901126104f057600e5460405160089190911c6001600160a01b03168152602090f35b346104f057611cd136612d29565b9091611cdb613196565b611cea60026000541415613569565b600260005580151580611e6c575b611d0190613aa8565b60005260209160078352604060002091600483019182549160ff90818416611e1d57949291908354956001968560028980980154910154611d78604051928c840194855260018060601b03198160601b166040850152611d6960548501888360a01c16613945565b86605585019160a81c16613945565b605682015260568152611d8a81612e59565b51902090611d9c600d54821015613a11565b60005b818110611dbe57505050505060ff191617905580600055604051908152f35b84959650611dd961093b6104388385611e1196979899613a67565b600080516020613f15833981519152600052898b5260406000209060018060a01b03166000528a5261047e856040600020541661398c565b90879594939291611d9f565b60405162461bcd60e51b815260048101889052602160248201527f437265646974207472616e7366657220616c726561647920636f6e6669726d656044820152601960fa1b6064820152608490fd5b50600a54811115611cf8565b346104f05760003660031901126104f0576020600954604051908152f35b611e9f36612cca565b611eae60026000541415613569565b6002600055611ec260ff600e5416156135b5565b611ed060ff610bcf84612d5c565b600c5490813411156122c457611ef06001600160a01b0382161515613638565b3482340311610afc57611f04600954613678565b9182600955611f1233613aea565b91604051611f1f81612e3e565b6000815260405193611f3085612e22565b85855260006020860152611f478760408701613687565b33606086015260018060a01b0383166080860152600060a0860152600060c086015283340360e08601528361010086015261012085015260006101408501526101608401524261018084015260006101a0840152604051611fa781612e3e565b600081526101c0840152611fba83613b23565b610140840152836000526003602052604060002083518155600181016020850151600a8110156104ce57611fee9082613693565b604085015190600a8210156104ce576118c061200a92826136ab565b6002810160018060a01b0360808601511681549060a087015160068110156104ce576001600160a81b03199092161760a09190911b60ff60a01b1617905560c08401516003820180546001600160a01b0319166001600160a01b039290921691909117905560e084015160048201556101008401516005820155610120840151600682015561014084015160078201556101608401518051906001600160401b0382116104065781906120c48261198e6008870154612de8565b602090601f831160011461225257600092612247575b50508160011b916000199060031b1c19161760088201555b61018084015160098201556101a084015160048110156104ce578161211f600b92600a6101c09501613745565b019301519182519560018060401b0387116104065786869461214d6020996121478954612de8565b896136f1565b8890601f83116001146121c6579180600080516020613eb5833981519152979892611a9795946000926121bb575b50508160011b916000199060031b1c19161790555b33600052600588526121aa86611a7e836040600020612d75565b604051938493340391339085613792565b015190508b8061217b565b601f9792919719821690836000528a6000209160005b81811061222d575091600080516020613eb583398151915298998492611a9797969560019510612214575b505050811b019055612190565b015160001960f88460031b161c191690558b8080612207565b828b01518455998c01998b99506001909301928c016121dc565b0151905088806120da565b9250600884016000526020600020906000935b601f19841685106122a9576001945083601f19811610612290575b505050811b0160088201556120f2565b015160001960f88460031b161c19169055888080612280565b81810151835560209485019460019093019290910190612265565b60405162461bcd60e51b8152602060048201526017602482015276125b9cdd59999a58da595b9d081d985b1d59481cd95b9d604a1b6044820152606490fd5b346104f05760403660031901126104f05761231c612c7b565b336001600160a01b038216036123385761001b906004356133cb565b60405162461bcd60e51b815260206004820152602f60248201527f416363657373436f6e74726f6c3a2063616e206f6e6c792072656e6f756e636560448201526e103937b632b9903337b91039b2b63360891b6064820152608490fd5b346104f05760003660031901126104f0576020600a54604051908152f35b346104f05760203660031901126104f05760043580151580612548575b6123d9906139cc565b60005260036020526040600020604051906123f382612e22565b80548252600181015491602081019061240f60ff851683613687565b604081019061242460ff8660081c1683613687565b606081019460018060a01b03809160101c16865260028501549460ff6080840196838116885260a01c1660068110156104ce5760a08401528160038201541660c084015260048101549660e084019788526005820154610100850152600682015461012085015260078201546101408501526124a260088301612ecd565b610160850152600982015461018085015260ff600a83015416936101a081019460048110156104ce576124de600b86956101c093895201612ecd565b9101525116945116945190519260048410156104ce575191600a8310156104ce575191600a8310156104ce576125326125469461253c9360c098604051988952602089015260408801526060870190612cbd565b6080850190612c6e565b60a0830190612c6e565bf35b506009548111156123d0565b346104f05760403660031901126104f057600435612570612c7b565b81600052600160205261258a6001604060002001546132bd565b81600052600160205260406000209060018060a01b0316908160005260205260ff60406000205416156125b957005b8160005260016020526040600020816000526020526040600020600160ff1982541617905533917f2f8788117e7eff1d82e926ec794901d17c78024a50270940304540a733656f0d600080a4005b346104f05760203660031901126104f05760043560005260016020526020600160406000200154604051908152f35b60403660031901126104f057600a60043510156104f0576024803561266060026000541415613569565b60026000556000600e5461267760ff8216156135b5565b61268760ff610bcf600435612d5c565b612695600c543410156137ca565b604051631d11e60560e11b815260048101849052938491829060081c6001600160a01b03165afa918215610f125760009261298a575b5060608201516001600160a01b031633036129515760e0820190815115612915576126f7600b54613678565b9182600b5560408451940151905115159060405194610140860186811060018060401b03821117610406576040528486528360208701526000604087015261274460043560608801613687565b33608087015260a086015260c085015260e0840152426101008401526000610120840152825160208401516040850151600a8110156104ce576060860151600a8110156104ce5760808701516127cb60a0890151926127c160c08b0151956101008c0151976040519960208b015260408a01526060890190613945565b6061870190613945565b60601b6001600160601b03191660628501526076840152609683015260b68083019190915281526001600160401b0360e08201908111908211176104065760e0810160405260208151910120610120840152816000526008602052604060002092805184556020810151600185015560028401906040810151600a8110156104ce576128579083613693565b606081015192600a8410156104ce5760209560076101206060946128b5876128a18b9a7fd134f50cd328349991f4ee7acd154b79baeeee49de5418681fa6f23fe2f34c919a6136ab565b60808301516001600160a01b0316906136ca565b60a0810151600385015560c081015160048501556128dc60e08201511515600586016133ba565b6101008101516006850155015191015560405190815260008682015261290760408201600435612c6e565ba26001600055604051908152f35b60405162461bcd60e51b8152602060048201526014602482015273125b9d9bda58d9481b9bdd081d995c9a599a595960621b6044820152606490fd5b60405162461bcd60e51b81526020600482015260116024820152702737ba1034b73b37b4b1b29037bbb732b960791b6044820152606490fd5b9091503d806000833e61299d8183612eaa565b81016020828203126104f05781516001600160401b03928382116104f05701906101e0828203126104f057604051926129d584612e22565b8251845260208301516020850152604083015160408501526129f9606084016138de565b6060850152612a0a608084016138de565b608085015260a08301518181116104f05782612a279185016138f2565b60a085015260c08301518181116104f05782612a449185016138f2565b60c0850152612a5560e08401613891565b60e0850152610100612a68818501613891565b90850152610120808401519085015261014091828401519182116104f057612a919184016138f2565b90830152610160808201519083015261018080820151908301526101a0612ab9818301613937565b908301526101c0809101519082015290826126cb565b346104f05760203660031901126104f0576004358015158091036104f057612af5612fbb565b60ff8019600e5416911617600e55600080f35b346104f05760203660031901126104f057600435600052600860205261014060406000208054906001810154906002810154600382015460048301549060ff6005850154169260076006860154950154956040519788526020880152612b746040880160ff8316612c6e565b612b876060880160ff8360081c16612c6e565b60101c6001600160a01b0316608087015260a086015260c0850152151560e0840152610100830152610120820152f35b346104f05760003660031901126104f05760206040517f68e79a7bf1e0bc45d0a330c573bc367f9cf464fd326078812f301165fbda4ef18152f35b346104f05760003660031901126104f0576020604051600080516020613ef58339815191528152f35b346104f05760203660031901126104f0576004359063ffffffff60e01b82168092036104f057602091637965db0b60e01b8114908115612c5d575b5015158152f35b6301ffc9a760e01b14905083612c56565b90600a8210156104ce5752565b602435906001600160a01b03821682036104f057565b604435906001600160a01b03821682036104f057565b600435906001600160a01b03821682036104f057565b9060048210156104ce5752565b60409060031901126104f057600435600a8110156104f057906024356001600160a01b03811681036104f05790565b9181601f840112156104f0578235916001600160401b0383116104f0576020808501948460051b0101116104f057565b9060406003198301126104f05760043591602435906001600160401b0382116104f057612d5891600401612cf9565b9091565b600a8110156104ce576000526002602052604060002090565b90600a8110156104ce57600052602052604060002090565b8054821015612da55760005260206000200190600090565b634e487b7160e01b600052603260045260246000fd5b9181601f840112156104f0578235916001600160401b0383116104f057602083818601950101116104f057565b90600182811c92168015612e18575b6020831014612e0257565b634e487b7160e01b600052602260045260246000fd5b91607f1691612df7565b6101e081019081106001600160401b0382111761040657604052565b602081019081106001600160401b0382111761040657604052565b608081019081106001600160401b0382111761040657604052565b60a081019081106001600160401b0382111761040657604052565b60c081019081106001600160401b0382111761040657604052565b601f909101601f19168101906001600160401b0382119082101761040657604052565b9060405191826000825492612ee184612de8565b908184526001948581169081600014612f505750600114612f0d575b5050612f0b92500383612eaa565b565b9093915060005260209081600020936000915b818310612f38575050612f0b93508201013880612efd565b85548884018501529485019487945091830191612f20565b915050612f0b94506020925060ff191682840152151560051b8201013880612efd565b60005b838110612f865750506000910152565b8181015183820152602001612f76565b90602091612faf81518092818552858086019101612f73565b601f01601f1916010190565b3360009081527fa6eef7e35abe7026729641147f7915573c7e97b47efa546f5f6e3230263bcb496020908152604080832054909260019160ff16156130005750505050565b6130093361346d565b918185519161301783612e59565b60428352858301936060368637835115613182576030855383518210156131825790607860218501536041915b818311613114575050506130e45760486130e09386936130c4936130b59851988993600080516020613ed58339815191528a86015261308c815180928c603789019101612f73565b8401917001034b99036b4b9b9b4b733903937b6329607d1b603784015251809386840190612f73565b01036028810187520185612eaa565b5192839262461bcd60e51b845260048401526024830190612f96565b0390fd5b60648486519062461bcd60e51b82528060048301526024820152600080516020613e758339815191526044820152fd5b909192600f8116601081101561316e576f181899199a1a9b1b9c1cb0b131b232b360811b901a613144858761345c565b5360041c92801561315a57600019019190613044565b634e487b7160e01b82526011600452602482fd5b634e487b7160e01b83526032600452602483fd5b634e487b7160e01b81526032600452602490fd5b3360009081527f794daf18569cbd6eb16d8ca6a4da292be3594e621335fad8067fb88607cfba3860209081526040808320549092600080516020613ef58339815191529160019060ff16156131ec575050505050565b6131f53361346d565b9285519161320283612e59565b60428352858301936060368637835115613182576030855383518210156131825790607860218501536041915b818311613277575050506130e45760486130e09386936130c4936130b59851988993600080516020613ed58339815191528a86015261308c815180928c603789019101612f73565b909192600f8116601081101561316e576f181899199a1a9b1b9c1cb0b131b232b360811b901a6132a7858761345c565b5360041c92801561315a5760001901919061322f565b6000818152600191602091838352604093848220338352845260ff8583205416156132e9575050505050565b6132f23361346d565b928551916132ff83612e59565b60428352858301936060368637835115613182576030855383518210156131825790607860218501536041915b818311613374575050506130e45760486130e09386936130c4936130b59851988993600080516020613ed58339815191528a86015261308c815180928c603789019101612f73565b909192600f8116601081101561316e576f181899199a1a9b1b9c1cb0b131b232b360811b901a6133a4858761345c565b5360041c92801561315a5760001901919061332c565b9060ff801983541691151516179055565b906000918083526001602052604083209160018060a01b03169182845260205260ff6040842054166133fc57505050565b8083526001602052604083208284526020526040832060ff1981541690557ff6391f5c32d9c69d2a47ea670b442974b53935d1edc7fd64eb21e047a839171b339380a4565b6001600160401b03811161040657601f01601f191660200190565b908151811015612da5570160200190565b60405190606082016001600160401b0381118382101761040657604052602a8252602082016040368237825115612da557603090538151600190811015612da557607860218401536029905b8082116134fb5750506134c95790565b606460405162461bcd60e51b81526020600482015260206024820152600080516020613e758339815191526044820152fd5b9091600f81166010811015613554576f181899199a1a9b1b9c1cb0b131b232b360811b901a61352a848661345c565b5360041c91801561353f5760001901906134b9565b60246000634e487b7160e01b81526011600452fd5b60246000634e487b7160e01b81526032600452fd5b1561357057565b60405162461bcd60e51b815260206004820152601f60248201527f5265656e7472616e637947756172643a207265656e7472616e742063616c6c006044820152606490fd5b156135bc57565b60405162461bcd60e51b815260206004820152601260248201527110dbdb9d1c9858dd081a5cc81c185d5cd95960721b6044820152606490fd5b156135fd57565b60405162461bcd60e51b815260206004820152601360248201527210da185a5b881b9bdd081cdd5c1c1bdc9d1959606a1b6044820152606490fd5b1561363f57565b60405162461bcd60e51b8152602060048201526011602482015270125b9d985b1a59081c9958da5c1a595b9d607a1b6044820152606490fd5b6000198114610afc5760010190565b600a8210156104ce5752565b90600a8110156104ce5760ff80198354169116179055565b90600a8110156104ce5761ff0082549160081b169061ff001916179055565b805462010000600160b01b03191660109290921b62010000600160b01b0316919091179055565b90601f81116136ff57505050565b600091825260208220906020601f850160051c8301941061373b575b601f0160051c01915b82811061373057505050565b818155600101613724565b909250829061371b565b9060048110156104ce5760ff80198354169116179055565b8054600160401b8110156104065761377a91600182018155612d8d565b819291549060031b91821b91600019901b1916179055565b90949392916080926137b060a0840197600085526020850190612c6e565b6001600160a01b0391821660408401521660608201520152565b156137d157565b60405162461bcd60e51b815260206004820152601060248201526f496e73756666696369656e742066656560801b6044820152606490fd5b1561381057565b60405162461bcd60e51b815260206004820152600d60248201526c24b73b30b634b2103a37b5b2b760991b6044820152606490fd5b1561384c57565b60405162461bcd60e51b815260206004820152601d60248201527f416d6f756e74206d7573742062652067726561746572207468616e20300000006044820152606490fd5b519081151582036104f057565b909190156138aa575090565b8151156138ba5750805190602001fd5b60405162461bcd60e51b8152602060048201529081906130e0906024830190612f96565b51906001600160a01b03821682036104f057565b81601f820112156104f057805161390881613441565b926139166040519485612eaa565b818452602082840101116104f0576139349160208085019101612f73565b90565b519060ff821682036104f057565b600a8110156104ce5760f81b9052565b92919261396182613441565b9161396f6040519384612eaa565b8294818452818301116104f0578281602093846000960137010152565b1561399357565b60405162461bcd60e51b8152602060048201526011602482015270496e76616c6964207369676e617475726560781b6044820152606490fd5b156139d357565b60405162461bcd60e51b8152602060048201526016602482015275125b9d985b1a59081d1c985b9cd858dd1a5bdb88125160521b6044820152606490fd5b15613a1857565b60405162461bcd60e51b815260206004820152602160248201527f496e73756666696369656e742076616c696461746f72207369676e61747572656044820152607360f81b6064820152608490fd5b9190811015612da55760051b81013590601e19813603018212156104f05701803591906001600160401b0383116104f05760200182360381136104f0579190565b15613aaf57565b60405162461bcd60e51b8152602060048201526013602482015272125b9d985b1a59081d1c985b9cd9995c881251606a1b6044820152606490fd5b60095460405190602082019260018060601b03199060601b168352426034830152605482015260548152613b1d81612e59565b51902090565b805190602081015190600a8210156104ce57604081015190600a8210156104ce57606081015160808201519060a083015160068110156104ce5760c084015191613b9461012060e087015196015196613b8a6040519960208b019b8c5260408b0190613945565b6041890190613945565b60018060601b03199384809260601b16604289015260601b16605687015260f81b606a86015260601b16606b840152607f830152609f820152609f8152613b1d81612e8f565b6040517b0ca2ba3432b932bab69029b4b3b732b21026b2b9b9b0b3b29d05199960211b60208201908152603c808301939093529181529160608301916001600160401b038311848410176104065761393493613c3b93604052519020613d95565b91909160058110156104ce5780613c4f5750565b60018103613c975760405162461bcd60e51b815260206004820152601860248201527745434453413a20696e76616c6964207369676e617475726560401b6044820152606490fd5b60028103613ce45760405162461bcd60e51b815260206004820152601f60248201527f45434453413a20696e76616c6964207369676e6174757265206c656e677468006044820152606490fd5b60038103613d3c5760405162461bcd60e51b815260206004820152602260248201527f45434453413a20696e76616c6964207369676e6174757265202773272076616c604482015261756560f01b6064820152608490fd5b600414613d4557565b60405162461bcd60e51b815260206004820152602260248201527f45434453413a20696e76616c6964207369676e6174757265202776272076616c604482015261756560f01b6064820152608490fd5b906041815114600014613dbf57612d58916020820151906060604084015193015160001a90613dc9565b5050600090600290565b9291906fa2a8918ca85bafe22016d0b997e4df60600160ff1b038311613e685760ff16601b81141580613e5d575b613e51579160809493916020936040519384528484015260408301526060820152600093849182805260015afa15613e445781516001600160a01b03811615613e3e579190565b50600190565b50604051903d90823e3d90fd5b50505050600090600490565b50601c811415613df7565b5050505060009060039056fe537472696e67733a20686578206c656e67746820696e73756666696369656e749e4ffe4db4f8c8e2af565143ed2f5b3eeb0b2a4c2cc9d211e935f785c4a6fc5c2fe25253692dfb21874b70d4401de1b76b7c9535739af5172c04bee2b23814bd416363657373436f6e74726f6c3a206163636f756e7420000000000000000000077a1d526a4ce8a773632ab13b4fbbf1fcc954c3dab26cd27ea0e2a6750da5d7fb4c63731d4193edbc29892546c0334b7d4908d88d1f39b3d3143333406a52240106f0ac0a0c54cbe118c368bdfb84c37418e14170ec176ed6edb9ef0faca397a26469706673582212207678e57674c83202bbb1e3478ae9887e4ec647a2a57287723838811ceb5450d864736f6c634300081400332f8788117e7eff1d82e926ec794901d17c78024a50270940304540a733656f0da6eef7e35abe7026729641147f7915573c7e97b47efa546f5f6e3230263bcb499e4ffe4db4f8c8e2af565143ed2f5b3eeb0b2a4c2cc9d211e935f785c4a6fc5c4da8c8e82a6cdcd021dddec73a637b429d2b0a9b303638f1258ff8a35c3e5d868be0079c531659141344cd1fd0a4f28419497f9722a3daafe3b4186f6b6457e0a2646970667358221220688c6a16d6f8aa9f8f3a68694c7c2b6808380cdfe7ad556e39932916eb71161c64736f6c63430008140033",
  "linkReferences": {},
  "deployedLinkReferences": {}
}