{
  "_format": "hh-sol-artifact-1",
  "contractName": "Settlement",
  "sourceName": "contracts/Settlement.sol",
  "abi": [
    {
      "inputs": [
        {
          "internalType": "address",
          "name": "_invoiceToken",
          "type": "address"
        }
      ],
      "stateMutability": "nonpayable",
      "type": "constructor"
    },
    {
      "anonymous": false,
      "inputs": [
        {
          "indexed": true,
          "internalType": "uint256",
          "name": "tokenId",
          "type": "uint256"
        },
        {
          "indexed": true,
          "internalType": "address",
          "name": "payer",
          "type": "address"
        },
        {
          "indexed": false,
          "internalType": "uint256",
          "name": "amount",
          "type": "uint256"
        },
        {
          "indexed": false,
          "internalType": "uint256",
          "name": "depositTime",
          "type": "uint256"
        }
      ],
      "name": "EscrowDeposited",
      "type": "event"
    },
    {
      "anonymous": false,
      "inputs": [
        {
          "indexed": true,
          "internalType": "address",
          "name": "previousOwner",
          "type": "address"
        },
        {
          "indexed": true,
          "internalType": "address",
          "name": "newOwner",
          "type": "address"
        }
      ],
      "name": "OwnershipTransferred",
      "type": "event"
    },
    {
      "anonymous": false,
      "inputs": [
        {
          "indexed": true,
          "internalType": "uint256",
          "name": "tokenId",
          "type": "uint256"
        },
        {
          "indexed": true,
          "internalType": "address",
          "name": "payer",
          "type": "address"
        },
        {
          "indexed": false,
          "internalType": "uint256",
          "name": "amount",
          "type": "uint256"
        }
      ],
      "name": "PaymentRefunded",
      "type": "event"
    },
    {
      "anonymous": false,
      "inputs": [
        {
          "indexed": true,
          "internalType": "uint256",
          "name": "tokenId",
          "type": "uint256"
        },
        {
          "indexed": true,
          "internalType": "address",
          "name": "recipient",
          "type": "address"
        },
        {
          "indexed": false,
          "internalType": "uint256",
          "name": "amount",
          "type": "uint256"
        }
      ],
      "name": "PaymentReleased",
      "type": "event"
    },
    {
      "inputs": [
        {
          "internalType": "uint256",
          "name": "_tokenId",
          "type": "uint256"
        }
      ],
      "name": "autoReleasePayment",
      "outputs": [],
      "stateMutability": "nonpayable",
      "type": "function"
    },
    {
      "inputs": [
        {
          "internalType": "uint256[]",
          "name": "_tokenIds",
          "type": "uint256[]"
        }
      ],
      "name": "batchAutoRelease",
      "outputs": [],
      "stateMutability": "nonpayable",
      "type": "function"
    },
    {
      "inputs": [
        {
          "internalType": "uint256",
          "name": "_tokenId",
          "type": "uint256"
        }
      ],
      "name": "canAutoRelease",
      "outputs": [
        {
          "internalType": "bool",
          "name": "",
          "type": "bool"
        }
      ],
      "stateMutability": "view",
      "type": "function"
    },
    {
      "inputs": [
        {
          "internalType": "uint256",
          "name": "_tokenId",
          "type": "uint256"
        }
      ],
      "name": "depositPayment",
      "outputs": [],
      "stateMutability": "payable",
      "type": "function"
    },
    {
      "inputs": [
        {
          "internalType": "uint256",
          "name": "_tokenId",
          "type": "uint256"
        }
      ],
      "name": "emergencyRefund",
      "outputs": [],
      "stateMutability": "nonpayable",
      "type": "function"
    },
    {
      "inputs": [
        {
          "internalType": "uint256",
          "name": "",
          "type": "uint256"
        }
      ],
      "name": "escrowDeposits",
      "outputs": [
        {
          "internalType": "uint256",
          "name": "tokenId",
          "type": "uint256"
        },
        {
          "internalType": "address",
          "name": "payer",
          "type": "address"
        },
        {
          "internalType": "uint256",
          "name": "amount",
          "type": "uint256"
        },
        {
          "internalType": "uint256",
          "name": "depositTime",
          "type": "uint256"
        },
        {
          "internalType": "bool",
          "name": "isReleased",
          "type": "bool"
        },
        {
          "internalType": "bool",
          "name": "isRefunded",
          "type": "bool"
        }
      ],
      "stateMutability": "view",
      "type": "function"
    },
    {
      "inputs": [],
      "name": "escrowTimeout",
      "outputs": [
        {
          "internalType": "uint256",
          "name": "",
          "type": "uint256"
        }
      ],
      "stateMutability": "view",
      "type": "function"
    },
    {
      "inputs": [
        {
          "internalType": "uint256",
          "name": "_tokenId",
          "type": "uint256"
        }
      ],
      "name": "getEscrowDeposit",
      "outputs": [
        {
          "components": [
            {
              "internalType": "uint256",
              "name": "tokenId",
              "type": "uint256"
            },
            {
              "internalType": "address",
              "name": "payer",
              "type": "address"
            },
            {
              "internalType": "uint256",
              "name": "amount",
              "type": "uint256"
            },
            {
              "internalType": "uint256",
              "name": "depositTime",
              "type": "uint256"
            },
            {
              "internalType": "bool",
              "name": "isReleased",
              "type": "bool"
            },
            {
              "internalType": "bool",
              "name": "isRefunded",
              "type": "bool"
            }
          ],
          "internalType": "struct Settlement.EscrowDeposit",
          "name": "",
          "type": "tuple"
        }
      ],
      "stateMutability": "view",
      "type": "function"
    },
    {
      "inputs": [
        {
          "internalType": "address",
          "name": "_user",
          "type": "address"
        }
      ],
      "name": "getUserEscrows",
      "outputs": [
        {
          "internalType": "uint256[]",
          "name": "",
          "type": "uint256[]"
        }
      ],
      "stateMutability": "view",
      "type": "function"
    },
    {
      "inputs": [],
      "name": "invoiceToken",
      "outputs": [
        {
          "internalType": "contract InvoiceToken",
          "name": "",
          "type": "address"
        }
      ],
      "stateMutability": "view",
      "type": "function"
    },
    {
      "inputs": [],
      "name": "owner",
      "outputs": [
        {
          "internalType": "address",
          "name": "",
          "type": "address"
        }
      ],
      "stateMutability": "view",
      "type": "function"
    },
    {
      "inputs": [],
      "name": "platformFee",
      "outputs": [
        {
          "internalType": "uint256",
          "name": "",
          "type": "uint256"
        }
      ],
      "stateMutability": "view",
      "type": "function"
    },
    {
      "inputs": [
        {
          "internalType": "uint256",
          "name": "_tokenId",
          "type": "uint256"
        }
      ],
      "name": "refundPayment",
      "outputs": [],
      "stateMutability": "nonpayable",
      "type": "function"
    },
    {
      "inputs": [
        {
          "internalType": "uint256",
          "name": "_tokenId",
          "type": "uint256"
        }
      ],
      "name": "releasePayment",
      "outputs": [],
      "stateMutability": "nonpayable",
      "type": "function"
    },
    {
      "inputs": [],
      "name": "renounceOwnership",
      "outputs": [],
      "stateMutability": "nonpayable",
      "type": "function"
    },
    {
      "inputs": [
        {
          "internalType": "address",
          "name": "newOwner",
          "type": "address"
        }
      ],
      "name": "transferOwnership",
      "outputs": [],
      "stateMutability": "nonpayable",
      "type": "function"
    },
    {
      "inputs": [
        {
          "internalType": "uint256",
          "name": "_newTimeout",
          "type": "uint256"
        }
      ],
      "name": "updateEscrowTimeout",
      "outputs": [],
      "stateMutability": "nonpayable",
      "type": "function"
    },
    {
      "inputs": [
        {
          "internalType": "uint256",
          "name": "_newFee",
          "type": "uint256"
        }
      ],
      "name": "updatePlatformFee",
      "outputs": [],
      "stateMutability": "nonpayable",
      "type": "function"
    },
    {
      "inputs": [
        {
          "internalType": "address",
          "name": "",
          "type": "address"
        },
        {
          "internalType": "uint256",
          "name": "",
          "type": "uint256"
        }
      ],
      "name": "userEscrows",
      "outputs": [
        {
          "internalType": "uint256",
          "name": "",
          "type": "uint256"
        }
      ],
      "stateMutability": "view",
      "type": "function"
    },
    {
      "inputs": [],
      "name": "withdrawFees",
      "outputs": [],
      "stateMutability": "nonpayable",
      "type": "function"
    }
  ],
  "bytecode": "0x6080346100b857601f611bac38819003918201601f19168301916001600160401b038311848410176100bd578084926020946040528339810103126100b857516001600160a01b0390818116908190036100b857600160005560015460018060a01b0319903382821617600155604051933391167f8be0079c531659141344cd1fd0a4f28419497f9722a3daafe3b4186f6b6457e0600080a362278d0060055560646006556002541617600255611ad890816100d48239f35b600080fd5b634e487b7160e01b600052604160045260246000fdfe608080604052600436101561001357600080fd5b600090813560e01c90816326232a2e1461146b5750806345f25e5e1461126d578063464b539114611244578063476343ee146111f457806353fa80c3146111835780635ccea85e146110d5578063605c6d63146110b75780636b749c4714610d9c57806370e5deb914610bda578063715018a614610b8e5780637224479414610ab45780637f944dd014610a5e57806388685cd9146107a25780638da5cb5b14610779578063aa0b598814610719578063b123e606146106f0578063ca51462a146103af578063e84a571c14610336578063f2fde38b146102835763f63813f4146100fd57600080fd5b346102805760203660031901126102805760043560018060a01b0390602483836002541660405192838092631d11e60560e11b82528660048301525afa801561020d576060849161015a93879161025e575b500151161515611759565b61016860028454141561179c565b60028355808352600360205260408320916002830192835480159161018d83156117e8565b60048101908154916101a260ff84161561182e565b6101b260ff8460081c1615611875565b856001541633036102215788936001859493859493610100869561ff001916179055019587875416908390610218575bf11561020d57600080516020611a438339815191529160209154169354604051908152a36001815580f35b6040513d86823e3d90fd5b506108fc6101e2565b60405162461bcd60e51b815260206004820152601560248201527413db9b1e481bdddb995c8818d85b881c99599d5b99605a1b6044820152606490fd5b61027a91503d8089833e610272818361156c565b810190611620565b3861014f565b80fd5b50346102805760203660031901126102805761029d611487565b6102a56114d0565b6001600160a01b039081169081156102e257600180546001600160a01b03198116841790915516600080516020611a63833981519152600080a380f35b60405162461bcd60e51b815260206004820152602660248201527f4f776e61626c653a206e6577206f776e657220697320746865207a65726f206160448201526564647265737360d01b6064820152608490fd5b5034610280576020366003190112610280576004356103536114d0565b62015180811015806103a2575b1561036b5760055580f35b60405162461bcd60e51b815260206004820152600f60248201526e125b9d985b1a59081d1a5b595bdd5d608a1b6044820152606490fd5b506276a700811115610360565b503461028057602036600319011261028057600435906001600160401b038083116106ec57366023840112156106ec5782600401351161028057366024836004013560051b8401011161028057805b8260040135811061040d575080f35b61042861042282856004013560248701611a32565b356118ff565b610452575b600019811461043e576001016103fe565b634e487b7160e01b82526011600452602482fd5b61046481846004013560248601611a32565b3560018060a01b0360025416604051631d11e60560e11b81528260048201528481602481855afa9081156106e15760249392916104b79187916106c7575b50606001516001600160a01b03161515611759565b8185526003602052604085206002810154906104d48215156117e8565b866004820154936104f760ff6104ec8188161561182e565b8660081c1615611875565b60405196878092631d11e60560e11b82528860048301525afa9485156106bc5787956106a0575b50604085015162093a80810180911161068c5742118015610673575b1561062257600460016105659460ff19161791015561271061055e600654836118bc565b04906118e5565b6002549092906001600160a01b0316803b1561061e5785809160446040518094819363799d288f60e01b83528860048401528960248401525af18015610613579086916105fb575b5050606001516001600160a01b0316918481848282156105f2575b839283928392f11561020d576020600080516020611a8383398151915291604051908152a361042d565b506108fc6105c8565b61060490611528565b61060f5784386105ad565b8480fd5b6040513d88823e3d90fd5b8580fd5b60405162461bcd60e51b815260206004820152602360248201527f436f6e646974696f6e73206e6f74206d657420666f72206175746f2d72656c6560448201526261736560e81b6064820152608490fd5b506106856003820154600554906118f2565b421161053a565b634e487b7160e01b88526011600452602488fd5b6106b59195503d8089833e610272818361156c565b933861051e565b6040513d89823e3d90fd5b6106db91503d8089833e610272818361156c565b386104a2565b6040513d87823e3d90fd5b5080fd5b503461028057602036600319011261028057602061070f6004356118ff565b6040519015158152f35b5034610280576020366003190112610280576004356107366114d0565b6101f481116107455760065580f35b60405162461bcd60e51b815260206004820152600c60248201526b08ccaca40e8dede40d0d2ced60a31b6044820152606490fd5b50346102805780600319360112610280576001546040516001600160a01b039091168152602090f35b5034610280576020806003193601126106ec57600254604051631d11e60560e11b808252600480359083018190529290916001600160a01b03918216908681602481855afa80156106bc5760608491610806938a91610a4a57500151161515611759565b61081460028754141561179c565b6002865583865260038552604086209060046002830154926108378415156117e8565b019081549061084960ff83161561182e565b61085960ff8360081c1615611875565b6040519586528660048701528886602481845afa958615610a23578996610a2e575b50878560808801511633149182156109b8575b505080156109ab575b1561095c579060016108ba939260ff191617905561271061055e600654836118bc565b91858260025416803b156106ec5781809160446040518094819363799d288f60e01b83528b60048401528a60248401525af180156109515761093d575b5050606001511692848285828215610934575b839283928392f11561020d57600080516020611a8383398151915291604051908152a36001815580f35b506108fc61090a565b61094690611528565b61061e5785386108f7565b6040513d84823e3d90fd5b60405162461bcd60e51b815260048101889052602160248201527f4e6f7420617574686f72697a656420746f2072656c65617365207061796d656e6044820152601d60fa1b6064820152608490fd5b5083600154163314610897565b6044925060405192838092627eeac760e11b82523360048301528b60248301525afa908115610a235789916109f2575b501515873861088e565b90508781813d8311610a1c575b610a09818361156c565b81010312610a185751386109e8565b8880fd5b503d6109ff565b6040513d8b823e3d90fd5b610a439196503d808b833e610272818361156c565b943861087b565b61027a91503d808c833e610272818361156c565b503461028057604036600319011261028057610a78611487565b6001600160a01b0316815260046020526040812080546024359290831015610280576020610aa684846114a2565b90546040519160031b1c8152f35b50346102805760203660031901126102805760408160c09260a08351610ad981611551565b82815282602082015282858201528260608201528260808201520152600435815260036020522060405190610b0d82611551565b80549182815260018060a01b03918260018201541692602083019384526002820154906040840191825260046003840154936060860194855201549460ff60a0608087019682891615158852019660081c161515865260405196875251166020860152516040850152516060840152511515608083015251151560a0820152f35b5034610280578060031936011261028057610ba76114d0565b600180546001600160a01b031981169091556000906001600160a01b0316600080516020611a638339815191528280a380f35b50346102805760203660031901126102805760043560018060a01b0390602483836002541660405192838092631d11e60560e11b82528660048301525afa801561020d5760608491610c3793879161025e57500151161515611759565b610c4560028454141561179c565b60028355808352600360205260408320916001830181815416338103610d675760028501948554801591610c7983156117e8565b60048101916003835492610c9060ff85161561182e565b610ca060ff8560081c1615611875565b0154600554908160011b9180830460021490151715610d535790610cc3916118f2565b421115610d0e57899485948594610100869561ff001916179055839061021857f11561020d57600080516020611a438339815191529160209154169354604051908152a36001815580f35b60405162461bcd60e51b815260206004820152601d60248201527f456d657267656e63792074696d656f7574206e6f7420726561636865640000006044820152606490fd5b634e487b7160e01b8c52601160045260248cfd5b60405162461bcd60e51b815260206004820152600d60248201526c2737ba103a3432903830bcb2b960991b6044820152606490fd5b506020806003193601126106ec57600254604051631d11e60560e11b80825260048035908301819052926024926001600160a01b0392918316919087818681865afa80156110ac5760608591610dfd938b9161109857500151161515611759565b610e0b60028854141561179c565b60028755341561104657848752600386526002604088200154611007578690846040518094819382528860048301525afa908115610613578691610fed575b50610100810151610fb257513410610f705760405190610e6982611551565b83825260048583019233845260408101348152606082019042825260808301958a875260a08401958b8752898c5260038b5260408c20945185556001850191511660018060a01b031982541617905551600283015551600382015501915115159060ff61ff0084549251151560081b1692169061ffff1916171790553384526004835260408420805491600160401b831015610f5e575090610f10916001820181556114a2565b81549060031b9083821b91600019901b19161790556040519134835242908301527fde5dfac08f391b7fb8d1ed1fb37b69761e9c0c4d12e3b52f6dc8ceac1e72b8a960403393a36001815580f35b634e487b7160e01b8652604160045285fd5b60405162461bcd60e51b815260048101859052601b818401527a125b9cdd59999a58da595b9d081c185e5b595b9d08185b5bdd5b9d602a1b6044820152606490fd5b60405162461bcd60e51b81526004810186905260148185015273125b9d9bda58d948185b1c9958591e481c185a5960621b6044820152606490fd5b61100191503d8088833e610272818361156c565b38610e4a565b60405162461bcd60e51b8152600481018790526018818601527714185e5b595b9d08185b1c9958591e48195cd8dc9bddd95960421b6044820152606490fd5b60405162461bcd60e51b8152600481018790526025818601527f5061796d656e7420616d6f756e74206d75737420626520677265617465722074604482015264068616e20360dc1b6064820152608490fd5b61027a91503d808d833e610272818361156c565b6040513d8a823e3d90fd5b50346102805780600319360112610280576020600554604051908152f35b5034610280576020806003193601126106ec576001600160a01b036110f8611487565b168252600481526040822060405192838383549182815201908193835284832090835b81811061116f575050508461113191038561156c565b60405193838594850191818652518092526040850193925b82811061115857505050500390f35b835185528695509381019392810192600101611149565b82548452928601926001928301920161111b565b503461028057602036600319011261028057604060c091600435815260036020522060ff81549160018060a01b0360018201541690600281015460046003830154920154926040519586526020860152604085015260608401528181161515608084015260081c16151560a0820152f35b503461028057806003193601126102805761120d6114d0565b8080808060018060a01b0360015416479082821561123b575bf11561122f5780f35b604051903d90823e3d90fd5b506108fc611226565b50346102805780600319360112610280576002546040516001600160a01b039091168152602090f35b50346102805760203660031901126102805760043560018060a01b0390816002541691604051631d11e60560e11b908181528360048201528581602481885afa801561061357606084916112cc93899161145757500151161515611759565b8285526003602052604085206002810154906112e98215156117e8565b6004810190878254946112ff60ff87161561182e565b61130f60ff8760081c1615611875565b6024604051809a819382528a60048301525afa9687156110ac57889761143b575b50604087015162093a80810180911161142757421190811561140d575b501561062257600161136f9360ff191617905561271061055e600654836118bc565b92848260025416803b156106ec57819060446040518094819363799d288f60e01b83528960048401528a60248401525af18015610613576113f9575b506060015116918381848282156113f0575b839283928392f1156113e5576020600080516020611a8383398151915291604051908152a380f35b6040513d85823e3d90fd5b506108fc6113bd565b9461140660609296611528565b94906113ab565b61141f915060030154600554906118f2565b42113861134d565b634e487b7160e01b89526011600452602489fd5b6114509197503d808a833e610272818361156c565b9538611330565b61027a91503d808b833e610272818361156c565b9050346106ec57816003193601126106ec576020906006548152f35b600435906001600160a01b038216820361149d57565b600080fd5b80548210156114ba5760005260206000200190600090565b634e487b7160e01b600052603260045260246000fd5b6001546001600160a01b031633036114e457565b606460405162461bcd60e51b815260206004820152602060248201527f4f776e61626c653a2063616c6c6572206973206e6f7420746865206f776e65726044820152fd5b6001600160401b03811161153b57604052565b634e487b7160e01b600052604160045260246000fd5b60c081019081106001600160401b0382111761153b57604052565b601f909101601f19168101906001600160401b0382119082101761153b57604052565b51906001600160a01b038216820361149d57565b919080601f8401121561149d578251906001600160401b03821161153b57604051916020916115db601f8301601f191684018561156c565b81845282828701011161149d5760005b81811061160057508260009394955001015290565b85810183015184820184015282016115eb565b5190811515820361149d57565b9060208282031261149d5781516001600160401b039283821161149d5701906101e092838383031261149d576040519384018481108282111761153b576040528251845260208301516020850152604083015160408501526116846060840161158f565b60608501526116956080840161158f565b608085015260a083015181811161149d57826116b29185016115a3565b60a085015260c083015181811161149d57826116cf9185016115a3565b60c08501526116e060e08401611613565b60e08501526101006116f3818501611613565b908501526101208084015190850152610140918284015191821161149d5761171c9184016115a3565b90830152610160808201519083015261018080820151908301526101a0808201519060ff8216820361149d578301526101c0809101519082015290565b1561176057565b60405162461bcd60e51b8152602060048201526014602482015273151bdad95b88191bd95cc81b9bdd08195e1a5cdd60621b6044820152606490fd5b156117a357565b60405162461bcd60e51b815260206004820152601f60248201527f5265656e7472616e637947756172643a207265656e7472616e742063616c6c006044820152606490fd5b156117ef57565b60405162461bcd60e51b8152602060048201526017602482015276139bc8195cd8dc9bddc819195c1bdcda5d08199bdd5b99604a1b6044820152606490fd5b1561183557565b60405162461bcd60e51b815260206004820152601860248201527714185e5b595b9d08185b1c9958591e481c995b19585cd95960421b6044820152606490fd5b1561187c57565b60405162461bcd60e51b815260206004820152601860248201527714185e5b595b9d08185b1c9958591e481c99599d5b99195960421b6044820152606490fd5b818102929181159184041417156118cf57565b634e487b7160e01b600052601160045260246000fd5b919082039182116118cf57565b919082018092116118cf57565b60008181526003602052604080822092815161191a81611551565b8454815260018060a01b039081600187015416602082015260a060028701548086840152600460038901549860608501998a5201549260ff80851615159485608084015260081c161515928391015215918215611a2a575b508115611a22575b50611a1a57839060025416916024845180948193631d11e60560e11b835260048301525afa908115611a0e5783916119f4575b5001519062093a8082018092116119e0575042119081156119cc575090565b6119db915051600554906118f2565b421190565b634e487b7160e01b81526011600452602490fd5b611a0891503d8085833e610272818361156c565b386119ad565b505051903d90823e3d90fd5b505050905090565b90503861197a565b915038611972565b91908110156114ba5760051b019056fee89ec1881a76229445bcd179b8c4b24f9edc7ddd87d07fb3b19c67ae9c6e27cc8be0079c531659141344cd1fd0a4f28419497f9722a3daafe3b4186f6b6457e021d71db5be59bb9fa133895586b7404307dd33fb93b16db09dc6f1d9d7d231b0a264697066735822122042879ee5e43e9bbd9ee3a929e015dd2c0eaee3e5835afdbb8299455d859cefae64736f6c63430008140033",
  "linkReferences": {},
  "deployedLinkReferences": {}
}