{
  "_format": "hh-sol-artifact-1",
  "contractName": "SimpleFylaroDeployer",
  "sourceName": "contracts/SimpleFylaroDeployer.sol",
  "abi": [
    {
      "inputs": [
        {
          "internalType": "address",
          "name": "_stablecoin",
          "type": "address"
        },
        {
          "internalType": "address",
          "name": "_feeCollector",
          "type": "address"
        },
        {
          "internalType": "address",
          "name": "_treasuryWallet",
          "type": "address"
        }
      ],
      "stateMutability": "nonpayable",
      "type": "constructor"
    },
    {
      "anonymous": false,
      "inputs": [
        {
          "indexed": false,
          "internalType": "address",
          "name": "stablecoin",
          "type": "address"
        },
        {
          "indexed": false,
          "internalType": "address",
          "name": "feeCollector",
          "type": "address"
        },
        {
          "indexed": false,
          "internalType": "address",
          "name": "treasury",
          "type": "address"
        }
      ],
      "name": "ConfigurationUpdated",
      "type": "event"
    },
    {
      "anonymous": false,
      "inputs": [
        {
          "indexed": false,
          "internalType": "string",
          "name": "contractName",
          "type": "string"
        },
        {
          "indexed": false,
          "internalType": "address",
          "name": "contractAddress",
          "type": "address"
        }
      ],
      "name": "ContractRegistered",
      "type": "event"
    },
    {
      "anonymous": false,
      "inputs": [
        {
          "indexed": true,
          "internalType": "address",
          "name": "previousOwner",
          "type": "address"
        },
        {
          "indexed": true,
          "internalType": "address",
          "name": "newOwner",
          "type": "address"
        }
      ],
      "name": "OwnershipTransferred",
      "type": "event"
    },
    {
      "inputs": [
        {
          "internalType": "string[]",
          "name": "names",
          "type": "string[]"
        },
        {
          "internalType": "address[]",
          "name": "addresses",
          "type": "address[]"
        }
      ],
      "name": "batchRegisterContracts",
      "outputs": [],
      "stateMutability": "nonpayable",
      "type": "function"
    },
    {
      "inputs": [
        {
          "internalType": "string",
          "name": "",
          "type": "string"
        }
      ],
      "name": "contracts",
      "outputs": [
        {
          "internalType": "address",
          "name": "",
          "type": "address"
        }
      ],
      "stateMutability": "view",
      "type": "function"
    },
    {
      "inputs": [],
      "name": "feeCollector",
      "outputs": [
        {
          "internalType": "address",
          "name": "",
          "type": "address"
        }
      ],
      "stateMutability": "view",
      "type": "function"
    },
    {
      "inputs": [
        {
          "internalType": "string",
          "name": "name",
          "type": "string"
        }
      ],
      "name": "getContract",
      "outputs": [
        {
          "internalType": "address",
          "name": "",
          "type": "address"
        }
      ],
      "stateMutability": "view",
      "type": "function"
    },
    {
      "inputs": [],
      "name": "getEcosystemInfo",
      "outputs": [
        {
          "internalType": "address",
          "name": "_stablecoin",
          "type": "address"
        },
        {
          "internalType": "address",
          "name": "_feeCollector",
          "type": "address"
        },
        {
          "internalType": "address",
          "name": "_treasuryWallet",
          "type": "address"
        },
        {
          "internalType": "address",
          "name": "_invoiceToken",
          "type": "address"
        },
        {
          "internalType": "address",
          "name": "_marketplace",
          "type": "address"
        }
      ],
      "stateMutability": "view",
      "type": "function"
    },
    {
      "inputs": [],
      "name": "owner",
      "outputs": [
        {
          "internalType": "address",
          "name": "",
          "type": "address"
        }
      ],
      "stateMutability": "view",
      "type": "function"
    },
    {
      "inputs": [
        {
          "internalType": "string",
          "name": "name",
          "type": "string"
        },
        {
          "internalType": "address",
          "name": "contractAddress",
          "type": "address"
        }
      ],
      "name": "registerContract",
      "outputs": [],
      "stateMutability": "nonpayable",
      "type": "function"
    },
    {
      "inputs": [],
      "name": "renounceOwnership",
      "outputs": [],
      "stateMutability": "nonpayable",
      "type": "function"
    },
    {
      "inputs": [],
      "name": "stablecoin",
      "outputs": [
        {
          "internalType": "address",
          "name": "",
          "type": "address"
        }
      ],
      "stateMutability": "view",
      "type": "function"
    },
    {
      "inputs": [
        {
          "internalType": "address",
          "name": "newOwner",
          "type": "address"
        }
      ],
      "name": "transferOwnership",
      "outputs": [],
      "stateMutability": "nonpayable",
      "type": "function"
    },
    {
      "inputs": [],
      "name": "treasuryWallet",
      "outputs": [
        {
          "internalType": "address",
          "name": "",
          "type": "address"
        }
      ],
      "stateMutability": "view",
      "type": "function"
    },
    {
      "inputs": [
        {
          "internalType": "address",
          "name": "_stablecoin",
          "type": "address"
        },
        {
          "internalType": "address",
          "name": "_feeCollector",
          "type": "address"
        },
        {
          "internalType": "address",
          "name": "_treasuryWallet",
          "type": "address"
        }
      ],
      "name": "updateConfiguration",
      "outputs": [],
      "stateMutability": "nonpayable",
      "type": "function"
    }
  ],
  "bytecode": "0x6080346101a657601f610bc338819003918201601f191683019291906001600160401b038411838510176101ab5781606092849260409687528339810103126101a65761004b816101c1565b906100638361005c602084016101c1565b92016101c1565b60008054336001600160a01b03198083168217845587519690956001600160a01b03949093859391908416907f8be0079c531659141344cd1fd0a4f28419497f9722a3daafe3b4186f6b6457e09080a31694851561016f5750811691821561012b57169283156100f4578260025416176002558160035416176003556004541617600455516109ed90816101d68239f35b845162461bcd60e51b815260206004820152601060248201526f496e76616c696420747265617375727960801b6044820152606490fd5b855162461bcd60e51b815260206004820152601560248201527f496e76616c69642066656520636f6c6c6563746f7200000000000000000000006044820152606490fd5b62461bcd60e51b815260206004820152601260248201527124b73b30b634b21039ba30b13632b1b7b4b760711b6044820152606490fd5b600080fd5b634e487b7160e01b600052604160045260246000fd5b51906001600160a01b03821682036101a65756fe6040608081526004908136101561001557600080fd5b600091823560e01c806335817773146104915780634626402b146107525780636e9d98c5146105ed578063715018a6146105a55780637f3c2c28146104f95780638c5b8385146104915780638da5cb5b146104695780638ef768e914610234578063b83828f5146101ae578063c415b95c14610185578063e9cbd822146101585763f2fde38b146100a557600080fd5b34610154576020366003190112610154576100be61080b565b906100c7610871565b6001600160a01b0391821692831561010257505082546001600160a01b0319811683178455166000805160206109788339815191528380a380f35b906020608492519162461bcd60e51b8352820152602660248201527f4f776e61626c653a206e6577206f776e657220697320746865207a65726f206160448201526564647265737360d01b6064820152fd5b8280fd5b50503461018157816003193601126101815760025490516001600160a01b039091168152602090f35b5080fd5b50503461018157816003193601126101815760035490516001600160a01b039091168152602090f35b503461015457826003193601126101545760a09250600180841b038060025416928180600354169354169082602c82516b24b73b37b4b1b2aa37b5b2b760a11b81526001600c82015220541692602b82516a4d61726b6574706c61636560a81b81526001600b820152205416938151958652602086015284015260608301526080820152f35b5082346104665782600319360112610466576001600160401b039282359290848411610154573660238501121561015457838201359461027b6102768761085a565b610779565b809587825260208092016024809960051b8301019136831161043457898101915b83831061043c5750505050863591821161043857366023830112156104385781840135916102cc6102768461085a565b92888385838152019160051b83010191368311610434578901905b828210610411575050506102f9610871565b85518251036103d757845b86518110156103d3576000805160206109988339815191526001600160a01b0361033b81610332858861094d565b511615156108c9565b80610346848761094d565b511661036985610356868d61094d565b51818a5193828580945193849201610837565b60019082019081520301902080546001600160a01b0319169091179055610390838a61094d565b519061039c848761094d565b5116906103ad875192839283610910565b0390a160001981146103c157600101610304565b634e487b7160e01b8652601185528786fd5b8580f35b8360168860649386519362461bcd60e51b855284015282015275082e4e4c2f2e640d8cadccee8d040dad2e6dac2e8c6d60531b6044820152fd5b81356001600160a01b03811681036104305781529083019083016102e7565b8880fd5b8780fd5b8480fd5b823586811161046257859161045783928e36918701016107b4565b81520192019161029c565b8980fd5b80fd5b505034610181578160031936011261018157905490516001600160a01b039091168152602090f35b509134610466576020366003190112610466578235906001600160401b03821161046657506020926104c5913691016107b4565b826104d883519283815193849201610837565b6001908201908152819003830190205490516001600160a01b039091168152f35b50903461015457806003193601126101545781356001600160401b0381116105a15760008051602061099883398151915292610537913691016107b4565b61059b610542610821565b9261054b610871565b6001600160a01b0384166105608115156108c9565b815160208186516105748183858b01610837565b60019082019081520301902080546001600160a01b03191690911790555192839283610910565b0390a180f35b8380fd5b83346104665780600319360112610466576105be610871565b80546001600160a01b03198116825581906001600160a01b03166000805160206109788339815191528280a380f35b5090346101545760603660031901126101545761060861080b565b90610611610821565b926001600160a01b03604435818116949085900361074e578190610633610871565b1694851561071657169081156106db5783156106a557600280546001600160a01b031990811687179091556003805482168417905581541684179055815193845260208401528201527fb3fc5b8fa795a14232efd69faeabfa4d6ae1add7013b9ba01c3ffbda68dc4fba90606090a180f35b606490602084519162461bcd60e51b8352820152601060248201526f496e76616c696420747265617375727960801b6044820152fd5b606490602084519162461bcd60e51b8352820152601560248201527424b73b30b634b2103332b29031b7b63632b1ba37b960591b6044820152fd5b835162461bcd60e51b8152602081850152601260248201527124b73b30b634b21039ba30b13632b1b7b4b760711b6044820152606490fd5b8680fd5b50346101545782600319360112610154575490516001600160a01b03909116815260209150f35b6040519190601f01601f191682016001600160401b0381118382101761079e57604052565b634e487b7160e01b600052604160045260246000fd5b81601f82011215610806578035906001600160401b03821161079e576107e3601f8301601f1916602001610779565b928284526020838301011161080657816000926020809301838601378301015290565b600080fd5b600435906001600160a01b038216820361080657565b602435906001600160a01b038216820361080657565b60005b83811061084a5750506000910152565b818101518382015260200161083a565b6001600160401b03811161079e5760051b60200190565b6000546001600160a01b0316330361088557565b606460405162461bcd60e51b815260206004820152602060248201527f4f776e61626c653a2063616c6c6572206973206e6f7420746865206f776e65726044820152fd5b156108d057565b60405162461bcd60e51b8152602060048201526018602482015277496e76616c696420636f6e7472616374206164647265737360401b6044820152606490fd5b9060606020919493946040845261093581518092816040880152858588019101610837565b601f80199101168301019360018060a01b0316910152565b80518210156109615760209160051b010190565b634e487b7160e01b600052603260045260246000fdfe8be0079c531659141344cd1fd0a4f28419497f9722a3daafe3b4186f6b6457e02a88e68a891ddb61f7aebfdeefd9fb74964fcd5371b692ea59cca73fc58f4805a26469706673582212201c04f50c0dc2ef7bf8f2c0ee64bc5dfcc1d9080417eebc9282078a6a89fa83bc64736f6c63430008140033",
  "linkReferences": {},
  "deployedLinkReferences": {}
}