{
  "_format": "hh-sol-artifact-1",
  "contractName": "FinternentGateway",
  "sourceName": "contracts/FinternentGateway.sol",
  "abi": [
    {
      "inputs": [
        {
          "internalType": "address",
          "name": "_stablecoin",
          "type": "address"
        }
      ],
      "stateMutability": "nonpayable",
      "type": "constructor"
    },
    {
      "anonymous": false,
      "inputs": [
        {
          "indexed": true,
          "internalType": "string",
          "name": "contractType",
          "type": "string"
        },
        {
          "indexed": true,
          "internalType": "address",
          "name": "contractAddress",
          "type": "address"
        },
        {
          "indexed": false,
          "internalType": "string",
          "name": "version",
          "type": "string"
        }
      ],
      "name": "ContractRegistered",
      "type": "event"
    },
    {
      "anonymous": false,
      "inputs": [
        {
          "indexed": true,
          "internalType": "string",
          "name": "contractType",
          "type": "string"
        },
        {
          "indexed": true,
          "internalType": "address",
          "name": "contractAddress",
          "type": "address"
        },
        {
          "indexed": false,
          "internalType": "string",
          "name": "version",
          "type": "string"
        }
      ],
      "name": "ContractUpdated",
      "type": "event"
    },
    {
      "anonymous": false,
      "inputs": [
        {
          "indexed": false,
          "internalType": "string",
          "name": "operationType",
          "type": "string"
        },
        {
          "indexed": true,
          "internalType": "address",
          "name": "initiator",
          "type": "address"
        },
        {
          "indexed": true,
          "internalType": "uint256",
          "name": "operationId",
          "type": "uint256"
        }
      ],
      "name": "CrossChainOperationInitiated",
      "type": "event"
    },
    {
      "anonymous": false,
      "inputs": [
        {
          "indexed": true,
          "internalType": "string",
          "name": "feeType",
          "type": "string"
        },
        {
          "indexed": false,
          "internalType": "uint256",
          "name": "feeAmount",
          "type": "uint256"
        },
        {
          "indexed": false,
          "internalType": "bool",
          "name": "isPercentage",
          "type": "bool"
        }
      ],
      "name": "FeeConfigUpdated",
      "type": "event"
    },
    {
      "anonymous": false,
      "inputs": [
        {
          "indexed": true,
          "internalType": "address",
          "name": "from",
          "type": "address"
        },
        {
          "indexed": true,
          "internalType": "address",
          "name": "to",
          "type": "address"
        },
        {
          "indexed": false,
          "internalType": "uint256",
          "name": "amount",
          "type": "uint256"
        },
        {
          "indexed": false,
          "internalType": "string",
          "name": "purpose",
          "type": "string"
        }
      ],
      "name": "FundsTransferred",
      "type": "event"
    },
    {
      "anonymous": false,
      "inputs": [
        {
          "indexed": true,
          "internalType": "uint256",
          "name": "invoiceId",
          "type": "uint256"
        },
        {
          "indexed": true,
          "internalType": "address",
          "name": "issuer",
          "type": "address"
        },
        {
          "indexed": false,
          "internalType": "string",
          "name": "action",
          "type": "string"
        }
      ],
      "name": "InvoiceProcessed",
      "type": "event"
    },
    {
      "anonymous": false,
      "inputs": [
        {
          "indexed": true,
          "internalType": "bytes32",
          "name": "role",
          "type": "bytes32"
        },
        {
          "indexed": true,
          "internalType": "bytes32",
          "name": "previousAdminRole",
          "type": "bytes32"
        },
        {
          "indexed": true,
          "internalType": "bytes32",
          "name": "newAdminRole",
          "type": "bytes32"
        }
      ],
      "name": "RoleAdminChanged",
      "type": "event"
    },
    {
      "anonymous": false,
      "inputs": [
        {
          "indexed": true,
          "internalType": "bytes32",
          "name": "role",
          "type": "bytes32"
        },
        {
          "indexed": true,
          "internalType": "address",
          "name": "account",
          "type": "address"
        },
        {
          "indexed": true,
          "internalType": "address",
          "name": "sender",
          "type": "address"
        }
      ],
      "name": "RoleGranted",
      "type": "event"
    },
    {
      "anonymous": false,
      "inputs": [
        {
          "indexed": true,
          "internalType": "bytes32",
          "name": "role",
          "type": "bytes32"
        },
        {
          "indexed": true,
          "internalType": "address",
          "name": "account",
          "type": "address"
        },
        {
          "indexed": true,
          "internalType": "address",
          "name": "sender",
          "type": "address"
        }
      ],
      "name": "RoleRevoked",
      "type": "event"
    },
    {
      "anonymous": false,
      "inputs": [
        {
          "indexed": true,
          "internalType": "address",
          "name": "userAddress",
          "type": "address"
        },
        {
          "indexed": false,
          "internalType": "string",
          "name": "role",
          "type": "string"
        },
        {
          "indexed": false,
          "internalType": "bool",
          "name": "isVerified",
          "type": "bool"
        }
      ],
      "name": "UserRegistered",
      "type": "event"
    },
    {
      "anonymous": false,
      "inputs": [
        {
          "indexed": true,
          "internalType": "address",
          "name": "userAddress",
          "type": "address"
        },
        {
          "indexed": false,
          "internalType": "string",
          "name": "role",
          "type": "string"
        },
        {
          "indexed": false,
          "internalType": "bool",
          "name": "isActive",
          "type": "bool"
        }
      ],
      "name": "UserUpdated",
      "type": "event"
    },
    {
      "inputs": [],
      "name": "DEFAULT_ADMIN_ROLE",
      "outputs": [
        {
          "internalType": "bytes32",
          "name": "",
          "type": "bytes32"
        }
      ],
      "stateMutability": "view",
      "type": "function"
    },
    {
      "inputs": [],
      "name": "MANAGER_ROLE",
      "outputs": [
        {
          "internalType": "bytes32",
          "name": "",
          "type": "bytes32"
        }
      ],
      "stateMutability": "view",
      "type": "function"
    },
    {
      "inputs": [],
      "name": "OPERATOR_ROLE",
      "outputs": [
        {
          "internalType": "bytes32",
          "name": "",
          "type": "bytes32"
        }
      ],
      "stateMutability": "view",
      "type": "function"
    },
    {
      "inputs": [],
      "name": "REGISTRY_ROLE",
      "outputs": [
        {
          "internalType": "bytes32",
          "name": "",
          "type": "bytes32"
        }
      ],
      "stateMutability": "view",
      "type": "function"
    },
    {
      "inputs": [
        {
          "internalType": "uint256",
          "name": "invoiceId",
          "type": "uint256"
        }
      ],
      "name": "assessInvoiceRisk",
      "outputs": [
        {
          "internalType": "uint256",
          "name": "assessmentId",
          "type": "uint256"
        }
      ],
      "stateMutability": "nonpayable",
      "type": "function"
    },
    {
      "inputs": [
        {
          "internalType": "string",
          "name": "",
          "type": "string"
        }
      ],
      "name": "contracts",
      "outputs": [
        {
          "internalType": "address",
          "name": "",
          "type": "address"
        }
      ],
      "stateMutability": "view",
      "type": "function"
    },
    {
      "inputs": [],
      "name": "creditScoring",
      "outputs": [
        {
          "internalType": "contract CreditScoring",
          "name": "",
          "type": "address"
        }
      ],
      "stateMutability": "view",
      "type": "function"
    },
    {
      "inputs": [
        {
          "internalType": "uint256",
          "name": "amount",
          "type": "uint256"
        }
      ],
      "name": "depositToLiquidityPool",
      "outputs": [
        {
          "internalType": "uint256",
          "name": "lpTokens",
          "type": "uint256"
        }
      ],
      "stateMutability": "nonpayable",
      "type": "function"
    },
    {
      "inputs": [
        {
          "internalType": "string",
          "name": "",
          "type": "string"
        }
      ],
      "name": "fees",
      "outputs": [
        {
          "internalType": "string",
          "name": "feeType",
          "type": "string"
        },
        {
          "internalType": "uint256",
          "name": "feeAmount",
          "type": "uint256"
        },
        {
          "internalType": "bool",
          "name": "isPercentage",
          "type": "bool"
        },
        {
          "internalType": "address",
          "name": "recipient",
          "type": "address"
        }
      ],
      "stateMutability": "view",
      "type": "function"
    },
    {
      "inputs": [
        {
          "internalType": "uint256",
          "name": "invoiceId",
          "type": "uint256"
        },
        {
          "internalType": "uint256",
          "name": "amount",
          "type": "uint256"
        }
      ],
      "name": "financeInvoice",
      "outputs": [
        {
          "internalType": "bool",
          "name": "success",
          "type": "bool"
        }
      ],
      "stateMutability": "nonpayable",
      "type": "function"
    },
    {
      "inputs": [
        {
          "internalType": "uint256",
          "name": "invoiceId",
          "type": "uint256"
        }
      ],
      "name": "getInvoiceInfo",
      "outputs": [
        {
          "internalType": "address",
          "name": "issuer",
          "type": "address"
        },
        {
          "internalType": "uint256",
          "name": "totalValue",
          "type": "uint256"
        },
        {
          "internalType": "bool",
          "name": "isVerified",
          "type": "bool"
        },
        {
          "internalType": "uint256",
          "name": "dueDate",
          "type": "uint256"
        },
        {
          "internalType": "address",
          "name": "debtor",
          "type": "address"
        },
        {
          "internalType": "string",
          "name": "industry",
          "type": "string"
        }
      ],
      "stateMutability": "view",
      "type": "function"
    },
    {
      "inputs": [
        {
          "internalType": "uint256",
          "name": "invoiceId",
          "type": "uint256"
        }
      ],
      "name": "getPaymentSchedule",
      "outputs": [
        {
          "internalType": "uint256",
          "name": "expectedAmount",
          "type": "uint256"
        },
        {
          "internalType": "uint256",
          "name": "dueDate",
          "type": "uint256"
        },
        {
          "internalType": "uint256",
          "name": "gracePeriod",
          "type": "uint256"
        },
        {
          "internalType": "address",
          "name": "debtor",
          "type": "address"
        },
        {
          "internalType": "uint8",
          "name": "status",
          "type": "uint8"
        },
        {
          "internalType": "bool",
          "name": "settled",
          "type": "bool"
        }
      ],
      "stateMutability": "view",
      "type": "function"
    },
    {
      "inputs": [
        {
          "internalType": "uint256",
          "name": "invoiceId",
          "type": "uint256"
        }
      ],
      "name": "getRiskAssessment",
      "outputs": [
        {
          "internalType": "uint8",
          "name": "riskScore",
          "type": "uint8"
        },
        {
          "internalType": "uint8",
          "name": "defaultProbability",
          "type": "uint8"
        },
        {
          "internalType": "uint8",
          "name": "recoveryRate",
          "type": "uint8"
        },
        {
          "internalType": "uint16",
          "name": "recommendedInterestRate",
          "type": "uint16"
        },
        {
          "internalType": "bool",
          "name": "isApproved",
          "type": "bool"
        },
        {
          "internalType": "string",
          "name": "riskCategory",
          "type": "string"
        }
      ],
      "stateMutability": "view",
      "type": "function"
    },
    {
      "inputs": [
        {
          "internalType": "bytes32",
          "name": "role",
          "type": "bytes32"
        }
      ],
      "name": "getRoleAdmin",
      "outputs": [
        {
          "internalType": "bytes32",
          "name": "",
          "type": "bytes32"
        }
      ],
      "stateMutability": "view",
      "type": "function"
    },
    {
      "inputs": [
        {
          "internalType": "address",
          "name": "userAddress",
          "type": "address"
        }
      ],
      "name": "getUserStatus",
      "outputs": [
        {
          "internalType": "string",
          "name": "role",
          "type": "string"
        },
        {
          "internalType": "bool",
          "name": "isVerified",
          "type": "bool"
        },
        {
          "internalType": "bool",
          "name": "isActive",
          "type": "bool"
        },
        {
          "internalType": "uint256",
          "name": "registeredAt",
          "type": "uint256"
        },
        {
          "internalType": "uint256",
          "name": "lastActiveAt",
          "type": "uint256"
        }
      ],
      "stateMutability": "view",
      "type": "function"
    },
    {
      "inputs": [
        {
          "internalType": "bytes32",
          "name": "role",
          "type": "bytes32"
        },
        {
          "internalType": "address",
          "name": "account",
          "type": "address"
        }
      ],
      "name": "grantRole",
      "outputs": [],
      "stateMutability": "nonpayable",
      "type": "function"
    },
    {
      "inputs": [
        {
          "internalType": "bytes32",
          "name": "role",
          "type": "bytes32"
        },
        {
          "internalType": "address",
          "name": "account",
          "type": "address"
        }
      ],
      "name": "hasRole",
      "outputs": [
        {
          "internalType": "bool",
          "name": "",
          "type": "bool"
        }
      ],
      "stateMutability": "view",
      "type": "function"
    },
    {
      "inputs": [],
      "name": "invoiceToken",
      "outputs": [
        {
          "internalType": "contract InvoiceToken",
          "name": "",
          "type": "address"
        }
      ],
      "stateMutability": "view",
      "type": "function"
    },
    {
      "inputs": [],
      "name": "liquidityPool",
      "outputs": [
        {
          "internalType": "contract LiquidityPool",
          "name": "",
          "type": "address"
        }
      ],
      "stateMutability": "view",
      "type": "function"
    },
    {
      "inputs": [],
      "name": "marketplace",
      "outputs": [
        {
          "internalType": "contract InvoiceMarketplace",
          "name": "",
          "type": "address"
        }
      ],
      "stateMutability": "view",
      "type": "function"
    },
    {
      "inputs": [],
      "name": "paymentTracker",
      "outputs": [
        {
          "internalType": "contract PaymentTracker",
          "name": "",
          "type": "address"
        }
      ],
      "stateMutability": "view",
      "type": "function"
    },
    {
      "inputs": [
        {
          "internalType": "string",
          "name": "",
          "type": "string"
        },
        {
          "internalType": "uint256",
          "name": "totalValue",
          "type": "uint256"
        },
        {
          "internalType": "uint256",
          "name": "dueDate",
          "type": "uint256"
        },
        {
          "internalType": "address",
          "name": "",
          "type": "address"
        },
        {
          "internalType": "string",
          "name": "",
          "type": "string"
        }
      ],
      "name": "processInvoice",
      "outputs": [
        {
          "internalType": "uint256",
          "name": "invoiceId",
          "type": "uint256"
        }
      ],
      "stateMutability": "nonpayable",
      "type": "function"
    },
    {
      "inputs": [
        {
          "internalType": "uint256",
          "name": "invoiceId",
          "type": "uint256"
        },
        {
          "internalType": "uint256",
          "name": "amount",
          "type": "uint256"
        },
        {
          "internalType": "uint8",
          "name": "paymentMethod",
          "type": "uint8"
        },
        {
          "internalType": "string",
          "name": "externalRef",
          "type": "string"
        }
      ],
      "name": "recordPayment",
      "outputs": [
        {
          "internalType": "uint256",
          "name": "paymentId",
          "type": "uint256"
        }
      ],
      "stateMutability": "nonpayable",
      "type": "function"
    },
    {
      "inputs": [
        {
          "internalType": "string",
          "name": "contractType",
          "type": "string"
        },
        {
          "internalType": "address payable",
          "name": "contractAddress",
          "type": "address"
        },
        {
          "internalType": "string",
          "name": "version",
          "type": "string"
        }
      ],
      "name": "registerContract",
      "outputs": [
        {
          "internalType": "bool",
          "name": "success",
          "type": "bool"
        }
      ],
      "stateMutability": "nonpayable",
      "type": "function"
    },
    {
      "inputs": [
        {
          "internalType": "address",
          "name": "userAddress",
          "type": "address"
        },
        {
          "internalType": "string",
          "name": "role",
          "type": "string"
        },
        {
          "internalType": "bool",
          "name": "isVerified",
          "type": "bool"
        }
      ],
      "name": "registerUser",
      "outputs": [
        {
          "internalType": "bool",
          "name": "success",
          "type": "bool"
        }
      ],
      "stateMutability": "nonpayable",
      "type": "function"
    },
    {
      "inputs": [
        {
          "internalType": "bytes32",
          "name": "role",
          "type": "bytes32"
        },
        {
          "internalType": "address",
          "name": "account",
          "type": "address"
        }
      ],
      "name": "renounceRole",
      "outputs": [],
      "stateMutability": "nonpayable",
      "type": "function"
    },
    {
      "inputs": [
        {
          "internalType": "bytes32",
          "name": "role",
          "type": "bytes32"
        },
        {
          "internalType": "address",
          "name": "account",
          "type": "address"
        }
      ],
      "name": "revokeRole",
      "outputs": [],
      "stateMutability": "nonpayable",
      "type": "function"
    },
    {
      "inputs": [],
      "name": "riskAssessment",
      "outputs": [
        {
          "internalType": "contract RiskAssessment",
          "name": "",
          "type": "address"
        }
      ],
      "stateMutability": "view",
      "type": "function"
    },
    {
      "inputs": [
        {
          "internalType": "uint256",
          "name": "invoiceId",
          "type": "uint256"
        },
        {
          "internalType": "uint256",
          "name": "expectedAmount",
          "type": "uint256"
        },
        {
          "internalType": "uint256",
          "name": "dueDate",
          "type": "uint256"
        },
        {
          "internalType": "uint256",
          "name": "gracePeriod",
          "type": "uint256"
        }
      ],
      "name": "setupPaymentTracking",
      "outputs": [
        {
          "internalType": "bool",
          "name": "success",
          "type": "bool"
        }
      ],
      "stateMutability": "nonpayable",
      "type": "function"
    },
    {
      "inputs": [],
      "name": "stablecoin",
      "outputs": [
        {
          "internalType": "address",
          "name": "",
          "type": "address"
        }
      ],
      "stateMutability": "view",
      "type": "function"
    },
    {
      "inputs": [
        {
          "internalType": "bytes4",
          "name": "interfaceId",
          "type": "bytes4"
        }
      ],
      "name": "supportsInterface",
      "outputs": [
        {
          "internalType": "bool",
          "name": "",
          "type": "bool"
        }
      ],
      "stateMutability": "view",
      "type": "function"
    },
    {
      "inputs": [
        {
          "internalType": "uint256",
          "name": "invoiceId",
          "type": "uint256"
        },
        {
          "internalType": "uint8",
          "name": "destinationChain",
          "type": "uint8"
        }
      ],
      "name": "transferInvoiceToChain",
      "outputs": [
        {
          "internalType": "uint256",
          "name": "transferId",
          "type": "uint256"
        }
      ],
      "stateMutability": "payable",
      "type": "function"
    },
    {
      "inputs": [],
      "name": "unifiedLedger",
      "outputs": [
        {
          "internalType": "contract UnifiedLedger",
          "name": "",
          "type": "address"
        }
      ],
      "stateMutability": "view",
      "type": "function"
    },
    {
      "inputs": [
        {
          "internalType": "string",
          "name": "feeType",
          "type": "string"
        },
        {
          "internalType": "uint256",
          "name": "feeAmount",
          "type": "uint256"
        },
        {
          "internalType": "bool",
          "name": "isPercentage",
          "type": "bool"
        },
        {
          "internalType": "address",
          "name": "recipient",
          "type": "address"
        }
      ],
      "name": "updateFeeConfig",
      "outputs": [
        {
          "internalType": "bool",
          "name": "success",
          "type": "bool"
        }
      ],
      "stateMutability": "nonpayable",
      "type": "function"
    },
    {
      "inputs": [
        {
          "internalType": "address",
          "name": "",
          "type": "address"
        }
      ],
      "name": "users",
      "outputs": [
        {
          "internalType": "address",
          "name": "userAddress",
          "type": "address"
        },
        {
          "internalType": "string",
          "name": "role",
          "type": "string"
        },
        {
          "internalType": "bool",
          "name": "isVerified",
          "type": "bool"
        },
        {
          "internalType": "bool",
          "name": "isActive",
          "type": "bool"
        },
        {
          "internalType": "uint256",
          "name": "registeredAt",
          "type": "uint256"
        },
        {
          "internalType": "uint256",
          "name": "lastActiveAt",
          "type": "uint256"
        }
      ],
      "stateMutability": "view",
      "type": "function"
    },
    {
      "inputs": [
        {
          "internalType": "uint256",
          "name": "invoiceId",
          "type": "uint256"
        }
      ],
      "name": "verifyInvoice",
      "outputs": [
        {
          "internalType": "bool",
          "name": "success",
          "type": "bool"
        }
      ],
      "stateMutability": "nonpayable",
      "type": "function"
    },
    {
      "inputs": [
        {
          "internalType": "uint256",
          "name": "lpTokenAmount",
          "type": "uint256"
        }
      ],
      "name": "withdrawFromLiquidityPool",
      "outputs": [
        {
          "internalType": "uint256",
          "name": "withdrawnAmount",
          "type": "uint256"
        }
      ],
      "stateMutability": "nonpayable",
      "type": "function"
    },
    {
      "stateMutability": "payable",
      "type": "receive"
    }
  ],
  "bytecode": "0x608034620009bb57601f1990601f620045943881900382810185168401936001600160401b0392909183861183871017620009c05780839260409788528339602092839181010312620009bb57516001600160a01b03811690819003620009bb5760019360009185835580156200097757600980546001600160a01b03191691909117905581805284835285822033835283528582205460ff161562000940575b7f241ecf16d79d0f8dbfb92cbc07fe17840425976cf0667f022fe9877caa831b08808352858452868320338452845260ff87842054161562000907575b507f97667070c54ef182b0f5858b034beac1b6f3089aa2d3188bb1e8929f4fa9b929808352858452868320338452845260ff878420541615620008ce575b507fc2979137d1774e40fe2638d355bf7a7b092be4c67f242aad1655e1e27f9df9cc808352858452868320338452845260ff87842054161562000895575b5062000164620009d6565b90600882526769737375616e636560c01b8483015286518481620001898186620009f6565b600c815203019020978251868111620008815789548881811c9116801562000876575b8782101462000862578381116200081a575b5085838211600114620007b55799816002928b9c889c9b9c91620007a9575b50600019600383901b1c1916908b1b1781555b60648a820155018054610100600160a81b033360081b166001600160a81b031991821681178b1790925588519094919391819062000230908290620009f6565b0390208851606481528a888201527fa5e32259185fb502078246fd3196ba8f57e17c171f68d7bf52d60c4f993ddabb998a91a26200026d620009d6565b600781526674726164696e6760c81b878201528a518781620002908185620009f6565b600c8152030190208151898111620006c25781548c81811c911680156200079e575b8a821014620006a35784811162000756575b508b89858311600114620006e257918080620003159695936002958d93620006d6575b501b916000199060031b1c19161781555b60328d820155018b8688835416171790558b5191828092620009f6565b039020888b8051603281528c8a820152a262000330620009d6565b600c81526b3b32b934b334b1b0ba34b7b760a11b878201528a518781620003588185620009f6565b600c8152030190208151898111620006c25781548c81811c91168015620006b7575b8a821014620006a3578481116200065b575b508b89858311600114620005e757918080620003db9695936002958d93620005db575b501b916000199060031b1c19161781555b60c88d8201550185878254161790558b5191828092620009f6565b039020888b805160c88152888a820152a2620003f6620009d6565b94600a8652691cd95d1d1b195b595b9d60b21b878701528a5187816200041d818a620009f6565b600c815203019020928651988911620005c75783548b81811c91168015620005bc575b89821014620005a857918391838e9a999897958e97951162000546575b5088928b11600114620004d65750988060029392620004ad999a9b91620004ca575b50600019600383901b1c191690851b1781555b601984820155019283541617179055835191828092620009f6565b0390209382519160198352820152a251613b50908162000a248239f35b9050870151386200047f565b8a939a929192168a8352888320925b8181106200052b575092620004ad98999a928692826002961062000511575b5050811b01815562000492565b89015160001960f88460031b161c19169055388062000504565b8883015184558e9a508d9690930192918901918901620004e5565b9184965080949193959798999a505288832084808c0160051c8201928b8d106200059e575b918f9b9a9998968f9896949295930160051c01905b8181106200058f57506200045d565b8381558f9b508e970162000580565b925081926200056b565b634e487b7160e01b83526022600452602483fd5b90607f169062000440565b634e487b7160e01b82526041600452602482fd5b870151925038620003af565b868392931690848b528b8b20918b5b8d8282106200063d575050918391620003db979694600296941062000623575b5050811b018155620003c0565b86015160001960f88460031b161c19169055388062000616565b91929495829194868a015181550194019201908f94939291620005f6565b8289528989208580840160051c8201928c851062000699575b0160051c01908d905b8281106200068d5750506200038c565b8a8155018d906200067d565b9250819262000674565b634e487b7160e01b89526022600452602489fd5b90607f16906200037a565b634e487b7160e01b88526041600452602488fd5b870151925038620002e7565b868392931690848b528b8b20918b5b8d828210620007385750509183916200031597969460029694106200071e575b5050811b018155620002f8565b86015160001960f88460031b161c19169055388062000711565b91929495829194868a015181550194019201908f94939291620006f1565b8289528989208580840160051c8201928c851062000794575b0160051c01908d905b82811062000788575050620002c4565b8a8155018d9062000778565b925081926200076f565b90607f1690620002b2565b905086015138620001dd565b8a865286862090828416875b818110620008045750928b9c928b9c9b928260029610620007ea575b5050811b018155620001f0565b88015160001960f88460031b161c191690553880620007dd565b878301518455928b0192918901918901620007c1565b8a86528686208480840160051c82019289851062000858575b0160051c019089905b8281106200084c575050620001be565b8781550189906200083c565b9250819262000833565b634e487b7160e01b86526022600452602486fd5b90607f1690620001ac565b634e487b7160e01b85526041600452602485fd5b80835285845286832033845284528683208660ff1982541617905533903390600080516020620045748339815191528580a43862000159565b80835285845286832033845284528683208660ff1982541617905533903390600080516020620045748339815191528580a4386200011b565b80835285845286832033845284528683208660ff1982541617905533903390600080516020620045748339815191528580a438620000dd565b81805284835285822033835283528582208560ff19825416179055333383600080516020620045748339815191528180a4620000a0565b865162461bcd60e51b815260048101859052601a60248201527f496e76616c696420737461626c65636f696e20616464726573730000000000006044820152606490fd5b600080fd5b634e487b7160e01b600052604160045260246000fd5b60408051919082016001600160401b03811183821017620009c057604052565b9081519160005b83811062000a0f575050016000815290565b8060208092840101518185015201620009fd56fe60806040818152600480361015610021575b505050361561001f57600080fd5b005b60009260e0908435821c90816301ffc9a714612adf575080630726bd6a14612ab557806316596d7f1461286957806321b4b5aa1461265e578063248a9ca3146126345780632f2ff15d1461258757806336568abe146124f557806342f1e879146124cb578063464b5391146124a15780634c1301e9146121965780634d2f64ca14611ee457806351e4c45114611c54578063595e2e3814611af2578063665a11ca14611ac857806370a1a7d514611a9e578063727ba3581461197f5780637ba0d4ca146119555780638c255b7a146116a25780638c5b83851461165a57806391d148541461161457806393c8e7ac146114705780639883688f146114485780639c43c774146112445780639f42f7481461116f578063a217fddf14611153578063a738e97514610c39578063a87430ba14610ba7578063abc8c7af14610b7d578063bc63c17114610a54578063d547741f14610a16578063de6d00f714610513578063e005cbbf1461048e578063e9cbd82214610464578063ea0d5dcd146103a7578063ec87621c1461037d578063f5b541a61461034f5763f73cfdaf146101c95750610011565b3461034b57608036600319011261034b5760248235926101e7612fb2565b6005546001600160a01b0393879185169061020382151561390d565b828660025416895196878092631d11e60560e11b82528b898301525afa948515610341578395610319575b5061023d9085015115156138ca565b846080850151168688519462f715ad60e31b865285015260243560248501526044356044850152606435606485015260848401528260a48160209a8b945af1801561030d576102d1575b5050606001511690600080516020613a9b833981519152606084518681526016878201527507061796d656e742d747261636b696e672d73657475760541b86820152a35160018152f35b8682813d8311610306575b6102e68183612c61565b810103126103035750906102fb606092613539565b509038610287565b80fd5b503d6102dc565b508551903d90823e3d90fd5b61023d91955061033a903d8086833e6103328183612c61565b810190613749565b949061022e565b88513d85823e3d90fd5b8380fd5b5050503461037957816003193601126103795760209051600080516020613abb8339815191528152f35b5080fd5b5050503461037957816003193601126103795760209051600080516020613a7b8339815191528152f35b50503461046057602036600319011261046057610449926001600160a01b039160a0918490846103d5612b34565b168152600b60205220908451936103eb85612bfa565b82541684526103fc60018301612d4e565b9485602086015260028301549460ff808716151596878484015260081c1615159283606083015260038501549485608084015201549485910152805196879660a0885260a0880190612bd5565b946020870152850152606084015260808301520390f35b8280fd5b5050503461037957816003193601126103795760095490516001600160a01b039091168152602090f35b50505034610379576104ec906104ba60206104a836612cd6565b81845193828580945193849201612bb2565b8101600c8152030190206104cd81612d4e565b9160026001830154920154908051948594608086526080860190612bd5565b602085019390935260ff821615159084015260081c6001600160a01b031660608301520390f35b5090913461034b578060031936011261034b57823593602480359582546002141561053d9061340d565b6002808455546001600160a01b03908116959061055b871515613459565b60089381855416151561056d9061387f565b338652602098600b8a52878720938851996105878b612bfa565b855485168b5260019a61059b8c8801612d4e565b908d8101918252600288015460ff811615158d8301528a1c60ff1615159085606099838b8401526003810154608084015201549060a001526105dc906134a3565b518a516105e881612c46565b8981526734b73b32b9ba37b960c11b8e820152610604916139c5565b80156109eb575b156109b357908884928b5195868092631d11e60560e11b82528b888301525afa938415610948578994610993575b506106489084015115156138ca565b82518c1161095257836007541680610836575b50898b8d8b87896002602784516674726164696e6760c81b8152600c60078201522084519761068989612c2b565b61069282612d4e565b8952810154809789015201549560ff87161515809482015201948c1c16845260001461083057612710916106c59161324c565b045b80610814575b5050600080516020613a7b8339815191528852898b52888820336000528b5260ff8960002054166000146107e3578a90848854168a519d8e9263de6d00f760e01b84528986850152830152818a5a92604493f19a8b156107d957899a9b99989961077c575b5092809291600080516020613a9b833981519152945b338952600b8d5242908b8a200155015116938751908a82528a82015267199a5b985b98d95960c21b88820152a35551908152f35b9091929394959697508a81813d83116107d2575b61079a8183612c61565b810103126107ce57938092600080516020613a9b83398151915294926107c38c9a999897613539565b509150919293610732565b8780fd5b503d610790565b88513d89823e3d90fd5b50928291600080516020613a9b8339815191529461080f8b9c9d849660099d9c9d5416309033906134e1565b610748565b610829918680600954169151169033906134e1565b38806106cd565b506106c7565b858d60448c5180948193634bec4a8b60e11b83528c89840152878301525afa9081156109485789908a92610908575b50156108c9578c11610877573861065b565b885162461bcd60e51b81529182018b90526027908201527f416d6f756e742065786365656473206d6178696d756d2066696e616e63696e6760448201526608185b5bdd5b9d60ca1b6064820152608490fd5b895162461bcd60e51b81528084018d9052601a8184015279125b9d9bda58d94818d85b9b9bdd08189948199a5b985b98d95960321b6044820152606490fd5b809250878092503d8311610941575b6109218183612c61565b8101031261093d578b61093382613539565b9101519038610865565b8880fd5b503d610917565b8a513d8b823e3d90fd5b885162461bcd60e51b81529182018b9052601c908201527b416d6f756e74206578636565647320696e766f6963652076616c756560201b6044820152606490fd5b6106489194506109ac903d808c833e6103328183612c61565b9390610639565b895162461bcd60e51b81528084018d905260138186015272155cd95c881b9bdd08185d5d1a1bdc9a5e9959606a1b6044820152606490fd5b50600080516020613a7b83398151915289528a8c52898920336000528c5260ff8a600020541661060b565b50509034610460578060031936011261046057610a519135610a4c6001610a3b612b4a565b9383875281602052862001546130d9565b6131d6565b80f35b50509134610303576020366003190112610303576005546001600160a01b039081169360c090610a8586151561390d565b602485518097819363bc63c17160e01b83528035908301525afa918215610b72578093819082918380988197610aed575b50509187939160ff9593610acb60c09a613959565b81519889526020890152870152166060850152166080830152151560a0820152f35b97509750509350505060c0833d8211610b6a575b81610b0e60c09383612c61565b8101031261034b578251936020840151938381015193610b30606083016136e5565b91608081015193600785101561030357509160c0979391610b5660a060ff979501613539565b949796919294969193958193959950610ab6565b3d9150610b01565b8351903d90823e3d90fd5b5050503461037957816003193601126103795760035490516001600160a01b039091168152602090f35b50509034610460576020366003190112610460576001600160a01b0392819084610bcf612b34565b168152600b602052209283541691610be960018501612d4e565b9360ff600282015492600383015492015492610c168551978897885260c0602089015260c0880190612bd5565b9482821615159087015260081c1615156060850152608084015260a08301520390f35b82858534610379576060366003190112610379576001600160401b03833581811161034b57610c6b9036908601612b76565b9360249485359360018060a01b0385168095036104605760443590811161046057610c999036908901612b76565b939092600080516020613afb833981519152988960005260019860209a8a8c5289600020336000528c5260ff8a600020541615610fc157508715610f84578415610f4a575090867f9cdf53a2180bc35fba548a5c453c528596a434c394e235e9fbbb1a686d99db2195949392895185858237600a8682019081528190038d01902080546001600160a01b0319908116841790915590610d668d8c6b24b73b37b4b1b2aa37b5b2b760a11b610d4e368b8b612c9f565b915192610d5a84612c46565b600c84528301526139c5565b15610da3575060025416176002555b8288519384938437820190815203902092610d9a86519283928a84528a840191613398565b0390a351908152f35b610dda8d8c6a4d61726b6574706c61636560a81b610dc2368b8b612c9f565b915192610dce84612c46565b600b84528301526139c5565b15610ded57506003541617600355610d75565b9190610e288d8c6c43726564697453636f72696e6760981b610e10368b8b612c9f565b915192610e1c84612c46565b600d84528301526139c5565b15610e3857825416179055610d75565b909150610e748c610e4a368888612c9f565b6d2830bcb6b2b73a2a3930b1b5b2b960911b8d5192610e6884612c46565b600e84528301526139c5565b15610e86576005541617600555610d75565b610eb28c610e95368888612c9f565b6c2ab734b334b2b22632b233b2b960991b8d5192610e1c84612c46565b15610ec4576006541617600655610d75565b610ef18c610ed3368888612c9f565b6d149a5cdad05cdcd95cdcdb595b9d60921b8d5192610e6884612c46565b15610f03576007541617600755610d75565b610f2f8c610f12368888612c9f565b6c131a5c5d5a591a5d1e541bdbdb609a1b8d5192610e1c84612c46565b610f3b575b5050610d75565b6008541617600855868b610f34565b885162461bcd60e51b81529182018b905260159082015274496e76616c696420636f6e7472616374207479706560581b6044820152606490fd5b885162461bcd60e51b81529182018b905260189082015277496e76616c696420636f6e7472616374206164647265737360401b6044820152606490fd5b8b935089908b610fd03361329c565b91835190610fdd82612c2b565b6042825287820192606036853782511561113f5760308453825181101561113f57607860218401536041905b8082116110d45750506110a65760486110a29593859361108a9361107b9751978893600080516020613a5b8339815191528d8601526110528d8251928391603789019101612bb2565b8401917001034b99036b4b9b9b4b733903937b6329607d1b603784015251809386840190612bb2565b01036028810186520184612c61565b5194859462461bcd60e51b8652850152830190612bd5565b0390fd5b60648688878188519362461bcd60e51b8552840152820152600080516020613a1b8339815191526044820152fd5b9091600f8116601081101561112b576f181899199a1a9b1b9c1cb0b131b232b360811b901a6111038486613275565b53881c918015611117576000190190611009565b8760118a634e487b7160e01b600052526000fd5b8860328b634e487b7160e01b600052526000fd5b86603289634e487b7160e01b600052526000fd5b5050503461037957816003193601126103795751908152602090f35b50913461034b57602036600319011261034b576002546001600160a01b039290831690859061119f831515613459565b6024845180948193631d11e60560e11b83528035908301525afa90811561123a578561121b9495969261121f575b5050836060820151169381519582015115156101408484015192608085015116930151938051978897885260208801528601526060850152608084015260c060a084015260c0830190612bd5565b0390f35b61123392503d8091833e6103328183612c61565b38806111cd565b82513d87823e3d90fd5b509183816003193601126103035782359360249485359560ff871680970361138c5761127460028554141561340d565b600284556006546001600160a01b0390811693908415611407578060025416908685858b8b519586938492631d11e60560e11b84528301525afa9182156107d95787926113eb575b5060608201511633036113b55701516112d69015156138ca565b600a8710156113a4578451968796632476566160e01b8852870152850152836044602096879334905af1928315611398578193611363575b506001908383518681526010878201526f34b73b37b4b1b296ba3930b739b332b960811b858201527fbdaa5cccd543605e67d2fc18ff3147ffdca4bf3e7cf64467feb7e4e7a84d3e1560603392a35551908152f35b9092508381813d8311611391575b61137b8183612c61565b8101031261138c575191600161130e565b600080fd5b503d611371565b509051903d90823e3d90fd5b634e487b7160e01b84526021865283fd5b865162461bcd60e51b81526020818a0152601181850152702737ba1034b73b37b4b1b29037bbb732b960791b6044820152606490fd5b6114009192503d8089833e6103328183612c61565b908a6112bc565b865162461bcd60e51b81526020818a0152601c818501527b155b9a599a595913195919d95c881b9bdd081c9959da5cdd195c995960221b6044820152606490fd5b5050346104605782600319360112610460575490516001600160a01b03909116815260209150f35b828585346103795760803660031901126103795782356044359260ff841680940361138c576064356001600160401b038111610379576114b39036908701612b76565b9190956114be612fb2565b6005546001600160a01b03908116969093906114db88151561390d565b6114e481613959565b8651978891635d14b3e560e11b83528785840152602435602484015233604484015261150f81613959565b606483015260a0608483015281858161153060209d8e9760a4840191613398565b03925af195861561160a5782966115db575b508184602485600254169388519485938492631d11e60560e11b84528301525afa9182156115d05790816060936115b5575b505001511690600080516020613a9b833981519152606084518781526010888201526f1c185e5b595b9d0b5c9958dbdc99195960821b86820152a351908152f35b6115c992503d8091833e6103328183612c61565b8780611574565b8551903d90823e3d90fd5b9095508681813d8311611603575b6115f38183612c61565b8101031261138c57519487611542565b503d6115e9565b85513d84823e3d90fd5b50503461046057816003193601126104605781602093611632612b4a565b9235815260018552209060018060a01b0316600052825260ff81600020541690519015158152f35b505050346103795760209061166e36612cd6565b8261168183519283815193849201612bb2565b600a908201908152819003830190205490516001600160a01b039091168152f35b828585346103795760a0366003190112610379576001600160401b0392803584811161034b576116d59036908301612b76565b5050602435936116e3612b60565b5060843590811161034b576116fb9036908301612b76565b505061170b60028454141561340d565b6002808455546001600160a01b03906117279082161515613459565b841561191c574260443511156118e657338452602094600b86526117c78486206117a386519161175683612bfa565b85815416835261176860018201612d4e565b928a810193845260a08860ff600285015481811615158d86015260081c161515938460608501526003810154608085015201549101526134a3565b518551906117b082612c46565b600682526534b9b9bab2b960d11b898301526139c5565b156118ae57602884516769737375616e636560c01b8152600c6008820152208451916117f283612c2b565b6117fb82612d4e565b83526002600183015492838a86015201549284606060ff8616151592838a820152019460081c1684526000146118a757612710916118389161324c565b04905b8161188b575b505050338352600b84524290828420015580518381526007848201526618dc99585d195960ca1b8282015282600080516020613a9b83398151915260603393a36001825551908152f35b8261189f93600954169151169033906134e1565b848080611841565b509061183b565b835162461bcd60e51b815280840187905260126024820152712ab9b2b9103737ba1030b71034b9b9bab2b960711b6044820152606490fd5b506020606492519162461bcd60e51b8352820152601060248201526f496e76616c696420647565206461746560801b6044820152fd5b506020606492519162461bcd60e51b83528201526013602482015272496e76616c696420746f74616c2076616c756560681b6044820152fd5b5050503461037957816003193601126103795760055490516001600160a01b039091168152602090f35b828585346103795760209283600319360112610460578035906119a0612fb2565b6007546001600160a01b03918591879084166119bd811515613979565b6024875180998193630e4f746b60e31b835289878401525af195861561160a578296611a6f575b508184602485600254169388519485938492631d11e60560e11b84528301525afa9182156115d0579081606093611a54575b505001511690600080516020613a9b83398151915260608451878152600d888201526c1c9a5cdacb585cdcd95cdcd959609a1b86820152a351908152f35b611a6892503d8091833e6103328183612c61565b8780611a16565b9095508681813d8311611a97575b611a878183612c61565b8101031261138c575194876119e4565b503d611a7d565b5050503461037957816003193601126103795760075490516001600160a01b039091168152602090f35b5050503461037957816003193601126103795760085490516001600160a01b039091168152602090f35b50508234610303576020928360031936011261037957611b1660028354141561340d565b6002825560085482906001600160a01b039086908216611b3781151561387f565b338452600b8252611b998585208651611b4f81612bfa565b858254168152611b6160018301612d4e565b8582015260a08a60ff600285015481811615158c86015260081c161515938460608501526003810154608085015201549101526134a3565b6024855180978193632e1a7d4d60e01b83528a358b8401525af1938415611c4a578294611c18575b506001929394338352600b875242908584200155600854168351908582528487830152600a85830152691dda5d1a191c985dd85b60b21b6060830152600080516020613a3b83398151915260803393a35551908152f35b9293508583813d8311611c43575b611c308183612c61565b8101031261138c57600192519392611bc1565b503d611c26565b83513d84823e3d90fd5b505082346103035760209283600319360112610379578235611c7a60028454141561340d565b600283556008546001600160a01b0390611c97908216151561387f565b338452600b8652611cf98385208451611caf81612bfa565b838254168152611cc160018301612d4e565b8982015260a08860ff600285015481811615158a86015260081c161515938460608501526003810154608085015201549101526134a3565b611d0b828260095416309033906134e1565b806009541681600854169083158015611e77575b15611e155785939291611d589186519163095ea7b360e01b8b840152602483015284604483015260448252611d5382612c2b565b613546565b868160085416602486518098819363b6b55f2560e01b8352878c8401525af1948515611e0b578395611dd9575b506001939495338452600b8852429086852001556008541690845190815284878201526007858201526619195c1bdcda5d60ca1b6060820152600080516020613a3b83398151915260803392a35551908152f35b9394508684813d8311611e04575b611df18183612c61565b8101031261138c57600193519493611d85565b503d611de7565b84513d85823e3d90fd5b845162461bcd60e51b8152808801899052603660248201527f5361666545524332303a20617070726f76652066726f6d206e6f6e2d7a65726f60448201527520746f206e6f6e2d7a65726f20616c6c6f77616e636560501b6064820152608490fd5b508451636eb1769f60e11b81523088820152602481018390528881604481855afa908115611eda578791611ead575b5015611d1f565b90508881813d8311611ed3575b611ec48183612c61565b8101031261138c575189611ea6565b503d611eba565b86513d89823e3d90fd5b82858534610379576080366003190112610379576001600160401b03833581811161034b57611f169036908601612b76565b909160243591611f24612ba3565b93611f2d612b60565b91611f36612df4565b8015612160576001600160a01b0383161561212957856120ed575b90611f5d913691612c9f565b90855196825193602098898181870197611f7881838b612bb2565b8101600c8152030190209184519182116120da57908291611fa782611fa18c9998979654612d14565b856133b9565b8a90601f831160011461205e579282600080516020613adb8339815191529997959360029361203a989691612053575b508160011b916000199060031b1c19161781555b866001820155019061200989839060ff801983541691151516179055565b8154610100600160a81b03191660089190911b610100600160a81b0316179055845190519092839282908490612bb2565b8101039020938251918252151586820152a25160018152f35b90508501518e611fd7565b90601f1983168483528c8320925b8d8282106120c15750508360029361203a989693600080516020613adb8339815191529c9a9896600194106120a8575b5050811b018155611feb565b87015160001960f88460031b161c191690558e8061209c565b8884015185558d9a50600190940193928301920161206c565b634e487b7160e01b815260418b52602490fd5b6103e8851115611f5157865162461bcd60e51b81526020818b0152600c60248201526b08ccaca40e8dede40d0d2ced60a31b6044820152606490fd5b865162461bcd60e51b81526020818b01526011602482015270125b9d985b1a59081c9958da5c1a595b9d607a1b6044820152606490fd5b865162461bcd60e51b81526020818b0152601060248201526f496e76616c696420666565207479706560801b6044820152606490fd5b509183346103035760209283600319360112610379578035906002906121bf828554141561340d565b81845581546001600160a01b03908116979092906121de891515613459565b338652600b885261226e886122488989208a60a08860ff83519361220185612bfa565b8c865416855261221360018701612d4e565b9785019788528a8601549082821615159086015260081c161515938460608501526003810154608085015201549101526134a3565b5188519061225582612c46565b60088252673b32b934b334b2b960c11b8b8301526139c5565b15612468578560249988519a8b8092631d11e60560e11b825289888301525afa98891561245e578699612442575b50880151612404578290602c87516b3b32b934b334b1b0ba34b7b760a11b8152600c80820152208751906122cf82612c2b565b6122d881612d4e565b825282600182015491828c85015201549184606060ff8516151592838d820152019360081c1683526000146123ff57612315612710918c5161324c565b045b8a816123dd575b5050505416803b156123d9578480916024885180948193634c1301e960e01b835289888401525af180156123cf576123a1575b506001949596606091338652600b89524290888720015501511690600080516020613a9b83398151915260608651888152600889820152671d995c9a599a595960c21b88820152a3555160018152f35b9093906001600160401b0381116123bc578552926001612351565b634e487b7160e01b825260418552602482fd5b86513d87823e3d90fd5b8480fd5b6123f79285806060816009541694015116915116916134e1565b89808a61231e565b612317565b855162461bcd60e51b81528083018890526018602482015277125b9d9bda58d948185b1c9958591e481d995c9a599a595960421b6044820152606490fd5b6124579199503d8088833e6103328183612c61565b978961229c565b87513d88823e3d90fd5b865162461bcd60e51b815280840189905260136024820152722ab9b2b9103737ba1030903b32b934b334b2b960691b6044820152606490fd5b5050503461037957816003193601126103795760025490516001600160a01b039091168152602090f35b5050503461037957816003193601126103795760209051600080516020613afb8339815191528152f35b83858434610379578260031936011261037957612510612b4a565b90336001600160a01b0383160361252c5790610a5191356131d6565b608490602085519162461bcd60e51b8352820152602f60248201527f416363657373436f6e74726f6c3a2063616e206f6e6c792072656e6f756e636560448201526e103937b632b9903337b91039b2b63360891b6064820152fd5b50503461046057816003193601126104605735906125a3612b4a565b9082845260016020526125bb600182862001546130d9565b828452600160209081528185206001600160a01b039093168086529290528084205460ff16156125e9578380f35b82845260016020528084208285526020528320600160ff1982541617905533917f2f8788117e7eff1d82e926ec794901d17c78024a50270940304540a733656f0d8480a43880808380f35b50503461046057602036600319011261046057816020936001923581528285522001549051908152f35b5090913461034b57602036600319011261034b576007546024939085906001600160a01b031661268f811515613979565b8351634be58e1b60e11b815283358482015295869182905afa93841561123a578594612718575b505061121b9060ff8060c08601511693850151169360ff6101008201511661ffff61012083015116906101606101408401511515930151938051978897885260208801528601526060850152608084015260c060a084015260c0830190612bd5565b909193503d8086833e61272b8183612c61565b8101946020828703126103035781516001600160401b03928382116104605701916101c093848489031261046057865194850190858210838311176128565750865282518452602083015160208501526127868684016136e5565b86850152612796606084016136e5565b60608501526080830151608085015260a083015160a08501526127bb60c0840161373b565b60c08501526127cb85840161373b565b858501526101006127dd81850161373b565b90850152610120808401519061ffff8216820361034b57850152610140612805818501613539565b908501526101609182840151918211610303575061121b94959661282a9184016136f9565b9083015261018080820151908301526128476101a08092016136e5565b908201529190508238806126b6565b634e487b7160e01b845260419052602483fd5b8285853461037957606036600319011261037957612885612b34565b6001600160401b03906024358281116123d9576128a59036908701612b76565b6128ad612ba3565b926128b6612df4565b6001600160a01b03908116948515612a7b57858852602098600b8a5287892091878354948516159460018060a01b0319161783556001998a8401918611612a6857859061290782611fa18554612d14565b80601f8311600114612a0357916129f8575b50600019600387901b1c1916858b1b1790555b826002830161294788829060ff801983541691151516179055565b805461ff0019166101001790556129ed575b42910155156129a9577f0b2d2fe99b0620e0994de6f522eb19dcc5b5fd39b27be67cea0547c4ed9dbdfc92612998865193849388855288850191613398565b901515888301520390a25b51908152f35b7f3da9aaec9e805c4b46639d38e89883f11a946eb14932c056072c03721cfff82f92506129e0855192839287845287840191613398565b86888301520390a26129a3565b426003830155612959565b90508601358c612919565b8381528d81209290601f198216908f8f5b8c848410612a4e575050505010612a34575b50508985811b01905561292c565b870135600019600388901b60f8161c191690558b80612a26565b860135875590950194938401938a9350908101908f612a14565b634e487b7160e01b815260418352602490fd5b865162461bcd60e51b81526020818b01526014602482015273496e76616c69642075736572206164647265737360601b6044820152606490fd5b5050503461037957816003193601126103795760065490516001600160a01b039091168152602090f35b9350505034610460576020366003190112610460573563ffffffff60e01b81168091036104605760209250637965db0b60e01b8114908115612b23575b5015158152f35b6301ffc9a760e01b14905038612b1c565b600435906001600160a01b038216820361138c57565b602435906001600160a01b038216820361138c57565b606435906001600160a01b038216820361138c57565b9181601f8401121561138c578235916001600160401b03831161138c576020838186019501011161138c57565b60443590811515820361138c57565b60005b838110612bc55750506000910152565b8181015183820152602001612bb5565b90602091612bee81518092818552858086019101612bb2565b601f01601f1916010190565b60c081019081106001600160401b03821117612c1557604052565b634e487b7160e01b600052604160045260246000fd5b608081019081106001600160401b03821117612c1557604052565b604081019081106001600160401b03821117612c1557604052565b601f909101601f19168101906001600160401b03821190821017612c1557604052565b6001600160401b038111612c1557601f01601f191660200190565b929192612cab82612c84565b91612cb96040519384612c61565b82948184528183011161138c578281602093846000960137010152565b602060031982011261138c57600435906001600160401b03821161138c578060238301121561138c57816024612d1193600401359101612c9f565b90565b90600182811c92168015612d44575b6020831014612d2e57565b634e487b7160e01b600052602260045260246000fd5b91607f1691612d23565b9060405191826000825492612d6284612d14565b908184526001948581169081600014612dd15750600114612d8e575b5050612d8c92500383612c61565b565b9093915060005260209081600020936000915b818310612db9575050612d8c93508201013880612d7e565b85548884018501529485019487945091830191612da1565b915050612d8c94506020925060ff191682840152151560051b8201013880612d7e565b3360009081527ffdb122eb892c6b3193f8499f050265ce5458caab5f6480270d8972921f24f42960209081526040808320549092600080516020613a7b8339815191529160019060ff1615612e4a575050505050565b612e533361329c565b92855191612e6083612c2b565b60428352858301936060368637835115612f9e57603085538351821015612f9e5790607860218501536041915b818311612f3057505050612f005760486110a2938693612ee493612ed59851988993600080516020613a5b8339815191528a860152611052815180928c603789019101612bb2565b01036028810187520185612c61565b5192839262461bcd60e51b845260048401526024830190612bd5565b60648486519062461bcd60e51b82528060048301526024820152600080516020613a1b8339815191526044820152fd5b909192600f81166010811015612f8a576f181899199a1a9b1b9c1cb0b131b232b360811b901a612f608587613275565b5360041c928015612f7657600019019190612e8d565b634e487b7160e01b82526011600452602482fd5b634e487b7160e01b83526032600452602483fd5b634e487b7160e01b81526032600452602490fd5b3360009081527f31c1e66639f421f1853aeefe8ad6b62a3b96f3287efe23106923cd924aa025c260209081526040808320549092600080516020613abb8339815191529160019060ff1615613008575050505050565b6130113361329c565b9285519161301e83612c2b565b60428352858301936060368637835115612f9e57603085538351821015612f9e5790607860218501536041915b81831161309357505050612f005760486110a2938693612ee493612ed59851988993600080516020613a5b8339815191528a860152611052815180928c603789019101612bb2565b909192600f81166010811015612f8a576f181899199a1a9b1b9c1cb0b131b232b360811b901a6130c38587613275565b5360041c928015612f765760001901919061304b565b6000818152600191602091838352604093848220338352845260ff858320541615613105575050505050565b61310e3361329c565b9285519161311b83612c2b565b60428352858301936060368637835115612f9e57603085538351821015612f9e5790607860218501536041915b81831161319057505050612f005760486110a2938693612ee493612ed59851988993600080516020613a5b8339815191528a860152611052815180928c603789019101612bb2565b909192600f81166010811015612f8a576f181899199a1a9b1b9c1cb0b131b232b360811b901a6131c08587613275565b5360041c928015612f7657600019019190613148565b906000918083526001602052604083209160018060a01b03169182845260205260ff60408420541661320757505050565b8083526001602052604083208284526020526040832060ff1981541690557ff6391f5c32d9c69d2a47ea670b442974b53935d1edc7fd64eb21e047a839171b339380a4565b8181029291811591840414171561325f57565b634e487b7160e01b600052601160045260246000fd5b908151811015613286570160200190565b634e487b7160e01b600052603260045260246000fd5b60405190606082016001600160401b03811183821017612c1557604052602a82526020820160403682378251156132865760309053815160019081101561328657607860218401536029905b80821161332a5750506132f85790565b606460405162461bcd60e51b81526020600482015260206024820152600080516020613a1b8339815191526044820152fd5b9091600f81166010811015613383576f181899199a1a9b1b9c1cb0b131b232b360811b901a6133598486613275565b5360041c91801561336e5760001901906132e8565b60246000634e487b7160e01b81526011600452fd5b60246000634e487b7160e01b81526032600452fd5b908060209392818452848401376000828201840152601f01601f1916010190565b90601f81116133c757505050565b600091825260208220906020601f850160051c83019410613403575b601f0160051c01915b8281106133f857505050565b8181556001016133ec565b90925082906133e3565b1561341457565b60405162461bcd60e51b815260206004820152601f60248201527f5265656e7472616e637947756172643a207265656e7472616e742063616c6c006044820152606490fd5b1561346057565b60405162461bcd60e51b815260206004820152601b60248201527a125b9d9bda58d9551bdad95b881b9bdd081c9959da5cdd195c9959602a1b6044820152606490fd5b156134aa57565b60405162461bcd60e51b815260206004820152600f60248201526e55736572206e6f742061637469766560881b6044820152606490fd5b6040516323b872dd60e01b60208201526001600160a01b03928316602482015292909116604483015260648083019390935291815260a08101918183106001600160401b03841117612c1557612d8c92604052613546565b5190811515820361138c57565b60018060a01b03169060405161355b81612c46565b6020928382527f5361666545524332303a206c6f772d6c6576656c2063616c6c206661696c656484830152803b1561366057906135ce9160008481959282888195519301915af13d15613658573d906135b382612c84565b916135c16040519384612c61565b82523d858784013e6136a5565b908151806135dd575b50505050565b828491810103126103035750816135f49101613539565b15613601578080806135d7565b6084906040519062461bcd60e51b82526004820152602a60248201527f5361666545524332303a204552433230206f7065726174696f6e20646964206e6044820152691bdd081cdd58d8d9595960b21b6064820152fd5b6060906136a5565b60405162461bcd60e51b815260048101859052601d60248201527f416464726573733a2063616c6c20746f206e6f6e2d636f6e74726163740000006044820152606490fd5b909190156136b1575090565b8151156136c15750805190602001fd5b60405162461bcd60e51b8152602060048201529081906110a2906024830190612bd5565b51906001600160a01b038216820361138c57565b81601f8201121561138c57805161370f81612c84565b9261371d6040519485612c61565b8184526020828401011161138c57612d119160208085019101612bb2565b519060ff8216820361138c57565b9060208282031261138c5781516001600160401b039283821161138c5701906101e092838383031261138c5760405193840184811082821117612c15576040528251845260208301516020850152604083015160408501526137ad606084016136e5565b60608501526137be608084016136e5565b608085015260a083015181811161138c57826137db9185016136f9565b60a085015260c083015181811161138c57826137f89185016136f9565b60c085015261380960e08401613539565b60e085015261010061381c818501613539565b908501526101208084015190850152610140918284015191821161138c576138459184016136f9565b90830152610160808201519083015261018080820151908301526101a061386d81830161373b565b908301526101c0809101519082015290565b1561388657565b60405162461bcd60e51b815260206004820152601c60248201527b131a5c5d5a591a5d1e541bdbdb081b9bdd081c9959da5cdd195c995960221b6044820152606490fd5b156138d157565b60405162461bcd60e51b8152602060048201526014602482015273125b9d9bda58d9481b9bdd081d995c9a599a595960621b6044820152606490fd5b1561391457565b60405162461bcd60e51b815260206004820152601d60248201527f5061796d656e74547261636b6572206e6f7420726567697374657265640000006044820152606490fd5b6007111561396357565b634e487b7160e01b600052602160045260246000fd5b1561398057565b60405162461bcd60e51b815260206004820152601d60248201527f5269736b4173736573736d656e74206e6f7420726567697374657265640000006044820152606490fd5b90604051916020926139f38482816139e68183019687815193849201612bb2565b8101038084520182612c61565b51902091613a136040519182816139e68183019687815193849201612bb2565b519020149056fe537472696e67733a20686578206c656e67746820696e73756666696369656e74bf17895d1e9eadc8d5f0875d825b7141745c54fba5014bd1c3d300d4a9bc6031416363657373436f6e74726f6c3a206163636f756e7420000000000000000000241ecf16d79d0f8dbfb92cbc07fe17840425976cf0667f022fe9877caa831b08cd8d2c3b70d54e80bb5d2277899df2f622425ba9964da3e7b3da65411a4d01be97667070c54ef182b0f5858b034beac1b6f3089aa2d3188bb1e8929f4fa9b929a5e32259185fb502078246fd3196ba8f57e17c171f68d7bf52d60c4f993ddabbc2979137d1774e40fe2638d355bf7a7b092be4c67f242aad1655e1e27f9df9cca26469706673582212203ea992ea6bd39063baedc1841e1c45dc896c09fd49a9199f15601b2074becff064736f6c634300081400332f8788117e7eff1d82e926ec794901d17c78024a50270940304540a733656f0d",
  "linkReferences": {},
  "deployedLinkReferences": {}
}