{
  "_format": "hh-sol-artifact-1",
  "contractName": "InvoiceMarketplace",
  "sourceName": "contracts/Marketplace.sol",
  "abi": [
    {
      "inputs": [
        {
          "internalType": "address",
          "name": "_invoiceToken",
          "type": "address"
        }
      ],
      "stateMutability": "nonpayable",
      "type": "constructor"
    },
    {
      "anonymous": false,
      "inputs": [
        {
          "indexed": true,
          "internalType": "uint256",
          "name": "tokenId",
          "type": "uint256"
        },
        {
          "indexed": true,
          "internalType": "address",
          "name": "bidder",
          "type": "address"
        },
        {
          "indexed": false,
          "internalType": "uint256",
          "name": "amount",
          "type": "uint256"
        }
      ],
      "name": "BidPlaced",
      "type": "event"
    },
    {
      "anonymous": false,
      "inputs": [
        {
          "indexed": true,
          "internalType": "uint256",
          "name": "tokenId",
          "type": "uint256"
        },
        {
          "indexed": true,
          "internalType": "address",
          "name": "seller",
          "type": "address"
        }
      ],
      "name": "ListingCancelled",
      "type": "event"
    },
    {
      "anonymous": false,
      "inputs": [
        {
          "indexed": true,
          "internalType": "address",
          "name": "previousOwner",
          "type": "address"
        },
        {
          "indexed": true,
          "internalType": "address",
          "name": "newOwner",
          "type": "address"
        }
      ],
      "name": "OwnershipTransferred",
      "type": "event"
    },
    {
      "anonymous": false,
      "inputs": [
        {
          "indexed": true,
          "internalType": "uint256",
          "name": "tokenId",
          "type": "uint256"
        },
        {
          "indexed": true,
          "internalType": "address",
          "name": "seller",
          "type": "address"
        },
        {
          "indexed": false,
          "internalType": "uint256",
          "name": "price",
          "type": "uint256"
        },
        {
          "indexed": false,
          "internalType": "uint256",
          "name": "expiresAt",
          "type": "uint256"
        }
      ],
      "name": "TokenListed",
      "type": "event"
    },
    {
      "anonymous": false,
      "inputs": [
        {
          "indexed": true,
          "internalType": "uint256",
          "name": "tokenId",
          "type": "uint256"
        },
        {
          "indexed": true,
          "internalType": "address",
          "name": "seller",
          "type": "address"
        },
        {
          "indexed": true,
          "internalType": "address",
          "name": "buyer",
          "type": "address"
        },
        {
          "indexed": false,
          "internalType": "uint256",
          "name": "price",
          "type": "uint256"
        }
      ],
      "name": "TokenSold",
      "type": "event"
    },
    {
      "inputs": [],
      "name": "MAX_FEE",
      "outputs": [
        {
          "internalType": "uint256",
          "name": "",
          "type": "uint256"
        }
      ],
      "stateMutability": "view",
      "type": "function"
    },
    {
      "inputs": [
        {
          "internalType": "uint256",
          "name": "_tokenId",
          "type": "uint256"
        }
      ],
      "name": "acceptBid",
      "outputs": [],
      "stateMutability": "nonpayable",
      "type": "function"
    },
    {
      "inputs": [
        {
          "internalType": "uint256",
          "name": "_tokenId",
          "type": "uint256"
        }
      ],
      "name": "buyToken",
      "outputs": [],
      "stateMutability": "payable",
      "type": "function"
    },
    {
      "inputs": [
        {
          "internalType": "uint256",
          "name": "_tokenId",
          "type": "uint256"
        }
      ],
      "name": "cancelListing",
      "outputs": [],
      "stateMutability": "nonpayable",
      "type": "function"
    },
    {
      "inputs": [
        {
          "internalType": "uint256[]",
          "name": "_tokenIds",
          "type": "uint256[]"
        }
      ],
      "name": "emergencyRefundBids",
      "outputs": [],
      "stateMutability": "nonpayable",
      "type": "function"
    },
    {
      "inputs": [
        {
          "internalType": "uint256",
          "name": "_tokenId",
          "type": "uint256"
        },
        {
          "internalType": "uint256",
          "name": "_bidIndex",
          "type": "uint256"
        }
      ],
      "name": "getBid",
      "outputs": [
        {
          "components": [
            {
              "internalType": "address",
              "name": "bidder",
              "type": "address"
            },
            {
              "internalType": "uint256",
              "name": "amount",
              "type": "uint256"
            },
            {
              "internalType": "uint256",
              "name": "createdAt",
              "type": "uint256"
            },
            {
              "internalType": "bool",
              "name": "isActive",
              "type": "bool"
            }
          ],
          "internalType": "struct InvoiceMarketplace.Bid",
          "name": "",
          "type": "tuple"
        }
      ],
      "stateMutability": "view",
      "type": "function"
    },
    {
      "inputs": [
        {
          "internalType": "uint256",
          "name": "_tokenId",
          "type": "uint256"
        }
      ],
      "name": "getBidCount",
      "outputs": [
        {
          "internalType": "uint256",
          "name": "",
          "type": "uint256"
        }
      ],
      "stateMutability": "view",
      "type": "function"
    },
    {
      "inputs": [
        {
          "internalType": "uint256",
          "name": "_tokenId",
          "type": "uint256"
        }
      ],
      "name": "getListing",
      "outputs": [
        {
          "components": [
            {
              "internalType": "uint256",
              "name": "tokenId",
              "type": "uint256"
            },
            {
              "internalType": "address",
              "name": "seller",
              "type": "address"
            },
            {
              "internalType": "uint256",
              "name": "price",
              "type": "uint256"
            },
            {
              "internalType": "bool",
              "name": "isActive",
              "type": "bool"
            },
            {
              "internalType": "uint256",
              "name": "createdAt",
              "type": "uint256"
            },
            {
              "internalType": "uint256",
              "name": "expiresAt",
              "type": "uint256"
            }
          ],
          "internalType": "struct InvoiceMarketplace.Listing",
          "name": "",
          "type": "tuple"
        }
      ],
      "stateMutability": "view",
      "type": "function"
    },
    {
      "inputs": [
        {
          "internalType": "uint256",
          "name": "",
          "type": "uint256"
        }
      ],
      "name": "highestBid",
      "outputs": [
        {
          "internalType": "uint256",
          "name": "",
          "type": "uint256"
        }
      ],
      "stateMutability": "view",
      "type": "function"
    },
    {
      "inputs": [
        {
          "internalType": "uint256",
          "name": "",
          "type": "uint256"
        }
      ],
      "name": "highestBidder",
      "outputs": [
        {
          "internalType": "address",
          "name": "",
          "type": "address"
        }
      ],
      "stateMutability": "view",
      "type": "function"
    },
    {
      "inputs": [],
      "name": "invoiceToken",
      "outputs": [
        {
          "internalType": "contract InvoiceToken",
          "name": "",
          "type": "address"
        }
      ],
      "stateMutability": "view",
      "type": "function"
    },
    {
      "inputs": [
        {
          "internalType": "uint256",
          "name": "_tokenId",
          "type": "uint256"
        },
        {
          "internalType": "uint256",
          "name": "_price",
          "type": "uint256"
        },
        {
          "internalType": "uint256",
          "name": "_duration",
          "type": "uint256"
        }
      ],
      "name": "listToken",
      "outputs": [],
      "stateMutability": "nonpayable",
      "type": "function"
    },
    {
      "inputs": [
        {
          "internalType": "uint256",
          "name": "",
          "type": "uint256"
        }
      ],
      "name": "listings",
      "outputs": [
        {
          "internalType": "uint256",
          "name": "tokenId",
          "type": "uint256"
        },
        {
          "internalType": "address",
          "name": "seller",
          "type": "address"
        },
        {
          "internalType": "uint256",
          "name": "price",
          "type": "uint256"
        },
        {
          "internalType": "bool",
          "name": "isActive",
          "type": "bool"
        },
        {
          "internalType": "uint256",
          "name": "createdAt",
          "type": "uint256"
        },
        {
          "internalType": "uint256",
          "name": "expiresAt",
          "type": "uint256"
        }
      ],
      "stateMutability": "view",
      "type": "function"
    },
    {
      "inputs": [],
      "name": "owner",
      "outputs": [
        {
          "internalType": "address",
          "name": "",
          "type": "address"
        }
      ],
      "stateMutability": "view",
      "type": "function"
    },
    {
      "inputs": [
        {
          "internalType": "uint256",
          "name": "_tokenId",
          "type": "uint256"
        }
      ],
      "name": "placeBid",
      "outputs": [],
      "stateMutability": "payable",
      "type": "function"
    },
    {
      "inputs": [],
      "name": "platformFee",
      "outputs": [
        {
          "internalType": "uint256",
          "name": "",
          "type": "uint256"
        }
      ],
      "stateMutability": "view",
      "type": "function"
    },
    {
      "inputs": [],
      "name": "renounceOwnership",
      "outputs": [],
      "stateMutability": "nonpayable",
      "type": "function"
    },
    {
      "inputs": [
        {
          "internalType": "uint256",
          "name": "",
          "type": "uint256"
        },
        {
          "internalType": "uint256",
          "name": "",
          "type": "uint256"
        }
      ],
      "name": "tokenBids",
      "outputs": [
        {
          "internalType": "address",
          "name": "bidder",
          "type": "address"
        },
        {
          "internalType": "uint256",
          "name": "amount",
          "type": "uint256"
        },
        {
          "internalType": "uint256",
          "name": "createdAt",
          "type": "uint256"
        },
        {
          "internalType": "bool",
          "name": "isActive",
          "type": "bool"
        }
      ],
      "stateMutability": "view",
      "type": "function"
    },
    {
      "inputs": [
        {
          "internalType": "address",
          "name": "newOwner",
          "type": "address"
        }
      ],
      "name": "transferOwnership",
      "outputs": [],
      "stateMutability": "nonpayable",
      "type": "function"
    },
    {
      "inputs": [
        {
          "internalType": "uint256",
          "name": "_newFee",
          "type": "uint256"
        }
      ],
      "name": "updatePlatformFee",
      "outputs": [],
      "stateMutability": "nonpayable",
      "type": "function"
    },
    {
      "inputs": [
        {
          "internalType": "uint256",
          "name": "_tokenId",
          "type": "uint256"
        }
      ],
      "name": "withdrawBid",
      "outputs": [],
      "stateMutability": "nonpayable",
      "type": "function"
    },
    {
      "inputs": [],
      "name": "withdrawFees",
      "outputs": [],
      "stateMutability": "nonpayable",
      "type": "function"
    }
  ],
  "bytecode": "0x6080346100b157601f61192c38819003918201601f19168301916001600160401b038311848410176100b6578084926020946040528339810103126100b157516001600160a01b0390818116908190036100b157600160005560015460018060a01b0319903382821617600155604051933391167f8be0079c531659141344cd1fd0a4f28419497f9722a3daafe3b4186f6b6457e0600080a360fa600755600254161760025561185f90816100cd8239f35b600080fd5b634e487b7160e01b600052604160045260246000fdfe60406080815260048036101561001457600080fd5b600091823560e01c80630eaaf4c8146113a1578063107a274a146112d357806326232a2e146112b45780632b1fd58a146110a15780632d296bf114610e1c578063305a67a814610d35578063451df52e14610d02578063464b539114610cd9578063476343ee14610c89578063582c7ffd14610b9d578063715018a614610b51578063744d341114610b2a5780638305699114610abf5780638da5cb5b14610a965780639269051f146109955780639979ef4514610763578063aa0b598814610702578063b14c63c5146106da578063bc063e1a146106bd578063bce64a7d14610239578063de74e57b146101d05763f2fde38b1461011257600080fd5b346101cc5760203660031901126101cc576001600160a01b038235818116939192908490036101c85761014361151b565b8315610176575050600180546001600160a01b0319811684179091551660008051602061180a833981519152600080a380f35b906020608492519162461bcd60e51b8352820152602660248201527f4f776e61626c653a206e6577206f776e657220697320746865207a65726f206160448201526564647265737360d01b6064820152fd5b8480fd5b8280fd5b50346101cc5760203660031901126101cc578060c0938335815260036020522080549260018060a01b0360018301541692600283015490600560ff60038601541693850154940154948151968752602087015285015215156060840152608083015260a0820152f35b508290346106b95760603660031901126106b9578235602491823592826044803560018060a01b039182600254168651627eeac760e11b81528b81806102866020998a94339084016115f5565b0381855afa80156106af578b9061067b575b6102a491501515611610565b881561063b578215158061062d575b156105f957878a526003855260ff6003888c200154166105c1578988878d8a519485938492631d11e60560e11b84528301525afa9081156105b7578a9161044d575b5060e0810151156104155761010001516103de57504201928342116103cd57506005838899876103b68a9b7f2428821d20d9a8080d99a3d335d478f0546d90a0376be12c52a6d600f15586bf9a9b8a519761034f89611573565b848952898901903382528c8a019283528c60608b01946001865260808c019742895260a08d019a8b52815260038d522099518a5560018a0191511660018060a01b0319825416179055516002880155511515600387019060ff801983541691151516179055565b51908401555191015582519586528501523393a380f35b634e487b7160e01b88526011895287fd5b8973125b9d9bda58d948185b1c9958591e481c185a5960621b606492601488888b519562461bcd60e51b8752860152840152820152fd5b865162461bcd60e51b8152808c0186905260148188015273125b9d9bda58d9481b9bdd081d995c9a599a595960621b81840152606490fd5b90503d808b833e61045e81836115d2565b81019085818303126105b35780516001600160401b03918282116105965701906101e09283838203126105965789519384018481108382111761059e578a52825184528783015188850152898301518a8501526104bd6060840161164e565b60608501526104ce6080840161164e565b608085015260a083015182811161059a57816104eb918501611662565b60a085015260c083015182811161059a5781610508918501611662565b60c085015261051960e084016116d2565b60e085015261010061052c8185016116d2565b908501526101208084015190850152610140918284015190811161059a5790610556918401611662565b90830152610160808201519083015261018080820151908301526101a0808201519060ff82168203610596578301526101c080910151908201528b6102f5565b8c80fd5b8d80fd5b508860418f634e487b7160e01b600052526000fd5b8a80fd5b87513d8c823e3d90fd5b865162461bcd60e51b8152808c0186905260148188015273151bdad95b88185b1c9958591e481b1a5cdd195960621b81840152606490fd5b865162461bcd60e51b8152808c018690526010818801526f24b73b30b634b210323ab930ba34b7b760811b81840152606490fd5b506301e133808311156102b3565b865162461bcd60e51b8152808c01869052601c818801527b05072696365206d7573742062652067726561746572207468616e20360241b81840152606490fd5b508581813d83116106a8575b61069181836115d2565b810103126106a3576102a49051610298565b600080fd5b503d610687565b88513d8d823e3d90fd5b5080fd5b8382346106b957816003193601126106b957602090516103e88152f35b5090346101cc5760203660031901126101cc5760209282913581526005845220549051908152f35b5090346101cc5760203660031901126101cc5780359161072061151b565b6103e8831161073157505060075580f35b906020606492519162461bcd60e51b8352820152600c60248201526b08ccaca40e8dede40d0d2ced60a31b6044820152fd5b509060209182600319360112610991578135916107846002865414156116df565b6002855534156109535782855260058452818520543411156108fe5782855260068452818520546001600160a01b039086908216806108c9575b50849052600585528286203490556006855282862080546001600160a01b031990811633179091558286528387208451909290916107fb836115b7565b3383528783019134835286840193428552606081019560018752805490600160401b8210156108b65790610834916001820181556114e9565b9790976108a457509261089595927f0e54eff26401bf69b81b26f60bd85ef47f5d85275c1d268d84f68d6897431c479897959260039551169086541617855551600185015551600284015551151591019060ff801983541691151516179055565b51923484523393a36001815580f35b634e487b7160e01b8c528b905260248bfd5b634e487b7160e01b8d526041895260248dfd5b8180809260058a5287822054908282156108f5575bf1156108eb5785386107be565b82513d87823e3d90fd5b506108fc6108de565b83608492519162461bcd60e51b8352820152602b60248201527f426964206d75737420626520686967686572207468616e2063757272656e742060448201526a1a1a59da195cdd08189a5960aa1b6064820152fd5b83606492519162461bcd60e51b8352820152601a6024820152790426964206d7573742062652067726561746572207468616e20360341b6044820152fd5b8380fd5b5090346101cc5760209182600319360112610991576001600160401b0391803590838211610a925736602383011215610a92578101359283116101c8576024600591368286851b83010111610a8e576109ec61151b565b865b8581106109f9578780f35b80841b82018301358089526006808952868a20549091908a906001600160a01b0316878b82610a37575b505050505050610a32906117da565b6109ee565b5288822054829182918291828215610a85575bf115610a7b578952848852858920899055875284882080546001600160a01b0319169055610a32388981878b610a23565b86513d8b823e3d90fd5b506108fc610a4a565b8680fd5b8580fd5b8382346106b957816003193601126106b95760015490516001600160a01b039091168152602090f35b508234610b2757610acf366114d3565b93908252602052818120908154841015610b275750608092610af0916114e9565b509060018060a01b038254169160018101549160ff6003600284015493015416928151948552602085015283015215156060820152f35b80fd5b5090346101cc5760203660031901126101cc57602092818392358252845220549051908152f35b8334610b275780600319360112610b2757610b6a61151b565b600180546001600160a01b031981169091556000906001600160a01b031660008051602061180a8339815191528280a380f35b508290346106b957610bae366114d3565b9092825193610bbc856115b7565b81855281606060209682888201528287820152015280825285855283822054831015610c5257816080968592610bf69594528652206114e9565b5090805191610c04836115b7565b60018060a01b03815416938484526001820154818501908152606060ff6003600286015495878901968752015416950194151585528351958652519085015251908301525115156060820152f35b835162461bcd60e51b81528087018690526011602482015270092dcecc2d8d2c840c4d2c840d2dcc8caf607b1b6044820152606490fd5b8382346106b957816003193601126106b957610ca361151b565b8180808060018060a01b03600154164790828215610cd0575bf115610cc6575080f35b51903d90823e3d90fd5b506108fc610cbc565b8382346106b957816003193601126106b95760025490516001600160a01b039091168152602090f35b5090346101cc5760203660031901126101cc5735825260066020908152918190205490516001600160a01b039091168152f35b50346101cc5760209081600319360112610991576002548151627eeac760e11b81528435949091849183916001600160a01b03169082908190610d7d908a90339084016115f5565b03915afa9081156108eb578591610dee575b50600392610d9f84921515611610565b848652818152610db660ff8385892001541661172b565b84865252832001805460ff1916905533907f8e25282255ab31897df2b0456bb993ac7f84d376861aefd84901d2d63a7428a28380a380f35b90508281813d8311610e15575b610e0581836115d2565b810103126106a357516003610d8f565b503d610dfb565b509060208060031936011261099157813590610e3c6002865414156116df565b60028555818552600390818152610e5a60ff8387892001541661172b565b8286528181526005858720015442101561106d5782865281815284862093855192610e8484611573565b8554845260018060a01b0391826001880154169484810195865260028801549060a060058b83019a848c5260ff8782015416151560608501528581015460808501520154910152341061103357828551163314610ff957908891610efa612710610ef28a516007549061176c565b048951611795565b918784528086528984200160ff19815416905583600254169084875116823b156101c857610f43928592838b938e5196879586948593637921219560e11b8552339185016117a2565b03925af1908115610fef578391610fdb575b5080809285885116828215610fd2575bf115610fbf57868551803411610f9b575b50506000805160206117ea833981519152925116935194519485523394a46001815580f35b8180610fa8819334611795565b818115610fc9575b3390f115610fbf578638610f76565b85513d88823e3d90fd5b506108fc610fb0565b506108fc610f65565b610fe4906115a4565b6106b9578138610f55565b89513d85823e3d90fd5b875162461bcd60e51b8152908101849052601460248201527321b0b73737ba10313abc9037bbb7103a37b5b2b760611b6044820152606490fd5b875162461bcd60e51b81529081018490526014602482015273125b9cdd59999a58da595b9d081c185e5b595b9d60621b6044820152606490fd5b8360649186519162461bcd60e51b8352820152600f60248201526e131a5cdd1a5b99c8195e1c1a5c9959608a1b6044820152fd5b50346101cc57602080600319360112610991576002548251627eeac760e11b81526001600160a01b03938535939290919083908290871681806110e78933838e016115f5565b03915afa80156112aa57879061127b575b61110491501515611610565b6111126002875414156116df565b600286558286526006825283818720541615611244578286526005825280862054936006835280828820541695876111596127106111526007548a61176c565b0488611795565b868252600586528482208290556006865284822080546001600160a01b0319169055600380875285832001805491949160ff8116611237575b50506002541691823b156106b9576111c49289838993885196879586948593637921219560e11b8552339085016117a2565b03925af1801561122d5761121a575b508680808093818115611211575b3390f11561120857906000805160206117ea83398151915291519384523393a46001815580f35b513d86823e3d90fd5b506108fc6111e1565b611226909791976115a4565b95386111d3565b83513d8a823e3d90fd5b60ff191690553880611192565b5162461bcd60e51b81528085019190915260116024820152704e6f206269647320617661696c61626c6560781b6044820152606490fd5b508281813d83116112a3575b61129181836115d2565b81010312610a8e5761110490516110f8565b503d611287565b82513d89823e3d90fd5b8382346106b957816003193601126106b9576020906007549051908152f35b5090346101cc5760203660031901126101cc57818360c09460a083516112f881611573565b828152826020820152828582015282606082015282608082015201528235815260036020522082519161132a83611573565b81549384845260018060a01b0380600185015416906020860191825260028501549183870192835260a0600560ff6003890154169660608a0197151588528801549760808a0198895201549701968752835197885251166020870152519085015251151560608401525160808301525160a0820152f35b50346101cc5760203660031901126101cc578135916113c46002855414156116df565b600284558284526006602052818420546001600160a01b03939084163314611492578452602052808320835b8154811015611489578461140482846114e9565b50548516331480611471575b611423575061141e906117da565b6113f0565b80939450600161144c8385600361143d86989787986114e9565b5001805460ff191690556114e9565b500154818115611468575b3390f115610cc657505b6001815580f35b506108fc611457565b5060ff600361148084866114e9565b50015416611410565b50505050611461565b506020606492519162461bcd60e51b8352820152601b60248201527a10d85b9b9bdd081dda5d1a191c985dc81a1a59da195cdd08189a59602a1b6044820152fd5b60409060031901126106a3576004359060243590565b80548210156115055760005260206000209060021b0190600090565b634e487b7160e01b600052603260045260246000fd5b6001546001600160a01b0316330361152f57565b606460405162461bcd60e51b815260206004820152602060248201527f4f776e61626c653a2063616c6c6572206973206e6f7420746865206f776e65726044820152fd5b60c081019081106001600160401b0382111761158e57604052565b634e487b7160e01b600052604160045260246000fd5b6001600160401b03811161158e57604052565b608081019081106001600160401b0382111761158e57604052565b601f909101601f19168101906001600160401b0382119082101761158e57604052565b6001600160a01b039091168152602081019190915260400190565b1561161757565b60405162461bcd60e51b815260206004820152600f60248201526e2737ba103a37b5b2b71037bbb732b960891b6044820152606490fd5b51906001600160a01b03821682036106a357565b919080601f840112156106a3578251906001600160401b03821161158e576040519160209161169a601f8301601f19168401856115d2565b8184528282870101116106a35760005b8181106116bf57508260009394955001015290565b85810183015184820184015282016116aa565b519081151582036106a357565b156116e657565b60405162461bcd60e51b815260206004820152601f60248201527f5265656e7472616e637947756172643a207265656e7472616e742063616c6c006044820152606490fd5b1561173257565b60405162461bcd60e51b81526020600482015260126024820152714c697374696e67206e6f742061637469766560701b6044820152606490fd5b8181029291811591840414171561177f57565b634e487b7160e01b600052601160045260246000fd5b9190820391821161177f57565b6001600160a01b0391821681529116602082015260408101919091526001606082015260a06080820181905260009082015260c00190565b600019811461177f576001019056fe3d5eb834b5d6cadc063c171c3f25f60bca8ea892ba9db25342278927d0af95568be0079c531659141344cd1fd0a4f28419497f9722a3daafe3b4186f6b6457e0a26469706673582212205c4dcd6ac2b58a42cb866b0604f07908cf8af4acfbed9663ea266629111b2c8e64736f6c63430008140033",
  "linkReferences": {},
  "deployedLinkReferences": {}
}