{
  "_format": "hh-sol-artifact-1",
  "contractName": "InvoiceToken",
  "sourceName": "contracts/InvoiceToken.sol",
  "abi": [
    {
      "inputs": [
        {
          "internalType": "address",
          "name": "_feeRecipient",
          "type": "address"
        }
      ],
      "stateMutability": "nonpayable",
      "type": "constructor"
    },
    {
      "anonymous": false,
      "inputs": [
        {
          "indexed": true,
          "internalType": "address",
          "name": "account",
          "type": "address"
        },
        {
          "indexed": true,
          "internalType": "address",
          "name": "operator",
          "type": "address"
        },
        {
          "indexed": false,
          "internalType": "bool",
          "name": "approved",
          "type": "bool"
        }
      ],
      "name": "ApprovalForAll",
      "type": "event"
    },
    {
      "anonymous": false,
      "inputs": [
        {
          "indexed": true,
          "internalType": "address",
          "name": "user",
          "type": "address"
        },
        {
          "indexed": false,
          "internalType": "uint256",
          "name": "newScore",
          "type": "uint256"
        }
      ],
      "name": "CreditScoreUpdated",
      "type": "event"
    },
    {
      "anonymous": false,
      "inputs": [
        {
          "indexed": true,
          "internalType": "uint256",
          "name": "tokenId",
          "type": "uint256"
        },
        {
          "indexed": false,
          "internalType": "uint256",
          "name": "amount",
          "type": "uint256"
        },
        {
          "indexed": false,
          "internalType": "uint256",
          "name": "timestamp",
          "type": "uint256"
        }
      ],
      "name": "InvoicePaid",
      "type": "event"
    },
    {
      "anonymous": false,
      "inputs": [
        {
          "indexed": true,
          "internalType": "uint256",
          "name": "tokenId",
          "type": "uint256"
        },
        {
          "indexed": false,
          "internalType": "string",
          "name": "invoiceId",
          "type": "string"
        },
        {
          "indexed": true,
          "internalType": "address",
          "name": "issuer",
          "type": "address"
        },
        {
          "indexed": false,
          "internalType": "uint256",
          "name": "totalValue",
          "type": "uint256"
        },
        {
          "indexed": false,
          "internalType": "uint256",
          "name": "totalShares",
          "type": "uint256"
        },
        {
          "indexed": false,
          "internalType": "uint256",
          "name": "dueDate",
          "type": "uint256"
        }
      ],
      "name": "InvoiceTokenized",
      "type": "event"
    },
    {
      "anonymous": false,
      "inputs": [
        {
          "indexed": true,
          "internalType": "uint256",
          "name": "tokenId",
          "type": "uint256"
        },
        {
          "indexed": false,
          "internalType": "address",
          "name": "verifier",
          "type": "address"
        }
      ],
      "name": "InvoiceVerified",
      "type": "event"
    },
    {
      "anonymous": false,
      "inputs": [
        {
          "indexed": true,
          "internalType": "address",
          "name": "previousOwner",
          "type": "address"
        },
        {
          "indexed": true,
          "internalType": "address",
          "name": "newOwner",
          "type": "address"
        }
      ],
      "name": "OwnershipTransferred",
      "type": "event"
    },
    {
      "anonymous": false,
      "inputs": [
        {
          "indexed": false,
          "internalType": "address",
          "name": "account",
          "type": "address"
        }
      ],
      "name": "Paused",
      "type": "event"
    },
    {
      "anonymous": false,
      "inputs": [
        {
          "indexed": true,
          "internalType": "uint256",
          "name": "tokenId",
          "type": "uint256"
        },
        {
          "indexed": false,
          "internalType": "uint256",
          "name": "totalAmount",
          "type": "uint256"
        }
      ],
      "name": "PaymentDistributed",
      "type": "event"
    },
    {
      "anonymous": false,
      "inputs": [
        {
          "indexed": true,
          "internalType": "uint256",
          "name": "tokenId",
          "type": "uint256"
        },
        {
          "indexed": false,
          "internalType": "address",
          "name": "from",
          "type": "address"
        },
        {
          "indexed": false,
          "internalType": "address",
          "name": "to",
          "type": "address"
        },
        {
          "indexed": false,
          "internalType": "uint256",
          "name": "amount",
          "type": "uint256"
        }
      ],
      "name": "SharesTraded",
      "type": "event"
    },
    {
      "anonymous": false,
      "inputs": [
        {
          "indexed": true,
          "internalType": "address",
          "name": "operator",
          "type": "address"
        },
        {
          "indexed": true,
          "internalType": "address",
          "name": "from",
          "type": "address"
        },
        {
          "indexed": true,
          "internalType": "address",
          "name": "to",
          "type": "address"
        },
        {
          "indexed": false,
          "internalType": "uint256[]",
          "name": "ids",
          "type": "uint256[]"
        },
        {
          "indexed": false,
          "internalType": "uint256[]",
          "name": "values",
          "type": "uint256[]"
        }
      ],
      "name": "TransferBatch",
      "type": "event"
    },
    {
      "anonymous": false,
      "inputs": [
        {
          "indexed": true,
          "internalType": "address",
          "name": "operator",
          "type": "address"
        },
        {
          "indexed": true,
          "internalType": "address",
          "name": "from",
          "type": "address"
        },
        {
          "indexed": true,
          "internalType": "address",
          "name": "to",
          "type": "address"
        },
        {
          "indexed": false,
          "internalType": "uint256",
          "name": "id",
          "type": "uint256"
        },
        {
          "indexed": false,
          "internalType": "uint256",
          "name": "value",
          "type": "uint256"
        }
      ],
      "name": "TransferSingle",
      "type": "event"
    },
    {
      "anonymous": false,
      "inputs": [
        {
          "indexed": false,
          "internalType": "string",
          "name": "value",
          "type": "string"
        },
        {
          "indexed": true,
          "internalType": "uint256",
          "name": "id",
          "type": "uint256"
        }
      ],
      "name": "URI",
      "type": "event"
    },
    {
      "anonymous": false,
      "inputs": [
        {
          "indexed": false,
          "internalType": "address",
          "name": "account",
          "type": "address"
        }
      ],
      "name": "Unpaused",
      "type": "event"
    },
    {
      "anonymous": false,
      "inputs": [
        {
          "indexed": true,
          "internalType": "uint256",
          "name": "tokenId",
          "type": "uint256"
        },
        {
          "indexed": false,
          "internalType": "address",
          "name": "voter",
          "type": "address"
        },
        {
          "indexed": false,
          "internalType": "uint256",
          "name": "shares",
          "type": "uint256"
        },
        {
          "indexed": false,
          "internalType": "bool",
          "name": "approval",
          "type": "bool"
        }
      ],
      "name": "VoteCast",
      "type": "event"
    },
    {
      "inputs": [
        {
          "internalType": "address",
          "name": "issuer",
          "type": "address"
        }
      ],
      "name": "addVerifiedIssuer",
      "outputs": [],
      "stateMutability": "nonpayable",
      "type": "function"
    },
    {
      "inputs": [
        {
          "internalType": "address",
          "name": "account",
          "type": "address"
        },
        {
          "internalType": "uint256",
          "name": "id",
          "type": "uint256"
        }
      ],
      "name": "balanceOf",
      "outputs": [
        {
          "internalType": "uint256",
          "name": "",
          "type": "uint256"
        }
      ],
      "stateMutability": "view",
      "type": "function"
    },
    {
      "inputs": [
        {
          "internalType": "address[]",
          "name": "accounts",
          "type": "address[]"
        },
        {
          "internalType": "uint256[]",
          "name": "ids",
          "type": "uint256[]"
        }
      ],
      "name": "balanceOfBatch",
      "outputs": [
        {
          "internalType": "uint256[]",
          "name": "",
          "type": "uint256[]"
        }
      ],
      "stateMutability": "view",
      "type": "function"
    },
    {
      "inputs": [
        {
          "internalType": "uint256",
          "name": "tokenId",
          "type": "uint256"
        },
        {
          "internalType": "address",
          "name": "shareholder",
          "type": "address"
        }
      ],
      "name": "calculateYield",
      "outputs": [
        {
          "internalType": "uint256",
          "name": "",
          "type": "uint256"
        }
      ],
      "stateMutability": "view",
      "type": "function"
    },
    {
      "inputs": [
        {
          "internalType": "address",
          "name": "",
          "type": "address"
        }
      ],
      "name": "creditScores",
      "outputs": [
        {
          "internalType": "uint256",
          "name": "",
          "type": "uint256"
        }
      ],
      "stateMutability": "view",
      "type": "function"
    },
    {
      "inputs": [],
      "name": "emergencyWithdraw",
      "outputs": [],
      "stateMutability": "nonpayable",
      "type": "function"
    },
    {
      "inputs": [],
      "name": "feeRecipient",
      "outputs": [
        {
          "internalType": "address",
          "name": "",
          "type": "address"
        }
      ],
      "stateMutability": "view",
      "type": "function"
    },
    {
      "inputs": [
        {
          "internalType": "uint256",
          "name": "tokenId",
          "type": "uint256"
        }
      ],
      "name": "getInvoice",
      "outputs": [
        {
          "components": [
            {
              "internalType": "uint256",
              "name": "totalValue",
              "type": "uint256"
            },
            {
              "internalType": "uint256",
              "name": "totalShares",
              "type": "uint256"
            },
            {
              "internalType": "uint256",
              "name": "dueDate",
              "type": "uint256"
            },
            {
              "internalType": "address",
              "name": "issuer",
              "type": "address"
            },
            {
              "internalType": "address",
              "name": "debtor",
              "type": "address"
            },
            {
              "internalType": "string",
              "name": "invoiceId",
              "type": "string"
            },
            {
              "internalType": "string",
              "name": "ipfsHash",
              "type": "string"
            },
            {
              "internalType": "bool",
              "name": "isVerified",
              "type": "bool"
            },
            {
              "internalType": "bool",
              "name": "isPaid",
              "type": "bool"
            },
            {
              "internalType": "uint256",
              "name": "creditScore",
              "type": "uint256"
            },
            {
              "internalType": "string",
              "name": "industry",
              "type": "string"
            },
            {
              "internalType": "uint256",
              "name": "createdAt",
              "type": "uint256"
            },
            {
              "internalType": "uint256",
              "name": "maturityDate",
              "type": "uint256"
            },
            {
              "internalType": "uint8",
              "name": "riskRating",
              "type": "uint8"
            },
            {
              "internalType": "uint256",
              "name": "interestRate",
              "type": "uint256"
            }
          ],
          "internalType": "struct InvoiceToken.Invoice",
          "name": "",
          "type": "tuple"
        }
      ],
      "stateMutability": "view",
      "type": "function"
    },
    {
      "inputs": [
        {
          "internalType": "uint256",
          "name": "tokenId",
          "type": "uint256"
        }
      ],
      "name": "getVotingResults",
      "outputs": [
        {
          "internalType": "uint256",
          "name": "approvalVotes",
          "type": "uint256"
        },
        {
          "internalType": "uint256",
          "name": "totalSharesVoted",
          "type": "uint256"
        }
      ],
      "stateMutability": "view",
      "type": "function"
    },
    {
      "inputs": [
        {
          "internalType": "string",
          "name": "",
          "type": "string"
        }
      ],
      "name": "invoiceIdToTokenId",
      "outputs": [
        {
          "internalType": "uint256",
          "name": "",
          "type": "uint256"
        }
      ],
      "stateMutability": "view",
      "type": "function"
    },
    {
      "inputs": [
        {
          "internalType": "uint256",
          "name": "",
          "type": "uint256"
        }
      ],
      "name": "invoices",
      "outputs": [
        {
          "internalType": "uint256",
          "name": "totalValue",
          "type": "uint256"
        },
        {
          "internalType": "uint256",
          "name": "totalShares",
          "type": "uint256"
        },
        {
          "internalType": "uint256",
          "name": "dueDate",
          "type": "uint256"
        },
        {
          "internalType": "address",
          "name": "issuer",
          "type": "address"
        },
        {
          "internalType": "address",
          "name": "debtor",
          "type": "address"
        },
        {
          "internalType": "string",
          "name": "invoiceId",
          "type": "string"
        },
        {
          "internalType": "string",
          "name": "ipfsHash",
          "type": "string"
        },
        {
          "internalType": "bool",
          "name": "isVerified",
          "type": "bool"
        },
        {
          "internalType": "bool",
          "name": "isPaid",
          "type": "bool"
        },
        {
          "internalType": "uint256",
          "name": "creditScore",
          "type": "uint256"
        },
        {
          "internalType": "string",
          "name": "industry",
          "type": "string"
        },
        {
          "internalType": "uint256",
          "name": "createdAt",
          "type": "uint256"
        },
        {
          "internalType": "uint256",
          "name": "maturityDate",
          "type": "uint256"
        },
        {
          "internalType": "uint8",
          "name": "riskRating",
          "type": "uint8"
        },
        {
          "internalType": "uint256",
          "name": "interestRate",
          "type": "uint256"
        }
      ],
      "stateMutability": "view",
      "type": "function"
    },
    {
      "inputs": [
        {
          "internalType": "address",
          "name": "account",
          "type": "address"
        },
        {
          "internalType": "address",
          "name": "operator",
          "type": "address"
        }
      ],
      "name": "isApprovedForAll",
      "outputs": [
        {
          "internalType": "bool",
          "name": "",
          "type": "bool"
        }
      ],
      "stateMutability": "view",
      "type": "function"
    },
    {
      "inputs": [
        {
          "internalType": "uint256",
          "name": "tokenId",
          "type": "uint256"
        },
        {
          "internalType": "uint256",
          "name": "paidAmount",
          "type": "uint256"
        }
      ],
      "name": "markInvoicePaid",
      "outputs": [],
      "stateMutability": "nonpayable",
      "type": "function"
    },
    {
      "inputs": [],
      "name": "owner",
      "outputs": [
        {
          "internalType": "address",
          "name": "",
          "type": "address"
        }
      ],
      "stateMutability": "view",
      "type": "function"
    },
    {
      "inputs": [],
      "name": "pause",
      "outputs": [],
      "stateMutability": "nonpayable",
      "type": "function"
    },
    {
      "inputs": [],
      "name": "paused",
      "outputs": [
        {
          "internalType": "bool",
          "name": "",
          "type": "bool"
        }
      ],
      "stateMutability": "view",
      "type": "function"
    },
    {
      "inputs": [],
      "name": "platformFee",
      "outputs": [
        {
          "internalType": "uint256",
          "name": "",
          "type": "uint256"
        }
      ],
      "stateMutability": "view",
      "type": "function"
    },
    {
      "inputs": [
        {
          "internalType": "address",
          "name": "issuer",
          "type": "address"
        }
      ],
      "name": "removeVerifiedIssuer",
      "outputs": [],
      "stateMutability": "nonpayable",
      "type": "function"
    },
    {
      "inputs": [],
      "name": "renounceOwnership",
      "outputs": [],
      "stateMutability": "nonpayable",
      "type": "function"
    },
    {
      "inputs": [
        {
          "internalType": "address",
          "name": "from",
          "type": "address"
        },
        {
          "internalType": "address",
          "name": "to",
          "type": "address"
        },
        {
          "internalType": "uint256[]",
          "name": "ids",
          "type": "uint256[]"
        },
        {
          "internalType": "uint256[]",
          "name": "amounts",
          "type": "uint256[]"
        },
        {
          "internalType": "bytes",
          "name": "data",
          "type": "bytes"
        }
      ],
      "name": "safeBatchTransferFrom",
      "outputs": [],
      "stateMutability": "nonpayable",
      "type": "function"
    },
    {
      "inputs": [
        {
          "internalType": "address",
          "name": "from",
          "type": "address"
        },
        {
          "internalType": "address",
          "name": "to",
          "type": "address"
        },
        {
          "internalType": "uint256",
          "name": "id",
          "type": "uint256"
        },
        {
          "internalType": "uint256",
          "name": "amount",
          "type": "uint256"
        },
        {
          "internalType": "bytes",
          "name": "data",
          "type": "bytes"
        }
      ],
      "name": "safeTransferFrom",
      "outputs": [],
      "stateMutability": "nonpayable",
      "type": "function"
    },
    {
      "inputs": [
        {
          "internalType": "address",
          "name": "operator",
          "type": "address"
        },
        {
          "internalType": "bool",
          "name": "approved",
          "type": "bool"
        }
      ],
      "name": "setApprovalForAll",
      "outputs": [],
      "stateMutability": "nonpayable",
      "type": "function"
    },
    {
      "inputs": [
        {
          "internalType": "uint256",
          "name": "",
          "type": "uint256"
        },
        {
          "internalType": "address",
          "name": "",
          "type": "address"
        }
      ],
      "name": "shareholderVotes",
      "outputs": [
        {
          "internalType": "uint256",
          "name": "",
          "type": "uint256"
        }
      ],
      "stateMutability": "view",
      "type": "function"
    },
    {
      "inputs": [
        {
          "internalType": "bytes4",
          "name": "interfaceId",
          "type": "bytes4"
        }
      ],
      "name": "supportsInterface",
      "outputs": [
        {
          "internalType": "bool",
          "name": "",
          "type": "bool"
        }
      ],
      "stateMutability": "view",
      "type": "function"
    },
    {
      "inputs": [
        {
          "internalType": "string",
          "name": "_invoiceId",
          "type": "string"
        },
        {
          "internalType": "uint256",
          "name": "_totalValue",
          "type": "uint256"
        },
        {
          "internalType": "uint256",
          "name": "_totalShares",
          "type": "uint256"
        },
        {
          "internalType": "uint256",
          "name": "_dueDate",
          "type": "uint256"
        },
        {
          "internalType": "address",
          "name": "_debtor",
          "type": "address"
        },
        {
          "internalType": "string",
          "name": "_ipfsHash",
          "type": "string"
        },
        {
          "internalType": "string",
          "name": "_industry",
          "type": "string"
        },
        {
          "internalType": "uint8",
          "name": "_riskRating",
          "type": "uint8"
        },
        {
          "internalType": "uint256",
          "name": "_interestRate",
          "type": "uint256"
        }
      ],
      "name": "tokenizeInvoice",
      "outputs": [],
      "stateMutability": "payable",
      "type": "function"
    },
    {
      "inputs": [
        {
          "internalType": "uint256",
          "name": "",
          "type": "uint256"
        }
      ],
      "name": "totalVotes",
      "outputs": [
        {
          "internalType": "uint256",
          "name": "",
          "type": "uint256"
        }
      ],
      "stateMutability": "view",
      "type": "function"
    },
    {
      "inputs": [
        {
          "internalType": "address",
          "name": "newOwner",
          "type": "address"
        }
      ],
      "name": "transferOwnership",
      "outputs": [],
      "stateMutability": "nonpayable",
      "type": "function"
    },
    {
      "inputs": [],
      "name": "unpause",
      "outputs": [],
      "stateMutability": "nonpayable",
      "type": "function"
    },
    {
      "inputs": [
        {
          "internalType": "address",
          "name": "newRecipient",
          "type": "address"
        }
      ],
      "name": "updateFeeRecipient",
      "outputs": [],
      "stateMutability": "nonpayable",
      "type": "function"
    },
    {
      "inputs": [
        {
          "internalType": "uint256",
          "name": "newFee",
          "type": "uint256"
        }
      ],
      "name": "updatePlatformFee",
      "outputs": [],
      "stateMutability": "nonpayable",
      "type": "function"
    },
    {
      "inputs": [
        {
          "internalType": "uint256",
          "name": "newFee",
          "type": "uint256"
        }
      ],
      "name": "updateVerificationFee",
      "outputs": [],
      "stateMutability": "nonpayable",
      "type": "function"
    },
    {
      "inputs": [
        {
          "internalType": "uint256",
          "name": "",
          "type": "uint256"
        }
      ],
      "name": "uri",
      "outputs": [
        {
          "internalType": "string",
          "name": "",
          "type": "string"
        }
      ],
      "stateMutability": "view",
      "type": "function"
    },
    {
      "inputs": [],
      "name": "verificationFee",
      "outputs": [
        {
          "internalType": "uint256",
          "name": "",
          "type": "uint256"
        }
      ],
      "stateMutability": "view",
      "type": "function"
    },
    {
      "inputs": [
        {
          "internalType": "address",
          "name": "",
          "type": "address"
        }
      ],
      "name": "verifiedIssuers",
      "outputs": [
        {
          "internalType": "bool",
          "name": "",
          "type": "bool"
        }
      ],
      "stateMutability": "view",
      "type": "function"
    },
    {
      "inputs": [
        {
          "internalType": "uint256",
          "name": "tokenId",
          "type": "uint256"
        }
      ],
      "name": "verifyInvoice",
      "outputs": [],
      "stateMutability": "nonpayable",
      "type": "function"
    },
    {
      "inputs": [
        {
          "internalType": "uint256",
          "name": "tokenId",
          "type": "uint256"
        },
        {
          "internalType": "bool",
          "name": "approval",
          "type": "bool"
        }
      ],
      "name": "vote",
      "outputs": [],
      "stateMutability": "nonpayable",
      "type": "function"
    }
  ],
  "bytecode": "0x608034620001e4576001600160401b0390601f6200323738819003918201601f191683019184831184841017620001ce57808492602094604052833981010312620001e457516001600160a01b038082169291839003620001e457604051916020830190811183821017620001ce5760405260008092526002546001908181811c91168015620001c3575b6020821014620001af57601f811162000161575b508260025560035460018060a01b03199333858316176003557f8be0079c531659141344cd1fd0a4f28419497f9722a3daafe3b4186f6b6457e0604051943393169180a360045560ff196005541660055560fa600d55662386f26fc10000600e5582156200011f5750600f541617600f5560405161304d9081620001ea8239f35b62461bcd60e51b815260206004820152601560248201527f496e76616c69642066656520726563697069656e7400000000000000000000006044820152606490fd5b60028452601f0160051c7f405787fa12a823e0f2b7631cc41b3ba8828b3321ca811111fa75cd3aa3bb5ace9081019082905b828110620001a35750506200009e565b85815501829062000193565b634e487b7160e01b84526022600452602484fd5b90607f16906200008a565b634e487b7160e01b600052604160045260246000fd5b600080fdfe6080604052600436101561001257600080fd5b60003560e01c8062fdd58e1461217557806301ffc9a7146121075780630e89341c1461204257806319e6e1581461201657806326232a2e14611ff85780632eb2c2d614611e285780633424629714611de05780633a23cc0a14611b8e5780633ed46f7a14611b4f5780633f4ba83a14611abb5780634690484014611a925780634c1301e9146119bb5780634e1273f41461183d5780634e6d14051461171a5780635c975abb146116f7578063715018a6146116ac57806372b184f71461166a578063799d288f1461140c57806380bb7273146113d25780638456cb59146113785780638da5cb5b1461134f57806393285bf8146112f3578063a22cb46514611209578063a8c278a2146111eb578063aa0b59881461118d578063b033fc7914610691578063bbb4ef4114610663578063c0d0080114610608578063c9d27afe146104ac578063cd89b2e31461047c578063d4309f4b1461045b578063db2e21bc1461040b578063e985e9c5146103b5578063f160d36914610338578063f242432a1461025d5763f2fde38b146101a757600080fd5b34610258576020366003190112610258576101c061219c565b6101c861243d565b6001600160a01b0390811690811561020457600380546001600160a01b03198116841790915516600080516020612ff8833981519152600080a3005b60405162461bcd60e51b815260206004820152602660248201527f4f776e61626c653a206e6577206f776e657220697320746865207a65726f206160448201526564647265737360d01b6064820152608490fd5b600080fd5b346102585760a03660031901126102585761027661219c565b61027e6121b2565b6044359160643591906084356001600160401b03811161025857600080516020612fd8833981519152936102b96103139236906004016122c4565b908660005260076020526102d760ff600760406000200154166127e7565b6102f16127106102e9600d548461282a565b04809261285d565b916102ff81848a89896128f0565b81610318575b50506040519384938461286a565b0390a2005b600f54610331929089906001600160a01b0316876128f0565b8680610305565b346102585760203660031901126102585761035161219c565b61035961243d565b6001600160a01b0316801561037e57600f80546001600160a01b031916919091179055005b60405162461bcd60e51b815260206004820152600f60248201526e496e76616c6964206164647265737360881b6044820152606490fd5b34610258576040366003190112610258576103ce61219c565b6103d66121b2565b9060018060a01b03809116600052600160205260406000209116600052602052602060ff604060002054166040519015158152f35b346102585760003660031901126102585761042461243d565b600080808060018060a01b03600354164790828215610452575bf11561044657005b6040513d6000823e3d90fd5b506108fc61043e565b346102585760203660031901126102585761047461243d565b600435600e55005b3461025857602036600319011261025857600435600052600c602052604080600020548151908082526020820152f35b34610258576040366003190112610258576004356104c861242e565b81600052602090600782526104ee6104e760056040600020015461234e565b15156127a4565b6104f88333612495565b80156105c95783600052600b8352604060002033600052835260406000205461059457916060917fb898e75d5aac8de2f407e4a683c8d909e832d1e371e3bff0fa3ed934e88d95629385600052600b835260406000203360005283528181604060002055610575575b6040519233845283015215156040820152a2005b85600052600c8352604060002061058d828254612615565b9055610561565b60405162461bcd60e51b815260048101849052600d60248201526c105b1c9958591e481d9bdd1959609a1b6044820152606490fd5b60405162461bcd60e51b81526004810184905260176024820152764d757374206f776e2073686172657320746f20766f746560481b6044820152606490fd5b346102585760203660031901126102585761062161219c565b61062961243d565b60018060a01b031660005260096020526040600020600160ff19825416179055600a602052604060002080541561065c57005b61028a9055005b346102585760403660031901126102585760206106896106816121b2565b600435612e72565b604051908152f35b610120366003190112610258576004356001600160401b038111610258576106bd9036906004016122c4565b6084356001600160a01b03811681036102585760a4356001600160401b038111610258576106ef9036906004016122c4565b9060c4356001600160401b0381116102585761070f9036906004016122c4565b60e43560ff811681036102585733600052600960205260ff60406000205416156111505761073b6125d1565b61074a60026004541415612585565b6002600455600e54341061110b57602435156110d0576044351515806110c2575b156110875742606435111561104f576001600160a01b0383161561101157600160ff8216101580611003575b15610fc85760405160208187516107b18183858c016121c8565b8101600881520301902054610f875760ff91600160065401948560065533600052600a60205260406000205490604051956107eb87612210565b60243587526044356020880152606435604088015233606088015260018060a01b031660808701528760a087015260c0860152600060e0860152600061010086015261012085015261014084015242610160840152606435610180840152166101a0820152610104356101c08201528160005260076020526040600020908051825560208101516001830155604081015160028301556003820160018060a01b036060830151169060018060a01b03199182825416179055600483019060018060a01b036080840151169082541617905560a081015180519060018060401b038211610d095781906108e0600586015461234e565b601f8111610f34575b50602090601f8311600114610ec257600092610eb7575b50508160011b916000199060031b1c19161760058301555b60c08101518051906001600160401b038211610d0957819061093d600686015461234e565b601f8111610e64575b50602090601f8311600114610df257600092610de7575b50508160011b916000199060031b1c19161760068301555b6007820161099560e08301511515829060ff801983541691151516179055565b610100820151151561ff0082549160081b169061ff001916179055610120810151600883015561014081015180519060018060401b038211610d09576109de600985015461234e565b601f8111610da0575b50602090601f8311600114610d2a579180600d94926101c094600092610d1f575b50508160011b916000199060031b1c19161760098501555b610160810151600a850155610180810151600b850155600c840160ff6101a08301511660ff198254161790550151910155806040516020818551610a678183858a016121c8565b60089082019081520301902055604051602081016001600160401b03811182821017610d0957604052600081523315610cba57610aa38261276f565b50610aaf60443561276f565b508160005260006020526040600020336000526020526040600020610ad76044358254612615565b9055604051828152604435602082015260003391600080516020612fb883398151915260403392a4333b610b9d575b5034158015610b6d575b507f58edd0819f386745be5a0abadd29d2414b80bad6ceea55b7a38e041695e38fe4610b47604051936080855260808501906121eb565b926024356020820152604435604082015260643560608201528033940390a36001600455005b60008080809360018060a01b03600f54168291610b93575b3491f1156104465782610b10565b6108fc9150610b85565b60405160208180610bdf63f23a6e6160e01b9586835233600484015260006024840152876044840152604435606484015260a0608484015260a48301906121eb565b03816000335af160009181610c89575b50610c5b57610bfc61268b565b6308c379a014610c24575b60405162461bcd60e51b815280610c206004820161271a565b0390fd5b610c2c6126a9565b80610c375750610c07565b60405162461bcd60e51b815260206004820152908190610c209060248301906121eb565b6001600160e01b03191603610c705782610b06565b60405162461bcd60e51b815280610c2060048201612642565b610cac91925060203d602011610cb3575b610ca4818361222c565b810190612622565b9085610bef565b503d610c9a565b60405162461bcd60e51b815260206004820152602160248201527f455243313135353a206d696e7420746f20746865207a65726f206164647265736044820152607360f81b6064820152608490fd5b634e487b7160e01b600052604160045260246000fd5b015190508880610a08565b906009850160005260206000209160005b601f1985168110610d88575092600d94926001926101c09583601f19811610610d6f575b505050811b016009850155610a20565b015160001960f88460031b161c19169055888080610d5f565b91926020600181928685015181550194019201610d3b565b600985016000526020600020601f840160051c810160208510610de0575b601f830160051c82018110610dd45750506109e7565b60008155600101610dbe565b5080610dbe565b01519050868061095d565b9250600685016000526020600020906000935b601f1984168510610e49576001945083601f19811610610e30575b505050811b016006830155610975565b015160001960f88460031b161c19169055868080610e20565b81810151835560209485019460019093019290910190610e05565b909150600685016000526020600020601f840160051c810160208510610eb0575b90849392915b601f830160051c82018110610ea1575050610946565b60008155859450600101610e8b565b5080610e85565b015190508680610900565b9250600585016000526020600020906000935b601f1984168510610f19576001945083601f19811610610f00575b505050811b016005830155610918565b015160001960f88460031b161c19169055868080610ef0565b81810151835560209485019460019093019290910190610ed5565b909150600585016000526020600020601f840160051c810160208510610f80575b90849392915b601f830160051c82018110610f715750506108e9565b60008155859450600101610f5b565b5080610f55565b60405162461bcd60e51b8152602060048201526019602482015278125b9d9bda58d948185b1c9958591e481d1bdad95b9a5e9959603a1b6044820152606490fd5b60405162461bcd60e51b8152602060048201526013602482015272496e76616c6964207269736b20726174696e6760681b6044820152606490fd5b50600a60ff82161115610797565b60405162461bcd60e51b8152602060048201526016602482015275496e76616c696420646562746f72206164647265737360501b6044820152606490fd5b60405162461bcd60e51b815260206004820152601060248201526f496e76616c696420647565206461746560801b6044820152606490fd5b60405162461bcd60e51b8152602060048201526013602482015272125b9d985b1a59081cda185c994818dbdd5b9d606a1b6044820152606490fd5b50612710604435111561076b565b60405162461bcd60e51b8152602060048201526013602482015272496e76616c696420746f74616c2076616c756560681b6044820152606490fd5b60405162461bcd60e51b815260206004820152601d60248201527f496e73756666696369656e7420766572696669636174696f6e206665650000006044820152606490fd5b60405162461bcd60e51b81526020600482015260156024820152742737ba1030903b32b934b334b2b21034b9b9bab2b960591b6044820152606490fd5b34610258576020366003190112610258576004356111a961243d565b6103e881116111b757600d55005b60405162461bcd60e51b815260206004820152600c60248201526b08ccaca40e8dede40d0d2ced60a31b6044820152606490fd5b34610258576000366003190112610258576020600e54604051908152f35b346102585760403660031901126102585761122261219c565b61122a61242e565b6001600160a01b039091169033821461129c5733600052600160205260406000208260005260205261126c8160406000209060ff801983541691151516179055565b60405190151581527f17307eab39ab6107e8899845ad3d59bd9653f200f220920489ca2b5937696c3160203392a3005b60405162461bcd60e51b815260206004820152602960248201527f455243313135353a2073657474696e6720617070726f76616c20737461747573604482015268103337b91039b2b63360b91b6064820152608490fd5b34610258576020366003190112610258576004356001600160401b0381116102585761133c6020611329819336906004016122c4565b81604051938285809451938492016121c8565b8101600881520301902054604051908152f35b34610258576000366003190112610258576003546040516001600160a01b039091168152602090f35b346102585760003660031901126102585761139161243d565b6113996125d1565b600160ff1960055416176005557f62e78cea01bee320cd4e420270b5ea74000d11b0c9f74754ebdbfc544b05a2586020604051338152a1005b34610258576020366003190112610258576001600160a01b036113f361219c565b16600052600a6020526020604060002054604051908152f35b3461025857604036600319011261025857600435602435816000526020600781526114416104e760056040600020015461234e565b61145060026004541415612585565b600260045582600052600781526040600020916007830180549060ff8260081c1661162e5760048501546001600160a01b039290831633148015611621575b156115ed5783156115af5761ff0019166101001790556003840154935493166000818152600a8452604090205480156115a6575b60648302838104606403611590576115287f79c012a0cfae660e09134956bc432c8497ec80e86a3a108d130e8b3fca52b3ad926115227f1dc1ff445d92fc99ebf61a473f0f7dda3c6c8f9bd1cedfd74bafb2ff69395b3398889461283d565b90612615565b610352908082101561158957505b83600052600a825280604060002055604051908152a2837f2a2856cfa1df898bbc0e6d517e310b7056b588c393f1918685a541f213f2f1a7604080518481524286820152a2604051908152a26001600455005b9050611536565b634e487b7160e01b600052601160045260246000fd5b5061028a6114c3565b60405162461bcd60e51b8152600481018690526016602482015275125b9d985b1a59081c185e5b595b9d08185b5bdd5b9d60521b6044820152606490fd5b60405162461bcd60e51b815260048101869052600c60248201526b155b985d5d1a1bdc9a5e995960a21b6044820152606490fd5b508260035416331461148f565b60405162461bcd60e51b8152600481018590526014602482015273125b9d9bda58d948185b1c9958591e481c185a5960621b6044820152606490fd5b346102585760203660031901126102585761168361219c565b61168b61243d565b6001600160a01b03166000908152600960205260409020805460ff19169055005b34610258576000366003190112610258576116c561243d565b600380546001600160a01b031981169091556000906001600160a01b0316600080516020612ff88339815191528280a3005b3461025857600036600319011261025857602060ff600554166040519015158152f35b34610258576020366003190112610258576004356000526007602052604060002080546001820154916002810154600160a01b60019003918260038201541692600482015416926005820161176e90612388565b61177a60068401612388565b60078401546008850154909161179260098701612388565b93600a87015498600b88015496600c89015460ff1698600d0154996040519d8e809e81526020015260408d015260608c015260808b01526101e08060a08c01528a016117dd916121eb565b89810360c08b01526117ee916121eb565b9160ff8116151560e08a015260081c60ff161515610100890152610120880152868103610140880152611820916121eb565b936101608601526101808501526101a08401526101c08301520390f35b34610258576040366003190112610258576004356001600160401b0380821161025857366023830112156102585781600401359061187a8261224f565b92611888604051948561222c565b82845260209260248486019160051b8301019136831161025857602401905b82821061199c57505050602435908111610258576118c9903690600401612266565b8251815103611945576118dc835161251a565b9260005b815181101561192a57611925906119156001600160a01b03611902838661255b565b511661190e838761255b565b5190612495565b61191f828861255b565b5261254c565b6118e0565b50505061194160405192828493845283019061231a565b0390f35b60405162461bcd60e51b815260048101839052602960248201527f455243313135353a206163636f756e747320616e6420696473206c656e677468604482015268040dad2e6dac2e8c6d60bb1b6064820152608490fd5b81356001600160a01b03811681036102585781529084019084016118a7565b346102585760208060031936011261025857600435906119d961243d565b81600052600781526119f56104e760056040600020015461234e565b816000526007815260ff60076040600020015416611a53577f5f335aeb90296421c78d3bdc1af9043846ad4773cee0a0d0d909915726b30a589082600052600781526007604060002001600160ff19825416179055604051338152a2005b6064906040519062461bcd60e51b825260048201526018602482015277125b9d9bda58d948185b1c9958591e481d995c9a599a595960421b6044820152fd5b3461025857600036600319011261025857600f546040516001600160a01b039091168152602090f35b3461025857600036600319011261025857611ad461243d565b60055460ff811615611b135760ff19166005557f5db9ee0a495bf2e6ff9c91a7834c1ba4fdd244a5e8aa4e537bd38aeae4b073aa6020604051338152a1005b60405162461bcd60e51b815260206004820152601460248201527314185d5cd8589b194e881b9bdd081c185d5cd95960621b6044820152606490fd5b34610258576020366003190112610258576001600160a01b03611b7061219c565b166000526009602052602060ff604060002054166040519015158152f35b346102585760203660031901126102585760006101c0604051611bb081612210565b828152826020820152826040820152826060820152826080820152606060a0820152606060c08201528260e0820152826101008201528261012082015260606101408201528261016082015282610180820152826101a0820152015260043560005260076020526040600020600d60405191611c2b83612210565b80548352600181015460208401526002810154604084015260038101546001600160a01b0390811660608501526004820154166080840152611c6f60058201612388565b60a0840152611c8060068201612388565b60c084015260ff6007820154818116151560e086015260081c1615156101008401526008810154610120840152611cb960098201612388565b610140840152600a810154610160840152600b81015461018084015260ff600c820154166101a084015201546101c082015260405180916020825280516020830152602081015160408301526040810151606083015260018060a01b03606082015116608083015260018060a01b0360808201511660a08301526101c0611dae611d5460a08401516101e060c08701526102008601906121eb565b611d7060c085015191601f1992838883030160e08901526121eb565b9060e08501511515610100870152610100850151151561012087015261012085015161014087015261014085015190868303016101608701526121eb565b916101608101516101808501526101808101516101a085015260ff6101a0820151168285015201516101e08301520390f35b3461025857604036600319011261025857611df96121b2565b600435600052600b60205260406000209060018060a01b03166000526020526020604060002054604051908152f35b346102585760a036600319011261025857611e4161219c565b611e496121b2565b6001600160401b0360443581811161025857611e69903690600401612266565b9060643581811161025857611e82903690600401612266565b9060843590811161025857611e9b9036906004016122c4565b8251825103611fba5792611eaf825161251a565b92611eba835161251a565b95600092600d54935b8351811015611f3c5780611eda611f37928661255b565b51600052611ef660ff60078060205260406000200154166127e7565b612710611f0d87611f07848b61255b565b5161282a565b04611f2281611f1c848b61255b565b5161285d565b611f2c838b61255b565b5261191f828c61255b565b611ec3565b508583611f65898b611f51828686898b612bb4565b600f5484906001600160a01b031688612bb4565b60005b8151811015611fb85780611f7f611fb3928461255b565b51600080516020612fd8833981519152611fab611f9c848861255b565b516040519182918a8c8461286a565b0390a261254c565b611f68565b005b60405162461bcd60e51b8152602060048201526016602482015275082e4e4c2f2e640d8cadccee8d040dad2e6dac2e8c6d60531b6044820152606490fd5b34610258576000366003190112610258576020600d54604051908152f35b3461025857602036600319011261025857600435600052600c6020526020604060002054604051908152f35b34610258576020806003193601126102585760405190600082600254916120688361234e565b928383526001908582821691826000146120e75750506001146120a7575b506120939250038361222c565b6119416040519282849384528301906121eb565b849150600260005281600020906000915b8583106120cf575050612093935082010185612086565b805483890185015287945086939092019181016120b8565b60ff19168582015261209395151560051b85010192508791506120869050565b346102585760203660031901126102585760043563ffffffff60e01b811680910361025857602090636cdb3d1360e11b8114908115612164575b8115612153575b506040519015158152f35b6301ffc9a760e01b14905082612148565b6303a24d0760e21b81149150612141565b3461025857604036600319011261025857602061068961219361219c565b60243590612495565b600435906001600160a01b038216820361025857565b602435906001600160a01b038216820361025857565b60005b8381106121db5750506000910152565b81810151838201526020016121cb565b90602091612204815180928185528580860191016121c8565b601f01601f1916010190565b6101e081019081106001600160401b03821117610d0957604052565b601f909101601f19168101906001600160401b03821190821017610d0957604052565b6001600160401b038111610d095760051b60200190565b81601f820112156102585780359161227d8361224f565b9261228b604051948561222c565b808452602092838086019260051b820101928311610258578301905b8282106122b5575050505090565b813581529083019083016122a7565b81601f82011215610258578035906001600160401b038211610d0957604051926122f8601f8401601f19166020018561222c565b8284526020838301011161025857816000926020809301838601378301015290565b90815180825260208080930193019160005b82811061233a575050505090565b83518552938101939281019260010161232c565b90600182811c9216801561237e575b602083101461236857565b634e487b7160e01b600052602260045260246000fd5b91607f169161235d565b906040519182600082549261239c8461234e565b90818452600194858116908160001461240b57506001146123c8575b50506123c69250038361222c565b565b9093915060005260209081600020936000915b8183106123f35750506123c6935082010138806123b8565b855488840185015294850194879450918301916123db565b9150506123c694506020925060ff191682840152151560051b82010138806123b8565b60243590811515820361025857565b6003546001600160a01b0316330361245157565b606460405162461bcd60e51b815260206004820152602060248201527f4f776e61626c653a2063616c6c6572206973206e6f7420746865206f776e65726044820152fd5b6001600160a01b03169081156124c257600052600060205260406000209060005260205260406000205490565b60405162461bcd60e51b815260206004820152602a60248201527f455243313135353a2061646472657373207a65726f206973206e6f742061207660448201526930b634b21037bbb732b960b11b6064820152608490fd5b906125248261224f565b612531604051918261222c565b8281528092612542601f199161224f565b0190602036910137565b60001981146115905760010190565b805182101561256f5760209160051b010190565b634e487b7160e01b600052603260045260246000fd5b1561258c57565b60405162461bcd60e51b815260206004820152601f60248201527f5265656e7472616e637947756172643a207265656e7472616e742063616c6c006044820152606490fd5b60ff600554166125dd57565b60405162461bcd60e51b815260206004820152601060248201526f14185d5cd8589b194e881c185d5cd95960821b6044820152606490fd5b9190820180921161159057565b9081602091031261025857516001600160e01b0319811681036102585790565b60809060208152602860208201527f455243313135353a204552433131353552656365697665722072656a656374656040820152676420746f6b656e7360c01b60608201520190565b60009060033d1161269857565b905060046000803e60005160e01c90565b600060443d1061270657604051600319913d83016004833e81516001600160401b03918282113d60248401111761270957818401948551938411612711573d8501016020848701011161270957506127069291016020019061222c565b90565b949350505050565b50949350505050565b60809060208152603460208201527f455243313135353a207472616e7366657220746f206e6f6e20455243313135356040820152732932b1b2b4bb32b91034b6b83632b6b2b73a32b960611b60608201520190565b60408051919082016001600160401b03811183821017610d09576040526001825260208201602036823782511561256f575290565b156127ab57565b60405162461bcd60e51b8152602060048201526014602482015273151bdad95b88191bd95cc81b9bdd08195e1a5cdd60621b6044820152606490fd5b156127ee57565b60405162461bcd60e51b8152602060048201526014602482015273125b9d9bda58d9481b9bdd081d995c9a599a595960621b6044820152606490fd5b8181029291811591840414171561159057565b8115612847570490565b634e487b7160e01b600052601260045260246000fd5b9190820391821161159057565b6001600160a01b03918216815291166020820152604081019190915260600190565b1561289357565b60405162461bcd60e51b815260206004820152602f60248201527f455243313135353a2063616c6c6572206973206e6f7420746f6b656e206f776e60448201526e195c881b9bdc88185c1c1c9bdd9959608a1b6064820152608490fd5b909391926001600160a01b039182169290913384148015612ad2575b6129159061288c565b8516612922811515612afb565b61292b8561276f565b506129358361276f565b506000928584526020958487526040978886208787528852828987205461295e82821015612b55565b838852878a528a88208989528a520389872055818652858852888620848752885288862061298d848254612615565b905583878a51848152858b820152600080516020612fb88339815191528c3392a43b6129be575b5050505050505050565b91849391612a069588999a98948b519788958694859363f23a6e6160e01b9c8d865233600487015260248601526044850152606484015260a0608484015260a48301906121eb565b03925af1909181612ab3575b50612a7957505050612a2261268b565b6308c379a014612a45575b505162461bcd60e51b815280610c206004820161271a565b612a4d6126a9565b9081612a595750612a2d565b610c20835192839262461bcd60e51b8452600484015260248301906121eb565b919392506001600160e01b031990911603612a9c575038808080808080806129b4565b5162461bcd60e51b815280610c2060048201612642565b612acb919250853d8711610cb357610ca4818361222c565b9038612a12565b5083600052600160205260406000203360005260205261291560ff60406000205416905061290c565b15612b0257565b60405162461bcd60e51b815260206004820152602560248201527f455243313135353a207472616e7366657220746f20746865207a65726f206164604482015264647265737360d81b6064820152608490fd5b15612b5c57565b60405162461bcd60e51b815260206004820152602a60248201527f455243313135353a20696e73756666696369656e742062616c616e636520666f60448201526939103a3930b739b332b960b11b6064820152608490fd5b90946001600160a01b0391821692913384148015612e49575b612bd69061288c565b8251855103612df357861695612bed871515612afb565b60005b8351811015612c805780612c07612c7b928661255b565b51612c74612c15838a61255b565b519180600052602060008152604091826000208b6000528252848360002054612c4082821015612b55565b8260005260008452846000208d60005284520383600020556000526000815281600020908d60005252600020918254612615565b905561254c565b612bf0565b509492939095604095818688518981527f4a39dc06d4c0dbc64b70af90fd698a233a518aa5d07e595d983b8c0526c8f7fb612cbd8b83018961231a565b91808303602082015280612cd233948a61231a565b0390a43b612ce3575b505050505050565b612d236000602094612d45612d36958a519889978896879563bc197c8160e01b9d8e8852336004890152602488015260a0604488015260a487019061231a565b600319938487830301606488015261231a565b918483030160848501526121eb565b03925af160009181612dd3575b50612db85782612d6061268b565b6308c379a014612d82575b5162461bcd60e51b815280610c206004820161271a565b612d8a6126a9565b80612d955750612d6b565b905162461bcd60e51b815260206004820152908190610c209060248301906121eb565b6001600160e01b03191603612a9c5750388080808080612cdb565b612dec91925060203d8111610cb357610ca4818361222c565b9038612d52565b60405162461bcd60e51b815260206004820152602860248201527f455243313135353a2069647320616e6420616d6f756e7473206c656e677468206044820152670dad2e6dac2e8c6d60c31b6064820152608490fd5b50836000526001602052604060002033600052602052612bd660ff604060002054169050612bcd565b80600052600760205260406000209060405192612e8e84612210565b825484526001830154602085019081526002840154604086015260038401546001600160a01b039081166060870152600485015416608086015291612ed560058501612388565b60a0860152612ee660068501612388565b60c0860152600d60078501549460ff8616151560e088015260ff61010088019660081c16151586526008810154610120880152612f2560098201612388565b610140880152600a810154610160880152600b81015461018088015260ff600c820154166101a08801520154936101c086019485525115612fad57612f6991612495565b92612710918285029480860484149015171561159057612f9d612fa692612f96612706978694519061283d565b905161282a565b0492518361282a565b0490612615565b505050505060009056fec3d58168c5ae7397731d063d5bbf3d657854427343f4c083240f7aacaa2d0f62eda26ee56ceca2601894016faaf344b1543b1c30d49c7238f7d0c1530bd1fc1b8be0079c531659141344cd1fd0a4f28419497f9722a3daafe3b4186f6b6457e0a2646970667358221220968be6a0e286b745053a6a34ebc9106a1c2248e11786ebf56e7ccf7b5442261064736f6c63430008140033",
  "linkReferences": {},
  "deployedLinkReferences": {}
}