{
  "_format": "hh-sol-artifact-1",
  "contractName": "UnifiedLedger",
  "sourceName": "contracts/UnifiedLedger.sol",
  "abi": [
    {
      "inputs": [
        {
          "internalType": "address",
          "name": "_invoiceToken",
          "type": "address"
        },
        {
          "internalType": "address",
          "name": "_creditScoring",
          "type": "address"
        }
      ],
      "stateMutability": "nonpayable",
      "type": "constructor"
    },
    {
      "anonymous": false,
      "inputs": [
        {
          "indexed": true,
          "internalType": "enum UnifiedLedger.ChainId",
          "name": "chainId",
          "type": "uint8"
        },
        {
          "indexed": false,
          "internalType": "bool",
          "name": "enabled",
          "type": "bool"
        }
      ],
      "name": "ChainConfigUpdated",
      "type": "event"
    },
    {
      "anonymous": false,
      "inputs": [
        {
          "indexed": true,
          "internalType": "uint256",
          "name": "transferId",
          "type": "uint256"
        },
        {
          "indexed": false,
          "internalType": "address",
          "name": "subject",
          "type": "address"
        },
        {
          "indexed": false,
          "internalType": "enum UnifiedLedger.ChainId",
          "name": "sourceChain",
          "type": "uint8"
        },
        {
          "indexed": false,
          "internalType": "enum UnifiedLedger.ChainId",
          "name": "destinationChain",
          "type": "uint8"
        },
        {
          "indexed": false,
          "internalType": "uint256",
          "name": "creditScore",
          "type": "uint256"
        }
      ],
      "name": "CreditScoreTransferred",
      "type": "event"
    },
    {
      "anonymous": false,
      "inputs": [
        {
          "indexed": true,
          "internalType": "uint256",
          "name": "txId",
          "type": "uint256"
        },
        {
          "indexed": false,
          "internalType": "enum UnifiedLedger.TransactionStatus",
          "name": "status",
          "type": "uint8"
        }
      ],
      "name": "CrossChainTransactionCompleted",
      "type": "event"
    },
    {
      "anonymous": false,
      "inputs": [
        {
          "indexed": true,
          "internalType": "uint256",
          "name": "txId",
          "type": "uint256"
        },
        {
          "indexed": false,
          "internalType": "enum UnifiedLedger.ChainId",
          "name": "sourceChain",
          "type": "uint8"
        },
        {
          "indexed": false,
          "internalType": "enum UnifiedLedger.ChainId",
          "name": "destinationChain",
          "type": "uint8"
        },
        {
          "indexed": false,
          "internalType": "address",
          "name": "sender",
          "type": "address"
        },
        {
          "indexed": false,
          "internalType": "address",
          "name": "recipient",
          "type": "address"
        },
        {
          "indexed": false,
          "internalType": "uint256",
          "name": "amount",
          "type": "uint256"
        }
      ],
      "name": "CrossChainTransactionInitiated",
      "type": "event"
    },
    {
      "anonymous": false,
      "inputs": [
        {
          "indexed": true,
          "internalType": "uint256",
          "name": "transferId",
          "type": "uint256"
        },
        {
          "indexed": false,
          "internalType": "uint256",
          "name": "invoiceId",
          "type": "uint256"
        },
        {
          "indexed": false,
          "internalType": "enum UnifiedLedger.ChainId",
          "name": "sourceChain",
          "type": "uint8"
        },
        {
          "indexed": false,
          "internalType": "enum UnifiedLedger.ChainId",
          "name": "destinationChain",
          "type": "uint8"
        }
      ],
      "name": "InvoiceTransferred",
      "type": "event"
    },
    {
      "anonymous": false,
      "inputs": [
        {
          "indexed": true,
          "internalType": "bytes32",
          "name": "messageHash",
          "type": "bytes32"
        },
        {
          "indexed": false,
          "internalType": "bool",
          "name": "success",
          "type": "bool"
        }
      ],
      "name": "MessageProcessed",
      "type": "event"
    },
    {
      "anonymous": false,
      "inputs": [
        {
          "indexed": true,
          "internalType": "bytes32",
          "name": "messageHash",
          "type": "bytes32"
        },
        {
          "indexed": false,
          "internalType": "enum UnifiedLedger.ChainId",
          "name": "sourceChain",
          "type": "uint8"
        },
        {
          "indexed": false,
          "internalType": "address",
          "name": "sender",
          "type": "address"
        }
      ],
      "name": "MessageReceived",
      "type": "event"
    },
    {
      "anonymous": false,
      "inputs": [
        {
          "indexed": true,
          "internalType": "bytes32",
          "name": "role",
          "type": "bytes32"
        },
        {
          "indexed": true,
          "internalType": "bytes32",
          "name": "previousAdminRole",
          "type": "bytes32"
        },
        {
          "indexed": true,
          "internalType": "bytes32",
          "name": "newAdminRole",
          "type": "bytes32"
        }
      ],
      "name": "RoleAdminChanged",
      "type": "event"
    },
    {
      "anonymous": false,
      "inputs": [
        {
          "indexed": true,
          "internalType": "bytes32",
          "name": "role",
          "type": "bytes32"
        },
        {
          "indexed": true,
          "internalType": "address",
          "name": "account",
          "type": "address"
        },
        {
          "indexed": true,
          "internalType": "address",
          "name": "sender",
          "type": "address"
        }
      ],
      "name": "RoleGranted",
      "type": "event"
    },
    {
      "anonymous": false,
      "inputs": [
        {
          "indexed": true,
          "internalType": "bytes32",
          "name": "role",
          "type": "bytes32"
        },
        {
          "indexed": true,
          "internalType": "address",
          "name": "account",
          "type": "address"
        },
        {
          "indexed": true,
          "internalType": "address",
          "name": "sender",
          "type": "address"
        }
      ],
      "name": "RoleRevoked",
      "type": "event"
    },
    {
      "anonymous": false,
      "inputs": [
        {
          "indexed": true,
          "internalType": "address",
          "name": "user",
          "type": "address"
        },
        {
          "indexed": true,
          "internalType": "enum UnifiedLedger.ChainId",
          "name": "chainId",
          "type": "uint8"
        },
        {
          "indexed": false,
          "internalType": "address",
          "name": "token",
          "type": "address"
        },
        {
          "indexed": false,
          "internalType": "uint256",
          "name": "amount",
          "type": "uint256"
        }
      ],
      "name": "TokensBurned",
      "type": "event"
    },
    {
      "anonymous": false,
      "inputs": [
        {
          "indexed": true,
          "internalType": "address",
          "name": "user",
          "type": "address"
        },
        {
          "indexed": true,
          "internalType": "enum UnifiedLedger.ChainId",
          "name": "chainId",
          "type": "uint8"
        },
        {
          "indexed": false,
          "internalType": "address",
          "name": "token",
          "type": "address"
        },
        {
          "indexed": false,
          "internalType": "uint256",
          "name": "amount",
          "type": "uint256"
        }
      ],
      "name": "TokensMinted",
      "type": "event"
    },
    {
      "inputs": [],
      "name": "DEFAULT_ADMIN_ROLE",
      "outputs": [
        {
          "internalType": "bytes32",
          "name": "",
          "type": "bytes32"
        }
      ],
      "stateMutability": "view",
      "type": "function"
    },
    {
      "inputs": [],
      "name": "FINTERNET_VALIDATOR",
      "outputs": [
        {
          "internalType": "bytes32",
          "name": "",
          "type": "bytes32"
        }
      ],
      "stateMutability": "view",
      "type": "function"
    },
    {
      "inputs": [],
      "name": "ORACLE_ROLE",
      "outputs": [
        {
          "internalType": "bytes32",
          "name": "",
          "type": "bytes32"
        }
      ],
      "stateMutability": "view",
      "type": "function"
    },
    {
      "inputs": [],
      "name": "RELAY_ROLE",
      "outputs": [
        {
          "internalType": "bytes32",
          "name": "",
          "type": "bytes32"
        }
      ],
      "stateMutability": "view",
      "type": "function"
    },
    {
      "inputs": [],
      "name": "baseFee",
      "outputs": [
        {
          "internalType": "uint256",
          "name": "",
          "type": "uint256"
        }
      ],
      "stateMutability": "view",
      "type": "function"
    },
    {
      "inputs": [
        {
          "internalType": "enum UnifiedLedger.ChainId",
          "name": "",
          "type": "uint8"
        }
      ],
      "name": "chainConfigs",
      "outputs": [
        {
          "internalType": "bool",
          "name": "enabled",
          "type": "bool"
        },
        {
          "internalType": "uint256",
          "name": "confirmations",
          "type": "uint256"
        },
        {
          "internalType": "uint256",
          "name": "baseFee",
          "type": "uint256"
        },
        {
          "internalType": "uint256",
          "name": "gasPrice",
          "type": "uint256"
        },
        {
          "internalType": "address",
          "name": "bridgeContract",
          "type": "address"
        },
        {
          "internalType": "string",
          "name": "rpcEndpoint",
          "type": "string"
        }
      ],
      "stateMutability": "view",
      "type": "function"
    },
    {
      "inputs": [
        {
          "internalType": "uint256",
          "name": "txId",
          "type": "uint256"
        },
        {
          "internalType": "enum UnifiedLedger.TransactionStatus",
          "name": "status",
          "type": "uint8"
        },
        {
          "internalType": "string",
          "name": "externalTxId",
          "type": "string"
        },
        {
          "internalType": "bytes[]",
          "name": "signatures",
          "type": "bytes[]"
        }
      ],
      "name": "completeTransaction",
      "outputs": [
        {
          "internalType": "bool",
          "name": "success",
          "type": "bool"
        }
      ],
      "stateMutability": "nonpayable",
      "type": "function"
    },
    {
      "inputs": [
        {
          "internalType": "uint256",
          "name": "transferId",
          "type": "uint256"
        },
        {
          "internalType": "bytes[]",
          "name": "signatures",
          "type": "bytes[]"
        }
      ],
      "name": "createInvoiceOnDestination",
      "outputs": [
        {
          "internalType": "uint256",
          "name": "newInvoiceId",
          "type": "uint256"
        }
      ],
      "stateMutability": "nonpayable",
      "type": "function"
    },
    {
      "inputs": [],
      "name": "creditScoring",
      "outputs": [
        {
          "internalType": "contract CreditScoring",
          "name": "",
          "type": "address"
        }
      ],
      "stateMutability": "view",
      "type": "function"
    },
    {
      "inputs": [],
      "name": "creditTransferCount",
      "outputs": [
        {
          "internalType": "uint256",
          "name": "",
          "type": "uint256"
        }
      ],
      "stateMutability": "view",
      "type": "function"
    },
    {
      "inputs": [
        {
          "internalType": "uint256",
          "name": "",
          "type": "uint256"
        }
      ],
      "name": "creditTransfers",
      "outputs": [
        {
          "internalType": "uint256",
          "name": "transferId",
          "type": "uint256"
        },
        {
          "internalType": "address",
          "name": "subject",
          "type": "address"
        },
        {
          "internalType": "enum UnifiedLedger.ChainId",
          "name": "sourceChain",
          "type": "uint8"
        },
        {
          "internalType": "enum UnifiedLedger.ChainId",
          "name": "destinationChain",
          "type": "uint8"
        },
        {
          "internalType": "uint256",
          "name": "creditScore",
          "type": "uint256"
        },
        {
          "internalType": "uint256",
          "name": "timestamp",
          "type": "uint256"
        },
        {
          "internalType": "bool",
          "name": "confirmed",
          "type": "bool"
        },
        {
          "internalType": "bytes32",
          "name": "attestation",
          "type": "bytes32"
        }
      ],
      "stateMutability": "view",
      "type": "function"
    },
    {
      "inputs": [
        {
          "internalType": "bytes32",
          "name": "role",
          "type": "bytes32"
        }
      ],
      "name": "getRoleAdmin",
      "outputs": [
        {
          "internalType": "bytes32",
          "name": "",
          "type": "bytes32"
        }
      ],
      "stateMutability": "view",
      "type": "function"
    },
    {
      "inputs": [
        {
          "internalType": "uint256",
          "name": "txId",
          "type": "uint256"
        }
      ],
      "name": "getTransaction",
      "outputs": [
        {
          "internalType": "address",
          "name": "sender",
          "type": "address"
        },
        {
          "internalType": "address",
          "name": "recipient",
          "type": "address"
        },
        {
          "internalType": "uint256",
          "name": "amount",
          "type": "uint256"
        },
        {
          "internalType": "enum UnifiedLedger.TransactionStatus",
          "name": "status",
          "type": "uint8"
        },
        {
          "internalType": "enum UnifiedLedger.ChainId",
          "name": "sourceChain",
          "type": "uint8"
        },
        {
          "internalType": "enum UnifiedLedger.ChainId",
          "name": "destinationChain",
          "type": "uint8"
        }
      ],
      "stateMutability": "view",
      "type": "function"
    },
    {
      "inputs": [
        {
          "internalType": "address",
          "name": "user",
          "type": "address"
        },
        {
          "internalType": "enum UnifiedLedger.ChainId",
          "name": "chainId",
          "type": "uint8"
        }
      ],
      "name": "getUserTransactions",
      "outputs": [
        {
          "internalType": "uint256[]",
          "name": "",
          "type": "uint256[]"
        }
      ],
      "stateMutability": "view",
      "type": "function"
    },
    {
      "inputs": [
        {
          "internalType": "bytes32",
          "name": "role",
          "type": "bytes32"
        },
        {
          "internalType": "address",
          "name": "account",
          "type": "address"
        }
      ],
      "name": "grantRole",
      "outputs": [],
      "stateMutability": "nonpayable",
      "type": "function"
    },
    {
      "inputs": [
        {
          "internalType": "bytes32",
          "name": "role",
          "type": "bytes32"
        },
        {
          "internalType": "address",
          "name": "account",
          "type": "address"
        }
      ],
      "name": "hasRole",
      "outputs": [
        {
          "internalType": "bool",
          "name": "",
          "type": "bool"
        }
      ],
      "stateMutability": "view",
      "type": "function"
    },
    {
      "inputs": [
        {
          "internalType": "enum UnifiedLedger.ChainId",
          "name": "destinationChain",
          "type": "uint8"
        },
        {
          "internalType": "address",
          "name": "recipient",
          "type": "address"
        }
      ],
      "name": "initiateNativeTransfer",
      "outputs": [
        {
          "internalType": "uint256",
          "name": "txId",
          "type": "uint256"
        }
      ],
      "stateMutability": "payable",
      "type": "function"
    },
    {
      "inputs": [
        {
          "internalType": "enum UnifiedLedger.ChainId",
          "name": "destinationChain",
          "type": "uint8"
        },
        {
          "internalType": "address",
          "name": "recipient",
          "type": "address"
        },
        {
          "internalType": "address",
          "name": "token",
          "type": "address"
        },
        {
          "internalType": "uint256",
          "name": "amount",
          "type": "uint256"
        }
      ],
      "name": "initiateTokenTransfer",
      "outputs": [
        {
          "internalType": "uint256",
          "name": "txId",
          "type": "uint256"
        }
      ],
      "stateMutability": "payable",
      "type": "function"
    },
    {
      "inputs": [],
      "name": "invoiceToken",
      "outputs": [
        {
          "internalType": "contract InvoiceToken",
          "name": "",
          "type": "address"
        }
      ],
      "stateMutability": "view",
      "type": "function"
    },
    {
      "inputs": [],
      "name": "invoiceTransferCount",
      "outputs": [
        {
          "internalType": "uint256",
          "name": "",
          "type": "uint256"
        }
      ],
      "stateMutability": "view",
      "type": "function"
    },
    {
      "inputs": [
        {
          "internalType": "uint256",
          "name": "",
          "type": "uint256"
        }
      ],
      "name": "invoiceTransfers",
      "outputs": [
        {
          "internalType": "uint256",
          "name": "transferId",
          "type": "uint256"
        },
        {
          "internalType": "uint256",
          "name": "invoiceId",
          "type": "uint256"
        },
        {
          "internalType": "enum UnifiedLedger.ChainId",
          "name": "sourceChain",
          "type": "uint8"
        },
        {
          "internalType": "enum UnifiedLedger.ChainId",
          "name": "destinationChain",
          "type": "uint8"
        },
        {
          "internalType": "address",
          "name": "issuer",
          "type": "address"
        },
        {
          "internalType": "uint256",
          "name": "faceValue",
          "type": "uint256"
        },
        {
          "internalType": "uint256",
          "name": "dueDate",
          "type": "uint256"
        },
        {
          "internalType": "bool",
          "name": "verified",
          "type": "bool"
        },
        {
          "internalType": "uint256",
          "name": "timestamp",
          "type": "uint256"
        },
        {
          "internalType": "bytes32",
          "name": "attestation",
          "type": "bytes32"
        }
      ],
      "stateMutability": "view",
      "type": "function"
    },
    {
      "inputs": [],
      "name": "minValidators",
      "outputs": [
        {
          "internalType": "uint256",
          "name": "",
          "type": "uint256"
        }
      ],
      "stateMutability": "view",
      "type": "function"
    },
    {
      "inputs": [],
      "name": "paused",
      "outputs": [
        {
          "internalType": "bool",
          "name": "",
          "type": "bool"
        }
      ],
      "stateMutability": "view",
      "type": "function"
    },
    {
      "inputs": [
        {
          "internalType": "bytes32",
          "name": "",
          "type": "bytes32"
        }
      ],
      "name": "processedMessages",
      "outputs": [
        {
          "internalType": "bool",
          "name": "",
          "type": "bool"
        }
      ],
      "stateMutability": "view",
      "type": "function"
    },
    {
      "inputs": [
        {
          "internalType": "enum UnifiedLedger.ChainId",
          "name": "sourceChain",
          "type": "uint8"
        },
        {
          "internalType": "address",
          "name": "sender",
          "type": "address"
        },
        {
          "internalType": "bytes",
          "name": "message",
          "type": "bytes"
        },
        {
          "internalType": "bytes",
          "name": "signature",
          "type": "bytes"
        }
      ],
      "name": "receiveMessage",
      "outputs": [
        {
          "internalType": "bool",
          "name": "success",
          "type": "bool"
        }
      ],
      "stateMutability": "nonpayable",
      "type": "function"
    },
    {
      "inputs": [
        {
          "internalType": "address",
          "name": "user",
          "type": "address"
        },
        {
          "internalType": "enum UnifiedLedger.ChainId",
          "name": "sourceChain",
          "type": "uint8"
        },
        {
          "internalType": "address",
          "name": "token",
          "type": "address"
        },
        {
          "internalType": "uint256",
          "name": "amount",
          "type": "uint256"
        },
        {
          "internalType": "uint256",
          "name": "nonce",
          "type": "uint256"
        },
        {
          "internalType": "bytes[]",
          "name": "signatures",
          "type": "bytes[]"
        }
      ],
      "name": "receiveTokens",
      "outputs": [
        {
          "internalType": "bool",
          "name": "success",
          "type": "bool"
        }
      ],
      "stateMutability": "nonpayable",
      "type": "function"
    },
    {
      "inputs": [
        {
          "internalType": "bytes32",
          "name": "role",
          "type": "bytes32"
        },
        {
          "internalType": "address",
          "name": "account",
          "type": "address"
        }
      ],
      "name": "renounceRole",
      "outputs": [],
      "stateMutability": "nonpayable",
      "type": "function"
    },
    {
      "inputs": [
        {
          "internalType": "bytes32",
          "name": "role",
          "type": "bytes32"
        },
        {
          "internalType": "address",
          "name": "account",
          "type": "address"
        }
      ],
      "name": "revokeRole",
      "outputs": [],
      "stateMutability": "nonpayable",
      "type": "function"
    },
    {
      "inputs": [
        {
          "internalType": "uint256",
          "name": "newBaseFee",
          "type": "uint256"
        }
      ],
      "name": "setBaseFee",
      "outputs": [],
      "stateMutability": "nonpayable",
      "type": "function"
    },
    {
      "inputs": [
        {
          "internalType": "uint256",
          "name": "transferId",
          "type": "uint256"
        },
        {
          "internalType": "bytes[]",
          "name": "signatures",
          "type": "bytes[]"
        }
      ],
      "name": "setCreditScoreOnDestination",
      "outputs": [
        {
          "internalType": "bool",
          "name": "success",
          "type": "bool"
        }
      ],
      "stateMutability": "nonpayable",
      "type": "function"
    },
    {
      "inputs": [
        {
          "internalType": "uint256",
          "name": "newMinValidators",
          "type": "uint256"
        }
      ],
      "name": "setMinValidators",
      "outputs": [],
      "stateMutability": "nonpayable",
      "type": "function"
    },
    {
      "inputs": [
        {
          "internalType": "bool",
          "name": "newPaused",
          "type": "bool"
        }
      ],
      "name": "setPaused",
      "outputs": [],
      "stateMutability": "nonpayable",
      "type": "function"
    },
    {
      "inputs": [
        {
          "internalType": "bytes4",
          "name": "interfaceId",
          "type": "bytes4"
        }
      ],
      "name": "supportsInterface",
      "outputs": [
        {
          "internalType": "bool",
          "name": "",
          "type": "bool"
        }
      ],
      "stateMutability": "view",
      "type": "function"
    },
    {
      "inputs": [
        {
          "internalType": "address",
          "name": "",
          "type": "address"
        },
        {
          "internalType": "enum UnifiedLedger.ChainId",
          "name": "",
          "type": "uint8"
        },
        {
          "internalType": "address",
          "name": "",
          "type": "address"
        }
      ],
      "name": "tokenBalances",
      "outputs": [
        {
          "internalType": "uint256",
          "name": "",
          "type": "uint256"
        }
      ],
      "stateMutability": "view",
      "type": "function"
    },
    {
      "inputs": [
        {
          "internalType": "uint256",
          "name": "",
          "type": "uint256"
        }
      ],
      "name": "transactions",
      "outputs": [
        {
          "internalType": "uint256",
          "name": "txId",
          "type": "uint256"
        },
        {
          "internalType": "enum UnifiedLedger.ChainId",
          "name": "sourceChain",
          "type": "uint8"
        },
        {
          "internalType": "enum UnifiedLedger.ChainId",
          "name": "destinationChain",
          "type": "uint8"
        },
        {
          "internalType": "address",
          "name": "sender",
          "type": "address"
        },
        {
          "internalType": "address",
          "name": "recipient",
          "type": "address"
        },
        {
          "internalType": "enum UnifiedLedger.AssetType",
          "name": "assetType",
          "type": "uint8"
        },
        {
          "internalType": "address",
          "name": "assetAddress",
          "type": "address"
        },
        {
          "internalType": "uint256",
          "name": "amount",
          "type": "uint256"
        },
        {
          "internalType": "uint256",
          "name": "fee",
          "type": "uint256"
        },
        {
          "internalType": "uint256",
          "name": "nonce",
          "type": "uint256"
        },
        {
          "internalType": "bytes32",
          "name": "messageHash",
          "type": "bytes32"
        },
        {
          "internalType": "bytes",
          "name": "signature",
          "type": "bytes"
        },
        {
          "internalType": "uint256",
          "name": "timestamp",
          "type": "uint256"
        },
        {
          "internalType": "enum UnifiedLedger.TransactionStatus",
          "name": "status",
          "type": "uint8"
        },
        {
          "internalType": "string",
          "name": "externalTxId",
          "type": "string"
        }
      ],
      "stateMutability": "view",
      "type": "function"
    },
    {
      "inputs": [
        {
          "internalType": "enum UnifiedLedger.ChainId",
          "name": "destinationChain",
          "type": "uint8"
        },
        {
          "internalType": "address",
          "name": "subject",
          "type": "address"
        }
      ],
      "name": "transferCreditScore",
      "outputs": [
        {
          "internalType": "uint256",
          "name": "transferId",
          "type": "uint256"
        }
      ],
      "stateMutability": "payable",
      "type": "function"
    },
    {
      "inputs": [
        {
          "internalType": "enum UnifiedLedger.ChainId",
          "name": "destinationChain",
          "type": "uint8"
        },
        {
          "internalType": "uint256",
          "name": "invoiceId",
          "type": "uint256"
        }
      ],
      "name": "transferInvoice",
      "outputs": [
        {
          "internalType": "uint256",
          "name": "transferId",
          "type": "uint256"
        }
      ],
      "stateMutability": "payable",
      "type": "function"
    },
    {
      "inputs": [],
      "name": "txCount",
      "outputs": [
        {
          "internalType": "uint256",
          "name": "",
          "type": "uint256"
        }
      ],
      "stateMutability": "view",
      "type": "function"
    },
    {
      "inputs": [
        {
          "internalType": "enum UnifiedLedger.ChainId",
          "name": "chainId",
          "type": "uint8"
        },
        {
          "internalType": "bool",
          "name": "enabled",
          "type": "bool"
        },
        {
          "internalType": "uint256",
          "name": "confirmations",
          "type": "uint256"
        },
        {
          "internalType": "uint256",
          "name": "fee",
          "type": "uint256"
        },
        {
          "internalType": "uint256",
          "name": "gasPrice",
          "type": "uint256"
        },
        {
          "internalType": "address",
          "name": "bridgeContract",
          "type": "address"
        },
        {
          "internalType": "string",
          "name": "rpcEndpoint",
          "type": "string"
        }
      ],
      "name": "updateChainConfig",
      "outputs": [],
      "stateMutability": "nonpayable",
      "type": "function"
    },
    {
      "inputs": [
        {
          "internalType": "address",
          "name": "",
          "type": "address"
        },
        {
          "internalType": "enum UnifiedLedger.ChainId",
          "name": "",
          "type": "uint8"
        },
        {
          "internalType": "uint256",
          "name": "",
          "type": "uint256"
        }
      ],
      "name": "userTransactions",
      "outputs": [
        {
          "internalType": "uint256",
          "name": "",
          "type": "uint256"
        }
      ],
      "stateMutability": "view",
      "type": "function"
    },
    {
      "inputs": [
        {
          "internalType": "uint256",
          "name": "amount",
          "type": "uint256"
        }
      ],
      "name": "withdrawFees",
      "outputs": [],
      "stateMutability": "nonpayable",
      "type": "function"
    },
    {
      "stateMutability": "payable",
      "type": "receive"
    }
  ],
  "bytecode": "0x60803462000b4457601f62004b6938819003918201601f19168301916001600160401b03831184841017620007e157808492604094855283398101031262000b44576200005a6020620000528362000b69565b920162000b69565b600160005566038d7ea4c68000600c8190556003600d5591906001600160a01b03908183161562000aff571690811562000aba57600e8054610100600160a81b03191660089290921b610100600160a81b0316919091179055600f80546001600160a01b03191691909117905533600090815260008051602062004b29833981519152602052604090205460ff161562000a77575b3360009081527f794daf18569cbd6eb16d8ca6a4da292be3594e621335fad8067fb88607cfba3860205260409020547f077a1d526a4ce8a773632ab13b4fbbf1fcc954c3dab26cd27ea0e2a6750da5d79060ff161562000a33575b503360009081527ff7c11a6d0ec535894a90c88b42cba2ccb348cb15b5e3ad22a710d1d4ac63281960205260409020547f68e79a7bf1e0bc45d0a330c573bc367f9cf464fd326078812f301165fbda4ef19060ff1615620009ef575b503360009081527f2229a7fcf4cca19fbfd8582c9c17d12e894d6d7c0120ae12a8cc35a69c25ec5860205260409020547ffb4c63731d4193edbc29892546c0334b7d4908d88d1f39b3d3143333406a52249060ff1615620009ab575b506200020d62000b49565b601d81527f68747470733a2f2f657468657265756d2e7270632e656e64706f696e7400000060208083019190915260008052600290527fac33ff75c19e70fe83507db0d683fd3465c996598dc972688b7ace676c89077b805460ff19166001178155600c7fac33ff75c19e70fe83507db0d683fd3465c996598dc972688b7ace676c89077c557fac33ff75c19e70fe83507db0d683fd3465c996598dc972688b7ace676c89077d929092556406fc23ac007fac33ff75c19e70fe83507db0d683fd3465c996598dc972688b7ace676c89077e557fac33ff75c19e70fe83507db0d683fd3465c996598dc972688b7ace676c89077f80546001600160a01b03191690558051906001600160401b038211620007e1576005830154600181811c91168015620009a0575b6020821014620007c057601f811162000950575b50602090601f8311600114620008db576005929160009183620008cf575b50508160011b916000199060031b1c1916179101555b600060008051602062004b49833981519152602060405160018152a2620003a362000b49565b601c81527f68747470733a2f2f706f6c79676f6e2e7270632e656e64706f696e74000000006020808301919091526001600081905260029091527fe90b7bceb6e7df5418fb78d8ee546e97c83a08bbccc01a0644d599ccd2a7c2e0805460ff1916909117815560807fe90b7bceb6e7df5418fb78d8ee546e97c83a08bbccc01a0644d599ccd2a7c2e1556601c6bf526340007fe90b7bceb6e7df5418fb78d8ee546e97c83a08bbccc01a0644d599ccd2a7c2e255640ba43b74007fe90b7bceb6e7df5418fb78d8ee546e97c83a08bbccc01a0644d599ccd2a7c2e3557fe90b7bceb6e7df5418fb78d8ee546e97c83a08bbccc01a0644d599ccd2a7c2e480546001600160a01b0319169055815190916001600160401b038211620007e1576005830154600181811c91168015620008c4575b6020821014620007c057601f811162000878575b50602090601f831160011462000803576005929160009183620007f7575b50508160011b916000199060031b1c1916179101555b600160008051602062004b498339815191526020604051838152a26200054262000b49565b601d81527f68747470733a2f2f617262697472756d2e7270632e656e64706f696e740000006020808301919091526002600081905290527f679795a0195a1b76cdebb7c51d74e058aee92919b8c3389af86ef24535e8a28c805460ff19166001179055600a7f679795a0195a1b76cdebb7c51d74e058aee92919b8c3389af86ef24535e8a28d5565b5e620f480007f679795a0195a1b76cdebb7c51d74e058aee92919b8c3389af86ef24535e8a28e556305f5e1007f679795a0195a1b76cdebb7c51d74e058aee92919b8c3389af86ef24535e8a28f557f679795a0195a1b76cdebb7c51d74e058aee92919b8c3389af86ef24535e8a29080546001600160a01b031916905580517f679795a0195a1b76cdebb7c51d74e058aee92919b8c3389af86ef24535e8a291906001600160401b038111620007e1578154600181811c91168015620007d6575b6020821014620007c057601f811162000773575b50602092601f82116001146200070a5792819293600092620006fe575b50508160011b916000199060031b1c19161790555b600260008051602062004b49833981519152602060405160018152a2604051613f8a908162000b7f8239f35b015190503880620006bd565b601f198216938360005260206000209160005b8681106200075a575083600195961062000740575b505050811b019055620006d2565b015160001960f88460031b161c1916905538808062000732565b919260206001819286850151815501940192016200071d565b826000526020600020601f830160051c81019160208410620007b5575b601f0160051c01905b818110620007a85750620006a0565b6000815560010162000799565b909150819062000790565b634e487b7160e01b600052602260045260246000fd5b90607f16906200068c565b634e487b7160e01b600052604160045260246000fd5b01519050388062000507565b906005840160005260206000209160005b601f19851681106200085f5750918391600193600595601f1981161062000845575b505050811b019101556200051d565b015160001960f88460031b161c1916905538808062000836565b9192602060018192868501518155019401920162000814565b600584016000526020600020601f840160051c810160208510620008bc575b601f830160051c82018110620008af575050620004e9565b6000815560010162000897565b508062000897565b90607f1690620004d5565b01519050388062000367565b906005840160005260206000209160005b601f1985168110620009375750918391600193600595601f198116106200091d575b505050811b019101556200037d565b015160001960f88460031b161c191690553880806200090e565b91926020600181928685015181550194019201620008ec565b600584016000526020600020601f840160051c8101916020851062000995575b601f0160051c01905b81811062000988575062000349565b6000815560010162000979565b909150819062000970565b90607f169062000335565b8060005260016020526040600020336000526020526040600020600160ff198254161790553390339060008051602062004b09833981519152600080a43862000202565b8060005260016020526040600020336000526020526040600020600160ff198254161790553390339060008051602062004b09833981519152600080a438620001a6565b8060005260016020526040600020336000526020526040600020600160ff198254161790553390339060008051602062004b09833981519152600080a4386200014a565b33600081815260008051602062004b2983398151915260205260408120805460ff19166001179055819060008051602062004b098339815191528180a4620000ef565b60405162461bcd60e51b815260206004820152601e60248201527f496e76616c6964206372656469742073636f72696e67206164647265737300006044820152606490fd5b60405162461bcd60e51b815260206004820152601d60248201527f496e76616c696420696e766f69636520746f6b656e20616464726573730000006044820152606490fd5b600080fd5b60408051919082016001600160401b03811183821017620007e157604052565b51906001600160a01b038216820362000b445756fe608080604052600436101561001d575b50361561001b57600080fd5b005b60003560e01c90816301ffc9a714612c1b575080630442182314612bf257806307e2cea514612bb7578063112b9d8c14612b0857806316c38b3c14612acf5780632476566114612636578063248a9ca3146126075780632f2ff15d1461255457806333ea3dc8146123b357806334e511031461239557806336568abe146123035780633956db5814611e965780633c54068714611e785780634198beca14611cc3578063464b539114611c965780634686069814611c75578063542c5eb71461162e5780635c975abb1461160b5780635e318e071461158b57806360864eed14611521578063625f6205146114895780636ef25c3a1461146b57806379dfe40c146113f157806388ba16ab146113c05780638bba8e801461122357806391d14854146111d657806394fbaeea146111b85780639883688f1461118f5780639ace38c214611064578063a217fddf14611048578063a6e121cd14610f7e578063a7c5cf6114610f55578063ae7ed94b14610b94578063b06b65761461098a578063ba62c28814610836578063be13b64114610644578063beb57c42146105de578063c5ab2241146105c0578063d547741f14610581578063de9d1afc146104f55763fcb889e3146101ed573861000f565b346104f05760803660031901126104f05760043560243560048110156104f0576001600160401b03916044358381116104f05761022e903690600401612dbb565b926064358581116104f057610247903690600401612cf9565b9590610251613196565b61026060026000541415613569565b6002600055841515806104e4575b610277906139cc565b8460005260209660038852604060002091600a83019160ff908184541660048110156104ce5761048f57908693929189896102de60418f8f8060405195869384019788528c60f81b6040850152848401378101600083820152036021810184520182612eaa565b519020906102f0600d54821015613a11565b60005b81811061041c575050505050600b929161030c91613745565b0190851161040657859261032a866103248454612de8565b846136f1565b600090601f871160011461039057958091600080516020613f358339815191529697600092610385575b50508160011b916000199060031b1c19161790555b6103766040518092612cbd565ba2600160005560405160018152f35b013590503880610354565b601f1987169183600052856000209260005b8181106103ef5750916001939189600080516020613f35833981519152999a94106103d5575b505050811b019055610369565b0135600019600384901b60f8161c191690553880806103c8565b9193876001819287870135815501950192016103a2565b634e487b7160e01b600052604160045260246000fd5b849596508d61044561043f61043884866104839798999a613a67565b3691613955565b86613bda565b90600080516020613f158339815191526000526001815260406000209160018060a01b03166000525261047e856040600020541661398c565b613678565b908895949392916102f3565b60405162461bcd60e51b8152600481018c905260176024820152765472616e73616374696f6e206e6f742070656e64696e6760481b6044820152606490fd5b634e487b7160e01b600052602160045260246000fd5b5060095485111561026e565b600080fd5b346104f05760203660031901126104f057600435600a8110156104f05761051b90612d5c565b60ff81541661057d600183015492600281015490600381015461054d600560018060a01b036004850154169301612ecd565b9260405196879615158752602087015260408601526060850152608084015260c060a084015260c0830190612f96565b0390f35b346104f05760403660031901126104f05761001b6004356105a0612c7b565b908060005260016020526105bb6001604060002001546132bd565b6133cb565b346104f05760003660031901126104f0576020600d54604051908152f35b346104f05760603660031901126104f0576105f7612ca7565b60243590600a8210156104f05761062c61060f612c91565b9260018060a01b0380931660005260066020526040600020612d75565b91166000526020526020604060002054604051908152f35b346104f05760803660031901126104f057600435600a8110156104f057610669612c7b565b906001600160401b03906044358281116104f05761068b903690600401612dbb565b9390926064359081116104f0576106a6903690600401612dbb565b936106af613196565b6106be60026000541415613569565b600260005560405161070c603582602099808b8301966106de888c613945565b60608a901b6001600160601b0319166021850152848401378101600083820152036015810184520182612eaa565b51902093846000526004865260ff604060002054166107f557927fc1eb5421cc7a45731dc7da68386f7e8b9ea9e8a0139fa10b44c615066fde4e3c9261075a61043f60409488973691613955565b90600080516020613f15833981519152600052600188528360002060018060a01b03809316600052885261079460ff85600020541661398c565b856000526004885283600020600160ff198254161790556107b784518094612c6e565b1686820152a27fce1682f5002e4561cc52ee288e67110a7e66071f7f158d4c146bc35616eddeab8260405160018152a2600160005560405160018152f35b60405162461bcd60e51b815260048101879052601960248201527813595cdcd859d948185b1c9958591e481c1c9bd8d95cdcd959603a1b6044820152606490fd5b346104f05761084436612d29565b909161084e613196565b61085d60026000541415613569565b60026000558015158061097e575b61087490613aa8565b60005260209160088352604060002080549260019384830154600284015493600460038201549101549060405192898401948552604084015260ff956108bf60608501888316613945565b6108d160618501888360081c16613945565b60501b6001600160601b0319166062840152607683015260968083019190915281526108fc81612e8f565b5190209061090e600d54821015613a11565b60005b81811061092657868660005560405160008152f35b8061094161093b61043861097994868a613a67565b85613bda565b600080516020613f1583398151915260005287895260406000209060018060a01b0316600052885261047e856040600020541661398c565b610911565b50600b5481111561086b565b346104f05760c03660031901126104f0576109a3612ca7565b602435600a8110156104f0576109b7612c91565b60643560a4356001600160401b0381116104f0576109d9903690600401612cf9565b92906109e3613196565b6109f260026000541415613569565b60026000556001600160a01b03868116948515610b605781841693610a18851515613809565b610a23861515613845565b6040516020998a82019260018060601b0319809260601b168452610a4a603484018c613945565b60601b166035820152866049820152608435606982015260698152610a6e81612e74565b51902090610a80600d54821015613a11565b60005b818110610b125750505050508260005260068552610aa5846040600020612d75565b816000528552604060002090815492808401809411610afc577f455581676924f4c62882e2639fbc37f91b8be4baea3bd58700d247e3ed4dcdf29360409355825191825286820152a3600160005560405160018152f35b634e487b7160e01b600052601160045260246000fd5b80610b2761093b610438610b5b94868a613a67565b600080516020613f1583398151915260005260018c5285604060002091166000528b5261047e60ff6040600020541661398c565b610a83565b60405162461bcd60e51b815260206004820152600c60248201526b24b73b30b634b2103ab9b2b960a11b6044820152606490fd5b610b9d36612cca565b90610bad60026000541415613569565b6002600055610bc160ff600e5416156135b5565b610bd660ff610bcf83612d5c565b54166135f6565b610be4600c543410156137ca565b6001600160a01b03821615610f1e57600f546040516355b56bff60e11b81526001600160a01b0384811660048301526024939192606091849186918391165afa918215610f1257600092610ec9575b5060ff821615610e8957610c48600a54613678565b600a81905560405190939061010081016001600160401b03811182821017610e745760409081528582526001600160a01b0387166020830152600090820152610c948360608301613687565b60ff841660808201524260a0820152600060c0820152600060e0820152805160208201516040830151600a811015610e5f576060840151600a811015610e4a57610d17608086015191610d0d60a088015194604051966020880198895260018060601b03199060601b1660408801526054870190613945565b6055850190613945565b6056830152607682015260768152610d2e81612e74565b51902060e08201528460005260076020526040600020918151835560018060a01b03602083015116600184015490604084015192600a841015610e3657606085015190600a821015610e36575095608095600560e060209c9760ff978d9c97610e22977fdb45837ad079a51885284d41c9a741dbfeee950c53411ed76f7154906f50ac0d9d8b60a81b9060a81b16928b60a01b9060a01b169160018060b01b031916171717600185015589810151600285015560a08101516003850155610dfe60c08201511515600486016133ba565b0151910155604080516001600160a01b03909616865260008b870152850190612c6e565b166060820152a26001600055604051908152f35b634e487b7160e01b60009081526021600452fd5b85634e487b7160e01b60005260216004526000fd5b84634e487b7160e01b60005260216004526000fd5b82634e487b7160e01b60005260416004526000fd5b60405162461bcd60e51b815260206004820152601981850152784e6f206372656469742073636f726520617661696c61626c6560381b6044820152606490fd5b9091506060813d606011610f0a575b81610ee560609383612eaa565b810103126104f057610f026020610efb83613937565b9201613937565b509084610c33565b3d9150610ed8565b6040513d6000823e3d90fd5b60405162461bcd60e51b815260206004820152600f60248201526e125b9d985b1a59081cdd589a9958dd608a1b6044820152606490fd5b346104f05760003660031901126104f0576020604051600080516020613f158339815191528152f35b346104f05760403660031901126104f057610f97612ca7565b60243590600a8210156104f05760018060a01b0316600052610fc3602091600583526040600020612d75565b60405190818382549182815201908192600052846000209060005b86828210611034578686610ff482880383612eaa565b604051928392818401908285525180915260408401929160005b82811061101d57505050500390f35b83518552869550938101939281019260010161100e565b835485529093019260019283019201610fde565b346104f05760003660031901126104f057602060405160008152f35b346104f05760203660031901126104f057600435600052600360205260406000208054906001810154600282015460018060a01b0360038401541691600484015492600585015494600681015460078201546110c260088401612ecd565b9060ff6009850154976110de600b83600a890154169701612ecd565b97611106604080519e8f9081526110fa60208201878616612c6e565b01848360081c16612c6e565b60101c6001600160a01b0390811660608e0152811660808d015260a01c169260068410156104ce578a9961057d996111819761116f9660a08e015260c08d015260e08c01526101008b01526101208a01526101408901526101e0806101608a0152880190612f96565b936101808701526101a0860190612cbd565b8382036101c0850152612f96565b346104f05760003660031901126104f057600f546040516001600160a01b039091168152602090f35b346104f05760003660031901126104f0576020600b54604051908152f35b346104f05760403660031901126104f0576111ef612c7b565b600435600052600160205260406000209060018060a01b0316600052602052602060ff604060002054166040519015158152f35b346104f05760e03660031901126104f057600435600a8110156104f057602435801515908181036104f05760a4356001600160a01b038116908190036104f0576001600160401b039060c4358281116104f0576112916112896005923690600401612dbb565b610438612fbb565b936112a561129e88612d5c565b91826133ba565b6001926044358483015560643560028301556084356003830155600482019060018060a01b031982541617905501928051928311610406576112f1836112eb8654612de8565b866136f1565b602090601f8411600114611346579280602095938193600080516020613e95833981519152989660009461133b575b50501b916000199060031b1c19161790555b604051908152a2005b015192508980611320565b90601f9392931983169185600052816000209260005b8181106113aa575091600080516020613e958339815191529795939185602098969410611391575b505050811b019055611332565b015160001960f88460031b161c19169055878080611384565b828401518555938601936020938401930161135c565b346104f05760203660031901126104f0576004356000526004602052602060ff604060002054166040519015158152f35b346104f05760203660031901126104f05760043561140d612fbb565b801561141857600d55005b60405162461bcd60e51b815260206004820152602560248201527f4d696e2076616c696461746f7273206d75737420626520677265617465722074604482015264068616e20360dc1b6064820152608490fd5b346104f05760003660031901126104f0576020600c54604051908152f35b346104f05760203660031901126104f057600435600052600760205261010060406000208054906001810154906002810154600382015490611509600560ff6004860154169401549460405196875260018060a01b03811660208801526114f96040880160ff8360a01c16612c6e565b60ff606088019160a81c16612c6e565b608085015260a0840152151560c083015260e0820152f35b346104f05760603660031901126104f05761153a612ca7565b602435600a8110156104f057611568906044359260018060a01b031660005260056020526040600020612d75565b80548210156104f05760209161157d91612d8d565b90546040519160031b1c8152f35b346104f05760203660031901126104f0576004356115a7612fbb565b4781116115cf576000808080938181156115c6575b3390f115610f1257005b506108fc6115bc565b60405162461bcd60e51b8152602060048201526014602482015273496e73756666696369656e742062616c616e636560601b6044820152606490fd5b346104f05760003660031901126104f057602060ff600e54166040519015158152f35b60803660031901126104f057600a60043510156104f05761164d612c7b565b611655612c91565b9061166560026000541415613569565b600260005561167960ff600e5416156135b5565b61168960ff610bcf600435612d5c565b611697600c543410156137ca565b6116ab6001600160a01b0382161515613638565b6116bf6001600160a01b0383161515613809565b6116cc6064351515613845565b6040516323b872dd60e01b6020820152336024820152306044820152606480358183015281526116fb81612e74565b604080519081018082116001600160401b0390911117610406576040818101905260208082527f5361666545524332303a206c6f772d6c6576656c2063616c6c206661696c6564908201526001600160a01b0384163b15611c3057815161179f926000918291602001826001600160a01b0389165af13d15611c28573d9061178282613441565b916117906040519384612eaa565b82523d6000602084013e61389e565b805180611bac575b50506117b4600954613678565b90816009556117c233613aea565b604051906117cf82612e3e565b60008252604051946117e086612e22565b848652600060208701526117f960043560408801613687565b3360608701526001600160a01b038481166080880152600160a08801521660c086015260643560e08601523461010086015261012085015260006101408501819052610160850191909152426101808501526101a084015260405161185d81612e3e565b600081526101c084015261187083613b23565b610140840152816000526003602052604060002083518155600181016020850151600a8110156104ce576118a49082613693565b604085015190600a8210156104ce576118c06118d492826136ab565b60608601516001600160a01b0316906136ca565b6002810160018060a01b0360808601511681549060a087015160068110156104ce576001600160a81b03199092161760a09190911b60ff60a01b1617905560c08401516003820180546001600160a01b0319166001600160a01b039290921691909117905560e084015160048201556101008401516005820155610120840151600682015561014084015160078201556101608401518051906001600160401b0382116104065781906119978261198e6008870154612de8565b600887016136f1565b602090601f8311600114611b3a57600092611b2f575b50508160011b916000199060031b1c19161760088201555b61018084015160098201556101a084015160048110156104ce57816119f2600b92600a6101c09501613745565b019301519081519360018060401b03851161040657848493611a20602097611a1a8554612de8565b856136f1565b8690601f8311600114611ab2579180611a979492600080516020613eb58339815191529694600092611aa7575b50508160011b916000199060031b1c19161790555b3360005260058652611a8384611a7e6004356040600020612d75565b61375d565b604051918291606435903360043585613792565b0390a26001600055604051908152f35b015190508980611a4d565b90601f1983169184600052886000209260005b818110611b155750926001928592600080516020613eb58339815191529896611a97989610611afc575b505050811b019055611a62565b015160001960f88460031b161c19169055898080611aef565b828401518555899850600190940193928a01928a01611ac5565b0151905086806119ad565b9250600884016000526020600020906000935b601f1984168510611b91576001945083601f19811610611b78575b505050811b0160088201556119c5565b015160001960f88460031b161c19169055868080611b68565b81810151835560209485019460019093019290910190611b4d565b81602091810103126104f0576020611bc49101613891565b15611bd05782806117a7565b60405162461bcd60e51b815260206004820152602a60248201527f5361666545524332303a204552433230206f7065726174696f6e20646964206e6044820152691bdd081cdd58d8d9595960b21b6064820152608490fd5b60609061389e565b60405162461bcd60e51b815260206004820152601d60248201527f416464726573733a2063616c6c20746f206e6f6e2d636f6e74726163740000006044820152606490fd5b346104f05760203660031901126104f057611c8e612fbb565b600435600c55005b346104f05760003660031901126104f057600e5460405160089190911c6001600160a01b03168152602090f35b346104f057611cd136612d29565b9091611cdb613196565b611cea60026000541415613569565b600260005580151580611e6c575b611d0190613aa8565b60005260209160078352604060002091600483019182549160ff90818416611e1d57949291908354956001968560028980980154910154611d78604051928c840194855260018060601b03198160601b166040850152611d6960548501888360a01c16613945565b86605585019160a81c16613945565b605682015260568152611d8a81612e59565b51902090611d9c600d54821015613a11565b60005b818110611dbe57505050505060ff191617905580600055604051908152f35b84959650611dd961093b6104388385611e1196979899613a67565b600080516020613f15833981519152600052898b5260406000209060018060a01b03166000528a5261047e856040600020541661398c565b90879594939291611d9f565b60405162461bcd60e51b815260048101889052602160248201527f437265646974207472616e7366657220616c726561647920636f6e6669726d656044820152601960fa1b6064820152608490fd5b50600a54811115611cf8565b346104f05760003660031901126104f0576020600954604051908152f35b611e9f36612cca565b611eae60026000541415613569565b6002600055611ec260ff600e5416156135b5565b611ed060ff610bcf84612d5c565b600c5490813411156122c457611ef06001600160a01b0382161515613638565b3482340311610afc57611f04600954613678565b9182600955611f1233613aea565b91604051611f1f81612e3e565b6000815260405193611f3085612e22565b85855260006020860152611f478760408701613687565b33606086015260018060a01b0383166080860152600060a0860152600060c086015283340360e08601528361010086015261012085015260006101408501526101608401524261018084015260006101a0840152604051611fa781612e3e565b600081526101c0840152611fba83613b23565b610140840152836000526003602052604060002083518155600181016020850151600a8110156104ce57611fee9082613693565b604085015190600a8210156104ce576118c061200a92826136ab565b6002810160018060a01b0360808601511681549060a087015160068110156104ce576001600160a81b03199092161760a09190911b60ff60a01b1617905560c08401516003820180546001600160a01b0319166001600160a01b039290921691909117905560e084015160048201556101008401516005820155610120840151600682015561014084015160078201556101608401518051906001600160401b0382116104065781906120c48261198e6008870154612de8565b602090601f831160011461225257600092612247575b50508160011b916000199060031b1c19161760088201555b61018084015160098201556101a084015160048110156104ce578161211f600b92600a6101c09501613745565b019301519182519560018060401b0387116104065786869461214d6020996121478954612de8565b896136f1565b8890601f83116001146121c6579180600080516020613eb5833981519152979892611a9795946000926121bb575b50508160011b916000199060031b1c19161790555b33600052600588526121aa86611a7e836040600020612d75565b604051938493340391339085613792565b015190508b8061217b565b601f9792919719821690836000528a6000209160005b81811061222d575091600080516020613eb583398151915298998492611a9797969560019510612214575b505050811b019055612190565b015160001960f88460031b161c191690558b8080612207565b828b01518455998c01998b99506001909301928c016121dc565b0151905088806120da565b9250600884016000526020600020906000935b601f19841685106122a9576001945083601f19811610612290575b505050811b0160088201556120f2565b015160001960f88460031b161c19169055888080612280565b81810151835560209485019460019093019290910190612265565b60405162461bcd60e51b8152602060048201526017602482015276125b9cdd59999a58da595b9d081d985b1d59481cd95b9d604a1b6044820152606490fd5b346104f05760403660031901126104f05761231c612c7b565b336001600160a01b038216036123385761001b906004356133cb565b60405162461bcd60e51b815260206004820152602f60248201527f416363657373436f6e74726f6c3a2063616e206f6e6c792072656e6f756e636560448201526e103937b632b9903337b91039b2b63360891b6064820152608490fd5b346104f05760003660031901126104f0576020600a54604051908152f35b346104f05760203660031901126104f05760043580151580612548575b6123d9906139cc565b60005260036020526040600020604051906123f382612e22565b80548252600181015491602081019061240f60ff851683613687565b604081019061242460ff8660081c1683613687565b606081019460018060a01b03809160101c16865260028501549460ff6080840196838116885260a01c1660068110156104ce5760a08401528160038201541660c084015260048101549660e084019788526005820154610100850152600682015461012085015260078201546101408501526124a260088301612ecd565b610160850152600982015461018085015260ff600a83015416936101a081019460048110156104ce576124de600b86956101c093895201612ecd565b9101525116945116945190519260048410156104ce575191600a8310156104ce575191600a8310156104ce576125326125469461253c9360c098604051988952602089015260408801526060870190612cbd565b6080850190612c6e565b60a0830190612c6e565bf35b506009548111156123d0565b346104f05760403660031901126104f057600435612570612c7b565b81600052600160205261258a6001604060002001546132bd565b81600052600160205260406000209060018060a01b0316908160005260205260ff60406000205416156125b957005b8160005260016020526040600020816000526020526040600020600160ff1982541617905533917f2f8788117e7eff1d82e926ec794901d17c78024a50270940304540a733656f0d600080a4005b346104f05760203660031901126104f05760043560005260016020526020600160406000200154604051908152f35b60403660031901126104f057600a60043510156104f0576024803561266060026000541415613569565b60026000556000600e5461267760ff8216156135b5565b61268760ff610bcf600435612d5c565b612695600c543410156137ca565b604051631d11e60560e11b815260048101849052938491829060081c6001600160a01b03165afa918215610f125760009261298a575b5060608201516001600160a01b031633036129515760e0820190815115612915576126f7600b54613678565b9182600b5560408451940151905115159060405194610140860186811060018060401b03821117610406576040528486528360208701526000604087015261274460043560608801613687565b33608087015260a086015260c085015260e0840152426101008401526000610120840152825160208401516040850151600a8110156104ce576060860151600a8110156104ce5760808701516127cb60a0890151926127c160c08b0151956101008c0151976040519960208b015260408a01526060890190613945565b6061870190613945565b60601b6001600160601b03191660628501526076840152609683015260b68083019190915281526001600160401b0360e08201908111908211176104065760e0810160405260208151910120610120840152816000526008602052604060002092805184556020810151600185015560028401906040810151600a8110156104ce576128579083613693565b606081015192600a8410156104ce5760209560076101206060946128b5876128a18b9a7fd134f50cd328349991f4ee7acd154b79baeeee49de5418681fa6f23fe2f34c919a6136ab565b60808301516001600160a01b0316906136ca565b60a0810151600385015560c081015160048501556128dc60e08201511515600586016133ba565b6101008101516006850155015191015560405190815260008682015261290760408201600435612c6e565ba26001600055604051908152f35b60405162461bcd60e51b8152602060048201526014602482015273125b9d9bda58d9481b9bdd081d995c9a599a595960621b6044820152606490fd5b60405162461bcd60e51b81526020600482015260116024820152702737ba1034b73b37b4b1b29037bbb732b960791b6044820152606490fd5b9091503d806000833e61299d8183612eaa565b81016020828203126104f05781516001600160401b03928382116104f05701906101e0828203126104f057604051926129d584612e22565b8251845260208301516020850152604083015160408501526129f9606084016138de565b6060850152612a0a608084016138de565b608085015260a08301518181116104f05782612a279185016138f2565b60a085015260c08301518181116104f05782612a449185016138f2565b60c0850152612a5560e08401613891565b60e0850152610100612a68818501613891565b90850152610120808401519085015261014091828401519182116104f057612a919184016138f2565b90830152610160808201519083015261018080820151908301526101a0612ab9818301613937565b908301526101c0809101519082015290826126cb565b346104f05760203660031901126104f0576004358015158091036104f057612af5612fbb565b60ff8019600e5416911617600e55600080f35b346104f05760203660031901126104f057600435600052600860205261014060406000208054906001810154906002810154600382015460048301549060ff6005850154169260076006860154950154956040519788526020880152612b746040880160ff8316612c6e565b612b876060880160ff8360081c16612c6e565b60101c6001600160a01b0316608087015260a086015260c0850152151560e0840152610100830152610120820152f35b346104f05760003660031901126104f05760206040517f68e79a7bf1e0bc45d0a330c573bc367f9cf464fd326078812f301165fbda4ef18152f35b346104f05760003660031901126104f0576020604051600080516020613ef58339815191528152f35b346104f05760203660031901126104f0576004359063ffffffff60e01b82168092036104f057602091637965db0b60e01b8114908115612c5d575b5015158152f35b6301ffc9a760e01b14905083612c56565b90600a8210156104ce5752565b602435906001600160a01b03821682036104f057565b604435906001600160a01b03821682036104f057565b600435906001600160a01b03821682036104f057565b9060048210156104ce5752565b60409060031901126104f057600435600a8110156104f057906024356001600160a01b03811681036104f05790565b9181601f840112156104f0578235916001600160401b0383116104f0576020808501948460051b0101116104f057565b9060406003198301126104f05760043591602435906001600160401b0382116104f057612d5891600401612cf9565b9091565b600a8110156104ce576000526002602052604060002090565b90600a8110156104ce57600052602052604060002090565b8054821015612da55760005260206000200190600090565b634e487b7160e01b600052603260045260246000fd5b9181601f840112156104f0578235916001600160401b0383116104f057602083818601950101116104f057565b90600182811c92168015612e18575b6020831014612e0257565b634e487b7160e01b600052602260045260246000fd5b91607f1691612df7565b6101e081019081106001600160401b0382111761040657604052565b602081019081106001600160401b0382111761040657604052565b608081019081106001600160401b0382111761040657604052565b60a081019081106001600160401b0382111761040657604052565b60c081019081106001600160401b0382111761040657604052565b601f909101601f19168101906001600160401b0382119082101761040657604052565b9060405191826000825492612ee184612de8565b908184526001948581169081600014612f505750600114612f0d575b5050612f0b92500383612eaa565b565b9093915060005260209081600020936000915b818310612f38575050612f0b93508201013880612efd565b85548884018501529485019487945091830191612f20565b915050612f0b94506020925060ff191682840152151560051b8201013880612efd565b60005b838110612f865750506000910152565b8181015183820152602001612f76565b90602091612faf81518092818552858086019101612f73565b601f01601f1916010190565b3360009081527fa6eef7e35abe7026729641147f7915573c7e97b47efa546f5f6e3230263bcb496020908152604080832054909260019160ff16156130005750505050565b6130093361346d565b918185519161301783612e59565b60428352858301936060368637835115613182576030855383518210156131825790607860218501536041915b818311613114575050506130e45760486130e09386936130c4936130b59851988993600080516020613ed58339815191528a86015261308c815180928c603789019101612f73565b8401917001034b99036b4b9b9b4b733903937b6329607d1b603784015251809386840190612f73565b01036028810187520185612eaa565b5192839262461bcd60e51b845260048401526024830190612f96565b0390fd5b60648486519062461bcd60e51b82528060048301526024820152600080516020613e758339815191526044820152fd5b909192600f8116601081101561316e576f181899199a1a9b1b9c1cb0b131b232b360811b901a613144858761345c565b5360041c92801561315a57600019019190613044565b634e487b7160e01b82526011600452602482fd5b634e487b7160e01b83526032600452602483fd5b634e487b7160e01b81526032600452602490fd5b3360009081527f794daf18569cbd6eb16d8ca6a4da292be3594e621335fad8067fb88607cfba3860209081526040808320549092600080516020613ef58339815191529160019060ff16156131ec575050505050565b6131f53361346d565b9285519161320283612e59565b60428352858301936060368637835115613182576030855383518210156131825790607860218501536041915b818311613277575050506130e45760486130e09386936130c4936130b59851988993600080516020613ed58339815191528a86015261308c815180928c603789019101612f73565b909192600f8116601081101561316e576f181899199a1a9b1b9c1cb0b131b232b360811b901a6132a7858761345c565b5360041c92801561315a5760001901919061322f565b6000818152600191602091838352604093848220338352845260ff8583205416156132e9575050505050565b6132f23361346d565b928551916132ff83612e59565b60428352858301936060368637835115613182576030855383518210156131825790607860218501536041915b818311613374575050506130e45760486130e09386936130c4936130b59851988993600080516020613ed58339815191528a86015261308c815180928c603789019101612f73565b909192600f8116601081101561316e576f181899199a1a9b1b9c1cb0b131b232b360811b901a6133a4858761345c565b5360041c92801561315a5760001901919061332c565b9060ff801983541691151516179055565b906000918083526001602052604083209160018060a01b03169182845260205260ff6040842054166133fc57505050565b8083526001602052604083208284526020526040832060ff1981541690557ff6391f5c32d9c69d2a47ea670b442974b53935d1edc7fd64eb21e047a839171b339380a4565b6001600160401b03811161040657601f01601f191660200190565b908151811015612da5570160200190565b60405190606082016001600160401b0381118382101761040657604052602a8252602082016040368237825115612da557603090538151600190811015612da557607860218401536029905b8082116134fb5750506134c95790565b606460405162461bcd60e51b81526020600482015260206024820152600080516020613e758339815191526044820152fd5b9091600f81166010811015613554576f181899199a1a9b1b9c1cb0b131b232b360811b901a61352a848661345c565b5360041c91801561353f5760001901906134b9565b60246000634e487b7160e01b81526011600452fd5b60246000634e487b7160e01b81526032600452fd5b1561357057565b60405162461bcd60e51b815260206004820152601f60248201527f5265656e7472616e637947756172643a207265656e7472616e742063616c6c006044820152606490fd5b156135bc57565b60405162461bcd60e51b815260206004820152601260248201527110dbdb9d1c9858dd081a5cc81c185d5cd95960721b6044820152606490fd5b156135fd57565b60405162461bcd60e51b815260206004820152601360248201527210da185a5b881b9bdd081cdd5c1c1bdc9d1959606a1b6044820152606490fd5b1561363f57565b60405162461bcd60e51b8152602060048201526011602482015270125b9d985b1a59081c9958da5c1a595b9d607a1b6044820152606490fd5b6000198114610afc5760010190565b600a8210156104ce5752565b90600a8110156104ce5760ff80198354169116179055565b90600a8110156104ce5761ff0082549160081b169061ff001916179055565b805462010000600160b01b03191660109290921b62010000600160b01b0316919091179055565b90601f81116136ff57505050565b600091825260208220906020601f850160051c8301941061373b575b601f0160051c01915b82811061373057505050565b818155600101613724565b909250829061371b565b9060048110156104ce5760ff80198354169116179055565b8054600160401b8110156104065761377a91600182018155612d8d565b819291549060031b91821b91600019901b1916179055565b90949392916080926137b060a0840197600085526020850190612c6e565b6001600160a01b0391821660408401521660608201520152565b156137d157565b60405162461bcd60e51b815260206004820152601060248201526f496e73756666696369656e742066656560801b6044820152606490fd5b1561381057565b60405162461bcd60e51b815260206004820152600d60248201526c24b73b30b634b2103a37b5b2b760991b6044820152606490fd5b1561384c57565b60405162461bcd60e51b815260206004820152601d60248201527f416d6f756e74206d7573742062652067726561746572207468616e20300000006044820152606490fd5b519081151582036104f057565b909190156138aa575090565b8151156138ba5750805190602001fd5b60405162461bcd60e51b8152602060048201529081906130e0906024830190612f96565b51906001600160a01b03821682036104f057565b81601f820112156104f057805161390881613441565b926139166040519485612eaa565b818452602082840101116104f0576139349160208085019101612f73565b90565b519060ff821682036104f057565b600a8110156104ce5760f81b9052565b92919261396182613441565b9161396f6040519384612eaa565b8294818452818301116104f0578281602093846000960137010152565b1561399357565b60405162461bcd60e51b8152602060048201526011602482015270496e76616c6964207369676e617475726560781b6044820152606490fd5b156139d357565b60405162461bcd60e51b8152602060048201526016602482015275125b9d985b1a59081d1c985b9cd858dd1a5bdb88125160521b6044820152606490fd5b15613a1857565b60405162461bcd60e51b815260206004820152602160248201527f496e73756666696369656e742076616c696461746f72207369676e61747572656044820152607360f81b6064820152608490fd5b9190811015612da55760051b81013590601e19813603018212156104f05701803591906001600160401b0383116104f05760200182360381136104f0579190565b15613aaf57565b60405162461bcd60e51b8152602060048201526013602482015272125b9d985b1a59081d1c985b9cd9995c881251606a1b6044820152606490fd5b60095460405190602082019260018060601b03199060601b168352426034830152605482015260548152613b1d81612e59565b51902090565b805190602081015190600a8210156104ce57604081015190600a8210156104ce57606081015160808201519060a083015160068110156104ce5760c084015191613b9461012060e087015196015196613b8a6040519960208b019b8c5260408b0190613945565b6041890190613945565b60018060601b03199384809260601b16604289015260601b16605687015260f81b606a86015260601b16606b840152607f830152609f820152609f8152613b1d81612e8f565b6040517b0ca2ba3432b932bab69029b4b3b732b21026b2b9b9b0b3b29d05199960211b60208201908152603c808301939093529181529160608301916001600160401b038311848410176104065761393493613c3b93604052519020613d95565b91909160058110156104ce5780613c4f5750565b60018103613c975760405162461bcd60e51b815260206004820152601860248201527745434453413a20696e76616c6964207369676e617475726560401b6044820152606490fd5b60028103613ce45760405162461bcd60e51b815260206004820152601f60248201527f45434453413a20696e76616c6964207369676e6174757265206c656e677468006044820152606490fd5b60038103613d3c5760405162461bcd60e51b815260206004820152602260248201527f45434453413a20696e76616c6964207369676e6174757265202773272076616c604482015261756560f01b6064820152608490fd5b600414613d4557565b60405162461bcd60e51b815260206004820152602260248201527f45434453413a20696e76616c6964207369676e6174757265202776272076616c604482015261756560f01b6064820152608490fd5b906041815114600014613dbf57612d58916020820151906060604084015193015160001a90613dc9565b5050600090600290565b9291906fa2a8918ca85bafe22016d0b997e4df60600160ff1b038311613e685760ff16601b81141580613e5d575b613e51579160809493916020936040519384528484015260408301526060820152600093849182805260015afa15613e445781516001600160a01b03811615613e3e579190565b50600190565b50604051903d90823e3d90fd5b50505050600090600490565b50601c811415613df7565b5050505060009060039056fe537472696e67733a20686578206c656e67746820696e73756666696369656e749e4ffe4db4f8c8e2af565143ed2f5b3eeb0b2a4c2cc9d211e935f785c4a6fc5c2fe25253692dfb21874b70d4401de1b76b7c9535739af5172c04bee2b23814bd416363657373436f6e74726f6c3a206163636f756e7420000000000000000000077a1d526a4ce8a773632ab13b4fbbf1fcc954c3dab26cd27ea0e2a6750da5d7fb4c63731d4193edbc29892546c0334b7d4908d88d1f39b3d3143333406a52240106f0ac0a0c54cbe118c368bdfb84c37418e14170ec176ed6edb9ef0faca397a26469706673582212207678e57674c83202bbb1e3478ae9887e4ec647a2a57287723838811ceb5450d864736f6c634300081400332f8788117e7eff1d82e926ec794901d17c78024a50270940304540a733656f0da6eef7e35abe7026729641147f7915573c7e97b47efa546f5f6e3230263bcb499e4ffe4db4f8c8e2af565143ed2f5b3eeb0b2a4c2cc9d211e935f785c4a6fc5c",
  "linkReferences": {},
  "deployedLinkReferences": {}
}