{
  "_format": "hh-sol-artifact-1",
  "contractName": "CreditScoring",
  "sourceName": "contracts/CreditScoring.sol",
  "abi": [
    {
      "inputs": [],
      "stateMutability": "nonpayable",
      "type": "constructor"
    },
    {
      "anonymous": false,
      "inputs": [
        {
          "indexed": true,
          "internalType": "address",
          "name": "business",
          "type": "address"
        },
        {
          "indexed": true,
          "internalType": "uint256",
          "name": "profileId",
          "type": "uint256"
        },
        {
          "indexed": false,
          "internalType": "enum CreditScoring.IndustryCategory",
          "name": "industry",
          "type": "uint8"
        }
      ],
      "name": "BusinessRegistered",
      "type": "event"
    },
    {
      "anonymous": false,
      "inputs": [
        {
          "indexed": true,
          "internalType": "address",
          "name": "business",
          "type": "address"
        },
        {
          "indexed": false,
          "internalType": "bool",
          "name": "verified",
          "type": "bool"
        }
      ],
      "name": "BusinessVerified",
      "type": "event"
    },
    {
      "anonymous": false,
      "inputs": [
        {
          "indexed": true,
          "internalType": "address",
          "name": "business",
          "type": "address"
        },
        {
          "indexed": false,
          "internalType": "uint8",
          "name": "previousScore",
          "type": "uint8"
        },
        {
          "indexed": false,
          "internalType": "uint8",
          "name": "newScore",
          "type": "uint8"
        },
        {
          "indexed": false,
          "internalType": "uint8",
          "name": "riskLevel",
          "type": "uint8"
        }
      ],
      "name": "CreditScoreUpdated",
      "type": "event"
    },
    {
      "anonymous": false,
      "inputs": [
        {
          "indexed": true,
          "internalType": "enum CreditScoring.IndustryCategory",
          "name": "industry",
          "type": "uint8"
        },
        {
          "indexed": false,
          "internalType": "uint256",
          "name": "multiplier",
          "type": "uint256"
        }
      ],
      "name": "IndustryRiskMultiplierUpdated",
      "type": "event"
    },
    {
      "anonymous": false,
      "inputs": [
        {
          "indexed": true,
          "internalType": "address",
          "name": "business",
          "type": "address"
        },
        {
          "indexed": true,
          "internalType": "uint256",
          "name": "invoiceId",
          "type": "uint256"
        },
        {
          "indexed": false,
          "internalType": "enum CreditScoring.PaymentStatus",
          "name": "status",
          "type": "uint8"
        },
        {
          "indexed": false,
          "internalType": "uint256",
          "name": "delayDays",
          "type": "uint256"
        }
      ],
      "name": "PaymentRecordAdded",
      "type": "event"
    },
    {
      "anonymous": false,
      "inputs": [
        {
          "indexed": true,
          "internalType": "bytes32",
          "name": "role",
          "type": "bytes32"
        },
        {
          "indexed": true,
          "internalType": "bytes32",
          "name": "previousAdminRole",
          "type": "bytes32"
        },
        {
          "indexed": true,
          "internalType": "bytes32",
          "name": "newAdminRole",
          "type": "bytes32"
        }
      ],
      "name": "RoleAdminChanged",
      "type": "event"
    },
    {
      "anonymous": false,
      "inputs": [
        {
          "indexed": true,
          "internalType": "bytes32",
          "name": "role",
          "type": "bytes32"
        },
        {
          "indexed": true,
          "internalType": "address",
          "name": "account",
          "type": "address"
        },
        {
          "indexed": true,
          "internalType": "address",
          "name": "sender",
          "type": "address"
        }
      ],
      "name": "RoleGranted",
      "type": "event"
    },
    {
      "anonymous": false,
      "inputs": [
        {
          "indexed": true,
          "internalType": "bytes32",
          "name": "role",
          "type": "bytes32"
        },
        {
          "indexed": true,
          "internalType": "address",
          "name": "account",
          "type": "address"
        },
        {
          "indexed": true,
          "internalType": "address",
          "name": "sender",
          "type": "address"
        }
      ],
      "name": "RoleRevoked",
      "type": "event"
    },
    {
      "inputs": [],
      "name": "DEFAULT_ADMIN_ROLE",
      "outputs": [
        {
          "internalType": "bytes32",
          "name": "",
          "type": "bytes32"
        }
      ],
      "stateMutability": "view",
      "type": "function"
    },
    {
      "inputs": [],
      "name": "UPDATER_ROLE",
      "outputs": [
        {
          "internalType": "bytes32",
          "name": "",
          "type": "bytes32"
        }
      ],
      "stateMutability": "view",
      "type": "function"
    },
    {
      "inputs": [],
      "name": "VERIFIER_ROLE",
      "outputs": [
        {
          "internalType": "bytes32",
          "name": "",
          "type": "bytes32"
        }
      ],
      "stateMutability": "view",
      "type": "function"
    },
    {
      "inputs": [
        {
          "internalType": "string",
          "name": "",
          "type": "string"
        }
      ],
      "name": "businessIdToAddress",
      "outputs": [
        {
          "internalType": "address",
          "name": "",
          "type": "address"
        }
      ],
      "stateMutability": "view",
      "type": "function"
    },
    {
      "inputs": [
        {
          "internalType": "address",
          "name": "",
          "type": "address"
        }
      ],
      "name": "businessProfiles",
      "outputs": [
        {
          "internalType": "uint256",
          "name": "profileId",
          "type": "uint256"
        },
        {
          "internalType": "address",
          "name": "businessAddress",
          "type": "address"
        },
        {
          "internalType": "string",
          "name": "businessId",
          "type": "string"
        },
        {
          "internalType": "enum CreditScoring.IndustryCategory",
          "name": "industry",
          "type": "uint8"
        },
        {
          "internalType": "uint8",
          "name": "creditScore",
          "type": "uint8"
        },
        {
          "internalType": "uint8",
          "name": "riskLevel",
          "type": "uint8"
        },
        {
          "internalType": "uint256",
          "name": "totalInvoices",
          "type": "uint256"
        },
        {
          "internalType": "uint256",
          "name": "totalPaymentsOnTime",
          "type": "uint256"
        },
        {
          "internalType": "uint256",
          "name": "totalPaymentsLate",
          "type": "uint256"
        },
        {
          "internalType": "uint256",
          "name": "totalDefaults",
          "type": "uint256"
        },
        {
          "internalType": "uint256",
          "name": "averagePaymentDelay",
          "type": "uint256"
        },
        {
          "internalType": "bool",
          "name": "isVerified",
          "type": "bool"
        },
        {
          "internalType": "uint256",
          "name": "lastScoreUpdate",
          "type": "uint256"
        },
        {
          "internalType": "uint256",
          "name": "recommendedRate",
          "type": "uint256"
        }
      ],
      "stateMutability": "view",
      "type": "function"
    },
    {
      "inputs": [
        {
          "internalType": "uint8",
          "name": "riskLevel",
          "type": "uint8"
        },
        {
          "internalType": "enum CreditScoring.IndustryCategory",
          "name": "industry",
          "type": "uint8"
        }
      ],
      "name": "calculateBaseRate",
      "outputs": [
        {
          "internalType": "uint256",
          "name": "rate",
          "type": "uint256"
        }
      ],
      "stateMutability": "view",
      "type": "function"
    },
    {
      "inputs": [
        {
          "internalType": "address",
          "name": "business",
          "type": "address"
        }
      ],
      "name": "calculateCreditScore",
      "outputs": [
        {
          "internalType": "uint8",
          "name": "newScore",
          "type": "uint8"
        }
      ],
      "stateMutability": "nonpayable",
      "type": "function"
    },
    {
      "inputs": [
        {
          "internalType": "uint256",
          "name": "index",
          "type": "uint256"
        }
      ],
      "name": "getBusinessAtIndex",
      "outputs": [
        {
          "internalType": "address",
          "name": "businessAddress",
          "type": "address"
        }
      ],
      "stateMutability": "view",
      "type": "function"
    },
    {
      "inputs": [],
      "name": "getBusinessCount",
      "outputs": [
        {
          "internalType": "uint256",
          "name": "count",
          "type": "uint256"
        }
      ],
      "stateMutability": "view",
      "type": "function"
    },
    {
      "inputs": [
        {
          "internalType": "address",
          "name": "business",
          "type": "address"
        },
        {
          "internalType": "uint256",
          "name": "startIndex",
          "type": "uint256"
        },
        {
          "internalType": "uint256",
          "name": "count",
          "type": "uint256"
        }
      ],
      "name": "getPaymentHistory",
      "outputs": [
        {
          "components": [
            {
              "internalType": "uint256",
              "name": "recordId",
              "type": "uint256"
            },
            {
              "internalType": "uint256",
              "name": "invoiceId",
              "type": "uint256"
            },
            {
              "internalType": "uint256",
              "name": "expectedPaymentDate",
              "type": "uint256"
            },
            {
              "internalType": "uint256",
              "name": "actualPaymentDate",
              "type": "uint256"
            },
            {
              "internalType": "enum CreditScoring.PaymentStatus",
              "name": "status",
              "type": "uint8"
            },
            {
              "internalType": "uint256",
              "name": "delayDays",
              "type": "uint256"
            },
            {
              "internalType": "uint256",
              "name": "recordedAt",
              "type": "uint256"
            }
          ],
          "internalType": "struct CreditScoring.PaymentRecord[]",
          "name": "records",
          "type": "tuple[]"
        }
      ],
      "stateMutability": "view",
      "type": "function"
    },
    {
      "inputs": [
        {
          "internalType": "address",
          "name": "business",
          "type": "address"
        },
        {
          "internalType": "uint256",
          "name": "recordId",
          "type": "uint256"
        }
      ],
      "name": "getPaymentRecord",
      "outputs": [
        {
          "components": [
            {
              "internalType": "uint256",
              "name": "recordId",
              "type": "uint256"
            },
            {
              "internalType": "uint256",
              "name": "invoiceId",
              "type": "uint256"
            },
            {
              "internalType": "uint256",
              "name": "expectedPaymentDate",
              "type": "uint256"
            },
            {
              "internalType": "uint256",
              "name": "actualPaymentDate",
              "type": "uint256"
            },
            {
              "internalType": "enum CreditScoring.PaymentStatus",
              "name": "status",
              "type": "uint8"
            },
            {
              "internalType": "uint256",
              "name": "delayDays",
              "type": "uint256"
            },
            {
              "internalType": "uint256",
              "name": "recordedAt",
              "type": "uint256"
            }
          ],
          "internalType": "struct CreditScoring.PaymentRecord",
          "name": "record",
          "type": "tuple"
        }
      ],
      "stateMutability": "view",
      "type": "function"
    },
    {
      "inputs": [
        {
          "internalType": "address",
          "name": "business",
          "type": "address"
        }
      ],
      "name": "getRiskAssessment",
      "outputs": [
        {
          "internalType": "uint8",
          "name": "creditScore",
          "type": "uint8"
        },
        {
          "internalType": "uint8",
          "name": "riskLevel",
          "type": "uint8"
        },
        {
          "internalType": "uint256",
          "name": "recommendedRate",
          "type": "uint256"
        }
      ],
      "stateMutability": "view",
      "type": "function"
    },
    {
      "inputs": [
        {
          "internalType": "bytes32",
          "name": "role",
          "type": "bytes32"
        }
      ],
      "name": "getRoleAdmin",
      "outputs": [
        {
          "internalType": "bytes32",
          "name": "",
          "type": "bytes32"
        }
      ],
      "stateMutability": "view",
      "type": "function"
    },
    {
      "inputs": [
        {
          "internalType": "bytes32",
          "name": "role",
          "type": "bytes32"
        },
        {
          "internalType": "address",
          "name": "account",
          "type": "address"
        }
      ],
      "name": "grantRole",
      "outputs": [],
      "stateMutability": "nonpayable",
      "type": "function"
    },
    {
      "inputs": [
        {
          "internalType": "bytes32",
          "name": "role",
          "type": "bytes32"
        },
        {
          "internalType": "address",
          "name": "account",
          "type": "address"
        }
      ],
      "name": "hasRole",
      "outputs": [
        {
          "internalType": "bool",
          "name": "",
          "type": "bool"
        }
      ],
      "stateMutability": "view",
      "type": "function"
    },
    {
      "inputs": [
        {
          "internalType": "enum CreditScoring.IndustryCategory",
          "name": "",
          "type": "uint8"
        }
      ],
      "name": "industryRiskMultipliers",
      "outputs": [
        {
          "internalType": "uint256",
          "name": "",
          "type": "uint256"
        }
      ],
      "stateMutability": "view",
      "type": "function"
    },
    {
      "inputs": [
        {
          "internalType": "uint256",
          "name": "",
          "type": "uint256"
        }
      ],
      "name": "invoiceToLatestPayment",
      "outputs": [
        {
          "internalType": "uint256",
          "name": "",
          "type": "uint256"
        }
      ],
      "stateMutability": "view",
      "type": "function"
    },
    {
      "inputs": [],
      "name": "nextProfileId",
      "outputs": [
        {
          "internalType": "uint256",
          "name": "",
          "type": "uint256"
        }
      ],
      "stateMutability": "view",
      "type": "function"
    },
    {
      "inputs": [
        {
          "internalType": "address",
          "name": "",
          "type": "address"
        },
        {
          "internalType": "uint256",
          "name": "",
          "type": "uint256"
        }
      ],
      "name": "paymentHistory",
      "outputs": [
        {
          "internalType": "uint256",
          "name": "recordId",
          "type": "uint256"
        },
        {
          "internalType": "uint256",
          "name": "invoiceId",
          "type": "uint256"
        },
        {
          "internalType": "uint256",
          "name": "expectedPaymentDate",
          "type": "uint256"
        },
        {
          "internalType": "uint256",
          "name": "actualPaymentDate",
          "type": "uint256"
        },
        {
          "internalType": "enum CreditScoring.PaymentStatus",
          "name": "status",
          "type": "uint8"
        },
        {
          "internalType": "uint256",
          "name": "delayDays",
          "type": "uint256"
        },
        {
          "internalType": "uint256",
          "name": "recordedAt",
          "type": "uint256"
        }
      ],
      "stateMutability": "view",
      "type": "function"
    },
    {
      "inputs": [
        {
          "internalType": "uint256",
          "name": "",
          "type": "uint256"
        }
      ],
      "name": "profileIdToAddress",
      "outputs": [
        {
          "internalType": "address",
          "name": "",
          "type": "address"
        }
      ],
      "stateMutability": "view",
      "type": "function"
    },
    {
      "inputs": [
        {
          "internalType": "address",
          "name": "business",
          "type": "address"
        },
        {
          "internalType": "string",
          "name": "businessId",
          "type": "string"
        },
        {
          "internalType": "enum CreditScoring.IndustryCategory",
          "name": "industry",
          "type": "uint8"
        }
      ],
      "name": "registerBusiness",
      "outputs": [
        {
          "internalType": "uint256",
          "name": "profileId",
          "type": "uint256"
        }
      ],
      "stateMutability": "nonpayable",
      "type": "function"
    },
    {
      "inputs": [
        {
          "internalType": "bytes32",
          "name": "role",
          "type": "bytes32"
        },
        {
          "internalType": "address",
          "name": "account",
          "type": "address"
        }
      ],
      "name": "renounceRole",
      "outputs": [],
      "stateMutability": "nonpayable",
      "type": "function"
    },
    {
      "inputs": [
        {
          "internalType": "bytes32",
          "name": "role",
          "type": "bytes32"
        },
        {
          "internalType": "address",
          "name": "account",
          "type": "address"
        }
      ],
      "name": "revokeRole",
      "outputs": [],
      "stateMutability": "nonpayable",
      "type": "function"
    },
    {
      "inputs": [
        {
          "internalType": "uint8",
          "name": "",
          "type": "uint8"
        }
      ],
      "name": "riskLevelDefaultProbability",
      "outputs": [
        {
          "internalType": "uint256",
          "name": "",
          "type": "uint256"
        }
      ],
      "stateMutability": "view",
      "type": "function"
    },
    {
      "inputs": [
        {
          "internalType": "bytes4",
          "name": "interfaceId",
          "type": "bytes4"
        }
      ],
      "name": "supportsInterface",
      "outputs": [
        {
          "internalType": "bool",
          "name": "",
          "type": "bool"
        }
      ],
      "stateMutability": "view",
      "type": "function"
    },
    {
      "inputs": [
        {
          "internalType": "enum CreditScoring.IndustryCategory",
          "name": "industry",
          "type": "uint8"
        },
        {
          "internalType": "uint256",
          "name": "multiplier",
          "type": "uint256"
        }
      ],
      "name": "updateIndustryRiskMultiplier",
      "outputs": [],
      "stateMutability": "nonpayable",
      "type": "function"
    },
    {
      "inputs": [
        {
          "internalType": "address",
          "name": "business",
          "type": "address"
        },
        {
          "internalType": "uint256",
          "name": "invoiceId",
          "type": "uint256"
        },
        {
          "internalType": "uint256",
          "name": "expectedDate",
          "type": "uint256"
        },
        {
          "internalType": "uint256",
          "name": "actualDate",
          "type": "uint256"
        },
        {
          "internalType": "enum CreditScoring.PaymentStatus",
          "name": "status",
          "type": "uint8"
        }
      ],
      "name": "updatePaymentRecord",
      "outputs": [],
      "stateMutability": "nonpayable",
      "type": "function"
    },
    {
      "inputs": [
        {
          "internalType": "address",
          "name": "business",
          "type": "address"
        },
        {
          "internalType": "bool",
          "name": "verified",
          "type": "bool"
        }
      ],
      "name": "verifyBusiness",
      "outputs": [],
      "stateMutability": "nonpayable",
      "type": "function"
    }
  ],
  "bytecode": "0x608060408181523462000209576107d09060018080556008600091828052602090838252848420338552825260ff858520541615620001d2575b7f73e573f9566d61418a34d5de3ff49360f9c51fec37f7486551670290f6285dab808552848352858520338652835260ff86862054161562000199575b507f0ce23c3e399818cfee81a7ab0880f714e53d7672b08df0fa62f2843416e1ea09808552848352858520338652835260ff86862054161562000160575b5083805260028252605a858520558084526050858520556002845260558585205560038452606e858520556004845260648585205560058452605f85852055600684526069858520556007845260738585205582845260558585205560098452606e85852055600a84526078858520558352526032828220556002815260c882822055600381526101f482822055600481526103e88282205560058152205561270090816200020f8239f35b80855284835285852033865283528585208260ff19825416179055339033906000805160206200290f8339815191528780a438620000b4565b80855284835285852033865283528585208260ff19825416179055339033906000805160206200290f8339815191528780a43862000076565b83805283825284842033855282528484208160ff198254161790553333856000805160206200290f8339815191528180a462000039565b600080fdfe6080604052600436101561001257600080fd5b60003560e01c806291588a1461143957806301ffc9a7146113e357806302cb7d0e146113af5780630f954e1e1461133a578063137c94d01461117d5780631b21504014611143578063248a9ca31461111457806325246fcf146110905780632f2ff15d14610fdd5780632f30aa4714610f1657806336568abe14610e8457806347e6338014610e5b578063503de9d014610e2f578063589a389d14610dfb5780636518044e14610dca57806391d1485414610d7d57806393a7021414610d04578063a217fddf14610ce8578063a3c7b6ce14610a51578063ab6ad7fe1461093c578063ab95a7481461091e578063b1055144146103a1578063c22b658c146102aa578063cc38b4771461020a578063cd1d81ff146101ec578063d547741f146101ab578063e7705db6146101825763f1c3753a1461014f57600080fd5b3461017d57602036600319011261017d57602061017261016d61185e565b611fca565b60ff60405191168152f35b600080fd5b3461017d57600036600319011261017d5760206040516000805160206126ab8339815191528152f35b3461017d57604036600319011261017d576101ea6004356101ca611874565b908060005260006020526101e5600160406000200154611b46565b611cdb565b005b3461017d57600036600319011261017d576020600b54604051908152f35b3461017d57604036600319011261017d5761022361185e565b6001600160a01b031660009081526006602052604090208054602435919082101561017d5760e09161025491611b14565b5080549060018101549061029e6002820154600383015460ff600485015416916006600586015495015495604051978852602088015260408701526060860152608085019061188a565b60a083015260c0820152f35b3461017d57602036600319011261017d5760206001600160a01b03806102ce61185e565b166000526003825260406000208054916001820154166102f060028301611a3c565b9160038101549260048201546005830154600684015460078501549160088601549360ff6103498160098a01541697600b600a8b01549a01549a6040519e8f9e8f908152015260408d6101c091829101528d0190611ae2565b9961035960608d01838316611b07565b818160081c1660808d015260101c1660a08b015260c08a015260e089015261010088015261012087015261014086015215156101608501526101808401526101a08301520390f35b3461017d57606036600319011261017d576103ba61185e565b6024356001600160401b03811161017d573660238201121561017d576001600160401b0360048201351161017d5736602482600401358301011161017d57600b604435101561017d576001600160a01b038216156108de576001600160a01b03821660009081526003602052604090205461089b5760405181600401356024830182376005600483013582019081528190036020019020546001600160a01b031661085957600b549061046c82611e7c565b600b556040519261047c84611940565b61012c84526101f460208501526107d06080610320958660408201526104b0606082015201526104ad6044356118f0565b548481810204810361084357606490604051956104c987611924565b8587526001600160a01b03841660208801526104ed36600487013560248801611999565b604088015261050160443560608901611e8b565b60326080880152600360a0880152600060c0880152600060e088015260006101008801526000610120880152600061014088015260006101608801524261018088015202046101a085015260018060a01b03811660005260036020526040600020918451835560018060a01b0360208601511660018060a01b0319600185015416176001840155604085015180519060018060401b03821161082d5781906105ac6002870154611a02565b601f81116107da575b50602090601f831160011461076d57600092610762575b50508160011b916000199060031b1c19161760028401555b606085015192600b84101561074c57600b6101a06020976106308897600386019060ff8019835416911617815561062260ff60808501511682611e97565b60ff60a08401511690611ead565b60c0810151600485015560e081015160058501556101008101516006850155610120810151600785015561014081015160088501556106856101608201511515600986019060ff801983541691151516179055565b610180810151600a85015501519101556000838152600480875260409182902080546001600160a01b0319166001600160a01b038616179055905191869183919081013560248201833760056004919091013582019081520301902080546001600160a01b0319166001600160a01b03831690811790915561070690611ec5565b507fff4d3d176f19cf4da51626846023be00c8437e0f567a6dceac1a0f09dcd855c9846040519261073984604435611b07565b6001600160a01b031692a3604051908152f35b634e487b7160e01b600052602160045260246000fd5b0151905087806105cc565b600287016000908152602081209350601f198516905b8181106107c257509084600195949392106107a9575b505050811b0160028401556105e4565b015160001960f88460031b161c19169055878080610799565b92936020600181928786015181550195019301610783565b909150600286016000526020600020601f840160051c810160208510610826575b90849392915b601f830160051c820181106108175750506105b5565b60008155859450600101610801565b50806107fb565b634e487b7160e01b600052604160045260246000fd5b634e487b7160e01b600052601160045260246000fd5b60405162461bcd60e51b815260206004820152601a602482015279427573696e65737320494420616c72656164792065786973747360301b6044820152606490fd5b60405162461bcd60e51b815260206004820152601b60248201527a109d5cda5b995cdcc8185b1c9958591e481c9959da5cdd195c9959602a1b6044820152606490fd5b60405162461bcd60e51b8152602060048201526018602482015277496e76616c696420627573696e657373206164647265737360401b6044820152606490fd5b3461017d57600036600319011261017d576020600954604051908152f35b3461017d57602036600319011261017d5760606001600160a01b038061096061185e565b1680600052600360205261097a6040600020541515611f4b565b60005260036020526101a060406000206040519261099784611924565b8154845260018201541660208401526109b260028201611a3c565b60408401526003810154926109cc60ff8516868301611e8b565b600b60ff808660081c169586608085015260101c16928360a0840152600481015460c0840152600581015460e084015260068101546101008401526007810154610120840152600881015461014084015260ff6009820154161515610160840152600a8101546101808401520154928391015260405192835260208301526040820152f35b3461017d57604036600319011261017d57610a6a61185e565b60248035918215159081840361017d573360009081527f1da0b5176dfe03406af5a6eed66ca01dda9b45ac4da671c3fa379cb93717ef8160209081526040909120549093906000805160206126ab8339815191529060ff1615610b3a57857fa3ce0f8b75d9bfdb1e275c3fc980bb233818a774ea2de83d2909fa3ff7c6be268686610b318760018060a01b0316948560005260038452610b106040600020541515611f4b565b856000526003845260096040600020019060ff801983541691151516179055565b604051908152a2005b8490610b4533611d80565b90604051610b528161195b565b60428152838101916060368437815115610cd357603083538151600190811015610cbe57607860218401536041905b808211610c50575050610c20576048610c1c93610bf193610c009360405195869360008051602061264b8339815191528a860152610bc8815180928c6037890191016119df565b8401917001034b99036b4b9b9b4b733903937b6329607d1b6037840152518093868401906119df565b01036028810184520182611976565b60405193849362461bcd60e51b85526004850152830190611ae2565b0390fd5b606485856040519162461bcd60e51b835281600484015282015260008051602061260b8339815191526044820152fd5b9091600f81166010811015610ca9576f181899199a1a9b1b9c1cb0b131b232b360811b901a610c7f8486611d6f565b5360041c918015610c94576000190190610b81565b87634e487b7160e01b60005260116004526000fd5b88634e487b7160e01b60005260326004526000fd5b86634e487b7160e01b60005260326004526000fd5b85634e487b7160e01b60005260326004526000fd5b3461017d57600036600319011261017d57602060405160008152f35b3461017d57602036600319011261017d576004356001600160401b03811161017d573660238201121561017d57610d476020913690602481600401359101611999565b81610d5b60405192838151938492016119df565b600590820190815281900382019020546040516001600160a01b039091168152f35b3461017d57604036600319011261017d57610d96611874565b600435600052600060205260406000209060018060a01b0316600052602052602060ff604060002054166040519015158152f35b3461017d57602036600319011261017d57600435600b81101561017d57610df26020916118f0565b54604051908152f35b3461017d57602036600319011261017d5760ff610e166118e0565b1660005260086020526020604060002054604051908152f35b3461017d57602036600319011261017d5760043560005260076020526020604060002054604051908152f35b3461017d57600036600319011261017d57602060405160008051602061266b8339815191528152f35b3461017d57604036600319011261017d57610e9d611874565b336001600160a01b03821603610eb9576101ea90600435611cdb565b60405162461bcd60e51b815260206004820152602f60248201527f416363657373436f6e74726f6c3a2063616e206f6e6c792072656e6f756e636560448201526e103937b632b9903337b91039b2b63360891b6064820152608490fd5b3461017d57604036600319011261017d57610f2f61185e565b60243590610f3b612427565b5060018060a01b031690816000526003602052610f5e6040600020541515611f4b565b816000526006602052604060002054811015610fa557610f90610f969160e09360005260066020526040600020611b14565b50612473565b610fa36040518092611897565bf35b60405162461bcd60e51b815260206004820152601060248201526f149958dbdc99081b9bdd08199bdd5b9960821b6044820152606490fd5b3461017d57604036600319011261017d57600435610ff9611874565b816000526000602052611013600160406000200154611b46565b81600052600060205260406000209060018060a01b0316908160005260205260ff604060002054161561104257005b8160005260006020526040600020816000526020526040600020600160ff1982541617905533917f2f8788117e7eff1d82e926ec794901d17c78024a50270940304540a733656f0d600080a4005b3461017d57602036600319011261017d576004356009548110156110d957600960005260008051602061268b83398151915201546040516001600160a01b039091168152602090f35b60405162461bcd60e51b8152602060048201526013602482015272496e646578206f7574206f6620626f756e647360681b6044820152606490fd5b3461017d57602036600319011261017d5760043560005260006020526020600160406000200154604051908152f35b3461017d57604036600319011261017d5761115c6118e0565b60243590600b82101561017d5760209161117591612349565b604051908152f35b3461017d57604036600319011261017d57600435600b81101561017d573360009081527fad3228b676f7d3cd4284a5443f17f1962b36e491b30a40b2405849e597ba5fb56020908152604090912054602480359160ff1615611268578115158061125d575b1561121f575090817f4e085230c6eab40695e1caea859cc0914709e55a21b084c0252798901442379b92611215856118f0565b55604051908152a2005b8260186064926040519262461bcd60e51b8452600484015282015277496e76616c6964206d756c7469706c6965722072616e676560401b6044820152fd5b5060c88211156111e2565b8261127233611d80565b60006040516112808161195b565b60428152838101916060368437815115610cd357603083538151600190811015610cbe57607860218401536041905b8082116112f6575050610c20576048610c1c93610bf193610c009360405195869360008051602061264b8339815191528a860152610bc8815180928c6037890191016119df565b9091600f81166010811015610ca9576f181899199a1a9b1b9c1cb0b131b232b360811b901a6113258486611d6f565b5360041c918015610c945760001901906112af565b3461017d57606036600319011261017d5761136361135661185e565b60443590602435906124cd565b6040516020918282018383528151809152836040840192019360005b82811061138c5784840385f35b9091928260e0826113a06001948a51611897565b0196019101949291909461137f565b3461017d57602036600319011261017d576004356000526004602052602060018060a01b0360406000205416604051908152f35b3461017d57602036600319011261017d5760043563ffffffff60e01b811680910361017d57602090637965db0b60e01b8114908115611428575b506040519015158152f35b6301ffc9a760e01b1490508261141d565b3461017d5760a036600319011261017d5761145261185e565b60248035916044356064359060843592600584101561017d573360009081527f738678fe42df6a4211eb7628ac9b056229141839eb4f4ef4cc249f1d36e8c921602090815260409091205490929060008051602061266b8339815191529060ff161561178b575060018060a01b0382169586600052600384526114db6040600020541515611f4b565b600094828111611774575b8760005260068552604060002054906040519161150283611909565b8252858201908a82526040830194855260608301908152608083016115278a82611fbe565b60a084019089825260c08501924284528c60005260068a526040600020978854600160401b81101561175f576115649060019a8b82018155611b14565b96909661174a5787518755518987015551600286015551600385015560048401905160058110156117355790600693929160ff801983541691161790555160058401555191015551886000526007855260406000205586600052600384526040600020600481018054908482018092116117205755866116365760050190815492830180931161162257506040949260008051602061262b83398151915296949261160f9255611fca565b5061161c8451809461188a565b820152a3005b634e487b7160e01b60009081526011600452fd5b60008388148015611713575b156116b457506006810180549384019283851161162257509560008051602061262b83398151915297959383600883979461160f9660409b550191825480156000146116915750505055611fca565b936116a36116a8926116ad9596611d4f565b611d62565b611f9e565b9055611fca565b6116fe57600387146116e1575b5050509160008051602061262b833981519152939161160f604094611fca565b6007019081549283018093116116225750558161160f60406116c1565b50634e487b7160e01b60009081526021600452fd5b5050600060028814611642565b83634e487b7160e01b60005260116004526000fd5b86634e487b7160e01b60005260216004526000fd5b88634e487b7160e01b60005260006004526000fd5b88634e487b7160e01b60005260416004526000fd5b9450620151806117848387611f91565b04946114e6565b83879161179733611d80565b906040516117a48161195b565b60428152838101916060368437815115610cd357603083538151600190811015610cbe57607860218401536041905b80821161181a575050610c20576048610c1c93610bf193610c009360405195869360008051602061264b8339815191528a860152610bc8815180928c6037890191016119df565b9091600f81166010811015610ca9576f181899199a1a9b1b9c1cb0b131b232b360811b901a6118498486611d6f565b5360041c918015610c945760001901906117d3565b600435906001600160a01b038216820361017d57565b602435906001600160a01b038216820361017d57565b90600582101561074c5752565b60c08091805184526020810151602085015260408101516040850152606081015160608501526118cf6080820151608086019061188a565b60a081015160a08501520151910152565b6004359060ff8216820361017d57565b600b81101561074c576000526002602052604060002090565b60e081019081106001600160401b0382111761082d57604052565b6101c081019081106001600160401b0382111761082d57604052565b60a081019081106001600160401b0382111761082d57604052565b608081019081106001600160401b0382111761082d57604052565b601f909101601f19168101906001600160401b0382119082101761082d57604052565b9192916001600160401b03821161082d57604051916119c2601f8201601f191660200184611976565b82948184528183011161017d578281602093846000960137010152565b60005b8381106119f25750506000910152565b81810151838201526020016119e2565b90600182811c92168015611a32575b6020831014611a1c57565b634e487b7160e01b600052602260045260246000fd5b91607f1691611a11565b9060405191826000825492611a5084611a02565b908184526001948581169081600014611abf5750600114611a7c575b5050611a7a92500383611976565b565b9093915060005260209081600020936000915b818310611aa7575050611a7a93508201013880611a6c565b85548884018501529485019487945091830191611a8f565b915050611a7a94506020925060ff191682840152151560051b8201013880611a6c565b90602091611afb815180928185528580860191016119df565b601f01601f1916010190565b90600b82101561074c5752565b8054821015611b30576000526007602060002091020190600090565b634e487b7160e01b600052603260045260246000fd5b600090808252602090828252604092838120338252835260ff848220541615611b6f5750505050565b611b7833611d80565b91845190611b858261195b565b60428252848201926060368537825115611cc75760308453825190600191821015611cc75790607860218501536041915b818311611c5957505050611c29576048610c1c938693611c0d93611bfe985198899360008051602061264b8339815191528a860152610bc8815180928c6037890191016119df565b01036028810187520185611976565b5192839262461bcd60e51b845260048401526024830190611ae2565b60648486519062461bcd60e51b8252806004830152602482015260008051602061260b8339815191526044820152fd5b909192600f81166010811015611cb3576f181899199a1a9b1b9c1cb0b131b232b360811b901a611c898587611d6f565b5360041c928015611c9f57600019019190611bb6565b634e487b7160e01b82526011600452602482fd5b634e487b7160e01b83526032600452602483fd5b634e487b7160e01b81526032600452602490fd5b9060009180835282602052604083209160018060a01b03169182845260205260ff604084205416611d0b57505050565b80835282602052604083208284526020526040832060ff1981541690557ff6391f5c32d9c69d2a47ea670b442974b53935d1edc7fd64eb21e047a839171b339380a4565b8181029291811591840414171561084357565b9190820180921161084357565b908151811015611b30570160200190565b60405190606082016001600160401b0381118382101761082d57604052602a8252602082016040368237825115611b3057603090538151600190811015611b3057607860218401536029905b808211611e0e575050611ddc5790565b606460405162461bcd60e51b8152602060048201526020602482015260008051602061260b8339815191526044820152fd5b9091600f81166010811015611e67576f181899199a1a9b1b9c1cb0b131b232b360811b901a611e3d8486611d6f565b5360041c918015611e52576000190190611dcc565b60246000634e487b7160e01b81526011600452fd5b60246000634e487b7160e01b81526032600452fd5b60001981146108435760010190565b600b82101561074c5752565b9061ff0082549160081b169061ff001916179055565b9062ff000082549160101b169062ff00001916179055565b6000818152600a6020526040812054611f4657600954600160401b811015611f32576001810180600955811015611f1e5760008051602061268b83398151915201829055600954918152600a6020526040902055600190565b634e487b7160e01b82526032600452602482fd5b634e487b7160e01b82526041600452602482fd5b905090565b15611f5257565b60405162461bcd60e51b8152602060048201526017602482015276109d5cda5b995cdcc81b9bdd081c9959da5cdd195c9959604a1b6044820152606490fd5b9190820391821161084357565b8115611fa8570490565b634e487b7160e01b600052601260045260246000fd5b600582101561074c5752565b6001600160a01b0316600081815260036020526040812054909190611ff0901515611f4b565b8082526003602052604082206003810180549060ff91828160081c1693600480820154801561233d57600593848401549160649283810290808204851490151715612204578161203f91611f9e565b91836007870154801580156122f0575b5050898592600889015480158015612272575b50509061206f91166118f0565b5485811161224f575084925b6014811061223d575084935b60238102908082046023149015171561222a57601e820291808304601e149015171561222a57906120b791611d62565b60148202918083046014149015171561221757906120d491611d62565b600a820291808304600a149015171561220457906120f191611d62565b858202918083048714901517156121f15791878161213860609a9896947f4f8ac23fe70d2ffc0085ab7573c34ab3270473d47da336eee668ff6caafe72889c9a9896611d62565b04828111156121e8575050995b61214f8b86611e97565b5042600a83015589851692605a8410612198575050600b612180856001955b6121788782611ead565b541685612349565b9101556040519384526020840152166040820152a290565b604b84106121b0575050600b6121808560029561216e565b85603285106121ca57600b9250612180915060039561216e565b600b9261218092601987106121e057509561216e565b90509561216e565b169a9050612145565b634e487b7160e01b8b526011845260248bfd5b634e487b7160e01b8c526011855260248cfd5b634e487b7160e01b8d526011865260248dfd5b634e487b7160e01b8e526011875260248efd5b888102908104890361222a5793612087565b801561225f57612710049261207b565b634e487b7160e01b8e526012875260248efd5b9194509150600782116122a5578982029182048a14171561222a57850385811161222a578a61206f91935b909138612062565b50601e81116122e357600619810190811161222a578060011b908082046002149015171561222a576041036041811161222a578a61206f919361229d565b5061206f8a600f9361229d565b868202925090820486141715612217578261230a91611f9e565b60328111612336578060011b9080820460021490151715612217578403848111612217575b388061204f565b508b61232f565b50505050505091505090565b60ff6040519161235883611940565b61012c83526101f4602084015261032060408401526104b060608401526107d0608084015216600181101580612405575b156123cb57600019019160ff831161084357600560ff84161015611b30576123c06123c792611fe060649560051b160151916118f0565b5490611d4f565b0490565b60405162461bcd60e51b8152602060048201526012602482015271125b9d985b1a59081c9a5cdac81b195d995b60721b6044820152606490fd5b506005811115612389565b6001600160401b03811161082d5760051b60200190565b6040519061243482611909565b8160c06000918281528260208201528260408201528260608201528260808201528260a08201520152565b8051821015611b305760209160051b010190565b9060405161248081611909565b60c060068294805484526001810154602085015260028101546040850152600381015460608501526124bc60ff60048301541660808601611fbe565b600581015460a08501520154910152565b91909160018060a01b0316916000838152602090600382526040916124f6838320541515611f4b565b85825260069081815283832054808610156125d157806125168888611d62565b116125bd575b5061252686612410565b9661253385519889611976565b868852601f1961254288612410565b0182855b8281106125a757505050835b87811061256457505050505050505090565b6125a290828652848452612587610f90888820612581848c611d62565b90611b14565b612591828c61245f565b5261259c818b61245f565b50611e7c565b612552565b6125af612427565b82828d010152018390612546565b6125ca9196508590611f91565b943861251c565b508351965091945050840191506001600160401b038211848310176125f65752815290565b634e487b7160e01b83526041600452602483fdfe537472696e67733a20686578206c656e67746820696e73756666696369656e7434989bb0945d28de587f9e906cd19387106c0c6be48374b981f749524d6ef8c1416363657373436f6e74726f6c3a206163636f756e742000000000000000000073e573f9566d61418a34d5de3ff49360f9c51fec37f7486551670290f6285dab6e1540171b6c0c960b71a7020d9f60077f6af931a8bbf590da0223dacf75c7af0ce23c3e399818cfee81a7ab0880f714e53d7672b08df0fa62f2843416e1ea09a2646970667358221220c885a1ae43538ec083c80485b265394ce772c8f011b5f4199df95ae1f277448264736f6c634300081400332f8788117e7eff1d82e926ec794901d17c78024a50270940304540a733656f0d",
  "linkReferences": {},
  "deployedLinkReferences": {}
}